{
  "contractName": "HumanConverter",
  "abi": [
    {
      "inputs": [],
      "stateMutability": "nonpayable",
      "type": "constructor"
    },
    {
      "anonymous": false,
      "inputs": [
        {
          "indexed": false,
          "internalType": "address",
          "name": "converter",
          "type": "address"
        }
      ],
      "name": "AddConverter",
      "type": "event"
    },
    {
      "anonymous": false,
      "inputs": [
        {
          "components": [
            {
              "internalType": "address",
              "name": "client",
              "type": "address"
            },
            {
              "internalType": "address",
              "name": "converter",
              "type": "address"
            },
            {
              "internalType": "string",
              "name": "sourceUri",
              "type": "string"
            },
            {
              "internalType": "string",
              "name": "humanNumber",
              "type": "string"
            },
            {
              "internalType": "string",
              "name": "resultUri",
              "type": "string"
            },
            {
              "internalType": "enum HumanConverter.STATUS",
              "name": "status",
              "type": "uint8"
            },
            {
              "internalType": "uint256",
              "name": "tokenId",
              "type": "uint256"
            },
            {
              "internalType": "uint256",
              "name": "date",
              "type": "uint256"
            }
          ],
          "indexed": false,
          "internalType": "struct HumanConverter.Request",
          "name": "request",
          "type": "tuple"
        }
      ],
      "name": "AddRequest",
      "type": "event"
    },
    {
      "anonymous": false,
      "inputs": [
        {
          "indexed": false,
          "internalType": "uint256",
          "name": "requestId",
          "type": "uint256"
        }
      ],
      "name": "ConvertComplain",
      "type": "event"
    },
    {
      "anonymous": false,
      "inputs": [
        {
          "indexed": false,
          "internalType": "uint256",
          "name": "requestId",
          "type": "uint256"
        }
      ],
      "name": "ConvertConfirm",
      "type": "event"
    },
    {
      "anonymous": false,
      "inputs": [
        {
          "indexed": false,
          "internalType": "uint256",
          "name": "requestId",
          "type": "uint256"
        },
        {
          "indexed": false,
          "internalType": "address",
          "name": "converter",
          "type": "address"
        }
      ],
      "name": "ConvertStart",
      "type": "event"
    },
    {
      "anonymous": false,
      "inputs": [
        {
          "indexed": false,
          "internalType": "uint256",
          "name": "requestId",
          "type": "uint256"
        },
        {
          "indexed": false,
          "internalType": "string",
          "name": "resultUri",
          "type": "string"
        }
      ],
      "name": "ConvertSuccess",
      "type": "event"
    },
    {
      "anonymous": false,
      "inputs": [
        {
          "indexed": true,
          "internalType": "address",
          "name": "previousOwner",
          "type": "address"
        },
        {
          "indexed": true,
          "internalType": "address",
          "name": "newOwner",
          "type": "address"
        }
      ],
      "name": "OwnershipTransferred",
      "type": "event"
    },
    {
      "anonymous": false,
      "inputs": [
        {
          "indexed": false,
          "internalType": "address",
          "name": "converter",
          "type": "address"
        }
      ],
      "name": "RemoveConverter",
      "type": "event"
    },
    {
      "anonymous": false,
      "inputs": [
        {
          "indexed": false,
          "internalType": "uint256",
          "name": "balance",
          "type": "uint256"
        }
      ],
      "name": "SetConverterFee",
      "type": "event"
    },
    {
      "anonymous": false,
      "inputs": [
        {
          "indexed": false,
          "internalType": "uint256",
          "name": "tokenId",
          "type": "uint256"
        },
        {
          "indexed": false,
          "internalType": "uint256",
          "name": "fee",
          "type": "uint256"
        },
        {
          "indexed": false,
          "internalType": "bool",
          "name": "manual",
          "type": "bool"
        }
      ],
      "name": "Stake",
      "type": "event"
    },
    {
      "anonymous": false,
      "inputs": [
        {
          "indexed": false,
          "internalType": "uint256",
          "name": "tokenId",
          "type": "uint256"
        }
      ],
      "name": "Unstake",
      "type": "event"
    },
    {
      "anonymous": false,
      "inputs": [
        {
          "indexed": false,
          "internalType": "uint256",
          "name": "tokenId",
          "type": "uint256"
        },
        {
          "indexed": false,
          "internalType": "address",
          "name": "user",
          "type": "address"
        },
        {
          "indexed": false,
          "internalType": "uint256",
          "name": "balance",
          "type": "uint256"
        }
      ],
      "name": "Use",
      "type": "event"
    },
    {
      "anonymous": false,
      "inputs": [
        {
          "indexed": false,
          "internalType": "uint256",
          "name": "tokenId",
          "type": "uint256"
        },
        {
          "indexed": false,
          "internalType": "uint256",
          "name": "balance",
          "type": "uint256"
        }
      ],
      "name": "Withdraw",
      "type": "event"
    },
    {
      "anonymous": false,
      "inputs": [
        {
          "indexed": false,
          "internalType": "address",
          "name": "converter",
          "type": "address"
        },
        {
          "indexed": false,
          "internalType": "uint256",
          "name": "balance",
          "type": "uint256"
        }
      ],
      "name": "WithdrawConverter",
      "type": "event"
    },
    {
      "inputs": [
        {
          "internalType": "address",
          "name": "",
          "type": "address"
        }
      ],
      "name": "converter",
      "outputs": [
        {
          "internalType": "uint256",
          "name": "total",
          "type": "uint256"
        },
        {
          "internalType": "uint256",
          "name": "balance",
          "type": "uint256"
        },
        {
          "internalType": "uint256",
          "name": "convertCount",
          "type": "uint256"
        },
        {
          "internalType": "uint256",
          "name": "complainCount",
          "type": "uint256"
        },
        {
          "internalType": "bool",
          "name": "active",
          "type": "bool"
        }
      ],
      "stateMutability": "view",
      "type": "function",
      "constant": true
    },
    {
      "inputs": [],
      "name": "owner",
      "outputs": [
        {
          "internalType": "address",
          "name": "",
          "type": "address"
        }
      ],
      "stateMutability": "view",
      "type": "function",
      "constant": true
    },
    {
      "inputs": [],
      "name": "renounceOwnership",
      "outputs": [],
      "stateMutability": "nonpayable",
      "type": "function"
    },
    {
      "inputs": [
        {
          "internalType": "uint256",
          "name": "",
          "type": "uint256"
        }
      ],
      "name": "requests",
      "outputs": [
        {
          "internalType": "address",
          "name": "client",
          "type": "address"
        },
        {
          "internalType": "address",
          "name": "converter",
          "type": "address"
        },
        {
          "internalType": "string",
          "name": "sourceUri",
          "type": "string"
        },
        {
          "internalType": "string",
          "name": "humanNumber",
          "type": "string"
        },
        {
          "internalType": "string",
          "name": "resultUri",
          "type": "string"
        },
        {
          "internalType": "enum HumanConverter.STATUS",
          "name": "status",
          "type": "uint8"
        },
        {
          "internalType": "uint256",
          "name": "tokenId",
          "type": "uint256"
        },
        {
          "internalType": "uint256",
          "name": "date",
          "type": "uint256"
        }
      ],
      "stateMutability": "view",
      "type": "function",
      "constant": true
    },
    {
      "inputs": [
        {
          "internalType": "uint256",
          "name": "",
          "type": "uint256"
        },
        {
          "internalType": "uint256",
          "name": "",
          "type": "uint256"
        }
      ],
      "name": "requestsOfHuman",
      "outputs": [
        {
          "internalType": "uint256",
          "name": "",
          "type": "uint256"
        }
      ],
      "stateMutability": "view",
      "type": "function",
      "constant": true
    },
    {
      "inputs": [
        {
          "internalType": "address",
          "name": "_address",
          "type": "address"
        }
      ],
      "name": "setHumanERC20",
      "outputs": [],
      "stateMutability": "nonpayable",
      "type": "function"
    },
    {
      "inputs": [
        {
          "internalType": "address",
          "name": "_address",
          "type": "address"
        }
      ],
      "name": "setHumanERC721",
      "outputs": [],
      "stateMutability": "nonpayable",
      "type": "function"
    },
    {
      "inputs": [
        {
          "internalType": "address",
          "name": "_address",
          "type": "address"
        }
      ],
      "name": "setSHumanERC721",
      "outputs": [],
      "stateMutability": "nonpayable",
      "type": "function"
    },
    {
      "inputs": [
        {
          "internalType": "uint256",
          "name": "_tokenId",
          "type": "uint256"
        },
        {
          "internalType": "uint256",
          "name": "fee",
          "type": "uint256"
        },
        {
          "internalType": "bool",
          "name": "manual",
          "type": "bool"
        }
      ],
      "name": "stake",
      "outputs": [],
      "stateMutability": "nonpayable",
      "type": "function"
    },
    {
      "inputs": [
        {
          "internalType": "uint256",
          "name": "",
          "type": "uint256"
        }
      ],
      "name": "stakes",
      "outputs": [
        {
          "internalType": "uint256",
          "name": "fee",
          "type": "uint256"
        },
        {
          "internalType": "uint256",
          "name": "balance",
          "type": "uint256"
        },
        {
          "internalType": "bool",
          "name": "isManual",
          "type": "bool"
        },
        {
          "internalType": "bool",
          "name": "isExist",
          "type": "bool"
        }
      ],
      "stateMutability": "view",
      "type": "function",
      "constant": true
    },
    {
      "inputs": [
        {
          "internalType": "address",
          "name": "newOwner",
          "type": "address"
        }
      ],
      "name": "transferOwnership",
      "outputs": [],
      "stateMutability": "nonpayable",
      "type": "function"
    },
    {
      "inputs": [
        {
          "internalType": "uint256",
          "name": "_tokenId",
          "type": "uint256"
        }
      ],
      "name": "unstake",
      "outputs": [],
      "stateMutability": "nonpayable",
      "type": "function"
    },
    {
      "inputs": [
        {
          "internalType": "uint256",
          "name": "_tokenId",
          "type": "uint256"
        }
      ],
      "name": "use",
      "outputs": [],
      "stateMutability": "nonpayable",
      "type": "function"
    },
    {
      "inputs": [
        {
          "internalType": "uint256",
          "name": "_tokenId",
          "type": "uint256"
        },
        {
          "internalType": "uint256",
          "name": "_balance",
          "type": "uint256"
        }
      ],
      "name": "withdraw",
      "outputs": [],
      "stateMutability": "nonpayable",
      "type": "function"
    },
    {
      "inputs": [
        {
          "internalType": "address",
          "name": "operator",
          "type": "address"
        },
        {
          "internalType": "address",
          "name": "from",
          "type": "address"
        },
        {
          "internalType": "uint256",
          "name": "tokenId",
          "type": "uint256"
        },
        {
          "internalType": "bytes",
          "name": "data",
          "type": "bytes"
        }
      ],
      "name": "onERC721Received",
      "outputs": [
        {
          "internalType": "bytes4",
          "name": "",
          "type": "bytes4"
        }
      ],
      "stateMutability": "nonpayable",
      "type": "function"
    },
    {
      "inputs": [],
      "name": "addConverter",
      "outputs": [],
      "stateMutability": "nonpayable",
      "type": "function"
    },
    {
      "inputs": [
        {
          "internalType": "address",
          "name": "_address",
          "type": "address"
        }
      ],
      "name": "removeConverter",
      "outputs": [],
      "stateMutability": "nonpayable",
      "type": "function"
    },
    {
      "inputs": [
        {
          "internalType": "address",
          "name": "_address",
          "type": "address"
        }
      ],
      "name": "setHumanERC20Staker",
      "outputs": [],
      "stateMutability": "nonpayable",
      "type": "function"
    },
    {
      "inputs": [
        {
          "internalType": "uint256",
          "name": "_balance",
          "type": "uint256"
        }
      ],
      "name": "setConverterFee",
      "outputs": [],
      "stateMutability": "nonpayable",
      "type": "function"
    },
    {
      "inputs": [
        {
          "internalType": "uint256",
          "name": "_balance",
          "type": "uint256"
        }
      ],
      "name": "withdrawConverter",
      "outputs": [],
      "stateMutability": "nonpayable",
      "type": "function"
    },
    {
      "inputs": [
        {
          "internalType": "uint256",
          "name": "_tokenId",
          "type": "uint256"
        },
        {
          "internalType": "string",
          "name": "_sourceUri",
          "type": "string"
        },
        {
          "internalType": "address",
          "name": "_converter",
          "type": "address"
        },
        {
          "internalType": "string",
          "name": "_humanNumber",
          "type": "string"
        }
      ],
      "name": "request",
      "outputs": [],
      "stateMutability": "nonpayable",
      "type": "function"
    },
    {
      "inputs": [
        {
          "internalType": "uint256",
          "name": "_requestId",
          "type": "uint256"
        }
      ],
      "name": "start",
      "outputs": [],
      "stateMutability": "nonpayable",
      "type": "function"
    },
    {
      "inputs": [
        {
          "internalType": "uint256",
          "name": "_requestId",
          "type": "uint256"
        },
        {
          "internalType": "string",
          "name": "_resultUri",
          "type": "string"
        }
      ],
      "name": "success",
      "outputs": [],
      "stateMutability": "nonpayable",
      "type": "function"
    },
    {
      "inputs": [
        {
          "internalType": "uint256",
          "name": "_requestId",
          "type": "uint256"
        }
      ],
      "name": "confirm",
      "outputs": [],
      "stateMutability": "nonpayable",
      "type": "function"
    },
    {
      "inputs": [
        {
          "internalType": "uint256",
          "name": "_requestId",
          "type": "uint256"
        }
      ],
      "name": "complain",
      "outputs": [],
      "stateMutability": "nonpayable",
      "type": "function"
    }
  ],
  "bytecode": "0x60806040523480156200001157600080fd5b5062000032620000266200003860201b60201c565b6200004060201b60201c565b62000104565b600033905090565b60008060009054906101000a900473ffffffffffffffffffffffffffffffffffffffff169050816000806101000a81548173ffffffffffffffffffffffffffffffffffffffff021916908373ffffffffffffffffffffffffffffffffffffffff1602179055508173ffffffffffffffffffffffffffffffffffffffff168173ffffffffffffffffffffffffffffffffffffffff167f8be0079c531659141344cd1fd0a4f28419497f9722a3daafe3b4186f6b6457e060405160405180910390a35050565b61331a80620001146000396000f3fe608060405234801561001057600080fd5b50600436106101735760003560e01c80638fb4529c116100de578063ab5b445611610097578063e3be1b0311610071578063e3be1b0314610400578063ec5a90e71461041c578063f12f77fc1461044c578063f2fde38b1461046857610173565b8063ab5b445614610395578063ba0179b5146103b1578063d5a44f86146103cd57610173565b80638fb4529c146102ed578063905bf0311461030957806395805dad1461032557806395e2360e146103415780639e1188ff1461035d5780639e76a0071461037957610173565b806345dbf1b51161013057806345dbf1b514610222578063561b24631461023e5780636e0b4f901461025a578063715018a61461028e57806381d12c58146102985780638da5cb5b146102cf57610173565b806302a8b3bc14610178578063150b7a0214610182578063284f0923146101b25780632e17de78146101ce57806340a67850146101ea578063441a3e7014610206575b600080fd5b610180610484565b005b61019c6004803603810190610197919061263a565b61068a565b6040516101a991906126fd565b60405180910390f35b6101cc60048036038101906101c79190612718565b61069f565b005b6101e860048036038101906101e39190612718565b61077e565b005b61020460048036038101906101ff9190612745565b610ab6565b005b610220600480360381019061021b9190612772565b610b76565b005b61023c60048036038101906102379190612718565b610d6d565b005b610258600480360381019061025391906127ea565b610e2a565b005b610274600480360381019061026f9190612745565b6110f0565b60405161028595949392919061285b565b60405180910390f35b610296611133565b005b6102b260048036038101906102ad9190612718565b6111bb565b6040516102c69897969594939291906129cd565b60405180910390f35b6102d76113f8565b6040516102e49190612a60565b60405180910390f35b61030760048036038101906103029190612745565b611421565b005b610323600480360381019061031e9190612718565b6114e1565b005b61033f600480360381019061033a9190612718565b611667565b005b61035b60048036038101906103569190612bab565b611893565b005b61037760048036038101906103729190612745565b611cb0565b005b610393600480360381019061038e9190612745565b611d70565b005b6103af60048036038101906103aa9190612718565b611e50565b005b6103cb60048036038101906103c69190612718565b611f70565b005b6103e760048036038101906103e29190612718565b61207c565b6040516103f79493929190612c4a565b60405180910390f35b61041a60048036038101906104159190612c8f565b6120c6565b005b61043660048036038101906104319190612772565b6121d5565b6040516104439190612ceb565b60405180910390f35b61046660048036038101906104619190612745565b612206565b005b610482600480360381019061047d9190612745565b6122c6565b005b6001600760003373ffffffffffffffffffffffffffffffffffffffff1673ffffffffffffffffffffffffffffffffffffffff1681526020019081526020016000206000015410610509576040517f08c379a000000000000000000000000000000000000000000000000000000000815260040161050090612d52565b60405180910390fd5b600460009054906101000a900473ffffffffffffffffffffffffffffffffffffffff1673ffffffffffffffffffffffffffffffffffffffff166323b872dd33600660009054906101000a900473ffffffffffffffffffffffffffffffffffffffff166005546040518463ffffffff1660e01b815260040161058c93929190612d72565b6020604051808303816000875af11580156105ab573d6000803e3d6000fd5b505050506040513d601f19601f820116820180604052508101906105cf9190612dbe565b506040518060a001604052806000815260200160008152602001600081526020016000815260200160011515815250600760003373ffffffffffffffffffffffffffffffffffffffff1673ffffffffffffffffffffffffffffffffffffffff1681526020019081526020016000206000820151816000015560208201518160010155604082015181600201556060820151816003015560808201518160040160006101000a81548160ff021916908315150217905550905050565b600063150b7a0260e01b905095945050505050565b6000600882815481106106b5576106b4612deb565b5b906000526020600020906008020190506001600760008360010160009054906101000a900473ffffffffffffffffffffffffffffffffffffffff1673ffffffffffffffffffffffffffffffffffffffff1673ffffffffffffffffffffffffffffffffffffffff168152602001908152602001600020600301600082825461073c9190612e49565b925050819055507fc9510e6d97e9e9bc944ad9b631a490af0e753c1c6cbf06ced6975630f34a0d73826040516107729190612ceb565b60405180910390a15050565b80600360009054906101000a900473ffffffffffffffffffffffffffffffffffffffff1673ffffffffffffffffffffffffffffffffffffffff16636352211e826040518263ffffffff1660e01b81526004016107da9190612ceb565b602060405180830381865afa1580156107f7573d6000803e3d6000fd5b505050506040513d601f19601f8201168201806040525081019061081b9190612eb4565b73ffffffffffffffffffffffffffffffffffffffff163373ffffffffffffffffffffffffffffffffffffffff161461085257600080fd5b6000600160008481526020019081526020016000209050600460009054906101000a900473ffffffffffffffffffffffffffffffffffffffff1673ffffffffffffffffffffffffffffffffffffffff1663a9059cbb3383600101546040518363ffffffff1660e01b81526004016108ca929190612ee1565b6020604051808303816000875af11580156108e9573d6000803e3d6000fd5b505050506040513d601f19601f8201168201806040525081019061090d9190612dbe565b50600260009054906101000a900473ffffffffffffffffffffffffffffffffffffffff1673ffffffffffffffffffffffffffffffffffffffff166342842e0e3033866040518463ffffffff1660e01b815260040161096d93929190612d72565b600060405180830381600087803b15801561098757600080fd5b505af115801561099b573d6000803e3d6000fd5b50505050600360009054906101000a900473ffffffffffffffffffffffffffffffffffffffff1673ffffffffffffffffffffffffffffffffffffffff166342966c68846040518263ffffffff1660e01b81526004016109fa9190612ceb565b600060405180830381600087803b158015610a1457600080fd5b505af1158015610a28573d6000803e3d6000fd5b505050506001600084815260200190815260200160002060008082016000905560018201600090556002820160006101000a81549060ff02191690556002820160016101000a81549060ff021916905550507ff1f1db1ecefb0a90b3cd6a1903d29374b4a935df69fd25c7fc6ed397d3683c2683604051610aa99190612ceb565b60405180910390a1505050565b610abe6123be565b73ffffffffffffffffffffffffffffffffffffffff16610adc6113f8565b73ffffffffffffffffffffffffffffffffffffffff1614610b32576040517f08c379a0000000000000000000000000000000000000000000000000000000008152600401610b2990612f56565b60405180910390fd5b80600260006101000a81548173ffffffffffffffffffffffffffffffffffffffff021916908373ffffffffffffffffffffffffffffffffffffffff16021790555050565b81600360009054906101000a900473ffffffffffffffffffffffffffffffffffffffff1673ffffffffffffffffffffffffffffffffffffffff16636352211e826040518263ffffffff1660e01b8152600401610bd29190612ceb565b602060405180830381865afa158015610bef573d6000803e3d6000fd5b505050506040513d601f19601f82011682018060405250810190610c139190612eb4565b73ffffffffffffffffffffffffffffffffffffffff163373ffffffffffffffffffffffffffffffffffffffff1614610c4a57600080fd5b60006001600085815260200190815260200160002090508281600101541015610c7257600080fd5b82816001016000828254610c869190612f76565b92505081905550600460009054906101000a900473ffffffffffffffffffffffffffffffffffffffff1673ffffffffffffffffffffffffffffffffffffffff1663a9059cbb33856040518363ffffffff1660e01b8152600401610cea929190612ee1565b6020604051808303816000875af1158015610d09573d6000803e3d6000fd5b505050506040513d601f19601f82011682018060405250810190610d2d9190612dbe565b507f56ca301a9219608c91e7bcee90e083c19671d2cdcc96752c7af291cee5f9c8c88484604051610d5f929190612faa565b60405180910390a150505050565b610d756123be565b73ffffffffffffffffffffffffffffffffffffffff16610d936113f8565b73ffffffffffffffffffffffffffffffffffffffff1614610de9576040517f08c379a0000000000000000000000000000000000000000000000000000000008152600401610de090612f56565b60405180910390fd5b806005819055507fbf7af57d2263d871d51856d7f31c6dcf3fe9125900a235a6dae85121b803a48d81604051610e1f9190612ceb565b60405180910390a150565b82600260009054906101000a900473ffffffffffffffffffffffffffffffffffffffff1673ffffffffffffffffffffffffffffffffffffffff16636352211e826040518263ffffffff1660e01b8152600401610e869190612ceb565b602060405180830381865afa158015610ea3573d6000803e3d6000fd5b505050506040513d601f19601f82011682018060405250810190610ec79190612eb4565b73ffffffffffffffffffffffffffffffffffffffff163373ffffffffffffffffffffffffffffffffffffffff1614610efe57600080fd5b600260009054906101000a900473ffffffffffffffffffffffffffffffffffffffff1673ffffffffffffffffffffffffffffffffffffffff166342842e0e3330876040518463ffffffff1660e01b8152600401610f5d93929190612d72565b600060405180830381600087803b158015610f7757600080fd5b505af1158015610f8b573d6000803e3d6000fd5b5050505060405180608001604052808481526020016000815260200183151581526020016001151581525060016000868152602001908152602001600020600082015181600001556020820151816001015560408201518160020160006101000a81548160ff02191690831515021790555060608201518160020160016101000a81548160ff021916908315150217905550905050600360009054906101000a900473ffffffffffffffffffffffffffffffffffffffff1673ffffffffffffffffffffffffffffffffffffffff1663a144819433866040518363ffffffff1660e01b815260040161107d929190612ee1565b600060405180830381600087803b15801561109757600080fd5b505af11580156110ab573d6000803e3d6000fd5b505050507fa704e351f12b57dc7d7b944f2ab3be36907a92f82c6cb18f383aa72c33f8c9878484846040516110e293929190612fd3565b60405180910390a150505050565b60076020528060005260406000206000915090508060000154908060010154908060020154908060030154908060040160009054906101000a900460ff16905085565b61113b6123be565b73ffffffffffffffffffffffffffffffffffffffff166111596113f8565b73ffffffffffffffffffffffffffffffffffffffff16146111af576040517f08c379a00000000000000000000000000000000000000000000000000000000081526004016111a690612f56565b60405180910390fd5b6111b960006123c6565b565b600881815481106111cb57600080fd5b90600052602060002090600802016000915090508060000160009054906101000a900473ffffffffffffffffffffffffffffffffffffffff16908060010160009054906101000a900473ffffffffffffffffffffffffffffffffffffffff169080600201805461123a90613039565b80601f016020809104026020016040519081016040528092919081815260200182805461126690613039565b80156112b35780601f10611288576101008083540402835291602001916112b3565b820191906000526020600020905b81548152906001019060200180831161129657829003601f168201915b5050505050908060030180546112c890613039565b80601f01602080910402602001604051908101604052809291908181526020018280546112f490613039565b80156113415780601f1061131657610100808354040283529160200191611341565b820191906000526020600020905b81548152906001019060200180831161132457829003601f168201915b50505050509080600401805461135690613039565b80601f016020809104026020016040519081016040528092919081815260200182805461138290613039565b80156113cf5780601f106113a4576101008083540402835291602001916113cf565b820191906000526020600020905b8154815290600101906020018083116113b257829003601f168201915b5050505050908060050160009054906101000a900460ff16908060060154908060070154905088565b60008060009054906101000a900473ffffffffffffffffffffffffffffffffffffffff16905090565b6114296123be565b73ffffffffffffffffffffffffffffffffffffffff166114476113f8565b73ffffffffffffffffffffffffffffffffffffffff161461149d576040517f08c379a000000000000000000000000000000000000000000000000000000000815260040161149490612f56565b60405180910390fd5b80600460006101000a81548173ffffffffffffffffffffffffffffffffffffffff021916908373ffffffffffffffffffffffffffffffffffffffff16021790555050565b80600760003373ffffffffffffffffffffffffffffffffffffffff1673ffffffffffffffffffffffffffffffffffffffff168152602001908152602001600020600101541161152f57600080fd5b80600760003373ffffffffffffffffffffffffffffffffffffffff1673ffffffffffffffffffffffffffffffffffffffff16815260200190815260200160002060010160008282546115819190612f76565b92505081905550600460009054906101000a900473ffffffffffffffffffffffffffffffffffffffff1673ffffffffffffffffffffffffffffffffffffffff166323b872dd3033846040518463ffffffff1660e01b81526004016115e793929190612d72565b6020604051808303816000875af1158015611606573d6000803e3d6000fd5b505050506040513d601f19601f8201168201806040525081019061162a9190612dbe565b507fcc72340b5193e503ff98cb04bceb47a22a85846ab7ab1aafd5a5e0ad75495f1e338260405161165c929190612ee1565b60405180910390a150565b60011515600760003373ffffffffffffffffffffffffffffffffffffffff1673ffffffffffffffffffffffffffffffffffffffff16815260200190815260200160002060040160009054906101000a900460ff161515146116c757600080fd5b6000600882815481106116dd576116dc612deb565b5b906000526020600020906008020190506000600681111561170157611700612956565b5b8160050160009054906101000a900460ff16600681111561172557611724612956565b5b1461172f57600080fd5b600073ffffffffffffffffffffffffffffffffffffffff168160010160009054906101000a900473ffffffffffffffffffffffffffffffffffffffff1673ffffffffffffffffffffffffffffffffffffffff1614806117dd57503373ffffffffffffffffffffffffffffffffffffffff168160010160009054906101000a900473ffffffffffffffffffffffffffffffffffffffff1673ffffffffffffffffffffffffffffffffffffffff16145b6117e657600080fd5b60018160050160006101000a81548160ff0219169083600681111561180e5761180d612956565b5b0217905550338160010160006101000a81548173ffffffffffffffffffffffffffffffffffffffff021916908373ffffffffffffffffffffffffffffffffffffffff1602179055507fd51ca7a8b7bdccc992284cf2432e9ae0380740fd764ea05a2780e811e54bf5f6823360405161188792919061306b565b60405180910390a15050565b600073ffffffffffffffffffffffffffffffffffffffff16600360009054906101000a900473ffffffffffffffffffffffffffffffffffffffff1673ffffffffffffffffffffffffffffffffffffffff16636352211e866040518263ffffffff1660e01b81526004016119069190612ceb565b602060405180830381865afa158015611923573d6000803e3d6000fd5b505050506040513d601f19601f820116820180604052508101906119479190612eb4565b73ffffffffffffffffffffffffffffffffffffffff16146119705761196b84611e50565b611a44565b3373ffffffffffffffffffffffffffffffffffffffff16600260009054906101000a900473ffffffffffffffffffffffffffffffffffffffff1673ffffffffffffffffffffffffffffffffffffffff16636352211e866040518263ffffffff1660e01b81526004016119e29190612ceb565b602060405180830381865afa1580156119ff573d6000803e3d6000fd5b505050506040513d601f19601f82011682018060405250810190611a239190612eb4565b73ffffffffffffffffffffffffffffffffffffffff1614611a4357600080fd5b5b60006040518061010001604052803373ffffffffffffffffffffffffffffffffffffffff1681526020018473ffffffffffffffffffffffffffffffffffffffff16815260200185815260200160405180602001604052806000815250815260200183815260200160006006811115611abf57611abe612956565b5b8152602001868152602001428152509050600881908060018154018082558091505060019003906000526020600020906008020160009091909190915060008201518160000160006101000a81548173ffffffffffffffffffffffffffffffffffffffff021916908373ffffffffffffffffffffffffffffffffffffffff16021790555060208201518160010160006101000a81548173ffffffffffffffffffffffffffffffffffffffff021916908373ffffffffffffffffffffffffffffffffffffffff1602179055506040820151816002019080519060200190611ba692919061248a565b506060820151816003019080519060200190611bc392919061248a565b506080820151816004019080519060200190611be092919061248a565b5060a08201518160050160006101000a81548160ff02191690836006811115611c0c57611c0b612956565b5b021790555060c0820151816006015560e082015181600701555050600960008681526020019081526020016000206001600880549050611c4c9190612f76565b90806001815401808255809150506001900390600052602060002001600090919091909150557fb8ee8d61b3e3018bdbf79b4e2e5d6c38732785b6d8986b009f84da3d936b9ffb81604051611ca191906131c9565b60405180910390a15050505050565b611cb86123be565b73ffffffffffffffffffffffffffffffffffffffff16611cd66113f8565b73ffffffffffffffffffffffffffffffffffffffff1614611d2c576040517f08c379a0000000000000000000000000000000000000000000000000000000008152600401611d2390612f56565b60405180910390fd5b80600360006101000a81548173ffffffffffffffffffffffffffffffffffffffff021916908373ffffffffffffffffffffffffffffffffffffffff16021790555050565b611d786123be565b73ffffffffffffffffffffffffffffffffffffffff16611d966113f8565b73ffffffffffffffffffffffffffffffffffffffff1614611dec576040517f08c379a0000000000000000000000000000000000000000000000000000000008152600401611de390612f56565b60405180910390fd5b6000600760008373ffffffffffffffffffffffffffffffffffffffff1673ffffffffffffffffffffffffffffffffffffffff168152602001908152602001600020905060008160040160006101000a81548160ff0219169083151502179055505050565b6000600160008381526020019081526020016000209050600460009054906101000a900473ffffffffffffffffffffffffffffffffffffffff1673ffffffffffffffffffffffffffffffffffffffff166323b872dd333084600001546040518463ffffffff1660e01b8152600401611eca93929190612d72565b6020604051808303816000875af1158015611ee9573d6000803e3d6000fd5b505050506040513d601f19601f82011682018060405250810190611f0d9190612dbe565b508060000154816001016000828254611f269190612e49565b925050819055507fadd3d3c21c3dc2d229b03bad547c2e7de82af88fa5b935eb3d08fb6de2ad9d4f82338360000154604051611f64939291906131eb565b60405180910390a15050565b600060088281548110611f8657611f85612deb565b5b906000526020600020906008020190506001600760008360010160009054906101000a900473ffffffffffffffffffffffffffffffffffffffff1673ffffffffffffffffffffffffffffffffffffffff1673ffffffffffffffffffffffffffffffffffffffff168152602001908152602001600020600201600082825461200d9190612e49565b9250508190555060068160050160006101000a81548160ff0219169083600681111561203c5761203b612956565b5b02179055507faec1661103a0ad5c6af63ebd6ea2774e76861e5f0ea3ca402e6cb5e22db21e0b826040516120709190612ceb565b60405180910390a15050565b60016020528060005260406000206000915090508060000154908060010154908060020160009054906101000a900460ff16908060020160019054906101000a900460ff16905084565b6000600883815481106120dc576120db612deb565b5b906000526020600020906008020190503373ffffffffffffffffffffffffffffffffffffffff168160010160009054906101000a900473ffffffffffffffffffffffffffffffffffffffff1673ffffffffffffffffffffffffffffffffffffffff161461214857600080fd5b60028160050160006101000a81548160ff021916908360068111156121705761216f612956565b5b02179055508181600401908051906020019061218d92919061248a565b504281600701819055507f4facfce343615d2b7045ca760bd665dcce0fe0091772b4943fd68f256e518c5083836040516121c8929190613222565b60405180910390a1505050565b600960205281600052604060002081815481106121f157600080fd5b90600052602060002001600091509150505481565b61220e6123be565b73ffffffffffffffffffffffffffffffffffffffff1661222c6113f8565b73ffffffffffffffffffffffffffffffffffffffff1614612282576040517f08c379a000000000000000000000000000000000000000000000000000000000815260040161227990612f56565b60405180910390fd5b80600660006101000a81548173ffffffffffffffffffffffffffffffffffffffff021916908373ffffffffffffffffffffffffffffffffffffffff16021790555050565b6122ce6123be565b73ffffffffffffffffffffffffffffffffffffffff166122ec6113f8565b73ffffffffffffffffffffffffffffffffffffffff1614612342576040517f08c379a000000000000000000000000000000000000000000000000000000000815260040161233990612f56565b60405180910390fd5b600073ffffffffffffffffffffffffffffffffffffffff168173ffffffffffffffffffffffffffffffffffffffff1614156123b2576040517f08c379a00000000000000000000000000000000000000000000000000000000081526004016123a9906132c4565b60405180910390fd5b6123bb816123c6565b50565b600033905090565b60008060009054906101000a900473ffffffffffffffffffffffffffffffffffffffff169050816000806101000a81548173ffffffffffffffffffffffffffffffffffffffff021916908373ffffffffffffffffffffffffffffffffffffffff1602179055508173ffffffffffffffffffffffffffffffffffffffff168173ffffffffffffffffffffffffffffffffffffffff167f8be0079c531659141344cd1fd0a4f28419497f9722a3daafe3b4186f6b6457e060405160405180910390a35050565b82805461249690613039565b90600052602060002090601f0160209004810192826124b857600085556124ff565b82601f106124d157805160ff19168380011785556124ff565b828001600101855582156124ff579182015b828111156124fe5782518255916020019190600101906124e3565b5b50905061250c9190612510565b5090565b5b80821115612529576000816000905550600101612511565b5090565b6000604051905090565b600080fd5b600080fd5b600073ffffffffffffffffffffffffffffffffffffffff82169050919050565b600061256c82612541565b9050919050565b61257c81612561565b811461258757600080fd5b50565b60008135905061259981612573565b92915050565b6000819050919050565b6125b28161259f565b81146125bd57600080fd5b50565b6000813590506125cf816125a9565b92915050565b600080fd5b600080fd5b600080fd5b60008083601f8401126125fa576125f96125d5565b5b8235905067ffffffffffffffff811115612617576126166125da565b5b602083019150836001820283011115612633576126326125df565b5b9250929050565b60008060008060006080868803121561265657612655612537565b5b60006126648882890161258a565b95505060206126758882890161258a565b9450506040612686888289016125c0565b935050606086013567ffffffffffffffff8111156126a7576126a661253c565b5b6126b3888289016125e4565b92509250509295509295909350565b60007fffffffff0000000000000000000000000000000000000000000000000000000082169050919050565b6126f7816126c2565b82525050565b600060208201905061271260008301846126ee565b92915050565b60006020828403121561272e5761272d612537565b5b600061273c848285016125c0565b91505092915050565b60006020828403121561275b5761275a612537565b5b60006127698482850161258a565b91505092915050565b6000806040838503121561278957612788612537565b5b6000612797858286016125c0565b92505060206127a8858286016125c0565b9150509250929050565b60008115159050919050565b6127c7816127b2565b81146127d257600080fd5b50565b6000813590506127e4816127be565b92915050565b60008060006060848603121561280357612802612537565b5b6000612811868287016125c0565b9350506020612822868287016125c0565b9250506040612833868287016127d5565b9150509250925092565b6128468161259f565b82525050565b612855816127b2565b82525050565b600060a082019050612870600083018861283d565b61287d602083018761283d565b61288a604083018661283d565b612897606083018561283d565b6128a4608083018461284c565b9695505050505050565b6128b781612561565b82525050565b600081519050919050565b600082825260208201905092915050565b60005b838110156128f75780820151818401526020810190506128dc565b83811115612906576000848401525b50505050565b6000601f19601f8301169050919050565b6000612928826128bd565b61293281856128c8565b93506129428185602086016128d9565b61294b8161290c565b840191505092915050565b7f4e487b7100000000000000000000000000000000000000000000000000000000600052602160045260246000fd5b6007811061299657612995612956565b5b50565b60008190506129a782612985565b919050565b60006129b782612999565b9050919050565b6129c7816129ac565b82525050565b6000610100820190506129e3600083018b6128ae565b6129f0602083018a6128ae565b8181036040830152612a02818961291d565b90508181036060830152612a16818861291d565b90508181036080830152612a2a818761291d565b9050612a3960a08301866129be565b612a4660c083018561283d565b612a5360e083018461283d565b9998505050505050505050565b6000602082019050612a7560008301846128ae565b92915050565b600080fd5b7f4e487b7100000000000000000000000000000000000000000000000000000000600052604160045260246000fd5b612ab88261290c565b810181811067ffffffffffffffff82111715612ad757612ad6612a80565b5b80604052505050565b6000612aea61252d565b9050612af68282612aaf565b919050565b600067ffffffffffffffff821115612b1657612b15612a80565b5b612b1f8261290c565b9050602081019050919050565b82818337600083830152505050565b6000612b4e612b4984612afb565b612ae0565b905082815260208101848484011115612b6a57612b69612a7b565b5b612b75848285612b2c565b509392505050565b600082601f830112612b9257612b916125d5565b5b8135612ba2848260208601612b3b565b91505092915050565b60008060008060808587031215612bc557612bc4612537565b5b6000612bd3878288016125c0565b945050602085013567ffffffffffffffff811115612bf457612bf361253c565b5b612c0087828801612b7d565b9350506040612c118782880161258a565b925050606085013567ffffffffffffffff811115612c3257612c3161253c565b5b612c3e87828801612b7d565b91505092959194509250565b6000608082019050612c5f600083018761283d565b612c6c602083018661283d565b612c79604083018561284c565b612c86606083018461284c565b95945050505050565b60008060408385031215612ca657612ca5612537565b5b6000612cb4858286016125c0565b925050602083013567ffffffffffffffff811115612cd557612cd461253c565b5b612ce185828601612b7d565b9150509250929050565b6000602082019050612d00600083018461283d565b92915050565b7f616c726561647920636f6e766572746572210000000000000000000000000000600082015250565b6000612d3c6012836128c8565b9150612d4782612d06565b602082019050919050565b60006020820190508181036000830152612d6b81612d2f565b9050919050565b6000606082019050612d8760008301866128ae565b612d9460208301856128ae565b612da1604083018461283d565b949350505050565b600081519050612db8816127be565b92915050565b600060208284031215612dd457612dd3612537565b5b6000612de284828501612da9565b91505092915050565b7f4e487b7100000000000000000000000000000000000000000000000000000000600052603260045260246000fd5b7f4e487b7100000000000000000000000000000000000000000000000000000000600052601160045260246000fd5b6000612e548261259f565b9150612e5f8361259f565b9250827fffffffffffffffffffffffffffffffffffffffffffffffffffffffffffffffff03821115612e9457612e93612e1a565b5b828201905092915050565b600081519050612eae81612573565b92915050565b600060208284031215612eca57612ec9612537565b5b6000612ed884828501612e9f565b91505092915050565b6000604082019050612ef660008301856128ae565b612f03602083018461283d565b9392505050565b7f4f776e61626c653a2063616c6c6572206973206e6f7420746865206f776e6572600082015250565b6000612f406020836128c8565b9150612f4b82612f0a565b602082019050919050565b60006020820190508181036000830152612f6f81612f33565b9050919050565b6000612f818261259f565b9150612f8c8361259f565b925082821015612f9f57612f9e612e1a565b5b828203905092915050565b6000604082019050612fbf600083018561283d565b612fcc602083018461283d565b9392505050565b6000606082019050612fe8600083018661283d565b612ff5602083018561283d565b613002604083018461284c565b949350505050565b7f4e487b7100000000000000000000000000000000000000000000000000000000600052602260045260246000fd5b6000600282049050600182168061305157607f821691505b602082108114156130655761306461300a565b5b50919050565b6000604082019050613080600083018561283d565b61308d60208301846128ae565b9392505050565b61309d81612561565b82525050565b600082825260208201905092915050565b60006130bf826128bd565b6130c981856130a3565b93506130d98185602086016128d9565b6130e28161290c565b840191505092915050565b6130f6816129ac565b82525050565b6131058161259f565b82525050565b6000610100830160008301516131246000860182613094565b5060208301516131376020860182613094565b506040830151848203604086015261314f82826130b4565b9150506060830151848203606086015261316982826130b4565b9150506080830151848203608086015261318382826130b4565b91505060a083015161319860a08601826130ed565b5060c08301516131ab60c08601826130fc565b5060e08301516131be60e08601826130fc565b508091505092915050565b600060208201905081810360008301526131e3818461310b565b905092915050565b6000606082019050613200600083018661283d565b61320d60208301856128ae565b61321a604083018461283d565b949350505050565b6000604082019050613237600083018561283d565b8181036020830152613249818461291d565b90509392505050565b7f4f776e61626c653a206e6577206f776e657220697320746865207a65726f206160008201527f6464726573730000000000000000000000000000000000000000000000000000602082015250565b60006132ae6026836128c8565b91506132b982613252565b604082019050919050565b600060208201905081810360008301526132dd816132a1565b905091905056fea2646970667358221220c4c93a2f659c8aa57c9e97f8a97738f90861665585ed4b9e29a3f23273df854664736f6c634300080a0033",
  "immutableReferences": {},
  "source": "pragma solidity >=0.4.22 <0.9.0;\n\nimport \"@openzeppelin/contracts/access/Ownable.sol\";\nimport \"@openzeppelin/contracts/token/ERC721/IERC721Receiver.sol\";\nimport \"./HumanStaker.sol\";\nimport \"./HumanERC20.sol\";\n\n//    .\ncontract HumanConverter is HumanStaker, IERC721Receiver {\n\n  event AddConverter(address converter);\n  event RemoveConverter(address converter);\n  event AddRequest(Request request);\n  event WithdrawConverter(address converter, uint balance);\n  event ConvertStart(uint requestId, address converter);\n  event ConvertSuccess(uint requestId, string resultUri);\n  event ConvertConfirm(uint requestId);\n  event ConvertComplain(uint requestId);\n  event SetConverterFee(uint balance);\n\n  enum STATUS { WAIT, CONVERT, SUCCESS, CANCEL, ERROR, COMPLAIN, END }\n\n  struct Request {\n    address client;\n    address converter;\n    string sourceUri;\n    string humanNumber;\n    string resultUri;\n    STATUS status;\n    uint tokenId;\n    uint date;\n  }\n\n  struct Converter {\n    uint total;\n    uint balance;\n    uint convertCount;\n    uint complainCount;\n    bool active;\n  }\n\n  uint converterFee;\n  address humanERC20StakerAddress;\n  mapping (address => Converter) public converter;\n  Request[] public requests;\n  mapping (uint => uint[]) public requestsOfHuman;\n\n  constructor () {}\n\n  modifier onlyConverter() {\n    require(converter[msg.sender].active == true);\n    _;\n  }\n\n  modifier onlyConverterOf(uint _requestId) {\n    require(requests[_requestId].converter == msg.sender);\n    _;\n  }\n\n  function onERC721Received(\n      address operator,\n      address from,\n      uint256 tokenId,\n      bytes calldata data\n  ) public returns (bytes4) {\n    return IERC721Receiver.onERC721Received.selector;\n  }\n\n  function addConverter() public {\n    require(converter[msg.sender].total < 1, \"already converter!\");\n    humanERC20.transferFrom(msg.sender, humanERC20StakerAddress, converterFee);\n    converter[msg.sender] = Converter(0, 0, 0, 0, true);\n  }\n\n  function removeConverter(address _address) public onlyOwner {\n    Converter storage _converter = converter[_address];\n    _converter.active = false;\n  }\n\n  function setHumanERC20Staker(address _address) public onlyOwner {\n    humanERC20StakerAddress = _address;\n  } \n\n  function setConverterFee(uint _balance) public onlyOwner {\n    converterFee = _balance;\n    emit SetConverterFee(_balance);\n  }\n\n  function withdrawConverter(uint _balance) public {\n    require(converter[msg.sender].balance > _balance);\n    converter[msg.sender].balance -= _balance;\n    humanERC20.transferFrom(address(this), msg.sender, _balance);\n    emit WithdrawConverter(msg.sender, _balance);\n  }\n\n  function request(uint _tokenId, string memory _sourceUri, address _converter, string memory _humanNumber) public {\n    // stakes[_tokenId];\n    // ,   \n    if (shumanERC721.ownerOf(_tokenId) != address(0)) {\n      use(_tokenId);\n    } else {\n      require(humanERC721.ownerOf(_tokenId) == msg.sender);\n    }\n    Request memory _request = Request(msg.sender, _converter, _sourceUri, \"\", _humanNumber, STATUS.WAIT, _tokenId, block.timestamp);\n    requests.push(_request);\n    requestsOfHuman[_tokenId].push(requests.length - 1);\n    emit AddRequest(_request);\n  }\n\n  function start(uint _requestId) public onlyConverter {\n    Request storage _request = requests[_requestId];\n    require(_request.status == STATUS.WAIT);\n    require(_request.converter == address(0) || _request.converter == msg.sender);\n    \n    _request.status = STATUS.CONVERT;\n    _request.converter = msg.sender;\n    emit ConvertStart(_requestId, msg.sender);\n  }\n\n  function success(uint _requestId, string memory _resultUri) public {\n    Request storage _request = requests[_requestId];\n    require(_request.converter == msg.sender);\n\n    _request.status = STATUS.SUCCESS;\n    _request.resultUri = _resultUri;\n    _request.date = block.timestamp;\n    emit ConvertSuccess(_requestId, _resultUri);\n  }\n\n  function confirm(uint _requestId) public {\n    Request storage _request = requests[_requestId];\n    converter[_request.converter].convertCount += 1;\n    _request.status = STATUS.END;\n    emit ConvertConfirm(_requestId);\n  }\n\n  function complain(uint _requestId) public {\n    Request storage _request = requests[_requestId];\n    converter[_request.converter].complainCount += 1;\n    emit ConvertComplain(_requestId);\n  }\n}",
  "sourcePath": "/Users/klleon/workspace/blockchain/vhuman/contracts/HumanConverter.sol",
  "compiler": {
    "name": "solc",
    "version": "0.8.10+commit.fc410830.Emscripten.clang"
  },
  "schemaVersion": "3.4.3",
  "updatedAt": "2021-12-14T15:03:59.252Z",
  "networkType": "ethereum",
  "devdoc": {
    "kind": "dev",
    "methods": {
      "onERC721Received(address,address,uint256,bytes)": {
        "details": "Whenever an {IERC721} `tokenId` token is transferred to this contract via {IERC721-safeTransferFrom} by `operator` from `from`, this function is called. It must return its Solidity selector to confirm the token transfer. If any other value is returned or the interface is not implemented by the recipient, the transfer will be reverted. The selector can be obtained in Solidity with `IERC721.onERC721Received.selector`."
      },
      "owner()": {
        "details": "Returns the address of the current owner."
      },
      "renounceOwnership()": {
        "details": "Leaves the contract without owner. It will not be possible to call `onlyOwner` functions anymore. Can only be called by the current owner. NOTE: Renouncing ownership will leave the contract without an owner, thereby removing any functionality that is only available to the owner."
      },
      "transferOwnership(address)": {
        "details": "Transfers ownership of the contract to a new account (`newOwner`). Can only be called by the current owner."
      }
    },
    "version": 1
  },
  "userdoc": {
    "kind": "user",
    "methods": {},
    "version": 1
  }
}