{
  "contractName": "HumanFactory",
  "abi": [
    {
      "anonymous": false,
      "inputs": [
        {
          "indexed": true,
          "internalType": "address",
          "name": "previousOwner",
          "type": "address"
        },
        {
          "indexed": true,
          "internalType": "address",
          "name": "newOwner",
          "type": "address"
        }
      ],
      "name": "OwnershipTransferred",
      "type": "event"
    },
    {
      "inputs": [
        {
          "internalType": "uint256",
          "name": "",
          "type": "uint256"
        }
      ],
      "name": "humanToOwner",
      "outputs": [
        {
          "internalType": "address",
          "name": "",
          "type": "address"
        }
      ],
      "stateMutability": "view",
      "type": "function"
    },
    {
      "inputs": [
        {
          "internalType": "uint256",
          "name": "",
          "type": "uint256"
        }
      ],
      "name": "humans",
      "outputs": [
        {
          "internalType": "string",
          "name": "name",
          "type": "string"
        },
        {
          "internalType": "string",
          "name": "humanhash",
          "type": "string"
        },
        {
          "internalType": "uint32",
          "name": "changeCount",
          "type": "uint32"
        }
      ],
      "stateMutability": "view",
      "type": "function"
    },
    {
      "inputs": [],
      "name": "owner",
      "outputs": [
        {
          "internalType": "address",
          "name": "",
          "type": "address"
        }
      ],
      "stateMutability": "view",
      "type": "function"
    },
    {
      "inputs": [],
      "name": "renounceOwnership",
      "outputs": [],
      "stateMutability": "nonpayable",
      "type": "function"
    },
    {
      "inputs": [
        {
          "internalType": "address",
          "name": "newOwner",
          "type": "address"
        }
      ],
      "name": "transferOwnership",
      "outputs": [],
      "stateMutability": "nonpayable",
      "type": "function"
    },
    {
      "inputs": [
        {
          "internalType": "string",
          "name": "_name",
          "type": "string"
        },
        {
          "internalType": "string",
          "name": "_humanhash",
          "type": "string"
        }
      ],
      "name": "createHuman",
      "outputs": [],
      "stateMutability": "nonpayable",
      "type": "function"
    }
  ],
  "bytecode": "0x608060405234801561001057600080fd5b5061002d61002261003260201b60201c565b61003a60201b60201c565b6100fe565b600033905090565b60008060009054906101000a900473ffffffffffffffffffffffffffffffffffffffff169050816000806101000a81548173ffffffffffffffffffffffffffffffffffffffff021916908373ffffffffffffffffffffffffffffffffffffffff1602179055508173ffffffffffffffffffffffffffffffffffffffff168173ffffffffffffffffffffffffffffffffffffffff167f8be0079c531659141344cd1fd0a4f28419497f9722a3daafe3b4186f6b6457e060405160405180910390a35050565b610dd28061010d6000396000f3fe608060405234801561001057600080fd5b50600436106100625760003560e01c8063065da15b14610067578063715018a6146100975780638102fced146100a15780638da5cb5b146100d3578063a3239c89146100f1578063f2fde38b1461010d575b600080fd5b610081600480360381019061007c9190610805565b610129565b60405161008e9190610873565b60405180910390f35b61009f61015c565b005b6100bb60048036038101906100b69190610805565b6101e4565b6040516100ca93929190610946565b60405180910390f35b6100db61033e565b6040516100e89190610873565b60405180910390f35b61010b60048036038101906101069190610ac0565b610367565b005b61012760048036038101906101229190610b64565b610554565b005b60026020528060005260406000206000915054906101000a900473ffffffffffffffffffffffffffffffffffffffff1681565b61016461064c565b73ffffffffffffffffffffffffffffffffffffffff1661018261033e565b73ffffffffffffffffffffffffffffffffffffffff16146101d8576040517f08c379a00000000000000000000000000000000000000000000000000000000081526004016101cf90610bdd565b60405180910390fd5b6101e26000610654565b565b600181815481106101f457600080fd5b906000526020600020906003020160009150905080600001805461021790610c2c565b80601f016020809104026020016040519081016040528092919081815260200182805461024390610c2c565b80156102905780601f1061026557610100808354040283529160200191610290565b820191906000526020600020905b81548152906001019060200180831161027357829003601f168201915b5050505050908060010180546102a590610c2c565b80601f01602080910402602001604051908101604052809291908181526020018280546102d190610c2c565b801561031e5780601f106102f35761010080835404028352916020019161031e565b820191906000526020600020905b81548152906001019060200180831161030157829003601f168201915b5050505050908060020160009054906101000a900463ffffffff16905083565b60008060009054906101000a900473ffffffffffffffffffffffffffffffffffffffff16905090565b61036f61064c565b73ffffffffffffffffffffffffffffffffffffffff1661038d61033e565b73ffffffffffffffffffffffffffffffffffffffff16146103e3576040517f08c379a00000000000000000000000000000000000000000000000000000000081526004016103da90610bdd565b60405180910390fd5b60016040518060600160405280848152602001838152602001600063ffffffff168152509080600181540180825580915050600190039060005260206000209060030201600090919091909150600082015181600001908051906020019061044c929190610718565b506020820151816001019080519060200190610469929190610718565b5060408201518160020160006101000a81548163ffffffff021916908363ffffffff16021790555050506000600180805490506104a69190610c8d565b9050600360003373ffffffffffffffffffffffffffffffffffffffff1673ffffffffffffffffffffffffffffffffffffffff16815260200190815260200160002060008154809291906104f890610cc1565b9190505550336002600083815260200190815260200160002060006101000a81548173ffffffffffffffffffffffffffffffffffffffff021916908373ffffffffffffffffffffffffffffffffffffffff160217905550505050565b61055c61064c565b73ffffffffffffffffffffffffffffffffffffffff1661057a61033e565b73ffffffffffffffffffffffffffffffffffffffff16146105d0576040517f08c379a00000000000000000000000000000000000000000000000000000000081526004016105c790610bdd565b60405180910390fd5b600073ffffffffffffffffffffffffffffffffffffffff168173ffffffffffffffffffffffffffffffffffffffff161415610640576040517f08c379a000000000000000000000000000000000000000000000000000000000815260040161063790610d7c565b60405180910390fd5b61064981610654565b50565b600033905090565b60008060009054906101000a900473ffffffffffffffffffffffffffffffffffffffff169050816000806101000a81548173ffffffffffffffffffffffffffffffffffffffff021916908373ffffffffffffffffffffffffffffffffffffffff1602179055508173ffffffffffffffffffffffffffffffffffffffff168173ffffffffffffffffffffffffffffffffffffffff167f8be0079c531659141344cd1fd0a4f28419497f9722a3daafe3b4186f6b6457e060405160405180910390a35050565b82805461072490610c2c565b90600052602060002090601f016020900481019282610746576000855561078d565b82601f1061075f57805160ff191683800117855561078d565b8280016001018555821561078d579182015b8281111561078c578251825591602001919060010190610771565b5b50905061079a919061079e565b5090565b5b808211156107b757600081600090555060010161079f565b5090565b6000604051905090565b600080fd5b600080fd5b6000819050919050565b6107e2816107cf565b81146107ed57600080fd5b50565b6000813590506107ff816107d9565b92915050565b60006020828403121561081b5761081a6107c5565b5b6000610829848285016107f0565b91505092915050565b600073ffffffffffffffffffffffffffffffffffffffff82169050919050565b600061085d82610832565b9050919050565b61086d81610852565b82525050565b60006020820190506108886000830184610864565b92915050565b600081519050919050565b600082825260208201905092915050565b60005b838110156108c85780820151818401526020810190506108ad565b838111156108d7576000848401525b50505050565b6000601f19601f8301169050919050565b60006108f98261088e565b6109038185610899565b93506109138185602086016108aa565b61091c816108dd565b840191505092915050565b600063ffffffff82169050919050565b61094081610927565b82525050565b6000606082019050818103600083015261096081866108ee565b9050818103602083015261097481856108ee565b90506109836040830184610937565b949350505050565b600080fd5b600080fd5b7f4e487b7100000000000000000000000000000000000000000000000000000000600052604160045260246000fd5b6109cd826108dd565b810181811067ffffffffffffffff821117156109ec576109eb610995565b5b80604052505050565b60006109ff6107bb565b9050610a0b82826109c4565b919050565b600067ffffffffffffffff821115610a2b57610a2a610995565b5b610a34826108dd565b9050602081019050919050565b82818337600083830152505050565b6000610a63610a5e84610a10565b6109f5565b905082815260208101848484011115610a7f57610a7e610990565b5b610a8a848285610a41565b509392505050565b600082601f830112610aa757610aa661098b565b5b8135610ab7848260208601610a50565b91505092915050565b60008060408385031215610ad757610ad66107c5565b5b600083013567ffffffffffffffff811115610af557610af46107ca565b5b610b0185828601610a92565b925050602083013567ffffffffffffffff811115610b2257610b216107ca565b5b610b2e85828601610a92565b9150509250929050565b610b4181610852565b8114610b4c57600080fd5b50565b600081359050610b5e81610b38565b92915050565b600060208284031215610b7a57610b796107c5565b5b6000610b8884828501610b4f565b91505092915050565b7f4f776e61626c653a2063616c6c6572206973206e6f7420746865206f776e6572600082015250565b6000610bc7602083610899565b9150610bd282610b91565b602082019050919050565b60006020820190508181036000830152610bf681610bba565b9050919050565b7f4e487b7100000000000000000000000000000000000000000000000000000000600052602260045260246000fd5b60006002820490506001821680610c4457607f821691505b60208210811415610c5857610c57610bfd565b5b50919050565b7f4e487b7100000000000000000000000000000000000000000000000000000000600052601160045260246000fd5b6000610c98826107cf565b9150610ca3836107cf565b925082821015610cb657610cb5610c5e565b5b828203905092915050565b6000610ccc826107cf565b91507fffffffffffffffffffffffffffffffffffffffffffffffffffffffffffffffff821415610cff57610cfe610c5e565b5b600182019050919050565b7f4f776e61626c653a206e6577206f776e657220697320746865207a65726f206160008201527f6464726573730000000000000000000000000000000000000000000000000000602082015250565b6000610d66602683610899565b9150610d7182610d0a565b604082019050919050565b60006020820190508181036000830152610d9581610d59565b905091905056fea26469706673582212206a0c6dbd223b7017c0e5deee8fb7229defdc95fb653e60e2198f0a034a0abf1d64736f6c634300080a0033",
  "immutableReferences": {},
  "source": "pragma solidity >=0.4.22 <0.9.0;\n\nimport \"@openzeppelin/contracts/access/Ownable.sol\";\n\ncontract HumanFactory is Ownable {\n  \n  Human[] public humans;\n\n  struct Human {\n    string name;\n    string humanhash;\n    uint32 changeCount;\n  }\n\n  mapping (uint => address) public humanToOwner;\n  mapping (address => uint) ownerHumanCount;\n\n  function createHuman(string memory _name, string memory _humanhash) public onlyOwner {\n    humans.push(Human(_name, _humanhash, 0));\n    uint id = humans.length - 1;\n    ownerHumanCount[msg.sender]++;\n    humanToOwner[id] = msg.sender;\n  }\n}",
  "sourcePath": "/Users/klleon/workspace/blockchain/vhuman/contracts/HumanFactory.sol",
  "compiler": {
    "name": "solc",
    "version": "0.8.10+commit.fc410830.Emscripten.clang"
  },
  "schemaVersion": "3.4.3",
  "updatedAt": "2021-11-22T02:58:01.172Z",
  "devdoc": {
    "kind": "dev",
    "methods": {
      "owner()": {
        "details": "Returns the address of the current owner."
      },
      "renounceOwnership()": {
        "details": "Leaves the contract without owner. It will not be possible to call `onlyOwner` functions anymore. Can only be called by the current owner. NOTE: Renouncing ownership will leave the contract without an owner, thereby removing any functionality that is only available to the owner."
      },
      "transferOwnership(address)": {
        "details": "Transfers ownership of the contract to a new account (`newOwner`). Can only be called by the current owner."
      }
    },
    "version": 1
  },
  "userdoc": {
    "kind": "user",
    "methods": {},
    "version": 1
  }
}