{
  "contractName": "HumanERC20Staker",
  "abi": [
    {
      "anonymous": false,
      "inputs": [
        {
          "indexed": true,
          "internalType": "address",
          "name": "previousOwner",
          "type": "address"
        },
        {
          "indexed": true,
          "internalType": "address",
          "name": "newOwner",
          "type": "address"
        }
      ],
      "name": "OwnershipTransferred",
      "type": "event"
    },
    {
      "anonymous": false,
      "inputs": [
        {
          "indexed": false,
          "internalType": "address",
          "name": "_address",
          "type": "address"
        },
        {
          "indexed": false,
          "internalType": "uint256",
          "name": "balance",
          "type": "uint256"
        }
      ],
      "name": "Stake",
      "type": "event"
    },
    {
      "anonymous": false,
      "inputs": [
        {
          "indexed": false,
          "internalType": "address",
          "name": "_address",
          "type": "address"
        },
        {
          "indexed": false,
          "internalType": "uint256",
          "name": "balance",
          "type": "uint256"
        }
      ],
      "name": "Unstake",
      "type": "event"
    },
    {
      "inputs": [],
      "name": "owner",
      "outputs": [
        {
          "internalType": "address",
          "name": "",
          "type": "address"
        }
      ],
      "stateMutability": "view",
      "type": "function",
      "constant": true
    },
    {
      "inputs": [],
      "name": "renounceOwnership",
      "outputs": [],
      "stateMutability": "nonpayable",
      "type": "function"
    },
    {
      "inputs": [
        {
          "internalType": "address",
          "name": "newOwner",
          "type": "address"
        }
      ],
      "name": "transferOwnership",
      "outputs": [],
      "stateMutability": "nonpayable",
      "type": "function"
    },
    {
      "inputs": [
        {
          "internalType": "address",
          "name": "_address",
          "type": "address"
        }
      ],
      "name": "setHumanERC20",
      "outputs": [],
      "stateMutability": "nonpayable",
      "type": "function"
    },
    {
      "inputs": [
        {
          "internalType": "address",
          "name": "_address",
          "type": "address"
        }
      ],
      "name": "setSHumanERC20",
      "outputs": [],
      "stateMutability": "nonpayable",
      "type": "function"
    },
    {
      "inputs": [
        {
          "internalType": "uint256",
          "name": "balance",
          "type": "uint256"
        }
      ],
      "name": "stake",
      "outputs": [],
      "stateMutability": "nonpayable",
      "type": "function"
    },
    {
      "inputs": [
        {
          "internalType": "uint256",
          "name": "balance",
          "type": "uint256"
        }
      ],
      "name": "unstake",
      "outputs": [],
      "stateMutability": "nonpayable",
      "type": "function"
    }
  ],
  "bytecode": "0x608060405234801561001057600080fd5b5061002d61002261003260201b60201c565b61003a60201b60201c565b6100fe565b600033905090565b60008060009054906101000a900473ffffffffffffffffffffffffffffffffffffffff169050816000806101000a81548173ffffffffffffffffffffffffffffffffffffffff021916908373ffffffffffffffffffffffffffffffffffffffff1602179055508173ffffffffffffffffffffffffffffffffffffffff168173ffffffffffffffffffffffffffffffffffffffff167f8be0079c531659141344cd1fd0a4f28419497f9722a3daafe3b4186f6b6457e060405160405180910390a35050565b6111098061010d6000396000f3fe608060405234801561001057600080fd5b506004361061007d5760003560e01c80638da5cb5b1161005b5780638da5cb5b146100c45780638fb4529c146100e2578063a694fc3a146100fe578063f2fde38b1461011a5761007d565b80632e17de781461008257806365a07fbc1461009e578063715018a6146100ba575b600080fd5b61009c60048036038101906100979190610c72565b610136565b005b6100b860048036038101906100b39190610cfd565b610490565b005b6100c2610550565b005b6100cc6105d8565b6040516100d99190610d39565b60405180910390f35b6100fc60048036038101906100f79190610cfd565b610601565b005b61011860048036038101906101139190610c72565b6106c1565b005b610134600480360381019061012f9190610cfd565b610a73565b005b6000309050600260009054906101000a900473ffffffffffffffffffffffffffffffffffffffff1673ffffffffffffffffffffffffffffffffffffffff166323b872dd3383856040518463ffffffff1660e01b815260040161019a93929190610d63565b6020604051808303816000875af11580156101b9573d6000803e3d6000fd5b505050506040513d601f19601f820116820180604052508101906101dd9190610dd2565b506000600260009054906101000a900473ffffffffffffffffffffffffffffffffffffffff1673ffffffffffffffffffffffffffffffffffffffff166318160ddd6040518163ffffffff1660e01b8152600401602060405180830381865afa15801561024d573d6000803e3d6000fd5b505050506040513d601f19601f820116820180604052508101906102719190610e14565b83600160009054906101000a900473ffffffffffffffffffffffffffffffffffffffff1673ffffffffffffffffffffffffffffffffffffffff166370a08231856040518263ffffffff1660e01b81526004016102cd9190610d39565b602060405180830381865afa1580156102ea573d6000803e3d6000fd5b505050506040513d601f19601f8201168201806040525081019061030e9190610e14565b6103189190610e70565b6103229190610ef9565b9050600260009054906101000a900473ffffffffffffffffffffffffffffffffffffffff1673ffffffffffffffffffffffffffffffffffffffff166342966c68846040518263ffffffff1660e01b815260040161037f9190610f2a565b600060405180830381600087803b15801561039957600080fd5b505af11580156103ad573d6000803e3d6000fd5b50505050600160009054906101000a900473ffffffffffffffffffffffffffffffffffffffff1673ffffffffffffffffffffffffffffffffffffffff1663a9059cbb33836040518363ffffffff1660e01b815260040161040e929190610f45565b6020604051808303816000875af115801561042d573d6000803e3d6000fd5b505050506040513d601f19601f820116820180604052508101906104519190610dd2565b507f85082129d87b2fe11527cb1b3b7a520aeb5aa6913f88a3d8757fe40d1db02fdd3384604051610483929190610f45565b60405180910390a1505050565b610498610b6b565b73ffffffffffffffffffffffffffffffffffffffff166104b66105d8565b73ffffffffffffffffffffffffffffffffffffffff161461050c576040517f08c379a000000000000000000000000000000000000000000000000000000000815260040161050390610fcb565b60405180910390fd5b80600260006101000a81548173ffffffffffffffffffffffffffffffffffffffff021916908373ffffffffffffffffffffffffffffffffffffffff16021790555050565b610558610b6b565b73ffffffffffffffffffffffffffffffffffffffff166105766105d8565b73ffffffffffffffffffffffffffffffffffffffff16146105cc576040517f08c379a00000000000000000000000000000000000000000000000000000000081526004016105c390610fcb565b60405180910390fd5b6105d66000610b73565b565b60008060009054906101000a900473ffffffffffffffffffffffffffffffffffffffff16905090565b610609610b6b565b73ffffffffffffffffffffffffffffffffffffffff166106276105d8565b73ffffffffffffffffffffffffffffffffffffffff161461067d576040517f08c379a000000000000000000000000000000000000000000000000000000000815260040161067490610fcb565b60405180910390fd5b80600160006101000a81548173ffffffffffffffffffffffffffffffffffffffff021916908373ffffffffffffffffffffffffffffffffffffffff16021790555050565b6000309050600160009054906101000a900473ffffffffffffffffffffffffffffffffffffffff1673ffffffffffffffffffffffffffffffffffffffff166323b872dd3383856040518463ffffffff1660e01b815260040161072593929190610d63565b6020604051808303816000875af1158015610744573d6000803e3d6000fd5b505050506040513d601f19601f820116820180604052508101906107689190610dd2565b5081600360003373ffffffffffffffffffffffffffffffffffffffff1673ffffffffffffffffffffffffffffffffffffffff16815260200190815260200160002060008282546107b89190610feb565b92505081905550600080600260009054906101000a900473ffffffffffffffffffffffffffffffffffffffff1673ffffffffffffffffffffffffffffffffffffffff166318160ddd6040518163ffffffff1660e01b8152600401602060405180830381865afa15801561082f573d6000803e3d6000fd5b505050506040513d601f19601f820116820180604052508101906108539190610e14565b1415610861578290506109a6565b600260009054906101000a900473ffffffffffffffffffffffffffffffffffffffff1673ffffffffffffffffffffffffffffffffffffffff166318160ddd6040518163ffffffff1660e01b8152600401602060405180830381865afa1580156108ce573d6000803e3d6000fd5b505050506040513d601f19601f820116820180604052508101906108f29190610e14565b600160009054906101000a900473ffffffffffffffffffffffffffffffffffffffff1673ffffffffffffffffffffffffffffffffffffffff166370a08231846040518263ffffffff1660e01b815260040161094d9190610d39565b602060405180830381865afa15801561096a573d6000803e3d6000fd5b505050506040513d601f19601f8201168201806040525081019061098e9190610e14565b846109999190610ef9565b6109a39190610e70565b90505b600260009054906101000a900473ffffffffffffffffffffffffffffffffffffffff1673ffffffffffffffffffffffffffffffffffffffff166340c10f1933836040518363ffffffff1660e01b8152600401610a03929190610f45565b600060405180830381600087803b158015610a1d57600080fd5b505af1158015610a31573d6000803e3d6000fd5b505050507febedb8b3c678666e7f36970bc8f57abf6d8fa2e828c0da91ea5b75bf68ed101a3384604051610a66929190610f45565b60405180910390a1505050565b610a7b610b6b565b73ffffffffffffffffffffffffffffffffffffffff16610a996105d8565b73ffffffffffffffffffffffffffffffffffffffff1614610aef576040517f08c379a0000000000000000000000000000000000000000000000000000000008152600401610ae690610fcb565b60405180910390fd5b600073ffffffffffffffffffffffffffffffffffffffff168173ffffffffffffffffffffffffffffffffffffffff161415610b5f576040517f08c379a0000000000000000000000000000000000000000000000000000000008152600401610b56906110b3565b60405180910390fd5b610b6881610b73565b50565b600033905090565b60008060009054906101000a900473ffffffffffffffffffffffffffffffffffffffff169050816000806101000a81548173ffffffffffffffffffffffffffffffffffffffff021916908373ffffffffffffffffffffffffffffffffffffffff1602179055508173ffffffffffffffffffffffffffffffffffffffff168173ffffffffffffffffffffffffffffffffffffffff167f8be0079c531659141344cd1fd0a4f28419497f9722a3daafe3b4186f6b6457e060405160405180910390a35050565b600080fd5b6000819050919050565b610c4f81610c3c565b8114610c5a57600080fd5b50565b600081359050610c6c81610c46565b92915050565b600060208284031215610c8857610c87610c37565b5b6000610c9684828501610c5d565b91505092915050565b600073ffffffffffffffffffffffffffffffffffffffff82169050919050565b6000610cca82610c9f565b9050919050565b610cda81610cbf565b8114610ce557600080fd5b50565b600081359050610cf781610cd1565b92915050565b600060208284031215610d1357610d12610c37565b5b6000610d2184828501610ce8565b91505092915050565b610d3381610cbf565b82525050565b6000602082019050610d4e6000830184610d2a565b92915050565b610d5d81610c3c565b82525050565b6000606082019050610d786000830186610d2a565b610d856020830185610d2a565b610d926040830184610d54565b949350505050565b60008115159050919050565b610daf81610d9a565b8114610dba57600080fd5b50565b600081519050610dcc81610da6565b92915050565b600060208284031215610de857610de7610c37565b5b6000610df684828501610dbd565b91505092915050565b600081519050610e0e81610c46565b92915050565b600060208284031215610e2a57610e29610c37565b5b6000610e3884828501610dff565b91505092915050565b7f4e487b7100000000000000000000000000000000000000000000000000000000600052601160045260246000fd5b6000610e7b82610c3c565b9150610e8683610c3c565b9250817fffffffffffffffffffffffffffffffffffffffffffffffffffffffffffffffff0483118215151615610ebf57610ebe610e41565b5b828202905092915050565b7f4e487b7100000000000000000000000000000000000000000000000000000000600052601260045260246000fd5b6000610f0482610c3c565b9150610f0f83610c3c565b925082610f1f57610f1e610eca565b5b828204905092915050565b6000602082019050610f3f6000830184610d54565b92915050565b6000604082019050610f5a6000830185610d2a565b610f676020830184610d54565b9392505050565b600082825260208201905092915050565b7f4f776e61626c653a2063616c6c6572206973206e6f7420746865206f776e6572600082015250565b6000610fb5602083610f6e565b9150610fc082610f7f565b602082019050919050565b60006020820190508181036000830152610fe481610fa8565b9050919050565b6000610ff682610c3c565b915061100183610c3c565b9250827fffffffffffffffffffffffffffffffffffffffffffffffffffffffffffffffff0382111561103657611035610e41565b5b828201905092915050565b7f4f776e61626c653a206e6577206f776e657220697320746865207a65726f206160008201527f6464726573730000000000000000000000000000000000000000000000000000602082015250565b600061109d602683610f6e565b91506110a882611041565b604082019050919050565b600060208201905081810360008301526110cc81611090565b905091905056fea2646970667358221220e9c843322ed0955a1728bde6f3e2f75a60b94a3b3b8b7a622d7e00877472fd7964736f6c634300080a0033",
  "immutableReferences": {},
  "source": "pragma solidity >=0.4.22 <0.9.0;\n\nimport \"@openzeppelin/contracts/access/Ownable.sol\";\nimport \"./HumanERC20.sol\";\nimport \"./SHumanERC20.sol\";\n\ncontract HumanERC20Staker is Ownable {\n\n  event Stake(address _address, uint balance);\n  event Unstake(address _address, uint balance);\n\n  HumanERC20 human;\n  SHumanERC20 shuman;\n  mapping (address => uint) stakes;\n\n  function setHumanERC20 (address _address) public onlyOwner {\n    human = HumanERC20(_address);\n  }\n  \n  function setSHumanERC20 (address _address) public onlyOwner {\n    shuman = SHumanERC20(_address);\n  }\n\n  function stake(uint balance) public {\n    address thisContract = address(this);\n    human.transferFrom(msg.sender, thisContract, balance);\n    stakes[msg.sender] += balance;\n    uint mintBalance;\n    if (shuman.totalSupply() == 0) {\n      mintBalance = balance;\n    } else {\n      mintBalance = balance/human.balanceOf(thisContract)*shuman.totalSupply();\n    }\n    shuman.mint(msg.sender, mintBalance);\n    emit Stake(msg.sender, balance);\n  }\n\n  function unstake(uint balance) public {\n    address thisContract = address(this);\n    shuman.transferFrom(msg.sender, thisContract, balance);\n    uint returnBalance = human.balanceOf(thisContract)*balance/shuman.totalSupply();\n    shuman.burn(balance);\n    human.transfer(msg.sender, returnBalance);\n    emit Unstake(msg.sender, balance);\n  }\n} ",
  "sourcePath": "/Users/klleon/workspace/blockchain/vhuman/contracts/HumanERC20Staker.sol",
  "compiler": {
    "name": "solc",
    "version": "0.8.10+commit.fc410830.Emscripten.clang"
  },
  "schemaVersion": "3.4.3",
  "updatedAt": "2021-12-14T15:03:59.235Z",
  "networkType": "ethereum",
  "devdoc": {
    "kind": "dev",
    "methods": {
      "owner()": {
        "details": "Returns the address of the current owner."
      },
      "renounceOwnership()": {
        "details": "Leaves the contract without owner. It will not be possible to call `onlyOwner` functions anymore. Can only be called by the current owner. NOTE: Renouncing ownership will leave the contract without an owner, thereby removing any functionality that is only available to the owner."
      },
      "transferOwnership(address)": {
        "details": "Transfers ownership of the contract to a new account (`newOwner`). Can only be called by the current owner."
      }
    },
    "version": 1
  },
  "userdoc": {
    "kind": "user",
    "methods": {},
    "version": 1
  }
}