{
  "contractName": "HumanStaker",
  "abi": [
    {
      "inputs": [],
      "stateMutability": "nonpayable",
      "type": "constructor"
    },
    {
      "anonymous": false,
      "inputs": [
        {
          "indexed": true,
          "internalType": "address",
          "name": "previousOwner",
          "type": "address"
        },
        {
          "indexed": true,
          "internalType": "address",
          "name": "newOwner",
          "type": "address"
        }
      ],
      "name": "OwnershipTransferred",
      "type": "event"
    },
    {
      "anonymous": false,
      "inputs": [
        {
          "indexed": false,
          "internalType": "uint256",
          "name": "_tokenId",
          "type": "uint256"
        }
      ],
      "name": "Stake",
      "type": "event"
    },
    {
      "anonymous": false,
      "inputs": [
        {
          "indexed": false,
          "internalType": "uint256",
          "name": "_tokenId",
          "type": "uint256"
        }
      ],
      "name": "Unstake",
      "type": "event"
    },
    {
      "inputs": [],
      "name": "owner",
      "outputs": [
        {
          "internalType": "address",
          "name": "",
          "type": "address"
        }
      ],
      "stateMutability": "view",
      "type": "function"
    },
    {
      "inputs": [],
      "name": "renounceOwnership",
      "outputs": [],
      "stateMutability": "nonpayable",
      "type": "function"
    },
    {
      "inputs": [
        {
          "internalType": "uint256",
          "name": "",
          "type": "uint256"
        }
      ],
      "name": "stakes",
      "outputs": [
        {
          "internalType": "uint256",
          "name": "fee",
          "type": "uint256"
        },
        {
          "internalType": "uint256",
          "name": "price",
          "type": "uint256"
        },
        {
          "internalType": "uint256",
          "name": "balance",
          "type": "uint256"
        },
        {
          "internalType": "bool",
          "name": "isManual",
          "type": "bool"
        },
        {
          "internalType": "bool",
          "name": "isExist",
          "type": "bool"
        }
      ],
      "stateMutability": "view",
      "type": "function"
    },
    {
      "inputs": [
        {
          "internalType": "address",
          "name": "newOwner",
          "type": "address"
        }
      ],
      "name": "transferOwnership",
      "outputs": [],
      "stateMutability": "nonpayable",
      "type": "function"
    },
    {
      "inputs": [
        {
          "internalType": "address",
          "name": "_address",
          "type": "address"
        }
      ],
      "name": "setHumanERC721",
      "outputs": [],
      "stateMutability": "nonpayable",
      "type": "function"
    },
    {
      "inputs": [
        {
          "internalType": "address",
          "name": "_address",
          "type": "address"
        }
      ],
      "name": "setHumanERC20",
      "outputs": [],
      "stateMutability": "nonpayable",
      "type": "function"
    },
    {
      "inputs": [
        {
          "internalType": "uint256",
          "name": "_tokenId",
          "type": "uint256"
        },
        {
          "internalType": "uint256",
          "name": "fee",
          "type": "uint256"
        },
        {
          "internalType": "uint256",
          "name": "price",
          "type": "uint256"
        },
        {
          "internalType": "bool",
          "name": "manual",
          "type": "bool"
        }
      ],
      "name": "stake",
      "outputs": [],
      "stateMutability": "nonpayable",
      "type": "function"
    },
    {
      "inputs": [
        {
          "internalType": "uint256",
          "name": "_tokenId",
          "type": "uint256"
        }
      ],
      "name": "unstake",
      "outputs": [],
      "stateMutability": "nonpayable",
      "type": "function"
    },
    {
      "inputs": [
        {
          "internalType": "uint256",
          "name": "_tokenId",
          "type": "uint256"
        }
      ],
      "name": "use",
      "outputs": [],
      "stateMutability": "nonpayable",
      "type": "function"
    },
    {
      "inputs": [
        {
          "internalType": "uint256",
          "name": "_tokenId",
          "type": "uint256"
        },
        {
          "internalType": "uint256",
          "name": "balance",
          "type": "uint256"
        }
      ],
      "name": "withdraw",
      "outputs": [],
      "stateMutability": "nonpayable",
      "type": "function"
    }
  ],
  "bytecode": "0x608060405234801561001057600080fd5b5061002d61002261003260201b60201c565b61003a60201b60201c565b6100fe565b600033905090565b60008060009054906101000a900473ffffffffffffffffffffffffffffffffffffffff169050816000806101000a81548173ffffffffffffffffffffffffffffffffffffffff021916908373ffffffffffffffffffffffffffffffffffffffff1602179055508173ffffffffffffffffffffffffffffffffffffffff168173ffffffffffffffffffffffffffffffffffffffff167f8be0079c531659141344cd1fd0a4f28419497f9722a3daafe3b4186f6b6457e060405160405180910390a35050565b6113088061010d6000396000f3fe608060405234801561001057600080fd5b506004361061009e5760003560e01c80638fb4529c116100665780638fb4529c1461011f578063ab5b44561461013b578063d19769a514610157578063d5a44f8614610173578063f2fde38b146101a75761009e565b80632e17de78146100a357806340a67850146100bf578063441a3e70146100db578063715018a6146100f75780638da5cb5b14610101575b600080fd5b6100bd60048036038101906100b89190610dd9565b6101c3565b005b6100d960048036038101906100d49190610e64565b610476565b005b6100f560048036038101906100f09190610e91565b610536565b005b6100ff6106f4565b005b61010961077c565b6040516101169190610ee0565b60405180910390f35b61013960048036038101906101349190610e64565b6107a5565b005b61015560048036038101906101509190610dd9565b610865565b005b610171600480360381019061016c9190610f33565b610946565b005b61018d60048036038101906101889190610dd9565b610b8a565b60405161019e959493929190610fb8565b60405180910390f35b6101c160048036038101906101bc9190610e64565b610bda565b005b80600260009054906101000a900473ffffffffffffffffffffffffffffffffffffffff1673ffffffffffffffffffffffffffffffffffffffff16636352211e826040518263ffffffff1660e01b815260040161021f919061100b565b602060405180830381865afa15801561023c573d6000803e3d6000fd5b505050506040513d601f19601f82011682018060405250810190610260919061103b565b73ffffffffffffffffffffffffffffffffffffffff163373ffffffffffffffffffffffffffffffffffffffff161461029757600080fd5b6000600160008481526020019081526020016000209050600360009054906101000a900473ffffffffffffffffffffffffffffffffffffffff1673ffffffffffffffffffffffffffffffffffffffff1663a9059cbb3383600201546040518363ffffffff1660e01b815260040161030f929190611068565b6020604051808303816000875af115801561032e573d6000803e3d6000fd5b505050506040513d601f19601f8201168201806040525081019061035291906110a6565b50600260009054906101000a900473ffffffffffffffffffffffffffffffffffffffff1673ffffffffffffffffffffffffffffffffffffffff166342842e0e3033866040518463ffffffff1660e01b81526004016103b2939291906110d3565b600060405180830381600087803b1580156103cc57600080fd5b505af11580156103e0573d6000803e3d6000fd5b5050505060016000848152602001908152602001600020600080820160009055600182016000905560028201600090556003820160006101000a81549060ff02191690556003820160016101000a81549060ff021916905550507ff1f1db1ecefb0a90b3cd6a1903d29374b4a935df69fd25c7fc6ed397d3683c2683604051610469919061100b565b60405180910390a1505050565b61047e610cd2565b73ffffffffffffffffffffffffffffffffffffffff1661049c61077c565b73ffffffffffffffffffffffffffffffffffffffff16146104f2576040517f08c379a00000000000000000000000000000000000000000000000000000000081526004016104e990611167565b60405180910390fd5b80600260006101000a81548173ffffffffffffffffffffffffffffffffffffffff021916908373ffffffffffffffffffffffffffffffffffffffff16021790555050565b81600260009054906101000a900473ffffffffffffffffffffffffffffffffffffffff1673ffffffffffffffffffffffffffffffffffffffff16636352211e826040518263ffffffff1660e01b8152600401610592919061100b565b602060405180830381865afa1580156105af573d6000803e3d6000fd5b505050506040513d601f19601f820116820180604052508101906105d3919061103b565b73ffffffffffffffffffffffffffffffffffffffff163373ffffffffffffffffffffffffffffffffffffffff161461060a57600080fd5b6000600160008581526020019081526020016000209050828160020154101561063257600080fd5b8281600201600082825461064691906111b6565b92505081905550600360009054906101000a900473ffffffffffffffffffffffffffffffffffffffff1673ffffffffffffffffffffffffffffffffffffffff1663a9059cbb33856040518363ffffffff1660e01b81526004016106aa929190611068565b6020604051808303816000875af11580156106c9573d6000803e3d6000fd5b505050506040513d601f19601f820116820180604052508101906106ed91906110a6565b5050505050565b6106fc610cd2565b73ffffffffffffffffffffffffffffffffffffffff1661071a61077c565b73ffffffffffffffffffffffffffffffffffffffff1614610770576040517f08c379a000000000000000000000000000000000000000000000000000000000815260040161076790611167565b60405180910390fd5b61077a6000610cda565b565b60008060009054906101000a900473ffffffffffffffffffffffffffffffffffffffff16905090565b6107ad610cd2565b73ffffffffffffffffffffffffffffffffffffffff166107cb61077c565b73ffffffffffffffffffffffffffffffffffffffff1614610821576040517f08c379a000000000000000000000000000000000000000000000000000000000815260040161081890611167565b60405180910390fd5b80600360006101000a81548173ffffffffffffffffffffffffffffffffffffffff021916908373ffffffffffffffffffffffffffffffffffffffff16021790555050565b6000600160008381526020019081526020016000209050600360009054906101000a900473ffffffffffffffffffffffffffffffffffffffff1673ffffffffffffffffffffffffffffffffffffffff166323b872dd333084600001546040518463ffffffff1660e01b81526004016108df939291906110d3565b6020604051808303816000875af11580156108fe573d6000803e3d6000fd5b505050506040513d601f19601f8201168201806040525081019061092291906110a6565b50806000015481600201600082825461093b91906111ea565b925050819055505050565b83600260009054906101000a900473ffffffffffffffffffffffffffffffffffffffff1673ffffffffffffffffffffffffffffffffffffffff16636352211e826040518263ffffffff1660e01b81526004016109a2919061100b565b602060405180830381865afa1580156109bf573d6000803e3d6000fd5b505050506040513d601f19601f820116820180604052508101906109e3919061103b565b73ffffffffffffffffffffffffffffffffffffffff163373ffffffffffffffffffffffffffffffffffffffff1614610a1a57600080fd5b600260009054906101000a900473ffffffffffffffffffffffffffffffffffffffff1673ffffffffffffffffffffffffffffffffffffffff166342842e0e3330886040518463ffffffff1660e01b8152600401610a79939291906110d3565b600060405180830381600087803b158015610a9357600080fd5b505af1158015610aa7573d6000803e3d6000fd5b505050506040518060a00160405280858152602001848152602001600081526020018315158152602001600115158152506001600087815260200190815260200160002060008201518160000155602082015181600101556040820151816002015560608201518160030160006101000a81548160ff02191690831515021790555060808201518160030160016101000a81548160ff0219169083151502179055509050507f227a473b70d2f893cc7659219575c030a63b5743024fe1e0c1a680e708b1525a85604051610b7b919061100b565b60405180910390a15050505050565b60016020528060005260406000206000915090508060000154908060010154908060020154908060030160009054906101000a900460ff16908060030160019054906101000a900460ff16905085565b610be2610cd2565b73ffffffffffffffffffffffffffffffffffffffff16610c0061077c565b73ffffffffffffffffffffffffffffffffffffffff1614610c56576040517f08c379a0000000000000000000000000000000000000000000000000000000008152600401610c4d90611167565b60405180910390fd5b600073ffffffffffffffffffffffffffffffffffffffff168173ffffffffffffffffffffffffffffffffffffffff161415610cc6576040517f08c379a0000000000000000000000000000000000000000000000000000000008152600401610cbd906112b2565b60405180910390fd5b610ccf81610cda565b50565b600033905090565b60008060009054906101000a900473ffffffffffffffffffffffffffffffffffffffff169050816000806101000a81548173ffffffffffffffffffffffffffffffffffffffff021916908373ffffffffffffffffffffffffffffffffffffffff1602179055508173ffffffffffffffffffffffffffffffffffffffff168173ffffffffffffffffffffffffffffffffffffffff167f8be0079c531659141344cd1fd0a4f28419497f9722a3daafe3b4186f6b6457e060405160405180910390a35050565b600080fd5b6000819050919050565b610db681610da3565b8114610dc157600080fd5b50565b600081359050610dd381610dad565b92915050565b600060208284031215610def57610dee610d9e565b5b6000610dfd84828501610dc4565b91505092915050565b600073ffffffffffffffffffffffffffffffffffffffff82169050919050565b6000610e3182610e06565b9050919050565b610e4181610e26565b8114610e4c57600080fd5b50565b600081359050610e5e81610e38565b92915050565b600060208284031215610e7a57610e79610d9e565b5b6000610e8884828501610e4f565b91505092915050565b60008060408385031215610ea857610ea7610d9e565b5b6000610eb685828601610dc4565b9250506020610ec785828601610dc4565b9150509250929050565b610eda81610e26565b82525050565b6000602082019050610ef56000830184610ed1565b92915050565b60008115159050919050565b610f1081610efb565b8114610f1b57600080fd5b50565b600081359050610f2d81610f07565b92915050565b60008060008060808587031215610f4d57610f4c610d9e565b5b6000610f5b87828801610dc4565b9450506020610f6c87828801610dc4565b9350506040610f7d87828801610dc4565b9250506060610f8e87828801610f1e565b91505092959194509250565b610fa381610da3565b82525050565b610fb281610efb565b82525050565b600060a082019050610fcd6000830188610f9a565b610fda6020830187610f9a565b610fe76040830186610f9a565b610ff46060830185610fa9565b6110016080830184610fa9565b9695505050505050565b60006020820190506110206000830184610f9a565b92915050565b60008151905061103581610e38565b92915050565b60006020828403121561105157611050610d9e565b5b600061105f84828501611026565b91505092915050565b600060408201905061107d6000830185610ed1565b61108a6020830184610f9a565b9392505050565b6000815190506110a081610f07565b92915050565b6000602082840312156110bc576110bb610d9e565b5b60006110ca84828501611091565b91505092915050565b60006060820190506110e86000830186610ed1565b6110f56020830185610ed1565b6111026040830184610f9a565b949350505050565b600082825260208201905092915050565b7f4f776e61626c653a2063616c6c6572206973206e6f7420746865206f776e6572600082015250565b600061115160208361110a565b915061115c8261111b565b602082019050919050565b6000602082019050818103600083015261118081611144565b9050919050565b7f4e487b7100000000000000000000000000000000000000000000000000000000600052601160045260246000fd5b60006111c182610da3565b91506111cc83610da3565b9250828210156111df576111de611187565b5b828203905092915050565b60006111f582610da3565b915061120083610da3565b9250827fffffffffffffffffffffffffffffffffffffffffffffffffffffffffffffffff0382111561123557611234611187565b5b828201905092915050565b7f4f776e61626c653a206e6577206f776e657220697320746865207a65726f206160008201527f6464726573730000000000000000000000000000000000000000000000000000602082015250565b600061129c60268361110a565b91506112a782611240565b604082019050919050565b600060208201905081810360008301526112cb8161128f565b905091905056fea2646970667358221220ef983230c09f415e7318e45143c47d8494d3405e9e0b03624848407f57cfbf5864736f6c634300080a0033",
  "immutableReferences": {},
  "source": "pragma solidity >=0.4.22 <0.9.0;\n\nimport \"@openzeppelin/contracts/access/Ownable.sol\";\nimport \"@openzeppelin/contracts/token/ERC721/extensions/IERC721Enumerable.sol\";\nimport \"@openzeppelin/contracts/token/ERC721/ERC721.sol\";\nimport \"@openzeppelin/contracts/token/ERC20/ERC20.sol\";\n\ncontract HumanStaker is Ownable {\n\n  event Stake(uint _tokenId);\n  event Unstake(uint _tokenId);\n\n  struct StakingOption {\n    uint fee;\n    uint price;\n    uint balance;\n    bool isManual;\n    bool isExist;\n  }\n\n  mapping (uint => StakingOption) public stakes;\n  ERC721 humanERC721;\n  ERC20 humanERC20;\n\n  constructor () {}\n\n  function setHumanERC721(address _address) public onlyOwner {\n    humanERC721 = ERC721(_address);\n  }\n\n  function setHumanERC20(address _address) public onlyOwner {\n    humanERC20 = ERC20(_address);\n  }\n\n  modifier onlyHumanOwner(uint _tokenId) {\n    require(msg.sender == humanERC721.ownerOf(_tokenId));\n    _;\n  }\n\n  function stake(uint _tokenId, uint fee, uint price, bool manual) public onlyHumanOwner(_tokenId) {\n    //  ?\n    humanERC721.safeTransferFrom(msg.sender, address(this), _tokenId);\n    stakes[_tokenId] = StakingOption(fee, price, 0, manual, true);\n    emit Stake(_tokenId);\n  }\n\n  function unstake(uint _tokenId) public onlyHumanOwner(_tokenId) {\n    StakingOption storage option = stakes[_tokenId];\n    humanERC20.transfer(msg.sender, option.balance);\n    humanERC721.safeTransferFrom(address(this), msg.sender, _tokenId);\n    delete stakes[_tokenId];\n    emit Unstake(_tokenId);\n  }\n\n  function use(uint _tokenId) public {\n    StakingOption storage option = stakes[_tokenId];\n    humanERC20.transferFrom(msg.sender, address(this), option.fee);\n    option.balance += option.fee;\n  }\n\n  function withdraw(uint _tokenId, uint balance) public onlyHumanOwner(_tokenId) {\n    StakingOption storage option = stakes[_tokenId];\n    require(option.balance >= balance);\n    option.balance -= balance;\n    humanERC20.transfer(msg.sender, balance);\n  }\n}",
  "sourcePath": "/Users/weather/workspace/blockchain/vhuman/contracts/HumanStaker.sol",
  "compiler": {
    "name": "solc",
    "version": "0.8.10+commit.fc410830.Emscripten.clang"
  },
  "schemaVersion": "3.4.3",
  "updatedAt": "2021-12-06T04:33:11.276Z",
  "devdoc": {
    "kind": "dev",
    "methods": {
      "owner()": {
        "details": "Returns the address of the current owner."
      },
      "renounceOwnership()": {
        "details": "Leaves the contract without owner. It will not be possible to call `onlyOwner` functions anymore. Can only be called by the current owner. NOTE: Renouncing ownership will leave the contract without an owner, thereby removing any functionality that is only available to the owner."
      },
      "transferOwnership(address)": {
        "details": "Transfers ownership of the contract to a new account (`newOwner`). Can only be called by the current owner."
      }
    },
    "version": 1
  },
  "userdoc": {
    "kind": "user",
    "methods": {},
    "version": 1
  }
}