{
  "contractName": "Human",
  "abi": [
    {
      "inputs": [
        {
          "internalType": "address",
          "name": "_proxyRegistryAddress",
          "type": "address"
        }
      ],
      "stateMutability": "nonpayable",
      "type": "constructor"
    },
    {
      "anonymous": false,
      "inputs": [
        {
          "indexed": true,
          "internalType": "address",
          "name": "owner",
          "type": "address"
        },
        {
          "indexed": true,
          "internalType": "address",
          "name": "approved",
          "type": "address"
        },
        {
          "indexed": true,
          "internalType": "uint256",
          "name": "tokenId",
          "type": "uint256"
        }
      ],
      "name": "Approval",
      "type": "event"
    },
    {
      "anonymous": false,
      "inputs": [
        {
          "indexed": true,
          "internalType": "address",
          "name": "owner",
          "type": "address"
        },
        {
          "indexed": true,
          "internalType": "address",
          "name": "operator",
          "type": "address"
        },
        {
          "indexed": false,
          "internalType": "bool",
          "name": "approved",
          "type": "bool"
        }
      ],
      "name": "ApprovalForAll",
      "type": "event"
    },
    {
      "anonymous": false,
      "inputs": [
        {
          "indexed": false,
          "internalType": "address",
          "name": "userAddress",
          "type": "address"
        },
        {
          "indexed": false,
          "internalType": "address payable",
          "name": "relayerAddress",
          "type": "address"
        },
        {
          "indexed": false,
          "internalType": "bytes",
          "name": "functionSignature",
          "type": "bytes"
        }
      ],
      "name": "MetaTransactionExecuted",
      "type": "event"
    },
    {
      "anonymous": false,
      "inputs": [
        {
          "indexed": true,
          "internalType": "address",
          "name": "previousOwner",
          "type": "address"
        },
        {
          "indexed": true,
          "internalType": "address",
          "name": "newOwner",
          "type": "address"
        }
      ],
      "name": "OwnershipTransferred",
      "type": "event"
    },
    {
      "anonymous": false,
      "inputs": [
        {
          "indexed": true,
          "internalType": "address",
          "name": "from",
          "type": "address"
        },
        {
          "indexed": true,
          "internalType": "address",
          "name": "to",
          "type": "address"
        },
        {
          "indexed": true,
          "internalType": "uint256",
          "name": "tokenId",
          "type": "uint256"
        }
      ],
      "name": "Transfer",
      "type": "event"
    },
    {
      "inputs": [],
      "name": "ERC712_VERSION",
      "outputs": [
        {
          "internalType": "string",
          "name": "",
          "type": "string"
        }
      ],
      "stateMutability": "view",
      "type": "function",
      "constant": true
    },
    {
      "inputs": [
        {
          "internalType": "address",
          "name": "to",
          "type": "address"
        },
        {
          "internalType": "uint256",
          "name": "tokenId",
          "type": "uint256"
        }
      ],
      "name": "approve",
      "outputs": [],
      "stateMutability": "nonpayable",
      "type": "function"
    },
    {
      "inputs": [
        {
          "internalType": "address",
          "name": "owner",
          "type": "address"
        }
      ],
      "name": "balanceOf",
      "outputs": [
        {
          "internalType": "uint256",
          "name": "",
          "type": "uint256"
        }
      ],
      "stateMutability": "view",
      "type": "function",
      "constant": true
    },
    {
      "inputs": [
        {
          "internalType": "address",
          "name": "userAddress",
          "type": "address"
        },
        {
          "internalType": "bytes",
          "name": "functionSignature",
          "type": "bytes"
        },
        {
          "internalType": "bytes32",
          "name": "sigR",
          "type": "bytes32"
        },
        {
          "internalType": "bytes32",
          "name": "sigS",
          "type": "bytes32"
        },
        {
          "internalType": "uint8",
          "name": "sigV",
          "type": "uint8"
        }
      ],
      "name": "executeMetaTransaction",
      "outputs": [
        {
          "internalType": "bytes",
          "name": "",
          "type": "bytes"
        }
      ],
      "stateMutability": "payable",
      "type": "function",
      "payable": true
    },
    {
      "inputs": [
        {
          "internalType": "uint256",
          "name": "tokenId",
          "type": "uint256"
        }
      ],
      "name": "getApproved",
      "outputs": [
        {
          "internalType": "address",
          "name": "",
          "type": "address"
        }
      ],
      "stateMutability": "view",
      "type": "function",
      "constant": true
    },
    {
      "inputs": [],
      "name": "getChainId",
      "outputs": [
        {
          "internalType": "uint256",
          "name": "",
          "type": "uint256"
        }
      ],
      "stateMutability": "view",
      "type": "function",
      "constant": true
    },
    {
      "inputs": [],
      "name": "getDomainSeperator",
      "outputs": [
        {
          "internalType": "bytes32",
          "name": "",
          "type": "bytes32"
        }
      ],
      "stateMutability": "view",
      "type": "function",
      "constant": true
    },
    {
      "inputs": [
        {
          "internalType": "address",
          "name": "user",
          "type": "address"
        }
      ],
      "name": "getNonce",
      "outputs": [
        {
          "internalType": "uint256",
          "name": "nonce",
          "type": "uint256"
        }
      ],
      "stateMutability": "view",
      "type": "function",
      "constant": true
    },
    {
      "inputs": [
        {
          "internalType": "address",
          "name": "owner",
          "type": "address"
        },
        {
          "internalType": "address",
          "name": "operator",
          "type": "address"
        }
      ],
      "name": "isApprovedForAll",
      "outputs": [
        {
          "internalType": "bool",
          "name": "",
          "type": "bool"
        }
      ],
      "stateMutability": "view",
      "type": "function",
      "constant": true
    },
    {
      "inputs": [
        {
          "internalType": "address",
          "name": "_to",
          "type": "address"
        }
      ],
      "name": "mintTo",
      "outputs": [],
      "stateMutability": "nonpayable",
      "type": "function"
    },
    {
      "inputs": [],
      "name": "name",
      "outputs": [
        {
          "internalType": "string",
          "name": "",
          "type": "string"
        }
      ],
      "stateMutability": "view",
      "type": "function",
      "constant": true
    },
    {
      "inputs": [],
      "name": "owner",
      "outputs": [
        {
          "internalType": "address",
          "name": "",
          "type": "address"
        }
      ],
      "stateMutability": "view",
      "type": "function",
      "constant": true
    },
    {
      "inputs": [
        {
          "internalType": "uint256",
          "name": "tokenId",
          "type": "uint256"
        }
      ],
      "name": "ownerOf",
      "outputs": [
        {
          "internalType": "address",
          "name": "",
          "type": "address"
        }
      ],
      "stateMutability": "view",
      "type": "function",
      "constant": true
    },
    {
      "inputs": [],
      "name": "renounceOwnership",
      "outputs": [],
      "stateMutability": "nonpayable",
      "type": "function"
    },
    {
      "inputs": [
        {
          "internalType": "address",
          "name": "from",
          "type": "address"
        },
        {
          "internalType": "address",
          "name": "to",
          "type": "address"
        },
        {
          "internalType": "uint256",
          "name": "tokenId",
          "type": "uint256"
        }
      ],
      "name": "safeTransferFrom",
      "outputs": [],
      "stateMutability": "nonpayable",
      "type": "function"
    },
    {
      "inputs": [
        {
          "internalType": "address",
          "name": "from",
          "type": "address"
        },
        {
          "internalType": "address",
          "name": "to",
          "type": "address"
        },
        {
          "internalType": "uint256",
          "name": "tokenId",
          "type": "uint256"
        },
        {
          "internalType": "bytes",
          "name": "_data",
          "type": "bytes"
        }
      ],
      "name": "safeTransferFrom",
      "outputs": [],
      "stateMutability": "nonpayable",
      "type": "function"
    },
    {
      "inputs": [
        {
          "internalType": "address",
          "name": "operator",
          "type": "address"
        },
        {
          "internalType": "bool",
          "name": "approved",
          "type": "bool"
        }
      ],
      "name": "setApprovalForAll",
      "outputs": [],
      "stateMutability": "nonpayable",
      "type": "function"
    },
    {
      "inputs": [
        {
          "internalType": "bytes4",
          "name": "interfaceId",
          "type": "bytes4"
        }
      ],
      "name": "supportsInterface",
      "outputs": [
        {
          "internalType": "bool",
          "name": "",
          "type": "bool"
        }
      ],
      "stateMutability": "view",
      "type": "function",
      "constant": true
    },
    {
      "inputs": [],
      "name": "symbol",
      "outputs": [
        {
          "internalType": "string",
          "name": "",
          "type": "string"
        }
      ],
      "stateMutability": "view",
      "type": "function",
      "constant": true
    },
    {
      "inputs": [
        {
          "internalType": "uint256",
          "name": "index",
          "type": "uint256"
        }
      ],
      "name": "tokenByIndex",
      "outputs": [
        {
          "internalType": "uint256",
          "name": "",
          "type": "uint256"
        }
      ],
      "stateMutability": "view",
      "type": "function",
      "constant": true
    },
    {
      "inputs": [
        {
          "internalType": "address",
          "name": "owner",
          "type": "address"
        },
        {
          "internalType": "uint256",
          "name": "index",
          "type": "uint256"
        }
      ],
      "name": "tokenOfOwnerByIndex",
      "outputs": [
        {
          "internalType": "uint256",
          "name": "",
          "type": "uint256"
        }
      ],
      "stateMutability": "view",
      "type": "function",
      "constant": true
    },
    {
      "inputs": [
        {
          "internalType": "uint256",
          "name": "_tokenId",
          "type": "uint256"
        }
      ],
      "name": "tokenURI",
      "outputs": [
        {
          "internalType": "string",
          "name": "",
          "type": "string"
        }
      ],
      "stateMutability": "pure",
      "type": "function",
      "constant": true
    },
    {
      "inputs": [],
      "name": "totalSupply",
      "outputs": [
        {
          "internalType": "uint256",
          "name": "",
          "type": "uint256"
        }
      ],
      "stateMutability": "view",
      "type": "function",
      "constant": true
    },
    {
      "inputs": [
        {
          "internalType": "address",
          "name": "from",
          "type": "address"
        },
        {
          "internalType": "address",
          "name": "to",
          "type": "address"
        },
        {
          "internalType": "uint256",
          "name": "tokenId",
          "type": "uint256"
        }
      ],
      "name": "transferFrom",
      "outputs": [],
      "stateMutability": "nonpayable",
      "type": "function"
    },
    {
      "inputs": [
        {
          "internalType": "address",
          "name": "newOwner",
          "type": "address"
        }
      ],
      "name": "transferOwnership",
      "outputs": [],
      "stateMutability": "nonpayable",
      "type": "function"
    },
    {
      "inputs": [],
      "name": "baseTokenURI",
      "outputs": [
        {
          "internalType": "string",
          "name": "",
          "type": "string"
        }
      ],
      "stateMutability": "pure",
      "type": "function",
      "constant": true
    }
  ],
  "bytecode": "0x60806040526000600a60006101000a81548160ff0219169083151502179055506000600f553480156200003157600080fd5b506040516200482838038062004828833981810160405281019062000057919062000563565b6040518060400160405280600581526020017f48756d616e0000000000000000000000000000000000000000000000000000008152506040518060400160405280600381526020017f48554d00000000000000000000000000000000000000000000000000000000008152508282828160009080519060200190620000de92919062000449565b508060019080519060200190620000f792919062000449565b5050506200011a6200010e6200017660201b60201c565b6200019260201b60201c565b80600e60006101000a81548173ffffffffffffffffffffffffffffffffffffffff021916908373ffffffffffffffffffffffffffffffffffffffff1602179055506200016c836200025860201b60201c565b5050505062000706565b60006200018d620002da60201b6200152b1760201c565b905090565b6000600d60009054906101000a900473ffffffffffffffffffffffffffffffffffffffff16905081600d60006101000a81548173ffffffffffffffffffffffffffffffffffffffff021916908373ffffffffffffffffffffffffffffffffffffffff1602179055508173ffffffffffffffffffffffffffffffffffffffff168173ffffffffffffffffffffffffffffffffffffffff167f8be0079c531659141344cd1fd0a4f28419497f9722a3daafe3b4186f6b6457e060405160405180910390a35050565b600a60009054906101000a900460ff1615620002ab576040517f08c379a0000000000000000000000000000000000000000000000000000000008152600401620002a290620005f6565b60405180910390fd5b620002bc816200038d60201b60201c565b6001600a60006101000a81548160ff02191690831515021790555050565b60003073ffffffffffffffffffffffffffffffffffffffff163373ffffffffffffffffffffffffffffffffffffffff1614156200038657600080368080601f016020809104026020016040519081016040528093929190818152602001838380828437600081840152601f19601f820116905080830192505050505050509050600080369050905073ffffffffffffffffffffffffffffffffffffffff8183015116925050506200038a565b3390505b90565b6040518060800160405280604f8152602001620047d9604f91398051906020012081805190602001206040518060400160405280600181526020017f31000000000000000000000000000000000000000000000000000000000000008152508051906020012030620004046200043c60201b60201c565b60001b6040516020016200041d95949392919062000644565b60405160208183030381529060405280519060200120600b8190555050565b6000804690508091505090565b8280546200045790620006d0565b90600052602060002090601f0160209004810192826200047b5760008555620004c7565b82601f106200049657805160ff1916838001178555620004c7565b82800160010185558215620004c7579182015b82811115620004c6578251825591602001919060010190620004a9565b5b509050620004d69190620004da565b5090565b5b80821115620004f5576000816000905550600101620004db565b5090565b600080fd5b600073ffffffffffffffffffffffffffffffffffffffff82169050919050565b60006200052b82620004fe565b9050919050565b6200053d816200051e565b81146200054957600080fd5b50565b6000815190506200055d8162000532565b92915050565b6000602082840312156200057c576200057b620004f9565b5b60006200058c848285016200054c565b91505092915050565b600082825260208201905092915050565b7f616c726561647920696e69746564000000000000000000000000000000000000600082015250565b6000620005de600e8362000595565b9150620005eb82620005a6565b602082019050919050565b600060208201905081810360008301526200061181620005cf565b9050919050565b6000819050919050565b6200062d8162000618565b82525050565b6200063e816200051e565b82525050565b600060a0820190506200065b600083018862000622565b6200066a602083018762000622565b62000679604083018662000622565b62000688606083018562000633565b62000697608083018462000622565b9695505050505050565b7f4e487b7100000000000000000000000000000000000000000000000000000000600052602260045260246000fd5b60006002820490506001821680620006e957607f821691505b602082108114156200070057620006ff620006a1565b5b50919050565b6140c380620007166000396000f3fe6080604052600436106101815760003560e01c80634f6ccce7116100d157806395d89b411161008a578063c87b56dd11610064578063c87b56dd1461059b578063d547cfb7146105d8578063e985e9c514610603578063f2fde38b1461064057610181565b806395d89b411461051e578063a22cb46514610549578063b88d4fde1461057257610181565b80634f6ccce7146103fc5780636352211e1461043957806370a0823114610476578063715018a6146104b3578063755edd17146104ca5780638da5cb5b146104f357610181565b806318160ddd1161013e5780632d0335ab116101185780632d0335ab1461032e5780632f745c591461036b5780633408e470146103a857806342842e0e146103d357610181565b806318160ddd146102af57806320379ee5146102da57806323b872dd1461030557610181565b806301ffc9a71461018657806306fdde03146101c3578063081812fc146101ee578063095ea7b31461022b5780630c53c51c146102545780630f7e597014610284575b600080fd5b34801561019257600080fd5b506101ad60048036038101906101a89190612898565b610669565b6040516101ba91906128e0565b60405180910390f35b3480156101cf57600080fd5b506101d86106e3565b6040516101e59190612994565b60405180910390f35b3480156101fa57600080fd5b50610215600480360381019061021091906129ec565b610775565b6040516102229190612a5a565b60405180910390f35b34801561023757600080fd5b50610252600480360381019061024d9190612aa1565b6107fa565b005b61026e60048036038101906102699190612c85565b610912565b60405161027b9190612d71565b60405180910390f35b34801561029057600080fd5b50610299610b84565b6040516102a69190612994565b60405180910390f35b3480156102bb57600080fd5b506102c4610bbd565b6040516102d19190612da2565b60405180910390f35b3480156102e657600080fd5b506102ef610bca565b6040516102fc9190612dcc565b60405180910390f35b34801561031157600080fd5b5061032c60048036038101906103279190612de7565b610bd4565b005b34801561033a57600080fd5b5061035560048036038101906103509190612e3a565b610c34565b6040516103629190612da2565b60405180910390f35b34801561037757600080fd5b50610392600480360381019061038d9190612aa1565b610c7d565b60405161039f9190612da2565b60405180910390f35b3480156103b457600080fd5b506103bd610d22565b6040516103ca9190612da2565b60405180910390f35b3480156103df57600080fd5b506103fa60048036038101906103f59190612de7565b610d2f565b005b34801561040857600080fd5b50610423600480360381019061041e91906129ec565b610d4f565b6040516104309190612da2565b60405180910390f35b34801561044557600080fd5b50610460600480360381019061045b91906129ec565b610dc0565b60405161046d9190612a5a565b60405180910390f35b34801561048257600080fd5b5061049d60048036038101906104989190612e3a565b610e72565b6040516104aa9190612da2565b60405180910390f35b3480156104bf57600080fd5b506104c8610f2a565b005b3480156104d657600080fd5b506104f160048036038101906104ec9190612e3a565b610fb2565b005b3480156104ff57600080fd5b50610508611050565b6040516105159190612a5a565b60405180910390f35b34801561052a57600080fd5b5061053361107a565b6040516105409190612994565b60405180910390f35b34801561055557600080fd5b50610570600480360381019061056b9190612e93565b61110c565b005b34801561057e57600080fd5b5061059960048036038101906105949190612ed3565b61128d565b005b3480156105a757600080fd5b506105c260048036038101906105bd91906129ec565b6112ef565b6040516105cf9190612994565b60405180910390f35b3480156105e457600080fd5b506105ed611329565b6040516105fa9190612994565b60405180910390f35b34801561060f57600080fd5b5061062a60048036038101906106259190612f56565b611340565b60405161063791906128e0565b60405180910390f35b34801561064c57600080fd5b5061066760048036038101906106629190612e3a565b611433565b005b60007f780e9d63000000000000000000000000000000000000000000000000000000007bffffffffffffffffffffffffffffffffffffffffffffffffffffffff1916827bffffffffffffffffffffffffffffffffffffffffffffffffffffffff191614806106dc57506106db826115dc565b5b9050919050565b6060600080546106f290612fc5565b80601f016020809104026020016040519081016040528092919081815260200182805461071e90612fc5565b801561076b5780601f106107405761010080835404028352916020019161076b565b820191906000526020600020905b81548152906001019060200180831161074e57829003601f168201915b5050505050905090565b6000610780826116be565b6107bf576040517f08c379a00000000000000000000000000000000000000000000000000000000081526004016107b690613069565b60405180910390fd5b6004600083815260200190815260200160002060009054906101000a900473ffffffffffffffffffffffffffffffffffffffff169050919050565b600061080582610dc0565b90508073ffffffffffffffffffffffffffffffffffffffff168373ffffffffffffffffffffffffffffffffffffffff161415610876576040517f08c379a000000000000000000000000000000000000000000000000000000000815260040161086d906130fb565b60405180910390fd5b8073ffffffffffffffffffffffffffffffffffffffff1661089561172a565b73ffffffffffffffffffffffffffffffffffffffff1614806108c457506108c3816108be61172a565b611340565b5b610903576040517f08c379a00000000000000000000000000000000000000000000000000000000081526004016108fa9061318d565b60405180910390fd5b61090d8383611739565b505050565b606060006040518060600160405280600c60008a73ffffffffffffffffffffffffffffffffffffffff1673ffffffffffffffffffffffffffffffffffffffff1681526020019081526020016000205481526020018873ffffffffffffffffffffffffffffffffffffffff16815260200187815250905061099587828787876117f2565b6109d4576040517f08c379a00000000000000000000000000000000000000000000000000000000081526004016109cb9061321f565b60405180910390fd5b610a276001600c60008a73ffffffffffffffffffffffffffffffffffffffff1673ffffffffffffffffffffffffffffffffffffffff168152602001908152602001600020546118fb90919063ffffffff16565b600c60008973ffffffffffffffffffffffffffffffffffffffff1673ffffffffffffffffffffffffffffffffffffffff168152602001908152602001600020819055507f5845892132946850460bff5a0083f71031bc5bf9aadcd40f1de79423eac9b10b873388604051610a9d93929190613260565b60405180910390a16000803073ffffffffffffffffffffffffffffffffffffffff16888a604051602001610ad2929190613322565b604051602081830303815290604052604051610aee919061334a565b6000604051808303816000865af19150503d8060008114610b2b576040519150601f19603f3d011682016040523d82523d6000602084013e610b30565b606091505b509150915081610b75576040517f08c379a0000000000000000000000000000000000000000000000000000000008152600401610b6c906133ad565b60405180910390fd5b80935050505095945050505050565b6040518060400160405280600181526020017f310000000000000000000000000000000000000000000000000000000000000081525081565b6000600880549050905090565b6000600b54905090565b610be5610bdf61172a565b82611911565b610c24576040517f08c379a0000000000000000000000000000000000000000000000000000000008152600401610c1b9061343f565b60405180910390fd5b610c2f8383836119ef565b505050565b6000600c60008373ffffffffffffffffffffffffffffffffffffffff1673ffffffffffffffffffffffffffffffffffffffff168152602001908152602001600020549050919050565b6000610c8883610e72565b8210610cc9576040517f08c379a0000000000000000000000000000000000000000000000000000000008152600401610cc0906134d1565b60405180910390fd5b600660008473ffffffffffffffffffffffffffffffffffffffff1673ffffffffffffffffffffffffffffffffffffffff168152602001908152602001600020600083815260200190815260200160002054905092915050565b6000804690508091505090565b610d4a8383836040518060200160405280600081525061128d565b505050565b6000610d59610bbd565b8210610d9a576040517f08c379a0000000000000000000000000000000000000000000000000000000008152600401610d9190613563565b60405180910390fd5b60088281548110610dae57610dad613583565b5b90600052602060002001549050919050565b6000806002600084815260200190815260200160002060009054906101000a900473ffffffffffffffffffffffffffffffffffffffff169050600073ffffffffffffffffffffffffffffffffffffffff168173ffffffffffffffffffffffffffffffffffffffff161415610e69576040517f08c379a0000000000000000000000000000000000000000000000000000000008152600401610e6090613624565b60405180910390fd5b80915050919050565b60008073ffffffffffffffffffffffffffffffffffffffff168273ffffffffffffffffffffffffffffffffffffffff161415610ee3576040517f08c379a0000000000000000000000000000000000000000000000000000000008152600401610eda906136b6565b60405180910390fd5b600360008373ffffffffffffffffffffffffffffffffffffffff1673ffffffffffffffffffffffffffffffffffffffff168152602001908152602001600020549050919050565b610f3261172a565b73ffffffffffffffffffffffffffffffffffffffff16610f50611050565b73ffffffffffffffffffffffffffffffffffffffff1614610fa6576040517f08c379a0000000000000000000000000000000000000000000000000000000008152600401610f9d90613722565b60405180910390fd5b610fb06000611c4b565b565b610fba61172a565b73ffffffffffffffffffffffffffffffffffffffff16610fd8611050565b73ffffffffffffffffffffffffffffffffffffffff161461102e576040517f08c379a000000000000000000000000000000000000000000000000000000000815260040161102590613722565b60405180910390fd5b6000611038611d11565b90506110448282611d2e565b61104c611efc565b5050565b6000600d60009054906101000a900473ffffffffffffffffffffffffffffffffffffffff16905090565b60606001805461108990612fc5565b80601f01602080910402602001604051908101604052809291908181526020018280546110b590612fc5565b80156111025780601f106110d757610100808354040283529160200191611102565b820191906000526020600020905b8154815290600101906020018083116110e557829003601f168201915b5050505050905090565b61111461172a565b73ffffffffffffffffffffffffffffffffffffffff168273ffffffffffffffffffffffffffffffffffffffff161415611182576040517f08c379a00000000000000000000000000000000000000000000000000000000081526004016111799061378e565b60405180910390fd5b806005600061118f61172a565b73ffffffffffffffffffffffffffffffffffffffff1673ffffffffffffffffffffffffffffffffffffffff16815260200190815260200160002060008473ffffffffffffffffffffffffffffffffffffffff1673ffffffffffffffffffffffffffffffffffffffff16815260200190815260200160002060006101000a81548160ff0219169083151502179055508173ffffffffffffffffffffffffffffffffffffffff1661123c61172a565b73ffffffffffffffffffffffffffffffffffffffff167f17307eab39ab6107e8899845ad3d59bd9653f200f220920489ca2b5937696c318360405161128191906128e0565b60405180910390a35050565b61129e61129861172a565b83611911565b6112dd576040517f08c379a00000000000000000000000000000000000000000000000000000000081526004016112d49061343f565b60405180910390fd5b6112e984848484611f16565b50505050565b60606112f9611329565b61130283611f72565b6040516020016113139291906137ea565b6040516020818303038152906040529050919050565b606060405180602001604052806000815250905090565b600080600e60009054906101000a900473ffffffffffffffffffffffffffffffffffffffff1690508273ffffffffffffffffffffffffffffffffffffffff168173ffffffffffffffffffffffffffffffffffffffff1663c4552791866040518263ffffffff1660e01b81526004016113b89190612a5a565b602060405180830381865afa1580156113d5573d6000803e3d6000fd5b505050506040513d601f19601f820116820180604052508101906113f9919061384c565b73ffffffffffffffffffffffffffffffffffffffff16141561141f57600191505061142d565b61142984846120d3565b9150505b92915050565b61143b61172a565b73ffffffffffffffffffffffffffffffffffffffff16611459611050565b73ffffffffffffffffffffffffffffffffffffffff16146114af576040517f08c379a00000000000000000000000000000000000000000000000000000000081526004016114a690613722565b60405180910390fd5b600073ffffffffffffffffffffffffffffffffffffffff168173ffffffffffffffffffffffffffffffffffffffff16141561151f576040517f08c379a0000000000000000000000000000000000000000000000000000000008152600401611516906138eb565b60405180910390fd5b61152881611c4b565b50565b60003073ffffffffffffffffffffffffffffffffffffffff163373ffffffffffffffffffffffffffffffffffffffff1614156115d557600080368080601f016020809104026020016040519081016040528093929190818152602001838380828437600081840152601f19601f820116905080830192505050505050509050600080369050905073ffffffffffffffffffffffffffffffffffffffff8183015116925050506115d9565b3390505b90565b60007f80ac58cd000000000000000000000000000000000000000000000000000000007bffffffffffffffffffffffffffffffffffffffffffffffffffffffff1916827bffffffffffffffffffffffffffffffffffffffffffffffffffffffff191614806116a757507f5b5e139f000000000000000000000000000000000000000000000000000000007bffffffffffffffffffffffffffffffffffffffffffffffffffffffff1916827bffffffffffffffffffffffffffffffffffffffffffffffffffffffff1916145b806116b757506116b682612167565b5b9050919050565b60008073ffffffffffffffffffffffffffffffffffffffff166002600084815260200190815260200160002060009054906101000a900473ffffffffffffffffffffffffffffffffffffffff1673ffffffffffffffffffffffffffffffffffffffff1614159050919050565b600061173461152b565b905090565b816004600083815260200190815260200160002060006101000a81548173ffffffffffffffffffffffffffffffffffffffff021916908373ffffffffffffffffffffffffffffffffffffffff160217905550808273ffffffffffffffffffffffffffffffffffffffff166117ac83610dc0565b73ffffffffffffffffffffffffffffffffffffffff167f8c5be1e5ebec7d5bd14f71427d1e84f3dd0314c0f7b2291e5b200ac8c7c3b92560405160405180910390a45050565b60008073ffffffffffffffffffffffffffffffffffffffff168673ffffffffffffffffffffffffffffffffffffffff161415611863576040517f08c379a000000000000000000000000000000000000000000000000000000000815260040161185a9061397d565b60405180910390fd5b6001611876611871876121d1565b612239565b8386866040516000815260200160405260405161189694939291906139ac565b6020604051602081039080840390855afa1580156118b8573d6000803e3d6000fd5b5050506020604051035173ffffffffffffffffffffffffffffffffffffffff168673ffffffffffffffffffffffffffffffffffffffff1614905095945050505050565b600081836119099190613a20565b905092915050565b600061191c826116be565b61195b576040517f08c379a000000000000000000000000000000000000000000000000000000000815260040161195290613ae8565b60405180910390fd5b600061196683610dc0565b90508073ffffffffffffffffffffffffffffffffffffffff168473ffffffffffffffffffffffffffffffffffffffff1614806119d557508373ffffffffffffffffffffffffffffffffffffffff166119bd84610775565b73ffffffffffffffffffffffffffffffffffffffff16145b806119e657506119e58185611340565b5b91505092915050565b8273ffffffffffffffffffffffffffffffffffffffff16611a0f82610dc0565b73ffffffffffffffffffffffffffffffffffffffff1614611a65576040517f08c379a0000000000000000000000000000000000000000000000000000000008152600401611a5c90613b7a565b60405180910390fd5b600073ffffffffffffffffffffffffffffffffffffffff168273ffffffffffffffffffffffffffffffffffffffff161415611ad5576040517f08c379a0000000000000000000000000000000000000000000000000000000008152600401611acc90613c0c565b60405180910390fd5b611ae0838383612272565b611aeb600082611739565b6001600360008573ffffffffffffffffffffffffffffffffffffffff1673ffffffffffffffffffffffffffffffffffffffff1681526020019081526020016000206000828254611b3b9190613c2c565b925050819055506001600360008473ffffffffffffffffffffffffffffffffffffffff1673ffffffffffffffffffffffffffffffffffffffff1681526020019081526020016000206000828254611b929190613a20565b92505081905550816002600083815260200190815260200160002060006101000a81548173ffffffffffffffffffffffffffffffffffffffff021916908373ffffffffffffffffffffffffffffffffffffffff160217905550808273ffffffffffffffffffffffffffffffffffffffff168473ffffffffffffffffffffffffffffffffffffffff167fddf252ad1be2c89b69c2b068fc378daa952ba7f163c4a11628f55a4df523b3ef60405160405180910390a4505050565b6000600d60009054906101000a900473ffffffffffffffffffffffffffffffffffffffff16905081600d60006101000a81548173ffffffffffffffffffffffffffffffffffffffff021916908373ffffffffffffffffffffffffffffffffffffffff1602179055508173ffffffffffffffffffffffffffffffffffffffff168173ffffffffffffffffffffffffffffffffffffffff167f8be0079c531659141344cd1fd0a4f28419497f9722a3daafe3b4186f6b6457e060405160405180910390a35050565b6000611d296001600f546118fb90919063ffffffff16565b905090565b600073ffffffffffffffffffffffffffffffffffffffff168273ffffffffffffffffffffffffffffffffffffffff161415611d9e576040517f08c379a0000000000000000000000000000000000000000000000000000000008152600401611d9590613cac565b60405180910390fd5b611da7816116be565b15611de7576040517f08c379a0000000000000000000000000000000000000000000000000000000008152600401611dde90613d18565b60405180910390fd5b611df360008383612272565b6001600360008473ffffffffffffffffffffffffffffffffffffffff1673ffffffffffffffffffffffffffffffffffffffff1681526020019081526020016000206000828254611e439190613a20565b92505081905550816002600083815260200190815260200160002060006101000a81548173ffffffffffffffffffffffffffffffffffffffff021916908373ffffffffffffffffffffffffffffffffffffffff160217905550808273ffffffffffffffffffffffffffffffffffffffff16600073ffffffffffffffffffffffffffffffffffffffff167fddf252ad1be2c89b69c2b068fc378daa952ba7f163c4a11628f55a4df523b3ef60405160405180910390a45050565b600f6000815480929190611f0f90613d38565b9190505550565b611f218484846119ef565b611f2d84848484612386565b611f6c576040517f08c379a0000000000000000000000000000000000000000000000000000000008152600401611f6390613df3565b60405180910390fd5b50505050565b60606000821415611fba576040518060400160405280600181526020017f300000000000000000000000000000000000000000000000000000000000000081525090506120ce565b600082905060005b60008214611fec578080611fd590613d38565b915050600a82611fe59190613e42565b9150611fc2565b60008167ffffffffffffffff81111561200857612007612aeb565b5b6040519080825280601f01601f19166020018201604052801561203a5781602001600182028036833780820191505090505b5090505b600085146120c7576001826120539190613c2c565b9150600a856120629190613e73565b603061206e9190613a20565b60f81b81838151811061208457612083613583565b5b60200101907effffffffffffffffffffffffffffffffffffffffffffffffffffffffffffff1916908160001a905350600a856120c09190613e42565b945061203e565b8093505050505b919050565b6000600560008473ffffffffffffffffffffffffffffffffffffffff1673ffffffffffffffffffffffffffffffffffffffff16815260200190815260200160002060008373ffffffffffffffffffffffffffffffffffffffff1673ffffffffffffffffffffffffffffffffffffffff16815260200190815260200160002060009054906101000a900460ff16905092915050565b60007f01ffc9a7000000000000000000000000000000000000000000000000000000007bffffffffffffffffffffffffffffffffffffffffffffffffffffffff1916827bffffffffffffffffffffffffffffffffffffffffffffffffffffffff1916149050919050565b600060405180608001604052806043815260200161404b60439139805190602001208260000151836020015184604001518051906020012060405160200161221c9493929190613ea4565b604051602081830303815290604052805190602001209050919050565b6000612243610bca565b82604051602001612255929190613f56565b604051602081830303815290604052805190602001209050919050565b61227d83838361250e565b600073ffffffffffffffffffffffffffffffffffffffff168373ffffffffffffffffffffffffffffffffffffffff1614156122c0576122bb81612513565b6122ff565b8173ffffffffffffffffffffffffffffffffffffffff168373ffffffffffffffffffffffffffffffffffffffff16146122fe576122fd838261255c565b5b5b600073ffffffffffffffffffffffffffffffffffffffff168273ffffffffffffffffffffffffffffffffffffffff1614156123425761233d816126c9565b612381565b8273ffffffffffffffffffffffffffffffffffffffff168273ffffffffffffffffffffffffffffffffffffffff16146123805761237f828261279a565b5b5b505050565b60006123a78473ffffffffffffffffffffffffffffffffffffffff16612819565b15612501578373ffffffffffffffffffffffffffffffffffffffff1663150b7a026123d061172a565b8786866040518563ffffffff1660e01b81526004016123f29493929190613f8d565b6020604051808303816000875af192505050801561242e57506040513d601f19601f8201168201806040525081019061242b9190613fee565b60015b6124b1573d806000811461245e576040519150601f19603f3d011682016040523d82523d6000602084013e612463565b606091505b506000815114156124a9576040517f08c379a00000000000000000000000000000000000000000000000000000000081526004016124a090613df3565b60405180910390fd5b805181602001fd5b63150b7a0260e01b7bffffffffffffffffffffffffffffffffffffffffffffffffffffffff1916817bffffffffffffffffffffffffffffffffffffffffffffffffffffffff191614915050612506565b600190505b949350505050565b505050565b6008805490506009600083815260200190815260200160002081905550600881908060018154018082558091505060019003906000526020600020016000909190919091505550565b6000600161256984610e72565b6125739190613c2c565b9050600060076000848152602001908152602001600020549050818114612658576000600660008673ffffffffffffffffffffffffffffffffffffffff1673ffffffffffffffffffffffffffffffffffffffff168152602001908152602001600020600084815260200190815260200160002054905080600660008773ffffffffffffffffffffffffffffffffffffffff1673ffffffffffffffffffffffffffffffffffffffff168152602001908152602001600020600084815260200190815260200160002081905550816007600083815260200190815260200160002081905550505b6007600084815260200190815260200160002060009055600660008573ffffffffffffffffffffffffffffffffffffffff1673ffffffffffffffffffffffffffffffffffffffff16815260200190815260200160002060008381526020019081526020016000206000905550505050565b600060016008805490506126dd9190613c2c565b905060006009600084815260200190815260200160002054905060006008838154811061270d5761270c613583565b5b90600052602060002001549050806008838154811061272f5761272e613583565b5b90600052602060002001819055508160096000838152602001908152602001600020819055506009600085815260200190815260200160002060009055600880548061277e5761277d61401b565b5b6001900381819060005260206000200160009055905550505050565b60006127a583610e72565b905081600660008573ffffffffffffffffffffffffffffffffffffffff1673ffffffffffffffffffffffffffffffffffffffff168152602001908152602001600020600083815260200190815260200160002081905550806007600084815260200190815260200160002081905550505050565b600080823b905060008111915050919050565b6000604051905090565b600080fd5b600080fd5b60007fffffffff0000000000000000000000000000000000000000000000000000000082169050919050565b61287581612840565b811461288057600080fd5b50565b6000813590506128928161286c565b92915050565b6000602082840312156128ae576128ad612836565b5b60006128bc84828501612883565b91505092915050565b60008115159050919050565b6128da816128c5565b82525050565b60006020820190506128f560008301846128d1565b92915050565b600081519050919050565b600082825260208201905092915050565b60005b8381101561293557808201518184015260208101905061291a565b83811115612944576000848401525b50505050565b6000601f19601f8301169050919050565b6000612966826128fb565b6129708185612906565b9350612980818560208601612917565b6129898161294a565b840191505092915050565b600060208201905081810360008301526129ae818461295b565b905092915050565b6000819050919050565b6129c9816129b6565b81146129d457600080fd5b50565b6000813590506129e6816129c0565b92915050565b600060208284031215612a0257612a01612836565b5b6000612a10848285016129d7565b91505092915050565b600073ffffffffffffffffffffffffffffffffffffffff82169050919050565b6000612a4482612a19565b9050919050565b612a5481612a39565b82525050565b6000602082019050612a6f6000830184612a4b565b92915050565b612a7e81612a39565b8114612a8957600080fd5b50565b600081359050612a9b81612a75565b92915050565b60008060408385031215612ab857612ab7612836565b5b6000612ac685828601612a8c565b9250506020612ad7858286016129d7565b9150509250929050565b600080fd5b600080fd5b7f4e487b7100000000000000000000000000000000000000000000000000000000600052604160045260246000fd5b612b238261294a565b810181811067ffffffffffffffff82111715612b4257612b41612aeb565b5b80604052505050565b6000612b5561282c565b9050612b618282612b1a565b919050565b600067ffffffffffffffff821115612b8157612b80612aeb565b5b612b8a8261294a565b9050602081019050919050565b82818337600083830152505050565b6000612bb9612bb484612b66565b612b4b565b905082815260208101848484011115612bd557612bd4612ae6565b5b612be0848285612b97565b509392505050565b600082601f830112612bfd57612bfc612ae1565b5b8135612c0d848260208601612ba6565b91505092915050565b6000819050919050565b612c2981612c16565b8114612c3457600080fd5b50565b600081359050612c4681612c20565b92915050565b600060ff82169050919050565b612c6281612c4c565b8114612c6d57600080fd5b50565b600081359050612c7f81612c59565b92915050565b600080600080600060a08688031215612ca157612ca0612836565b5b6000612caf88828901612a8c565b955050602086013567ffffffffffffffff811115612cd057612ccf61283b565b5b612cdc88828901612be8565b9450506040612ced88828901612c37565b9350506060612cfe88828901612c37565b9250506080612d0f88828901612c70565b9150509295509295909350565b600081519050919050565b600082825260208201905092915050565b6000612d4382612d1c565b612d4d8185612d27565b9350612d5d818560208601612917565b612d668161294a565b840191505092915050565b60006020820190508181036000830152612d8b8184612d38565b905092915050565b612d9c816129b6565b82525050565b6000602082019050612db76000830184612d93565b92915050565b612dc681612c16565b82525050565b6000602082019050612de16000830184612dbd565b92915050565b600080600060608486031215612e0057612dff612836565b5b6000612e0e86828701612a8c565b9350506020612e1f86828701612a8c565b9250506040612e30868287016129d7565b9150509250925092565b600060208284031215612e5057612e4f612836565b5b6000612e5e84828501612a8c565b91505092915050565b612e70816128c5565b8114612e7b57600080fd5b50565b600081359050612e8d81612e67565b92915050565b60008060408385031215612eaa57612ea9612836565b5b6000612eb885828601612a8c565b9250506020612ec985828601612e7e565b9150509250929050565b60008060008060808587031215612eed57612eec612836565b5b6000612efb87828801612a8c565b9450506020612f0c87828801612a8c565b9350506040612f1d878288016129d7565b925050606085013567ffffffffffffffff811115612f3e57612f3d61283b565b5b612f4a87828801612be8565b91505092959194509250565b60008060408385031215612f6d57612f6c612836565b5b6000612f7b85828601612a8c565b9250506020612f8c85828601612a8c565b9150509250929050565b7f4e487b7100000000000000000000000000000000000000000000000000000000600052602260045260246000fd5b60006002820490506001821680612fdd57607f821691505b60208210811415612ff157612ff0612f96565b5b50919050565b7f4552433732313a20617070726f76656420717565727920666f72206e6f6e657860008201527f697374656e7420746f6b656e0000000000000000000000000000000000000000602082015250565b6000613053602c83612906565b915061305e82612ff7565b604082019050919050565b6000602082019050818103600083015261308281613046565b9050919050565b7f4552433732313a20617070726f76616c20746f2063757272656e74206f776e6560008201527f7200000000000000000000000000000000000000000000000000000000000000602082015250565b60006130e5602183612906565b91506130f082613089565b604082019050919050565b60006020820190508181036000830152613114816130d8565b9050919050565b7f4552433732313a20617070726f76652063616c6c6572206973206e6f74206f7760008201527f6e6572206e6f7220617070726f76656420666f7220616c6c0000000000000000602082015250565b6000613177603883612906565b91506131828261311b565b604082019050919050565b600060208201905081810360008301526131a68161316a565b9050919050565b7f5369676e657220616e64207369676e617475726520646f206e6f74206d61746360008201527f6800000000000000000000000000000000000000000000000000000000000000602082015250565b6000613209602183612906565b9150613214826131ad565b604082019050919050565b60006020820190508181036000830152613238816131fc565b9050919050565b600061324a82612a19565b9050919050565b61325a8161323f565b82525050565b60006060820190506132756000830186612a4b565b6132826020830185613251565b81810360408301526132948184612d38565b9050949350505050565b600081905092915050565b60006132b482612d1c565b6132be818561329e565b93506132ce818560208601612917565b80840191505092915050565b60008160601b9050919050565b60006132f2826132da565b9050919050565b6000613304826132e7565b9050919050565b61331c61331782612a39565b6132f9565b82525050565b600061332e82856132a9565b915061333a828461330b565b6014820191508190509392505050565b600061335682846132a9565b915081905092915050565b7f46756e6374696f6e2063616c6c206e6f74207375636365737366756c00000000600082015250565b6000613397601c83612906565b91506133a282613361565b602082019050919050565b600060208201905081810360008301526133c68161338a565b9050919050565b7f4552433732313a207472616e736665722063616c6c6572206973206e6f74206f60008201527f776e6572206e6f7220617070726f766564000000000000000000000000000000602082015250565b6000613429603183612906565b9150613434826133cd565b604082019050919050565b600060208201905081810360008301526134588161341c565b9050919050565b7f455243373231456e756d657261626c653a206f776e657220696e646578206f7560008201527f74206f6620626f756e6473000000000000000000000000000000000000000000602082015250565b60006134bb602b83612906565b91506134c68261345f565b604082019050919050565b600060208201905081810360008301526134ea816134ae565b9050919050565b7f455243373231456e756d657261626c653a20676c6f62616c20696e646578206f60008201527f7574206f6620626f756e64730000000000000000000000000000000000000000602082015250565b600061354d602c83612906565b9150613558826134f1565b604082019050919050565b6000602082019050818103600083015261357c81613540565b9050919050565b7f4e487b7100000000000000000000000000000000000000000000000000000000600052603260045260246000fd5b7f4552433732313a206f776e657220717565727920666f72206e6f6e657869737460008201527f656e7420746f6b656e0000000000000000000000000000000000000000000000602082015250565b600061360e602983612906565b9150613619826135b2565b604082019050919050565b6000602082019050818103600083015261363d81613601565b9050919050565b7f4552433732313a2062616c616e636520717565727920666f7220746865207a6560008201527f726f206164647265737300000000000000000000000000000000000000000000602082015250565b60006136a0602a83612906565b91506136ab82613644565b604082019050919050565b600060208201905081810360008301526136cf81613693565b9050919050565b7f4f776e61626c653a2063616c6c6572206973206e6f7420746865206f776e6572600082015250565b600061370c602083612906565b9150613717826136d6565b602082019050919050565b6000602082019050818103600083015261373b816136ff565b9050919050565b7f4552433732313a20617070726f766520746f2063616c6c657200000000000000600082015250565b6000613778601983612906565b915061378382613742565b602082019050919050565b600060208201905081810360008301526137a78161376b565b9050919050565b600081905092915050565b60006137c4826128fb565b6137ce81856137ae565b93506137de818560208601612917565b80840191505092915050565b60006137f682856137b9565b915061380282846137b9565b91508190509392505050565b600061381982612a39565b9050919050565b6138298161380e565b811461383457600080fd5b50565b60008151905061384681613820565b92915050565b60006020828403121561386257613861612836565b5b600061387084828501613837565b91505092915050565b7f4f776e61626c653a206e6577206f776e657220697320746865207a65726f206160008201527f6464726573730000000000000000000000000000000000000000000000000000602082015250565b60006138d5602683612906565b91506138e082613879565b604082019050919050565b60006020820190508181036000830152613904816138c8565b9050919050565b7f4e61746976654d6574615472616e73616374696f6e3a20494e56414c49445f5360008201527f49474e4552000000000000000000000000000000000000000000000000000000602082015250565b6000613967602583612906565b91506139728261390b565b604082019050919050565b600060208201905081810360008301526139968161395a565b9050919050565b6139a681612c4c565b82525050565b60006080820190506139c16000830187612dbd565b6139ce602083018661399d565b6139db6040830185612dbd565b6139e86060830184612dbd565b95945050505050565b7f4e487b7100000000000000000000000000000000000000000000000000000000600052601160045260246000fd5b6000613a2b826129b6565b9150613a36836129b6565b9250827fffffffffffffffffffffffffffffffffffffffffffffffffffffffffffffffff03821115613a6b57613a6a6139f1565b5b828201905092915050565b7f4552433732313a206f70657261746f7220717565727920666f72206e6f6e657860008201527f697374656e7420746f6b656e0000000000000000000000000000000000000000602082015250565b6000613ad2602c83612906565b9150613add82613a76565b604082019050919050565b60006020820190508181036000830152613b0181613ac5565b9050919050565b7f4552433732313a207472616e73666572206f6620746f6b656e2074686174206960008201527f73206e6f74206f776e0000000000000000000000000000000000000000000000602082015250565b6000613b64602983612906565b9150613b6f82613b08565b604082019050919050565b60006020820190508181036000830152613b9381613b57565b9050919050565b7f4552433732313a207472616e7366657220746f20746865207a65726f2061646460008201527f7265737300000000000000000000000000000000000000000000000000000000602082015250565b6000613bf6602483612906565b9150613c0182613b9a565b604082019050919050565b60006020820190508181036000830152613c2581613be9565b9050919050565b6000613c37826129b6565b9150613c42836129b6565b925082821015613c5557613c546139f1565b5b828203905092915050565b7f4552433732313a206d696e7420746f20746865207a65726f2061646472657373600082015250565b6000613c96602083612906565b9150613ca182613c60565b602082019050919050565b60006020820190508181036000830152613cc581613c89565b9050919050565b7f4552433732313a20746f6b656e20616c7265616479206d696e74656400000000600082015250565b6000613d02601c83612906565b9150613d0d82613ccc565b602082019050919050565b60006020820190508181036000830152613d3181613cf5565b9050919050565b6000613d43826129b6565b91507fffffffffffffffffffffffffffffffffffffffffffffffffffffffffffffffff821415613d7657613d756139f1565b5b600182019050919050565b7f4552433732313a207472616e7366657220746f206e6f6e20455243373231526560008201527f63656976657220696d706c656d656e7465720000000000000000000000000000602082015250565b6000613ddd603283612906565b9150613de882613d81565b604082019050919050565b60006020820190508181036000830152613e0c81613dd0565b9050919050565b7f4e487b7100000000000000000000000000000000000000000000000000000000600052601260045260246000fd5b6000613e4d826129b6565b9150613e58836129b6565b925082613e6857613e67613e13565b5b828204905092915050565b6000613e7e826129b6565b9150613e89836129b6565b925082613e9957613e98613e13565b5b828206905092915050565b6000608082019050613eb96000830187612dbd565b613ec66020830186612d93565b613ed36040830185612a4b565b613ee06060830184612dbd565b95945050505050565b7f1901000000000000000000000000000000000000000000000000000000000000600082015250565b6000613f1f6002836137ae565b9150613f2a82613ee9565b600282019050919050565b6000819050919050565b613f50613f4b82612c16565b613f35565b82525050565b6000613f6182613f12565b9150613f6d8285613f3f565b602082019150613f7d8284613f3f565b6020820191508190509392505050565b6000608082019050613fa26000830187612a4b565b613faf6020830186612a4b565b613fbc6040830185612d93565b8181036060830152613fce8184612d38565b905095945050505050565b600081519050613fe88161286c565b92915050565b60006020828403121561400457614003612836565b5b600061401284828501613fd9565b91505092915050565b7f4e487b7100000000000000000000000000000000000000000000000000000000600052603160045260246000fdfe4d6574615472616e73616374696f6e2875696e74323536206e6f6e63652c616464726573732066726f6d2c62797465732066756e6374696f6e5369676e617475726529a2646970667358221220a863cfd32d990972f53517f728fa1b64f39da372143d5c3a2147e2a066fb2d2c64736f6c634300080a0033454950373132446f6d61696e28737472696e67206e616d652c737472696e672076657273696f6e2c6164647265737320766572696679696e67436f6e74726163742c627974657333322073616c7429",
  "immutableReferences": {},
  "source": "pragma solidity >=0.4.22 <0.9.0;\n\nimport \"@openzeppelin/contracts/access/Ownable.sol\";\nimport \"./ERC721Tradable.sol\";\n\ncontract Human is ERC721Tradable {\n  \n\n  constructor(address _proxyRegistryAddress)\n      ERC721Tradable(\"Human\", \"HUM\", _proxyRegistryAddress)\n  {}\n\n\n  function baseTokenURI() override public pure returns (string memory) {\n    return \"\";\n  }\n    // function baseTokenURI() override public pure returns (string memory) {\n    //     return \"https://creatures-api.opensea.io/api/creature/\";\n    // }\n\n}",
  "sourcePath": "/Users/klleon/workspace/blockchain/vhuman/contracts/Human.sol",
  "compiler": {
    "name": "solc",
    "version": "0.8.10+commit.fc410830.Emscripten.clang"
  },
  "schemaVersion": "3.4.3",
  "updatedAt": "2021-11-22T04:21:25.436Z",
  "networkType": "ethereum",
  "devdoc": {
    "kind": "dev",
    "methods": {
      "approve(address,uint256)": {
        "details": "See {IERC721-approve}."
      },
      "balanceOf(address)": {
        "details": "See {IERC721-balanceOf}."
      },
      "getApproved(uint256)": {
        "details": "See {IERC721-getApproved}."
      },
      "mintTo(address)": {
        "details": "Mints a token to an address with a tokenURI.",
        "params": {
          "_to": "address of the future owner of the token"
        }
      },
      "name()": {
        "details": "See {IERC721Metadata-name}."
      },
      "owner()": {
        "details": "Returns the address of the current owner."
      },
      "ownerOf(uint256)": {
        "details": "See {IERC721-ownerOf}."
      },
      "renounceOwnership()": {
        "details": "Leaves the contract without owner. It will not be possible to call `onlyOwner` functions anymore. Can only be called by the current owner. NOTE: Renouncing ownership will leave the contract without an owner, thereby removing any functionality that is only available to the owner."
      },
      "safeTransferFrom(address,address,uint256)": {
        "details": "See {IERC721-safeTransferFrom}."
      },
      "safeTransferFrom(address,address,uint256,bytes)": {
        "details": "See {IERC721-safeTransferFrom}."
      },
      "setApprovalForAll(address,bool)": {
        "details": "See {IERC721-setApprovalForAll}."
      },
      "supportsInterface(bytes4)": {
        "details": "See {IERC165-supportsInterface}."
      },
      "symbol()": {
        "details": "See {IERC721Metadata-symbol}."
      },
      "tokenByIndex(uint256)": {
        "details": "See {IERC721Enumerable-tokenByIndex}."
      },
      "tokenOfOwnerByIndex(address,uint256)": {
        "details": "See {IERC721Enumerable-tokenOfOwnerByIndex}."
      },
      "totalSupply()": {
        "details": "See {IERC721Enumerable-totalSupply}."
      },
      "transferFrom(address,address,uint256)": {
        "details": "See {IERC721-transferFrom}."
      },
      "transferOwnership(address)": {
        "details": "Transfers ownership of the contract to a new account (`newOwner`). Can only be called by the current owner."
      }
    },
    "version": 1
  },
  "userdoc": {
    "kind": "user",
    "methods": {
      "isApprovedForAll(address,address)": {
        "notice": "Override isApprovedForAll to whitelist user's OpenSea proxy accounts to enable gas-less listings."
      }
    },
    "version": 1
  }
}