{
  "contractName": "HumanGovernor",
  "abi": [
    {
      "inputs": [
        {
          "internalType": "contract ERC20Votes",
          "name": "_token",
          "type": "address"
        }
      ],
      "stateMutability": "nonpayable",
      "type": "constructor"
    },
    {
      "anonymous": false,
      "inputs": [
        {
          "indexed": false,
          "internalType": "uint256",
          "name": "proposalId",
          "type": "uint256"
        }
      ],
      "name": "ProposalCanceled",
      "type": "event"
    },
    {
      "anonymous": false,
      "inputs": [
        {
          "indexed": false,
          "internalType": "uint256",
          "name": "proposalId",
          "type": "uint256"
        },
        {
          "indexed": false,
          "internalType": "address",
          "name": "proposer",
          "type": "address"
        },
        {
          "indexed": false,
          "internalType": "address[]",
          "name": "targets",
          "type": "address[]"
        },
        {
          "indexed": false,
          "internalType": "uint256[]",
          "name": "values",
          "type": "uint256[]"
        },
        {
          "indexed": false,
          "internalType": "string[]",
          "name": "signatures",
          "type": "string[]"
        },
        {
          "indexed": false,
          "internalType": "bytes[]",
          "name": "calldatas",
          "type": "bytes[]"
        },
        {
          "indexed": false,
          "internalType": "uint256",
          "name": "startBlock",
          "type": "uint256"
        },
        {
          "indexed": false,
          "internalType": "uint256",
          "name": "endBlock",
          "type": "uint256"
        },
        {
          "indexed": false,
          "internalType": "string",
          "name": "description",
          "type": "string"
        }
      ],
      "name": "ProposalCreated",
      "type": "event"
    },
    {
      "anonymous": false,
      "inputs": [
        {
          "indexed": false,
          "internalType": "uint256",
          "name": "proposalId",
          "type": "uint256"
        }
      ],
      "name": "ProposalExecuted",
      "type": "event"
    },
    {
      "anonymous": false,
      "inputs": [
        {
          "indexed": false,
          "internalType": "uint256",
          "name": "oldProposalThreshold",
          "type": "uint256"
        },
        {
          "indexed": false,
          "internalType": "uint256",
          "name": "newProposalThreshold",
          "type": "uint256"
        }
      ],
      "name": "ProposalThresholdSet",
      "type": "event"
    },
    {
      "anonymous": false,
      "inputs": [
        {
          "indexed": false,
          "internalType": "uint256",
          "name": "oldQuorumNumerator",
          "type": "uint256"
        },
        {
          "indexed": false,
          "internalType": "uint256",
          "name": "newQuorumNumerator",
          "type": "uint256"
        }
      ],
      "name": "QuorumNumeratorUpdated",
      "type": "event"
    },
    {
      "anonymous": false,
      "inputs": [
        {
          "indexed": true,
          "internalType": "address",
          "name": "voter",
          "type": "address"
        },
        {
          "indexed": false,
          "internalType": "uint256",
          "name": "proposalId",
          "type": "uint256"
        },
        {
          "indexed": false,
          "internalType": "uint8",
          "name": "support",
          "type": "uint8"
        },
        {
          "indexed": false,
          "internalType": "uint256",
          "name": "weight",
          "type": "uint256"
        },
        {
          "indexed": false,
          "internalType": "string",
          "name": "reason",
          "type": "string"
        }
      ],
      "name": "VoteCast",
      "type": "event"
    },
    {
      "anonymous": false,
      "inputs": [
        {
          "indexed": false,
          "internalType": "uint256",
          "name": "oldVotingDelay",
          "type": "uint256"
        },
        {
          "indexed": false,
          "internalType": "uint256",
          "name": "newVotingDelay",
          "type": "uint256"
        }
      ],
      "name": "VotingDelaySet",
      "type": "event"
    },
    {
      "anonymous": false,
      "inputs": [
        {
          "indexed": false,
          "internalType": "uint256",
          "name": "oldVotingPeriod",
          "type": "uint256"
        },
        {
          "indexed": false,
          "internalType": "uint256",
          "name": "newVotingPeriod",
          "type": "uint256"
        }
      ],
      "name": "VotingPeriodSet",
      "type": "event"
    },
    {
      "inputs": [],
      "name": "BALLOT_TYPEHASH",
      "outputs": [
        {
          "internalType": "bytes32",
          "name": "",
          "type": "bytes32"
        }
      ],
      "stateMutability": "view",
      "type": "function",
      "constant": true
    },
    {
      "inputs": [],
      "name": "COUNTING_MODE",
      "outputs": [
        {
          "internalType": "string",
          "name": "",
          "type": "string"
        }
      ],
      "stateMutability": "pure",
      "type": "function",
      "constant": true
    },
    {
      "inputs": [
        {
          "internalType": "uint256",
          "name": "proposalId",
          "type": "uint256"
        },
        {
          "internalType": "uint8",
          "name": "support",
          "type": "uint8"
        }
      ],
      "name": "castVote",
      "outputs": [
        {
          "internalType": "uint256",
          "name": "",
          "type": "uint256"
        }
      ],
      "stateMutability": "nonpayable",
      "type": "function"
    },
    {
      "inputs": [
        {
          "internalType": "uint256",
          "name": "proposalId",
          "type": "uint256"
        },
        {
          "internalType": "uint8",
          "name": "support",
          "type": "uint8"
        },
        {
          "internalType": "uint8",
          "name": "v",
          "type": "uint8"
        },
        {
          "internalType": "bytes32",
          "name": "r",
          "type": "bytes32"
        },
        {
          "internalType": "bytes32",
          "name": "s",
          "type": "bytes32"
        }
      ],
      "name": "castVoteBySig",
      "outputs": [
        {
          "internalType": "uint256",
          "name": "",
          "type": "uint256"
        }
      ],
      "stateMutability": "nonpayable",
      "type": "function"
    },
    {
      "inputs": [
        {
          "internalType": "uint256",
          "name": "proposalId",
          "type": "uint256"
        },
        {
          "internalType": "uint8",
          "name": "support",
          "type": "uint8"
        },
        {
          "internalType": "string",
          "name": "reason",
          "type": "string"
        }
      ],
      "name": "castVoteWithReason",
      "outputs": [
        {
          "internalType": "uint256",
          "name": "",
          "type": "uint256"
        }
      ],
      "stateMutability": "nonpayable",
      "type": "function"
    },
    {
      "inputs": [
        {
          "internalType": "address[]",
          "name": "targets",
          "type": "address[]"
        },
        {
          "internalType": "uint256[]",
          "name": "values",
          "type": "uint256[]"
        },
        {
          "internalType": "bytes[]",
          "name": "calldatas",
          "type": "bytes[]"
        },
        {
          "internalType": "bytes32",
          "name": "descriptionHash",
          "type": "bytes32"
        }
      ],
      "name": "execute",
      "outputs": [
        {
          "internalType": "uint256",
          "name": "",
          "type": "uint256"
        }
      ],
      "stateMutability": "payable",
      "type": "function",
      "payable": true
    },
    {
      "inputs": [
        {
          "internalType": "uint256",
          "name": "proposalId",
          "type": "uint256"
        },
        {
          "internalType": "address",
          "name": "account",
          "type": "address"
        }
      ],
      "name": "hasVoted",
      "outputs": [
        {
          "internalType": "bool",
          "name": "",
          "type": "bool"
        }
      ],
      "stateMutability": "view",
      "type": "function",
      "constant": true
    },
    {
      "inputs": [
        {
          "internalType": "address[]",
          "name": "targets",
          "type": "address[]"
        },
        {
          "internalType": "uint256[]",
          "name": "values",
          "type": "uint256[]"
        },
        {
          "internalType": "bytes[]",
          "name": "calldatas",
          "type": "bytes[]"
        },
        {
          "internalType": "bytes32",
          "name": "descriptionHash",
          "type": "bytes32"
        }
      ],
      "name": "hashProposal",
      "outputs": [
        {
          "internalType": "uint256",
          "name": "",
          "type": "uint256"
        }
      ],
      "stateMutability": "pure",
      "type": "function",
      "constant": true
    },
    {
      "inputs": [],
      "name": "name",
      "outputs": [
        {
          "internalType": "string",
          "name": "",
          "type": "string"
        }
      ],
      "stateMutability": "view",
      "type": "function",
      "constant": true
    },
    {
      "inputs": [
        {
          "internalType": "uint256",
          "name": "proposalId",
          "type": "uint256"
        }
      ],
      "name": "proposalDeadline",
      "outputs": [
        {
          "internalType": "uint256",
          "name": "",
          "type": "uint256"
        }
      ],
      "stateMutability": "view",
      "type": "function",
      "constant": true
    },
    {
      "inputs": [
        {
          "internalType": "uint256",
          "name": "proposalId",
          "type": "uint256"
        }
      ],
      "name": "proposalSnapshot",
      "outputs": [
        {
          "internalType": "uint256",
          "name": "",
          "type": "uint256"
        }
      ],
      "stateMutability": "view",
      "type": "function",
      "constant": true
    },
    {
      "inputs": [
        {
          "internalType": "uint256",
          "name": "proposalId",
          "type": "uint256"
        }
      ],
      "name": "proposalVotes",
      "outputs": [
        {
          "internalType": "uint256",
          "name": "againstVotes",
          "type": "uint256"
        },
        {
          "internalType": "uint256",
          "name": "forVotes",
          "type": "uint256"
        },
        {
          "internalType": "uint256",
          "name": "abstainVotes",
          "type": "uint256"
        }
      ],
      "stateMutability": "view",
      "type": "function",
      "constant": true
    },
    {
      "inputs": [
        {
          "internalType": "address[]",
          "name": "targets",
          "type": "address[]"
        },
        {
          "internalType": "uint256[]",
          "name": "values",
          "type": "uint256[]"
        },
        {
          "internalType": "bytes[]",
          "name": "calldatas",
          "type": "bytes[]"
        },
        {
          "internalType": "string",
          "name": "description",
          "type": "string"
        }
      ],
      "name": "propose",
      "outputs": [
        {
          "internalType": "uint256",
          "name": "",
          "type": "uint256"
        }
      ],
      "stateMutability": "nonpayable",
      "type": "function"
    },
    {
      "inputs": [],
      "name": "quorumDenominator",
      "outputs": [
        {
          "internalType": "uint256",
          "name": "",
          "type": "uint256"
        }
      ],
      "stateMutability": "view",
      "type": "function",
      "constant": true
    },
    {
      "inputs": [],
      "name": "quorumNumerator",
      "outputs": [
        {
          "internalType": "uint256",
          "name": "",
          "type": "uint256"
        }
      ],
      "stateMutability": "view",
      "type": "function",
      "constant": true
    },
    {
      "inputs": [
        {
          "internalType": "uint256",
          "name": "newProposalThreshold",
          "type": "uint256"
        }
      ],
      "name": "setProposalThreshold",
      "outputs": [],
      "stateMutability": "nonpayable",
      "type": "function"
    },
    {
      "inputs": [
        {
          "internalType": "uint256",
          "name": "newVotingDelay",
          "type": "uint256"
        }
      ],
      "name": "setVotingDelay",
      "outputs": [],
      "stateMutability": "nonpayable",
      "type": "function"
    },
    {
      "inputs": [
        {
          "internalType": "uint256",
          "name": "newVotingPeriod",
          "type": "uint256"
        }
      ],
      "name": "setVotingPeriod",
      "outputs": [],
      "stateMutability": "nonpayable",
      "type": "function"
    },
    {
      "inputs": [
        {
          "internalType": "uint256",
          "name": "proposalId",
          "type": "uint256"
        }
      ],
      "name": "state",
      "outputs": [
        {
          "internalType": "enum IGovernor.ProposalState",
          "name": "",
          "type": "uint8"
        }
      ],
      "stateMutability": "view",
      "type": "function",
      "constant": true
    },
    {
      "inputs": [
        {
          "internalType": "bytes4",
          "name": "interfaceId",
          "type": "bytes4"
        }
      ],
      "name": "supportsInterface",
      "outputs": [
        {
          "internalType": "bool",
          "name": "",
          "type": "bool"
        }
      ],
      "stateMutability": "view",
      "type": "function",
      "constant": true
    },
    {
      "inputs": [],
      "name": "token",
      "outputs": [
        {
          "internalType": "contract ERC20Votes",
          "name": "",
          "type": "address"
        }
      ],
      "stateMutability": "view",
      "type": "function",
      "constant": true
    },
    {
      "inputs": [
        {
          "internalType": "uint256",
          "name": "newQuorumNumerator",
          "type": "uint256"
        }
      ],
      "name": "updateQuorumNumerator",
      "outputs": [],
      "stateMutability": "nonpayable",
      "type": "function"
    },
    {
      "inputs": [],
      "name": "version",
      "outputs": [
        {
          "internalType": "string",
          "name": "",
          "type": "string"
        }
      ],
      "stateMutability": "view",
      "type": "function",
      "constant": true
    },
    {
      "stateMutability": "payable",
      "type": "receive",
      "payable": true
    },
    {
      "inputs": [],
      "name": "votingDelay",
      "outputs": [
        {
          "internalType": "uint256",
          "name": "",
          "type": "uint256"
        }
      ],
      "stateMutability": "view",
      "type": "function",
      "constant": true
    },
    {
      "inputs": [],
      "name": "votingPeriod",
      "outputs": [
        {
          "internalType": "uint256",
          "name": "",
          "type": "uint256"
        }
      ],
      "stateMutability": "view",
      "type": "function",
      "constant": true
    },
    {
      "inputs": [
        {
          "internalType": "uint256",
          "name": "blockNumber",
          "type": "uint256"
        }
      ],
      "name": "quorum",
      "outputs": [
        {
          "internalType": "uint256",
          "name": "",
          "type": "uint256"
        }
      ],
      "stateMutability": "view",
      "type": "function",
      "constant": true
    },
    {
      "inputs": [
        {
          "internalType": "address",
          "name": "account",
          "type": "address"
        },
        {
          "internalType": "uint256",
          "name": "blockNumber",
          "type": "uint256"
        }
      ],
      "name": "getVotes",
      "outputs": [
        {
          "internalType": "uint256",
          "name": "",
          "type": "uint256"
        }
      ],
      "stateMutability": "view",
      "type": "function",
      "constant": true
    },
    {
      "inputs": [],
      "name": "proposalThreshold",
      "outputs": [
        {
          "internalType": "uint256",
          "name": "",
          "type": "uint256"
        }
      ],
      "stateMutability": "view",
      "type": "function",
      "constant": true
    }
  ],
  "bytecode": "0x6101606040523480156200001257600080fd5b5060405162004c0f38038062004c0f83398181016040528101906200003891906200054f565b6004816001600a69152d02c7e14af68000006040518060400160405280600d81526020017f48756d616e476f7665726e6f72000000000000000000000000000000000000008152508062000091620001e260201b60201c565b60008280519060200120905060008280519060200120905060007f8b73c3c69bb8fe3d512ecc4cf759cc79239f7b179b0ffacaa9a75d522b39400f90508260e081815250508161010081815250504660a08181525050620000fa8184846200021f60201b60201c565b608081815250503073ffffffffffffffffffffffffffffffffffffffff1660c08173ffffffffffffffffffffffffffffffffffffffff1681525050806101208181525050505050505080600090805190602001906200015b92919062000421565b50506200016e836200025b60201b60201c565b6200017f82620002a260201b60201c565b62000190816200032f60201b60201c565b5050508073ffffffffffffffffffffffffffffffffffffffff166101408173ffffffffffffffffffffffffffffffffffffffff168152505050620001da816200037660201b60201c565b50506200081e565b60606040518060400160405280600181526020017f3100000000000000000000000000000000000000000000000000000000000000815250905090565b600083838346306040516020016200023c959493929190620005c8565b6040516020818303038152906040528051906020012090509392505050565b7fc565b045403dc03c2eea82b81a0465edad9e2e7fc4d97e11421c209da93d7a93600254826040516200029092919062000625565b60405180910390a18060028190555050565b60008111620002e8576040517f08c379a0000000000000000000000000000000000000000000000000000000008152600401620002df90620006d9565b60405180910390fd5b7f7e3f7f0708a84de9203036abaa450dccc85ad5ff52f78c170f3edb55cf5e8828600354826040516200031d92919062000625565b60405180910390a18060038190555050565b7fccb45da8d5717e6c4544694297c4ba5cf151d455c9bb0ed4fc7a38411bc05461600454826040516200036492919062000625565b60405180910390a18060048190555050565b620003866200041860201b60201c565b811115620003cb576040517f08c379a0000000000000000000000000000000000000000000000000000000008152600401620003c29062000797565b60405180910390fd5b60006006549050816006819055507f0553476bf02ef2726e8ce5ced78d63e26e602e4a2257b1f559418e24b463399781836040516200040c92919062000625565b60405180910390a15050565b60006064905090565b8280546200042f90620007e8565b90600052602060002090601f0160209004810192826200045357600085556200049f565b82601f106200046e57805160ff19168380011785556200049f565b828001600101855582156200049f579182015b828111156200049e57825182559160200191906001019062000481565b5b509050620004ae9190620004b2565b5090565b5b80821115620004cd576000816000905550600101620004b3565b5090565b600080fd5b600073ffffffffffffffffffffffffffffffffffffffff82169050919050565b60006200050382620004d6565b9050919050565b60006200051782620004f6565b9050919050565b62000529816200050a565b81146200053557600080fd5b50565b60008151905062000549816200051e565b92915050565b600060208284031215620005685762000567620004d1565b5b6000620005788482850162000538565b91505092915050565b6000819050919050565b620005968162000581565b82525050565b6000819050919050565b620005b1816200059c565b82525050565b620005c281620004f6565b82525050565b600060a082019050620005df60008301886200058b565b620005ee60208301876200058b565b620005fd60408301866200058b565b6200060c6060830185620005a6565b6200061b6080830184620005b7565b9695505050505050565b60006040820190506200063c6000830185620005a6565b6200064b6020830184620005a6565b9392505050565b600082825260208201905092915050565b7f476f7665726e6f7253657474696e67733a20766f74696e6720706572696f642060008201527f746f6f206c6f7700000000000000000000000000000000000000000000000000602082015250565b6000620006c160278362000652565b9150620006ce8262000663565b604082019050919050565b60006020820190508181036000830152620006f481620006b2565b9050919050565b7f476f7665726e6f72566f74657351756f72756d4672616374696f6e3a2071756f60008201527f72756d4e756d657261746f72206f7665722071756f72756d44656e6f6d696e6160208201527f746f720000000000000000000000000000000000000000000000000000000000604082015250565b60006200077f60438362000652565b91506200078c82620006fb565b606082019050919050565b60006020820190508181036000830152620007b28162000770565b9050919050565b7f4e487b7100000000000000000000000000000000000000000000000000000000600052602260045260246000fd5b600060028204905060018216806200080157607f821691505b60208210811415620008185762000817620007b9565b5b50919050565b60805160a05160c05160e05161010051610120516101405161438862000887600039600081816114cb01528181611ad70152611bd201526000611d9a01526000611ddc01526000611dbb01526000611cf001526000611d4601526000611d6f01526143886000f3fe6080604052600436106101bb5760003560e01c80637b3c71d3116100ec578063dd4e2ba51161008a578063eb9019d411610064578063eb9019d4146106d5578063ece40cc114610712578063f8ce560a1461073b578063fc0c546a1461077857610201565b8063dd4e2ba514610656578063deaaa7cc14610681578063ea0217cf146106ac57610201565b8063a7713a70116100c6578063a7713a7014610586578063b58131b0146105b1578063c01f9e37146105dc578063c59057e41461061957610201565b80637b3c71d3146104e15780637d5e81e21461051e57806397c3d3341461055b57610201565b80633bccf4fd11610159578063544ffc9c11610133578063544ffc9c1461041157806354fd4d5014610450578063567813881461047b57806370b0f660146104b857610201565b80633bccf4fd1461035a5780633e4f49e61461039757806343859632146103d457610201565b806306fdde031161019557806306fdde03146102975780632656227d146102c25780632d63f693146102f25780633932abb11461032f57610201565b806301ffc9a71461020657806302a251a31461024357806306f3f9e61461026e57610201565b36610201573073ffffffffffffffffffffffffffffffffffffffff166101df6107a3565b73ffffffffffffffffffffffffffffffffffffffff16146101ff57600080fd5b005b600080fd5b34801561021257600080fd5b5061022d600480360381019061022891906123e1565b6107ab565b60405161023a9190612429565b60405180910390f35b34801561024f57600080fd5b50610258610825565b604051610265919061245d565b60405180910390f35b34801561027a57600080fd5b50610295600480360381019061029091906124a4565b610834565b005b3480156102a357600080fd5b506102ac6108bc565b6040516102b9919061256a565b60405180910390f35b6102dc60048036038101906102d791906129c1565b61094e565b6040516102e9919061245d565b60405180910390f35b3480156102fe57600080fd5b50610319600480360381019061031491906124a4565b610a81565b604051610326919061245d565b60405180910390f35b34801561033b57600080fd5b50610344610aef565b604051610351919061245d565b60405180910390f35b34801561036657600080fd5b50610381600480360381019061037c9190612ab5565b610afe565b60405161038e919061245d565b60405180910390f35b3480156103a357600080fd5b506103be60048036038101906103b991906124a4565b610b88565b6040516103cb9190612ba7565b60405180910390f35b3480156103e057600080fd5b506103fb60048036038101906103f69190612bc2565b610d65565b6040516104089190612429565b60405180910390f35b34801561041d57600080fd5b50610438600480360381019061043391906124a4565b610dd0565b60405161044793929190612c02565b60405180910390f35b34801561045c57600080fd5b50610465610e08565b604051610472919061256a565b60405180910390f35b34801561048757600080fd5b506104a2600480360381019061049d9190612c39565b610e45565b6040516104af919061245d565b60405180910390f35b3480156104c457600080fd5b506104df60048036038101906104da91906124a4565b610e76565b005b3480156104ed57600080fd5b5061050860048036038101906105039190612cd4565b610efe565b604051610515919061245d565b60405180910390f35b34801561052a57600080fd5b5061054560048036038101906105409190612de9565b610f66565b604051610552919061245d565b60405180910390f35b34801561056757600080fd5b50610570611266565b60405161057d919061245d565b60405180910390f35b34801561059257600080fd5b5061059b61126f565b6040516105a8919061245d565b60405180910390f35b3480156105bd57600080fd5b506105c6611279565b6040516105d3919061245d565b60405180910390f35b3480156105e857600080fd5b5061060360048036038101906105fe91906124a4565b611288565b604051610610919061245d565b60405180910390f35b34801561062557600080fd5b50610640600480360381019061063b91906129c1565b6112f6565b60405161064d919061245d565b60405180910390f35b34801561066257600080fd5b5061066b611332565b604051610678919061256a565b60405180910390f35b34801561068d57600080fd5b5061069661136f565b6040516106a39190612ecf565b60405180910390f35b3480156106b857600080fd5b506106d360048036038101906106ce91906124a4565b611393565b005b3480156106e157600080fd5b506106fc60048036038101906106f79190612eea565b61141b565b604051610709919061245d565b60405180910390f35b34801561071e57600080fd5b50610739600480360381019061073491906124a4565b61142f565b005b34801561074757600080fd5b50610762600480360381019061075d91906124a4565b6114b7565b60405161076f919061245d565b60405180910390f35b34801561078457600080fd5b5061078d6114c9565b60405161079a9190612f89565b60405180910390f35b600030905090565b60007fbf26d897000000000000000000000000000000000000000000000000000000007bffffffffffffffffffffffffffffffffffffffffffffffffffffffff1916827bffffffffffffffffffffffffffffffffffffffffffffffffffffffff1916148061081e575061081d826114ed565b5b9050919050565b600061082f611557565b905090565b61083c6107a3565b73ffffffffffffffffffffffffffffffffffffffff1661085a611561565b73ffffffffffffffffffffffffffffffffffffffff16146108b0576040517f08c379a00000000000000000000000000000000000000000000000000000000081526004016108a790612ff0565b60405180910390fd5b6108b981611569565b50565b6060600080546108cb9061303f565b80601f01602080910402602001604051908101604052809291908181526020018280546108f79061303f565b80156109445780601f1061091957610100808354040283529160200191610944565b820191906000526020600020905b81548152906001019060200180831161092757829003601f168201915b5050505050905090565b60008061095d868686866112f6565b9050600061096a82610b88565b9050600460078111156109805761097f612b30565b5b81600781111561099357610992612b30565b5b14806109c35750600560078111156109ae576109ad612b30565b5b8160078111156109c1576109c0612b30565b5b145b610a02576040517f08c379a00000000000000000000000000000000000000000000000000000000081526004016109f9906130e3565b60405180910390fd5b600180600084815260200190815260200160002060020160006101000a81548160ff0219169083151502179055507f712ae1383f79ac853f8d882153778e0260ef8f03b504e2866e0593e04d2b291f82604051610a5f919061245d565b60405180910390a1610a7482888888886115fe565b8192505050949350505050565b6000610ade600160008481526020019081526020016000206000016040518060200160405290816000820160009054906101000a900467ffffffffffffffff1667ffffffffffffffff1667ffffffffffffffff168152505061170d565b67ffffffffffffffff169050919050565b6000610af961171b565b905090565b600080610b5f610b577f150214d74d59b7d1e90c73fc22ef3d991dd0a76b046543d4d80ab92d2a50328f8989604051602001610b3c93929190613112565b60405160208183030381529060405280519060200120611725565b86868661173f565b9050610b7c8782886040518060200160405280600081525061176a565b91505095945050505050565b60008060016000848152602001908152602001600020604051806080016040529081600082016040518060200160405290816000820160009054906101000a900467ffffffffffffffff1667ffffffffffffffff1667ffffffffffffffff16815250508152602001600182016040518060200160405290816000820160009054906101000a900467ffffffffffffffff1667ffffffffffffffff1667ffffffffffffffff168152505081526020016002820160009054906101000a900460ff161515151581526020016002820160019054906101000a900460ff1615151515815250509050806040015115610c81576007915050610d60565b806060015115610c95576002915050610d60565b43610ca3826000015161170d565b67ffffffffffffffff1610610cbc576000915050610d60565b43610cca826020015161170d565b67ffffffffffffffff1610610ce3576001915050610d60565b610cf081602001516118be565b15610d2557610cfe836118ea565b8015610d0f5750610d0e83611931565b5b610d1a576003610d1d565b60045b915050610d60565b6040517f08c379a0000000000000000000000000000000000000000000000000000000008152600401610d5790613195565b60405180910390fd5b919050565b60006005600084815260200190815260200160002060030160008373ffffffffffffffffffffffffffffffffffffffff1673ffffffffffffffffffffffffffffffffffffffff16815260200190815260200160002060009054906101000a900460ff16905092915050565b600080600080600560008681526020019081526020016000209050806000015481600101548260020154935093509350509193909250565b60606040518060400160405280600181526020017f3100000000000000000000000000000000000000000000000000000000000000815250905090565b600080610e50611561565b9050610e6d8482856040518060200160405280600081525061176a565b91505092915050565b610e7e6107a3565b73ffffffffffffffffffffffffffffffffffffffff16610e9c611561565b73ffffffffffffffffffffffffffffffffffffffff1614610ef2576040517f08c379a0000000000000000000000000000000000000000000000000000000008152600401610ee990612ff0565b60405180910390fd5b610efb8161195c565b50565b600080610f09611561565b9050610f5b86828787878080601f016020809104026020016040519081016040528093929190818152602001838380828437600081840152601f19601f8201169050808301925050505050505061176a565b915050949350505050565b6000610f70611279565b610f8633600143610f8191906131e4565b61141b565b1015610fc7576040517f08c379a0000000000000000000000000000000000000000000000000000000008152600401610fbe906132b0565b60405180910390fd5b6000610fdc86868686805190602001206112f6565b90508451865114611022576040517f08c379a000000000000000000000000000000000000000000000000000000000815260040161101990613342565b60405180910390fd5b8351865114611066576040517f08c379a000000000000000000000000000000000000000000000000000000000815260040161105d90613342565b60405180910390fd5b60008651116110aa576040517f08c379a00000000000000000000000000000000000000000000000000000000081526004016110a1906133ae565b60405180910390fd5b600060016000838152602001908152602001600020905061110a816000016040518060200160405290816000820160009054906101000a900467ffffffffffffffff1667ffffffffffffffff1667ffffffffffffffff16815250506119a1565b611149576040517f08c379a000000000000000000000000000000000000000000000000000000000815260040161114090613440565b60405180910390fd5b600061115b611156610aef565b6119bb565b611164436119bb565b61116e9190613474565b9050600061118261117d610825565b6119bb565b8261118d9190613474565b90506111a58284600001611a1290919063ffffffff16565b6111bb8184600101611a1290919063ffffffff16565b7f7d84a6263ae0d98d3329bd7b46bb4e8d6f98cd35a7adb45c274c8b7fd5ebd5e0846111e5611561565b8b8b8d5167ffffffffffffffff81111561120257611201612591565b5b60405190808252806020026020018201604052801561123557816020015b60608152602001906001900390816112205790505b508c88888e60405161124f99989796959493929190613891565b60405180910390a183945050505050949350505050565b60006064905090565b6000600654905090565b6000611283611a41565b905090565b60006112e5600160008481526020019081526020016000206001016040518060200160405290816000820160009054906101000a900467ffffffffffffffff1667ffffffffffffffff1667ffffffffffffffff168152505061170d565b67ffffffffffffffff169050919050565b60008484848460405160200161130f9493929190613941565b6040516020818303038152906040528051906020012060001c9050949350505050565b60606040518060400160405280602081526020017f737570706f72743d627261766f2671756f72756d3d666f722c6162737461696e815250905090565b7f150214d74d59b7d1e90c73fc22ef3d991dd0a76b046543d4d80ab92d2a50328f81565b61139b6107a3565b73ffffffffffffffffffffffffffffffffffffffff166113b9611561565b73ffffffffffffffffffffffffffffffffffffffff161461140f576040517f08c379a000000000000000000000000000000000000000000000000000000000815260040161140690612ff0565b60405180910390fd5b61141881611a4b565b50565b60006114278383611ad3565b905092915050565b6114376107a3565b73ffffffffffffffffffffffffffffffffffffffff16611455611561565b73ffffffffffffffffffffffffffffffffffffffff16146114ab576040517f08c379a00000000000000000000000000000000000000000000000000000000081526004016114a290612ff0565b60405180910390fd5b6114b481611b79565b50565b60006114c282611bbe565b9050919050565b7f000000000000000000000000000000000000000000000000000000000000000081565b60007f01ffc9a7000000000000000000000000000000000000000000000000000000007bffffffffffffffffffffffffffffffffffffffffffffffffffffffff1916827bffffffffffffffffffffffffffffffffffffffffffffffffffffffff1916149050919050565b6000600354905090565b600033905090565b611571611266565b8111156115b3576040517f08c379a00000000000000000000000000000000000000000000000000000000081526004016115aa90613a33565b60405180910390fd5b60006006549050816006819055507f0553476bf02ef2726e8ce5ced78d63e26e602e4a2257b1f559418e24b463399781836040516115f2929190613a53565b60405180910390a15050565b600060405180606001604052806027815260200161432c60279139905060005b85518110156117045760008087838151811061163d5761163c613a7c565b5b602002602001015173ffffffffffffffffffffffffffffffffffffffff1687848151811061166e5761166d613a7c565b5b602002602001015187858151811061168957611688613a7c565b5b602002602001015160405161169e9190613ae7565b60006040518083038185875af1925050503d80600081146116db576040519150601f19603f3d011682016040523d82523d6000602084013e6116e0565b606091505b50915091506116f0828286611c85565b505050806116fd90613afe565b905061161e565b50505050505050565b600081600001519050919050565b6000600254905090565b6000611738611732611cec565b83611e06565b9050919050565b600080600061175087878787611e39565b9150915061175d81611f46565b8192505050949350505050565b6000806001600087815260200190815260200160002090506001600781111561179657611795612b30565b5b61179f87610b88565b60078111156117b1576117b0612b30565b5b146117f1576040517f08c379a00000000000000000000000000000000000000000000000000000000081526004016117e890613bb9565b60405180910390fd5b600061184f86611840846000016040518060200160405290816000820160009054906101000a900467ffffffffffffffff1667ffffffffffffffff1667ffffffffffffffff168152505061170d565b67ffffffffffffffff1661141b565b905061185d8787878461211b565b8573ffffffffffffffffffffffffffffffffffffffff167fb8e138887d0aa13bab447e82de9d5c1777041ecd21ca36ba824ff1e6c07ddda4888784886040516118a99493929190613bd9565b60405180910390a28092505050949350505050565b60006118c982612321565b80156118e3575043826000015167ffffffffffffffff1611155b9050919050565b600080600560008481526020019081526020016000209050806002015481600101546119169190613c25565b61192761192285610a81565b6114b7565b1115915050919050565b6000806005600084815260200190815260200160002090508060000154816001015411915050919050565b7fc565b045403dc03c2eea82b81a0465edad9e2e7fc4d97e11421c209da93d7a936002548260405161198f929190613a53565b60405180910390a18060028190555050565b600080826000015167ffffffffffffffff16149050919050565b600067ffffffffffffffff8016821115611a0a576040517f08c379a0000000000000000000000000000000000000000000000000000000008152600401611a0190613ced565b60405180910390fd5b819050919050565b808260000160006101000a81548167ffffffffffffffff021916908367ffffffffffffffff1602179055505050565b6000600454905090565b60008111611a8e576040517f08c379a0000000000000000000000000000000000000000000000000000000008152600401611a8590613d7f565b60405180910390fd5b7f7e3f7f0708a84de9203036abaa450dccc85ad5ff52f78c170f3edb55cf5e882860035482604051611ac1929190613a53565b60405180910390a18060038190555050565b60007f000000000000000000000000000000000000000000000000000000000000000073ffffffffffffffffffffffffffffffffffffffff16633a46b1a884846040518363ffffffff1660e01b8152600401611b30929190613d9f565b602060405180830381865afa158015611b4d573d6000803e3d6000fd5b505050506040513d601f19601f82011682018060405250810190611b719190613ddd565b905092915050565b7fccb45da8d5717e6c4544694297c4ba5cf151d455c9bb0ed4fc7a38411bc0546160045482604051611bac929190613a53565b60405180910390a18060048190555050565b6000611bc8611266565b611bd061126f565b7f000000000000000000000000000000000000000000000000000000000000000073ffffffffffffffffffffffffffffffffffffffff16638e539e8c856040518263ffffffff1660e01b8152600401611c29919061245d565b602060405180830381865afa158015611c46573d6000803e3d6000fd5b505050506040513d601f19601f82011682018060405250810190611c6a9190613ddd565b611c749190613e0a565b611c7e9190613e93565b9050919050565b60608315611c9557829050611ce5565b600083511115611ca85782518084602001fd5b816040517f08c379a0000000000000000000000000000000000000000000000000000000008152600401611cdc919061256a565b60405180910390fd5b9392505050565b60007f000000000000000000000000000000000000000000000000000000000000000073ffffffffffffffffffffffffffffffffffffffff163073ffffffffffffffffffffffffffffffffffffffff16148015611d6857507f000000000000000000000000000000000000000000000000000000000000000046145b15611d95577f00000000000000000000000000000000000000000000000000000000000000009050611e03565b611e007f00000000000000000000000000000000000000000000000000000000000000007f00000000000000000000000000000000000000000000000000000000000000007f000000000000000000000000000000000000000000000000000000000000000061233b565b90505b90565b60008282604051602001611e1b929190613f3c565b60405160208183030381529060405280519060200120905092915050565b6000807f7fffffffffffffffffffffffffffffff5d576e7357a4501ddfe92f46681b20a08360001c1115611e74576000600391509150611f3d565b601b8560ff1614158015611e8c5750601c8560ff1614155b15611e9e576000600491509150611f3d565b600060018787878760405160008152602001604052604051611ec39493929190613f73565b6020604051602081039080840390855afa158015611ee5573d6000803e3d6000fd5b505050602060405103519050600073ffffffffffffffffffffffffffffffffffffffff168173ffffffffffffffffffffffffffffffffffffffff161415611f3457600060019250925050611f3d565b80600092509250505b94509492505050565b60006004811115611f5a57611f59612b30565b5b816004811115611f6d57611f6c612b30565b5b1415611f7857612118565b60016004811115611f8c57611f8b612b30565b5b816004811115611f9f57611f9e612b30565b5b1415611fe0576040517f08c379a0000000000000000000000000000000000000000000000000000000008152600401611fd790614004565b60405180910390fd5b60026004811115611ff457611ff3612b30565b5b81600481111561200757612006612b30565b5b1415612048576040517f08c379a000000000000000000000000000000000000000000000000000000000815260040161203f90614070565b60405180910390fd5b6003600481111561205c5761205b612b30565b5b81600481111561206f5761206e612b30565b5b14156120b0576040517f08c379a00000000000000000000000000000000000000000000000000000000081526004016120a790614102565b60405180910390fd5b6004808111156120c3576120c2612b30565b5b8160048111156120d6576120d5612b30565b5b1415612117576040517f08c379a000000000000000000000000000000000000000000000000000000000815260040161210e90614194565b60405180910390fd5b5b50565b60006005600086815260200190815260200160002090508060030160008573ffffffffffffffffffffffffffffffffffffffff1673ffffffffffffffffffffffffffffffffffffffff16815260200190815260200160002060009054906101000a900460ff16156121c1576040517f08c379a00000000000000000000000000000000000000000000000000000000081526004016121b890614226565b60405180910390fd5b60018160030160008673ffffffffffffffffffffffffffffffffffffffff1673ffffffffffffffffffffffffffffffffffffffff16815260200190815260200160002060006101000a81548160ff0219169083151502179055506000600281111561222f5761222e612b30565b5b60ff168360ff16141561225c57818160000160008282546122509190613c25565b9250508190555061231a565b600160028111156122705761226f612b30565b5b60ff168360ff16141561229d57818160010160008282546122919190613c25565b92505081905550612319565b6002808111156122b0576122af612b30565b5b60ff168360ff1614156122dd57818160020160008282546122d19190613c25565b92505081905550612318565b6040517f08c379a000000000000000000000000000000000000000000000000000000000815260040161230f906142b8565b60405180910390fd5b5b5b5050505050565b600080826000015167ffffffffffffffff16119050919050565b600083838346306040516020016123569594939291906142d8565b6040516020818303038152906040528051906020012090509392505050565b6000604051905090565b600080fd5b600080fd5b60007fffffffff0000000000000000000000000000000000000000000000000000000082169050919050565b6123be81612389565b81146123c957600080fd5b50565b6000813590506123db816123b5565b92915050565b6000602082840312156123f7576123f661237f565b5b6000612405848285016123cc565b91505092915050565b60008115159050919050565b6124238161240e565b82525050565b600060208201905061243e600083018461241a565b92915050565b6000819050919050565b61245781612444565b82525050565b6000602082019050612472600083018461244e565b92915050565b61248181612444565b811461248c57600080fd5b50565b60008135905061249e81612478565b92915050565b6000602082840312156124ba576124b961237f565b5b60006124c88482850161248f565b91505092915050565b600081519050919050565b600082825260208201905092915050565b60005b8381101561250b5780820151818401526020810190506124f0565b8381111561251a576000848401525b50505050565b6000601f19601f8301169050919050565b600061253c826124d1565b61254681856124dc565b93506125568185602086016124ed565b61255f81612520565b840191505092915050565b600060208201905081810360008301526125848184612531565b905092915050565b600080fd5b7f4e487b7100000000000000000000000000000000000000000000000000000000600052604160045260246000fd5b6125c982612520565b810181811067ffffffffffffffff821117156125e8576125e7612591565b5b80604052505050565b60006125fb612375565b905061260782826125c0565b919050565b600067ffffffffffffffff82111561262757612626612591565b5b602082029050602081019050919050565b600080fd5b600073ffffffffffffffffffffffffffffffffffffffff82169050919050565b60006126688261263d565b9050919050565b6126788161265d565b811461268357600080fd5b50565b6000813590506126958161266f565b92915050565b60006126ae6126a98461260c565b6125f1565b905080838252602082019050602084028301858111156126d1576126d0612638565b5b835b818110156126fa57806126e68882612686565b8452602084019350506020810190506126d3565b5050509392505050565b600082601f8301126127195761271861258c565b5b813561272984826020860161269b565b91505092915050565b600067ffffffffffffffff82111561274d5761274c612591565b5b602082029050602081019050919050565b600061277161276c84612732565b6125f1565b9050808382526020820190506020840283018581111561279457612793612638565b5b835b818110156127bd57806127a9888261248f565b845260208401935050602081019050612796565b5050509392505050565b600082601f8301126127dc576127db61258c565b5b81356127ec84826020860161275e565b91505092915050565b600067ffffffffffffffff8211156128105761280f612591565b5b602082029050602081019050919050565b600080fd5b600067ffffffffffffffff82111561284157612840612591565b5b61284a82612520565b9050602081019050919050565b82818337600083830152505050565b600061287961287484612826565b6125f1565b90508281526020810184848401111561289557612894612821565b5b6128a0848285612857565b509392505050565b600082601f8301126128bd576128bc61258c565b5b81356128cd848260208601612866565b91505092915050565b60006128e96128e4846127f5565b6125f1565b9050808382526020820190506020840283018581111561290c5761290b612638565b5b835b8181101561295357803567ffffffffffffffff8111156129315761293061258c565b5b80860161293e89826128a8565b8552602085019450505060208101905061290e565b5050509392505050565b600082601f8301126129725761297161258c565b5b81356129828482602086016128d6565b91505092915050565b6000819050919050565b61299e8161298b565b81146129a957600080fd5b50565b6000813590506129bb81612995565b92915050565b600080600080608085870312156129db576129da61237f565b5b600085013567ffffffffffffffff8111156129f9576129f8612384565b5b612a0587828801612704565b945050602085013567ffffffffffffffff811115612a2657612a25612384565b5b612a32878288016127c7565b935050604085013567ffffffffffffffff811115612a5357612a52612384565b5b612a5f8782880161295d565b9250506060612a70878288016129ac565b91505092959194509250565b600060ff82169050919050565b612a9281612a7c565b8114612a9d57600080fd5b50565b600081359050612aaf81612a89565b92915050565b600080600080600060a08688031215612ad157612ad061237f565b5b6000612adf8882890161248f565b9550506020612af088828901612aa0565b9450506040612b0188828901612aa0565b9350506060612b12888289016129ac565b9250506080612b23888289016129ac565b9150509295509295909350565b7f4e487b7100000000000000000000000000000000000000000000000000000000600052602160045260246000fd5b60088110612b7057612b6f612b30565b5b50565b6000819050612b8182612b5f565b919050565b6000612b9182612b73565b9050919050565b612ba181612b86565b82525050565b6000602082019050612bbc6000830184612b98565b92915050565b60008060408385031215612bd957612bd861237f565b5b6000612be78582860161248f565b9250506020612bf885828601612686565b9150509250929050565b6000606082019050612c17600083018661244e565b612c24602083018561244e565b612c31604083018461244e565b949350505050565b60008060408385031215612c5057612c4f61237f565b5b6000612c5e8582860161248f565b9250506020612c6f85828601612aa0565b9150509250929050565b600080fd5b60008083601f840112612c9457612c9361258c565b5b8235905067ffffffffffffffff811115612cb157612cb0612c79565b5b602083019150836001820283011115612ccd57612ccc612638565b5b9250929050565b60008060008060608587031215612cee57612ced61237f565b5b6000612cfc8782880161248f565b9450506020612d0d87828801612aa0565b935050604085013567ffffffffffffffff811115612d2e57612d2d612384565b5b612d3a87828801612c7e565b925092505092959194509250565b600067ffffffffffffffff821115612d6357612d62612591565b5b612d6c82612520565b9050602081019050919050565b6000612d8c612d8784612d48565b6125f1565b905082815260208101848484011115612da857612da7612821565b5b612db3848285612857565b509392505050565b600082601f830112612dd057612dcf61258c565b5b8135612de0848260208601612d79565b91505092915050565b60008060008060808587031215612e0357612e0261237f565b5b600085013567ffffffffffffffff811115612e2157612e20612384565b5b612e2d87828801612704565b945050602085013567ffffffffffffffff811115612e4e57612e4d612384565b5b612e5a878288016127c7565b935050604085013567ffffffffffffffff811115612e7b57612e7a612384565b5b612e878782880161295d565b925050606085013567ffffffffffffffff811115612ea857612ea7612384565b5b612eb487828801612dbb565b91505092959194509250565b612ec98161298b565b82525050565b6000602082019050612ee46000830184612ec0565b92915050565b60008060408385031215612f0157612f0061237f565b5b6000612f0f85828601612686565b9250506020612f208582860161248f565b9150509250929050565b6000819050919050565b6000612f4f612f4a612f458461263d565b612f2a565b61263d565b9050919050565b6000612f6182612f34565b9050919050565b6000612f7382612f56565b9050919050565b612f8381612f68565b82525050565b6000602082019050612f9e6000830184612f7a565b92915050565b7f476f7665726e6f723a206f6e6c79476f7665726e616e63650000000000000000600082015250565b6000612fda6018836124dc565b9150612fe582612fa4565b602082019050919050565b6000602082019050818103600083015261300981612fcd565b9050919050565b7f4e487b7100000000000000000000000000000000000000000000000000000000600052602260045260246000fd5b6000600282049050600182168061305757607f821691505b6020821081141561306b5761306a613010565b5b50919050565b7f476f7665726e6f723a2070726f706f73616c206e6f742073756363657373667560008201527f6c00000000000000000000000000000000000000000000000000000000000000602082015250565b60006130cd6021836124dc565b91506130d882613071565b604082019050919050565b600060208201905081810360008301526130fc816130c0565b9050919050565b61310c81612a7c565b82525050565b60006060820190506131276000830186612ec0565b613134602083018561244e565b6131416040830184613103565b949350505050565b7f476f7665726e6f723a20756e6b6e6f776e2070726f706f73616c206964000000600082015250565b600061317f601d836124dc565b915061318a82613149565b602082019050919050565b600060208201905081810360008301526131ae81613172565b9050919050565b7f4e487b7100000000000000000000000000000000000000000000000000000000600052601160045260246000fd5b60006131ef82612444565b91506131fa83612444565b92508282101561320d5761320c6131b5565b5b828203905092915050565b7f476f7665726e6f72436f6d7061746962696c697479427261766f3a2070726f7060008201527f6f73657220766f7465732062656c6f772070726f706f73616c2074687265736860208201527f6f6c640000000000000000000000000000000000000000000000000000000000604082015250565b600061329a6043836124dc565b91506132a582613218565b606082019050919050565b600060208201905081810360008301526132c98161328d565b9050919050565b7f476f7665726e6f723a20696e76616c69642070726f706f73616c206c656e677460008201527f6800000000000000000000000000000000000000000000000000000000000000602082015250565b600061332c6021836124dc565b9150613337826132d0565b604082019050919050565b6000602082019050818103600083015261335b8161331f565b9050919050565b7f476f7665726e6f723a20656d7074792070726f706f73616c0000000000000000600082015250565b60006133986018836124dc565b91506133a382613362565b602082019050919050565b600060208201905081810360008301526133c78161338b565b9050919050565b7f476f7665726e6f723a2070726f706f73616c20616c726561647920657869737460008201527f7300000000000000000000000000000000000000000000000000000000000000602082015250565b600061342a6021836124dc565b9150613435826133ce565b604082019050919050565b600060208201905081810360008301526134598161341d565b9050919050565b600067ffffffffffffffff82169050919050565b600061347f82613460565b915061348a83613460565b92508267ffffffffffffffff038211156134a7576134a66131b5565b5b828201905092915050565b6134bb8161265d565b82525050565b600081519050919050565b600082825260208201905092915050565b6000819050602082019050919050565b6134f68161265d565b82525050565b600061350883836134ed565b60208301905092915050565b6000602082019050919050565b600061352c826134c1565b61353681856134cc565b9350613541836134dd565b8060005b8381101561357257815161355988826134fc565b975061356483613514565b925050600181019050613545565b5085935050505092915050565b600081519050919050565b600082825260208201905092915050565b6000819050602082019050919050565b6135b481612444565b82525050565b60006135c683836135ab565b60208301905092915050565b6000602082019050919050565b60006135ea8261357f565b6135f4818561358a565b93506135ff8361359b565b8060005b8381101561363057815161361788826135ba565b9750613622836135d2565b925050600181019050613603565b5085935050505092915050565b600081519050919050565b600082825260208201905092915050565b6000819050602082019050919050565b600082825260208201905092915050565b6000613685826124d1565b61368f8185613669565b935061369f8185602086016124ed565b6136a881612520565b840191505092915050565b60006136bf838361367a565b905092915050565b6000602082019050919050565b60006136df8261363d565b6136e98185613648565b9350836020820285016136fb85613659565b8060005b85811015613737578484038952815161371885826136b3565b9450613723836136c7565b925060208a019950506001810190506136ff565b50829750879550505050505092915050565b600081519050919050565b600082825260208201905092915050565b6000819050602082019050919050565b600081519050919050565b600082825260208201905092915050565b600061379c82613775565b6137a68185613780565b93506137b68185602086016124ed565b6137bf81612520565b840191505092915050565b60006137d68383613791565b905092915050565b6000602082019050919050565b60006137f682613749565b6138008185613754565b93508360208202850161381285613765565b8060005b8581101561384e578484038952815161382f85826137ca565b945061383a836137de565b925060208a01995050600181019050613816565b50829750879550505050505092915050565b600061387b61387661387184613460565b612f2a565b612444565b9050919050565b61388b81613860565b82525050565b6000610120820190506138a7600083018c61244e565b6138b4602083018b6134b2565b81810360408301526138c6818a613521565b905081810360608301526138da81896135df565b905081810360808301526138ee81886136d4565b905081810360a083015261390281876137eb565b905061391160c0830186613882565b61391e60e0830185613882565b8181036101008301526139318184612531565b90509a9950505050505050505050565b6000608082019050818103600083015261395b8187613521565b9050818103602083015261396f81866135df565b9050818103604083015261398381856137eb565b90506139926060830184612ec0565b95945050505050565b7f476f7665726e6f72566f74657351756f72756d4672616374696f6e3a2071756f60008201527f72756d4e756d657261746f72206f7665722071756f72756d44656e6f6d696e6160208201527f746f720000000000000000000000000000000000000000000000000000000000604082015250565b6000613a1d6043836124dc565b9150613a288261399b565b606082019050919050565b60006020820190508181036000830152613a4c81613a10565b9050919050565b6000604082019050613a68600083018561244e565b613a75602083018461244e565b9392505050565b7f4e487b7100000000000000000000000000000000000000000000000000000000600052603260045260246000fd5b600081905092915050565b6000613ac182613775565b613acb8185613aab565b9350613adb8185602086016124ed565b80840191505092915050565b6000613af38284613ab6565b915081905092915050565b6000613b0982612444565b91507fffffffffffffffffffffffffffffffffffffffffffffffffffffffffffffffff821415613b3c57613b3b6131b5565b5b600182019050919050565b7f476f7665726e6f723a20766f7465206e6f742063757272656e746c792061637460008201527f6976650000000000000000000000000000000000000000000000000000000000602082015250565b6000613ba36023836124dc565b9150613bae82613b47565b604082019050919050565b60006020820190508181036000830152613bd281613b96565b9050919050565b6000608082019050613bee600083018761244e565b613bfb6020830186613103565b613c08604083018561244e565b8181036060830152613c1a8184612531565b905095945050505050565b6000613c3082612444565b9150613c3b83612444565b9250827fffffffffffffffffffffffffffffffffffffffffffffffffffffffffffffffff03821115613c7057613c6f6131b5565b5b828201905092915050565b7f53616665436173743a2076616c756520646f65736e27742066697420696e203660008201527f3420626974730000000000000000000000000000000000000000000000000000602082015250565b6000613cd76026836124dc565b9150613ce282613c7b565b604082019050919050565b60006020820190508181036000830152613d0681613cca565b9050919050565b7f476f7665726e6f7253657474696e67733a20766f74696e6720706572696f642060008201527f746f6f206c6f7700000000000000000000000000000000000000000000000000602082015250565b6000613d696027836124dc565b9150613d7482613d0d565b604082019050919050565b60006020820190508181036000830152613d9881613d5c565b9050919050565b6000604082019050613db460008301856134b2565b613dc1602083018461244e565b9392505050565b600081519050613dd781612478565b92915050565b600060208284031215613df357613df261237f565b5b6000613e0184828501613dc8565b91505092915050565b6000613e1582612444565b9150613e2083612444565b9250817fffffffffffffffffffffffffffffffffffffffffffffffffffffffffffffffff0483118215151615613e5957613e586131b5565b5b828202905092915050565b7f4e487b7100000000000000000000000000000000000000000000000000000000600052601260045260246000fd5b6000613e9e82612444565b9150613ea983612444565b925082613eb957613eb8613e64565b5b828204905092915050565b600081905092915050565b7f1901000000000000000000000000000000000000000000000000000000000000600082015250565b6000613f05600283613ec4565b9150613f1082613ecf565b600282019050919050565b6000819050919050565b613f36613f318261298b565b613f1b565b82525050565b6000613f4782613ef8565b9150613f538285613f25565b602082019150613f638284613f25565b6020820191508190509392505050565b6000608082019050613f886000830187612ec0565b613f956020830186613103565b613fa26040830185612ec0565b613faf6060830184612ec0565b95945050505050565b7f45434453413a20696e76616c6964207369676e61747572650000000000000000600082015250565b6000613fee6018836124dc565b9150613ff982613fb8565b602082019050919050565b6000602082019050818103600083015261401d81613fe1565b9050919050565b7f45434453413a20696e76616c6964207369676e6174757265206c656e67746800600082015250565b600061405a601f836124dc565b915061406582614024565b602082019050919050565b600060208201905081810360008301526140898161404d565b9050919050565b7f45434453413a20696e76616c6964207369676e6174757265202773272076616c60008201527f7565000000000000000000000000000000000000000000000000000000000000602082015250565b60006140ec6022836124dc565b91506140f782614090565b604082019050919050565b6000602082019050818103600083015261411b816140df565b9050919050565b7f45434453413a20696e76616c6964207369676e6174757265202776272076616c60008201527f7565000000000000000000000000000000000000000000000000000000000000602082015250565b600061417e6022836124dc565b915061418982614122565b604082019050919050565b600060208201905081810360008301526141ad81614171565b9050919050565b7f476f7665726e6f72566f74696e6753696d706c653a20766f746520616c72656160008201527f6479206361737400000000000000000000000000000000000000000000000000602082015250565b60006142106027836124dc565b915061421b826141b4565b604082019050919050565b6000602082019050818103600083015261423f81614203565b9050919050565b7f476f7665726e6f72566f74696e6753696d706c653a20696e76616c696420766160008201527f6c756520666f7220656e756d20566f7465547970650000000000000000000000602082015250565b60006142a26035836124dc565b91506142ad82614246565b604082019050919050565b600060208201905081810360008301526142d181614295565b9050919050565b600060a0820190506142ed6000830188612ec0565b6142fa6020830187612ec0565b6143076040830186612ec0565b614314606083018561244e565b61432160808301846134b2565b969550505050505056fe476f7665726e6f723a2063616c6c20726576657274656420776974686f7574206d657373616765a2646970667358221220a24408a3fc08fd8ef28258d93e4b4d1fda1656e5509f02b5f2c4dcb09a5563a764736f6c634300080a0033",
  "immutableReferences": {
    "1580": [
      {
        "length": 32,
        "start": 5323
      },
      {
        "length": 32,
        "start": 6871
      },
      {
        "length": 32,
        "start": 7122
      }
    ],
    "5840": [
      {
        "length": 32,
        "start": 7535
      }
    ],
    "5842": [
      {
        "length": 32,
        "start": 7494
      }
    ],
    "5844": [
      {
        "length": 32,
        "start": 7408
      }
    ],
    "5846": [
      {
        "length": 32,
        "start": 7611
      }
    ],
    "5848": [
      {
        "length": 32,
        "start": 7644
      }
    ],
    "5850": [
      {
        "length": 32,
        "start": 7578
      }
    ]
  },
  "source": "pragma solidity >=0.4.22 <0.9.0;\n\nimport \"@openzeppelin/contracts/governance/Governor.sol\";\nimport \"@openzeppelin/contracts/governance/extensions/GovernorSettings.sol\";\nimport \"@openzeppelin/contracts/governance/extensions/GovernorCountingSimple.sol\";\nimport \"@openzeppelin/contracts/governance/extensions/GovernorVotes.sol\";\nimport \"@openzeppelin/contracts/governance/extensions/GovernorVotesQuorumFraction.sol\";\n\ncontract HumanGovernor is Governor, GovernorSettings, GovernorCountingSimple, GovernorVotes, GovernorVotesQuorumFraction {\n    constructor(ERC20Votes _token)\n        Governor(\"HumanGovernor\")\n        GovernorSettings(1, 10, 100000e18)\n        GovernorVotes(_token)\n        GovernorVotesQuorumFraction(4)\n    {}\n\n    // The following functions are overrides required by Solidity.\n\n    function votingDelay()\n        public\n        view\n        override(IGovernor, GovernorSettings)\n        returns (uint256)\n    {\n        return super.votingDelay();\n    }\n\n    function votingPeriod()\n        public\n        view\n        override(IGovernor, GovernorSettings)\n        returns (uint256)\n    {\n        return super.votingPeriod();\n    }\n\n    function quorum(uint256 blockNumber)\n        public\n        view\n        override(IGovernor, GovernorVotesQuorumFraction)\n        returns (uint256)\n    {\n        return super.quorum(blockNumber);\n    }\n\n    function getVotes(address account, uint256 blockNumber)\n        public\n        view\n        override(IGovernor, GovernorVotes)\n        returns (uint256)\n    {\n        return super.getVotes(account, blockNumber);\n    }\n\n    function proposalThreshold()\n        public\n        view\n        override(Governor, GovernorSettings)\n        returns (uint256)\n    {\n        return super.proposalThreshold();\n    }\n}",
  "sourcePath": "/Users/weather/workspace/blockchain/vhuman/contracts/HumanGovernor.sol",
  "compiler": {
    "name": "solc",
    "version": "0.8.10+commit.fc410830.Emscripten.clang"
  },
  "schemaVersion": "3.4.3",
  "updatedAt": "2021-12-06T04:33:27.343Z",
  "networkType": "ethereum",
  "devdoc": {
    "kind": "dev",
    "methods": {
      "COUNTING_MODE()": {
        "details": "See {IGovernor-COUNTING_MODE}."
      },
      "castVote(uint256,uint8)": {
        "details": "See {IGovernor-castVote}."
      },
      "castVoteBySig(uint256,uint8,uint8,bytes32,bytes32)": {
        "details": "See {IGovernor-castVoteBySig}."
      },
      "castVoteWithReason(uint256,uint8,string)": {
        "details": "See {IGovernor-castVoteWithReason}."
      },
      "execute(address[],uint256[],bytes[],bytes32)": {
        "details": "See {IGovernor-execute}."
      },
      "hasVoted(uint256,address)": {
        "details": "See {IGovernor-hasVoted}."
      },
      "hashProposal(address[],uint256[],bytes[],bytes32)": {
        "details": "See {IGovernor-hashProposal}. The proposal id is produced by hashing the RLC encoded `targets` array, the `values` array, the `calldatas` array and the descriptionHash (bytes32 which itself is the keccak256 hash of the description string). This proposal id can be produced from the proposal data which is part of the {ProposalCreated} event. It can even be computed in advance, before the proposal is submitted. Note that the chainId and the governor address are not part of the proposal id computation. Consequently, the same proposal (with same operation and same description) will have the same id if submitted on multiple governors accross multiple networks. This also means that in order to execute the same operation twice (on the same governor) the proposer will have to change the description in order to avoid proposal id conflicts."
      },
      "name()": {
        "details": "See {IGovernor-name}."
      },
      "proposalDeadline(uint256)": {
        "details": "See {IGovernor-proposalDeadline}."
      },
      "proposalSnapshot(uint256)": {
        "details": "See {IGovernor-proposalSnapshot}."
      },
      "proposalVotes(uint256)": {
        "details": "Accessor to the internal vote counts."
      },
      "propose(address[],uint256[],bytes[],string)": {
        "details": "See {IGovernor-propose}."
      },
      "setProposalThreshold(uint256)": {
        "details": "Update the proposal threshold. This operation can only be performed through a governance proposal. Emits a {ProposalThresholdSet} event."
      },
      "setVotingDelay(uint256)": {
        "details": "Update the voting delay. This operation can only be performed through a governance proposal. Emits a {VotingDelaySet} event."
      },
      "setVotingPeriod(uint256)": {
        "details": "Update the voting period. This operation can only be performed through a governance proposal. Emits a {VotingPeriodSet} event."
      },
      "state(uint256)": {
        "details": "See {IGovernor-state}."
      },
      "supportsInterface(bytes4)": {
        "details": "See {IERC165-supportsInterface}."
      },
      "version()": {
        "details": "See {IGovernor-version}."
      }
    },
    "version": 1
  },
  "userdoc": {
    "kind": "user",
    "methods": {},
    "version": 1
  }
}