{
  "contractName": "Human",
  "abi": [
    {
      "inputs": [
        {
          "internalType": "address",
          "name": "_proxyRegistryAddress",
          "type": "address"
        }
      ],
      "stateMutability": "nonpayable",
      "type": "constructor"
    },
    {
      "anonymous": false,
      "inputs": [
        {
          "indexed": true,
          "internalType": "address",
          "name": "owner",
          "type": "address"
        },
        {
          "indexed": true,
          "internalType": "address",
          "name": "approved",
          "type": "address"
        },
        {
          "indexed": true,
          "internalType": "uint256",
          "name": "tokenId",
          "type": "uint256"
        }
      ],
      "name": "Approval",
      "type": "event"
    },
    {
      "anonymous": false,
      "inputs": [
        {
          "indexed": true,
          "internalType": "address",
          "name": "owner",
          "type": "address"
        },
        {
          "indexed": true,
          "internalType": "address",
          "name": "operator",
          "type": "address"
        },
        {
          "indexed": false,
          "internalType": "bool",
          "name": "approved",
          "type": "bool"
        }
      ],
      "name": "ApprovalForAll",
      "type": "event"
    },
    {
      "anonymous": false,
      "inputs": [
        {
          "indexed": false,
          "internalType": "address",
          "name": "userAddress",
          "type": "address"
        },
        {
          "indexed": false,
          "internalType": "address payable",
          "name": "relayerAddress",
          "type": "address"
        },
        {
          "indexed": false,
          "internalType": "bytes",
          "name": "functionSignature",
          "type": "bytes"
        }
      ],
      "name": "MetaTransactionExecuted",
      "type": "event"
    },
    {
      "anonymous": false,
      "inputs": [
        {
          "indexed": true,
          "internalType": "address",
          "name": "previousOwner",
          "type": "address"
        },
        {
          "indexed": true,
          "internalType": "address",
          "name": "newOwner",
          "type": "address"
        }
      ],
      "name": "OwnershipTransferred",
      "type": "event"
    },
    {
      "anonymous": false,
      "inputs": [
        {
          "indexed": true,
          "internalType": "address",
          "name": "from",
          "type": "address"
        },
        {
          "indexed": true,
          "internalType": "address",
          "name": "to",
          "type": "address"
        },
        {
          "indexed": true,
          "internalType": "uint256",
          "name": "tokenId",
          "type": "uint256"
        }
      ],
      "name": "Transfer",
      "type": "event"
    },
    {
      "inputs": [],
      "name": "ERC712_VERSION",
      "outputs": [
        {
          "internalType": "string",
          "name": "",
          "type": "string"
        }
      ],
      "stateMutability": "view",
      "type": "function",
      "constant": true
    },
    {
      "inputs": [
        {
          "internalType": "address",
          "name": "to",
          "type": "address"
        },
        {
          "internalType": "uint256",
          "name": "tokenId",
          "type": "uint256"
        }
      ],
      "name": "approve",
      "outputs": [],
      "stateMutability": "nonpayable",
      "type": "function"
    },
    {
      "inputs": [
        {
          "internalType": "address",
          "name": "owner",
          "type": "address"
        }
      ],
      "name": "balanceOf",
      "outputs": [
        {
          "internalType": "uint256",
          "name": "",
          "type": "uint256"
        }
      ],
      "stateMutability": "view",
      "type": "function",
      "constant": true
    },
    {
      "inputs": [
        {
          "internalType": "address",
          "name": "userAddress",
          "type": "address"
        },
        {
          "internalType": "bytes",
          "name": "functionSignature",
          "type": "bytes"
        },
        {
          "internalType": "bytes32",
          "name": "sigR",
          "type": "bytes32"
        },
        {
          "internalType": "bytes32",
          "name": "sigS",
          "type": "bytes32"
        },
        {
          "internalType": "uint8",
          "name": "sigV",
          "type": "uint8"
        }
      ],
      "name": "executeMetaTransaction",
      "outputs": [
        {
          "internalType": "bytes",
          "name": "",
          "type": "bytes"
        }
      ],
      "stateMutability": "payable",
      "type": "function",
      "payable": true
    },
    {
      "inputs": [
        {
          "internalType": "uint256",
          "name": "tokenId",
          "type": "uint256"
        }
      ],
      "name": "getApproved",
      "outputs": [
        {
          "internalType": "address",
          "name": "",
          "type": "address"
        }
      ],
      "stateMutability": "view",
      "type": "function",
      "constant": true
    },
    {
      "inputs": [],
      "name": "getChainId",
      "outputs": [
        {
          "internalType": "uint256",
          "name": "",
          "type": "uint256"
        }
      ],
      "stateMutability": "view",
      "type": "function",
      "constant": true
    },
    {
      "inputs": [],
      "name": "getDomainSeperator",
      "outputs": [
        {
          "internalType": "bytes32",
          "name": "",
          "type": "bytes32"
        }
      ],
      "stateMutability": "view",
      "type": "function",
      "constant": true
    },
    {
      "inputs": [
        {
          "internalType": "address",
          "name": "user",
          "type": "address"
        }
      ],
      "name": "getNonce",
      "outputs": [
        {
          "internalType": "uint256",
          "name": "nonce",
          "type": "uint256"
        }
      ],
      "stateMutability": "view",
      "type": "function",
      "constant": true
    },
    {
      "inputs": [
        {
          "internalType": "uint256",
          "name": "",
          "type": "uint256"
        }
      ],
      "name": "humans",
      "outputs": [
        {
          "internalType": "string",
          "name": "name",
          "type": "string"
        },
        {
          "internalType": "string",
          "name": "description",
          "type": "string"
        },
        {
          "internalType": "string",
          "name": "hash",
          "type": "string"
        }
      ],
      "stateMutability": "view",
      "type": "function",
      "constant": true
    },
    {
      "inputs": [
        {
          "internalType": "address",
          "name": "owner",
          "type": "address"
        },
        {
          "internalType": "address",
          "name": "operator",
          "type": "address"
        }
      ],
      "name": "isApprovedForAll",
      "outputs": [
        {
          "internalType": "bool",
          "name": "",
          "type": "bool"
        }
      ],
      "stateMutability": "view",
      "type": "function",
      "constant": true
    },
    {
      "inputs": [],
      "name": "name",
      "outputs": [
        {
          "internalType": "string",
          "name": "",
          "type": "string"
        }
      ],
      "stateMutability": "view",
      "type": "function",
      "constant": true
    },
    {
      "inputs": [],
      "name": "owner",
      "outputs": [
        {
          "internalType": "address",
          "name": "",
          "type": "address"
        }
      ],
      "stateMutability": "view",
      "type": "function",
      "constant": true
    },
    {
      "inputs": [
        {
          "internalType": "uint256",
          "name": "tokenId",
          "type": "uint256"
        }
      ],
      "name": "ownerOf",
      "outputs": [
        {
          "internalType": "address",
          "name": "",
          "type": "address"
        }
      ],
      "stateMutability": "view",
      "type": "function",
      "constant": true
    },
    {
      "inputs": [],
      "name": "renounceOwnership",
      "outputs": [],
      "stateMutability": "nonpayable",
      "type": "function"
    },
    {
      "inputs": [
        {
          "internalType": "address",
          "name": "from",
          "type": "address"
        },
        {
          "internalType": "address",
          "name": "to",
          "type": "address"
        },
        {
          "internalType": "uint256",
          "name": "tokenId",
          "type": "uint256"
        }
      ],
      "name": "safeTransferFrom",
      "outputs": [],
      "stateMutability": "nonpayable",
      "type": "function"
    },
    {
      "inputs": [
        {
          "internalType": "address",
          "name": "from",
          "type": "address"
        },
        {
          "internalType": "address",
          "name": "to",
          "type": "address"
        },
        {
          "internalType": "uint256",
          "name": "tokenId",
          "type": "uint256"
        },
        {
          "internalType": "bytes",
          "name": "_data",
          "type": "bytes"
        }
      ],
      "name": "safeTransferFrom",
      "outputs": [],
      "stateMutability": "nonpayable",
      "type": "function"
    },
    {
      "inputs": [
        {
          "internalType": "address",
          "name": "operator",
          "type": "address"
        },
        {
          "internalType": "bool",
          "name": "approved",
          "type": "bool"
        }
      ],
      "name": "setApprovalForAll",
      "outputs": [],
      "stateMutability": "nonpayable",
      "type": "function"
    },
    {
      "inputs": [
        {
          "internalType": "bytes4",
          "name": "interfaceId",
          "type": "bytes4"
        }
      ],
      "name": "supportsInterface",
      "outputs": [
        {
          "internalType": "bool",
          "name": "",
          "type": "bool"
        }
      ],
      "stateMutability": "view",
      "type": "function",
      "constant": true
    },
    {
      "inputs": [],
      "name": "symbol",
      "outputs": [
        {
          "internalType": "string",
          "name": "",
          "type": "string"
        }
      ],
      "stateMutability": "view",
      "type": "function",
      "constant": true
    },
    {
      "inputs": [
        {
          "internalType": "uint256",
          "name": "index",
          "type": "uint256"
        }
      ],
      "name": "tokenByIndex",
      "outputs": [
        {
          "internalType": "uint256",
          "name": "",
          "type": "uint256"
        }
      ],
      "stateMutability": "view",
      "type": "function",
      "constant": true
    },
    {
      "inputs": [
        {
          "internalType": "address",
          "name": "owner",
          "type": "address"
        },
        {
          "internalType": "uint256",
          "name": "index",
          "type": "uint256"
        }
      ],
      "name": "tokenOfOwnerByIndex",
      "outputs": [
        {
          "internalType": "uint256",
          "name": "",
          "type": "uint256"
        }
      ],
      "stateMutability": "view",
      "type": "function",
      "constant": true
    },
    {
      "inputs": [
        {
          "internalType": "uint256",
          "name": "_tokenId",
          "type": "uint256"
        }
      ],
      "name": "tokenURI",
      "outputs": [
        {
          "internalType": "string",
          "name": "",
          "type": "string"
        }
      ],
      "stateMutability": "pure",
      "type": "function",
      "constant": true
    },
    {
      "inputs": [],
      "name": "totalSupply",
      "outputs": [
        {
          "internalType": "uint256",
          "name": "",
          "type": "uint256"
        }
      ],
      "stateMutability": "view",
      "type": "function",
      "constant": true
    },
    {
      "inputs": [
        {
          "internalType": "address",
          "name": "from",
          "type": "address"
        },
        {
          "internalType": "address",
          "name": "to",
          "type": "address"
        },
        {
          "internalType": "uint256",
          "name": "tokenId",
          "type": "uint256"
        }
      ],
      "name": "transferFrom",
      "outputs": [],
      "stateMutability": "nonpayable",
      "type": "function"
    },
    {
      "inputs": [
        {
          "internalType": "address",
          "name": "newOwner",
          "type": "address"
        }
      ],
      "name": "transferOwnership",
      "outputs": [],
      "stateMutability": "nonpayable",
      "type": "function"
    },
    {
      "inputs": [],
      "name": "baseTokenURI",
      "outputs": [
        {
          "internalType": "string",
          "name": "",
          "type": "string"
        }
      ],
      "stateMutability": "pure",
      "type": "function",
      "constant": true
    },
    {
      "inputs": [
        {
          "internalType": "address",
          "name": "to",
          "type": "address"
        },
        {
          "internalType": "string",
          "name": "name",
          "type": "string"
        },
        {
          "internalType": "string",
          "name": "description",
          "type": "string"
        },
        {
          "internalType": "string",
          "name": "hash",
          "type": "string"
        }
      ],
      "name": "mint",
      "outputs": [],
      "stateMutability": "nonpayable",
      "type": "function"
    }
  ],
  "bytecode": "0x60806040526000600a60006101000a81548160ff0219169083151502179055506000600f553480156200003157600080fd5b5060405162004dcb38038062004dcb833981810160405281019062000057919062000563565b6040518060400160405280600581526020017f48756d616e0000000000000000000000000000000000000000000000000000008152506040518060400160405280600381526020017f48554d00000000000000000000000000000000000000000000000000000000008152508282828160009080519060200190620000de92919062000449565b508060019080519060200190620000f792919062000449565b5050506200011a6200010e6200017660201b60201c565b6200019260201b60201c565b80600e60006101000a81548173ffffffffffffffffffffffffffffffffffffffff021916908373ffffffffffffffffffffffffffffffffffffffff1602179055506200016c836200025860201b60201c565b5050505062000706565b60006200018d620002da60201b620016781760201c565b905090565b6000600d60009054906101000a900473ffffffffffffffffffffffffffffffffffffffff16905081600d60006101000a81548173ffffffffffffffffffffffffffffffffffffffff021916908373ffffffffffffffffffffffffffffffffffffffff1602179055508173ffffffffffffffffffffffffffffffffffffffff168173ffffffffffffffffffffffffffffffffffffffff167f8be0079c531659141344cd1fd0a4f28419497f9722a3daafe3b4186f6b6457e060405160405180910390a35050565b600a60009054906101000a900460ff1615620002ab576040517f08c379a0000000000000000000000000000000000000000000000000000000008152600401620002a290620005f6565b60405180910390fd5b620002bc816200038d60201b60201c565b6001600a60006101000a81548160ff02191690831515021790555050565b60003073ffffffffffffffffffffffffffffffffffffffff163373ffffffffffffffffffffffffffffffffffffffff1614156200038657600080368080601f016020809104026020016040519081016040528093929190818152602001838380828437600081840152601f19601f820116905080830192505050505050509050600080369050905073ffffffffffffffffffffffffffffffffffffffff8183015116925050506200038a565b3390505b90565b6040518060800160405280604f815260200162004d7c604f91398051906020012081805190602001206040518060400160405280600181526020017f31000000000000000000000000000000000000000000000000000000000000008152508051906020012030620004046200043c60201b60201c565b60001b6040516020016200041d95949392919062000644565b60405160208183030381529060405280519060200120600b8190555050565b6000804690508091505090565b8280546200045790620006d0565b90600052602060002090601f0160209004810192826200047b5760008555620004c7565b82601f106200049657805160ff1916838001178555620004c7565b82800160010185558215620004c7579182015b82811115620004c6578251825591602001919060010190620004a9565b5b509050620004d69190620004da565b5090565b5b80821115620004f5576000816000905550600101620004db565b5090565b600080fd5b600073ffffffffffffffffffffffffffffffffffffffff82169050919050565b60006200052b82620004fe565b9050919050565b6200053d816200051e565b81146200054957600080fd5b50565b6000815190506200055d8162000532565b92915050565b6000602082840312156200057c576200057b620004f9565b5b60006200058c848285016200054c565b91505092915050565b600082825260208201905092915050565b7f616c726561647920696e69746564000000000000000000000000000000000000600082015250565b6000620005de600e8362000595565b9150620005eb82620005a6565b602082019050919050565b600060208201905081810360008301526200061181620005cf565b9050919050565b6000819050919050565b6200062d8162000618565b82525050565b6200063e816200051e565b82525050565b600060a0820190506200065b600083018862000622565b6200066a602083018762000622565b62000679604083018662000622565b62000688606083018562000633565b62000697608083018462000622565b9695505050505050565b7f4e487b7100000000000000000000000000000000000000000000000000000000600052602260045260246000fd5b60006002820490506001821680620006e957607f821691505b602082108114156200070057620006ff620006a1565b5b50919050565b61466680620007166000396000f3fe60806040526004361061019c5760003560e01c80634a0706be116100ec57806395d89b411161008a578063c87b56dd11610064578063c87b56dd146105f5578063d547cfb714610632578063e985e9c51461065d578063f2fde38b1461069a5761019c565b806395d89b4114610578578063a22cb465146105a3578063b88d4fde146105cc5761019c565b806370a08231116100c657806370a08231146104ba578063715018a6146104f75780638102fced1461050e5780638da5cb5b1461054d5761019c565b80634a0706be146104175780634f6ccce7146104405780636352211e1461047d5761019c565b806318160ddd116101595780632d0335ab116101335780632d0335ab146103495780632f745c59146103865780633408e470146103c357806342842e0e146103ee5761019c565b806318160ddd146102ca57806320379ee5146102f557806323b872dd146103205761019c565b806301ffc9a7146101a157806306fdde03146101de578063081812fc14610209578063095ea7b3146102465780630c53c51c1461026f5780630f7e59701461029f575b600080fd5b3480156101ad57600080fd5b506101c860048036038101906101c39190612c93565b6106c3565b6040516101d59190612cdb565b60405180910390f35b3480156101ea57600080fd5b506101f361073d565b6040516102009190612d8f565b60405180910390f35b34801561021557600080fd5b50610230600480360381019061022b9190612de7565b6107cf565b60405161023d9190612e55565b60405180910390f35b34801561025257600080fd5b5061026d60048036038101906102689190612e9c565b610854565b005b61028960048036038101906102849190613080565b61096c565b604051610296919061316c565b60405180910390f35b3480156102ab57600080fd5b506102b4610bde565b6040516102c19190612d8f565b60405180910390f35b3480156102d657600080fd5b506102df610c17565b6040516102ec919061319d565b60405180910390f35b34801561030157600080fd5b5061030a610c24565b60405161031791906131c7565b60405180910390f35b34801561032c57600080fd5b50610347600480360381019061034291906131e2565b610c2e565b005b34801561035557600080fd5b50610370600480360381019061036b9190613235565b610c8e565b60405161037d919061319d565b60405180910390f35b34801561039257600080fd5b506103ad60048036038101906103a89190612e9c565b610cd7565b6040516103ba919061319d565b60405180910390f35b3480156103cf57600080fd5b506103d8610d7c565b6040516103e5919061319d565b60405180910390f35b3480156103fa57600080fd5b50610415600480360381019061041091906131e2565b610d89565b005b34801561042357600080fd5b5061043e60048036038101906104399190613303565b610da9565b005b34801561044c57600080fd5b5061046760048036038101906104629190612de7565b610ed3565b604051610474919061319d565b60405180910390f35b34801561048957600080fd5b506104a4600480360381019061049f9190612de7565b610f44565b6040516104b19190612e55565b60405180910390f35b3480156104c657600080fd5b506104e160048036038101906104dc9190613235565b610ff6565b6040516104ee919061319d565b60405180910390f35b34801561050357600080fd5b5061050c6110ae565b005b34801561051a57600080fd5b5061053560048036038101906105309190612de7565b611136565b604051610544939291906133be565b60405180910390f35b34801561055957600080fd5b50610562611308565b60405161056f9190612e55565b60405180910390f35b34801561058457600080fd5b5061058d611332565b60405161059a9190612d8f565b60405180910390f35b3480156105af57600080fd5b506105ca60048036038101906105c59190613436565b6113c4565b005b3480156105d857600080fd5b506105f360048036038101906105ee9190613476565b6113da565b005b34801561060157600080fd5b5061061c60048036038101906106179190612de7565b61143c565b6040516106299190612d8f565b60405180910390f35b34801561063e57600080fd5b50610647611476565b6040516106549190612d8f565b60405180910390f35b34801561066957600080fd5b50610684600480360381019061067f91906134f9565b61148d565b6040516106919190612cdb565b60405180910390f35b3480156106a657600080fd5b506106c160048036038101906106bc9190613235565b611580565b005b60007f780e9d63000000000000000000000000000000000000000000000000000000007bffffffffffffffffffffffffffffffffffffffffffffffffffffffff1916827bffffffffffffffffffffffffffffffffffffffffffffffffffffffff19161480610736575061073582611729565b5b9050919050565b60606000805461074c90613568565b80601f016020809104026020016040519081016040528092919081815260200182805461077890613568565b80156107c55780601f1061079a576101008083540402835291602001916107c5565b820191906000526020600020905b8154815290600101906020018083116107a857829003601f168201915b5050505050905090565b60006107da8261180b565b610819576040517f08c379a00000000000000000000000000000000000000000000000000000000081526004016108109061360c565b60405180910390fd5b6004600083815260200190815260200160002060009054906101000a900473ffffffffffffffffffffffffffffffffffffffff169050919050565b600061085f82610f44565b90508073ffffffffffffffffffffffffffffffffffffffff168373ffffffffffffffffffffffffffffffffffffffff1614156108d0576040517f08c379a00000000000000000000000000000000000000000000000000000000081526004016108c79061369e565b60405180910390fd5b8073ffffffffffffffffffffffffffffffffffffffff166108ef611877565b73ffffffffffffffffffffffffffffffffffffffff16148061091e575061091d81610918611877565b61148d565b5b61095d576040517f08c379a000000000000000000000000000000000000000000000000000000000815260040161095490613730565b60405180910390fd5b6109678383611886565b505050565b606060006040518060600160405280600c60008a73ffffffffffffffffffffffffffffffffffffffff1673ffffffffffffffffffffffffffffffffffffffff1681526020019081526020016000205481526020018873ffffffffffffffffffffffffffffffffffffffff1681526020018781525090506109ef878287878761193f565b610a2e576040517f08c379a0000000000000000000000000000000000000000000000000000000008152600401610a25906137c2565b60405180910390fd5b610a816001600c60008a73ffffffffffffffffffffffffffffffffffffffff1673ffffffffffffffffffffffffffffffffffffffff16815260200190815260200160002054611a4890919063ffffffff16565b600c60008973ffffffffffffffffffffffffffffffffffffffff1673ffffffffffffffffffffffffffffffffffffffff168152602001908152602001600020819055507f5845892132946850460bff5a0083f71031bc5bf9aadcd40f1de79423eac9b10b873388604051610af793929190613803565b60405180910390a16000803073ffffffffffffffffffffffffffffffffffffffff16888a604051602001610b2c9291906138c5565b604051602081830303815290604052604051610b4891906138ed565b6000604051808303816000865af19150503d8060008114610b85576040519150601f19603f3d011682016040523d82523d6000602084013e610b8a565b606091505b509150915081610bcf576040517f08c379a0000000000000000000000000000000000000000000000000000000008152600401610bc690613950565b60405180910390fd5b80935050505095945050505050565b6040518060400160405280600181526020017f310000000000000000000000000000000000000000000000000000000000000081525081565b6000600880549050905090565b6000600b54905090565b610c3f610c39611877565b82611a5e565b610c7e576040517f08c379a0000000000000000000000000000000000000000000000000000000008152600401610c75906139e2565b60405180910390fd5b610c89838383611b3c565b505050565b6000600c60008373ffffffffffffffffffffffffffffffffffffffff1673ffffffffffffffffffffffffffffffffffffffff168152602001908152602001600020549050919050565b6000610ce283610ff6565b8210610d23576040517f08c379a0000000000000000000000000000000000000000000000000000000008152600401610d1a90613a74565b60405180910390fd5b600660008473ffffffffffffffffffffffffffffffffffffffff1673ffffffffffffffffffffffffffffffffffffffff168152602001908152602001600020600083815260200190815260200160002054905092915050565b6000804690508091505090565b610da4838383604051806020016040528060008152506113da565b505050565b610db1611877565b73ffffffffffffffffffffffffffffffffffffffff16610dcf611308565b73ffffffffffffffffffffffffffffffffffffffff1614610e25576040517f08c379a0000000000000000000000000000000000000000000000000000000008152600401610e1c90613ae0565b60405180910390fd5b610e2e84611d98565b601060405180606001604052808581526020018481526020018381525090806001815401808255809150506001900390600052602060002090600302016000909190919091506000820151816000019080519060200190610e90929190612b84565b506020820151816001019080519060200190610ead929190612b84565b506040820151816002019080519060200190610eca929190612b84565b50505050505050565b6000610edd610c17565b8210610f1e576040517f08c379a0000000000000000000000000000000000000000000000000000000008152600401610f1590613b72565b60405180910390fd5b60088281548110610f3257610f31613b92565b5b90600052602060002001549050919050565b6000806002600084815260200190815260200160002060009054906101000a900473ffffffffffffffffffffffffffffffffffffffff169050600073ffffffffffffffffffffffffffffffffffffffff168173ffffffffffffffffffffffffffffffffffffffff161415610fed576040517f08c379a0000000000000000000000000000000000000000000000000000000008152600401610fe490613c33565b60405180910390fd5b80915050919050565b60008073ffffffffffffffffffffffffffffffffffffffff168273ffffffffffffffffffffffffffffffffffffffff161415611067576040517f08c379a000000000000000000000000000000000000000000000000000000000815260040161105e90613cc5565b60405180910390fd5b600360008373ffffffffffffffffffffffffffffffffffffffff1673ffffffffffffffffffffffffffffffffffffffff168152602001908152602001600020549050919050565b6110b6611877565b73ffffffffffffffffffffffffffffffffffffffff166110d4611308565b73ffffffffffffffffffffffffffffffffffffffff161461112a576040517f08c379a000000000000000000000000000000000000000000000000000000000815260040161112190613ae0565b60405180910390fd5b6111346000611e36565b565b6010818154811061114657600080fd5b906000526020600020906003020160009150905080600001805461116990613568565b80601f016020809104026020016040519081016040528092919081815260200182805461119590613568565b80156111e25780601f106111b7576101008083540402835291602001916111e2565b820191906000526020600020905b8154815290600101906020018083116111c557829003601f168201915b5050505050908060010180546111f790613568565b80601f016020809104026020016040519081016040528092919081815260200182805461122390613568565b80156112705780601f1061124557610100808354040283529160200191611270565b820191906000526020600020905b81548152906001019060200180831161125357829003601f168201915b50505050509080600201805461128590613568565b80601f01602080910402602001604051908101604052809291908181526020018280546112b190613568565b80156112fe5780601f106112d3576101008083540402835291602001916112fe565b820191906000526020600020905b8154815290600101906020018083116112e157829003601f168201915b5050505050905083565b6000600d60009054906101000a900473ffffffffffffffffffffffffffffffffffffffff16905090565b60606001805461134190613568565b80601f016020809104026020016040519081016040528092919081815260200182805461136d90613568565b80156113ba5780601f1061138f576101008083540402835291602001916113ba565b820191906000526020600020905b81548152906001019060200180831161139d57829003601f168201915b5050505050905090565b6113d66113cf611877565b8383611efc565b5050565b6113eb6113e5611877565b83611a5e565b61142a576040517f08c379a0000000000000000000000000000000000000000000000000000000008152600401611421906139e2565b60405180910390fd5b61143684848484612069565b50505050565b6060611446611476565b61144f836120c5565b604051602001611460929190613d21565b6040516020818303038152906040529050919050565b606060405180602001604052806000815250905090565b600080600e60009054906101000a900473ffffffffffffffffffffffffffffffffffffffff1690508273ffffffffffffffffffffffffffffffffffffffff168173ffffffffffffffffffffffffffffffffffffffff1663c4552791866040518263ffffffff1660e01b81526004016115059190612e55565b602060405180830381865afa158015611522573d6000803e3d6000fd5b505050506040513d601f19601f820116820180604052508101906115469190613d83565b73ffffffffffffffffffffffffffffffffffffffff16141561156c57600191505061157a565b6115768484612226565b9150505b92915050565b611588611877565b73ffffffffffffffffffffffffffffffffffffffff166115a6611308565b73ffffffffffffffffffffffffffffffffffffffff16146115fc576040517f08c379a00000000000000000000000000000000000000000000000000000000081526004016115f390613ae0565b60405180910390fd5b600073ffffffffffffffffffffffffffffffffffffffff168173ffffffffffffffffffffffffffffffffffffffff16141561166c576040517f08c379a000000000000000000000000000000000000000000000000000000000815260040161166390613e22565b60405180910390fd5b61167581611e36565b50565b60003073ffffffffffffffffffffffffffffffffffffffff163373ffffffffffffffffffffffffffffffffffffffff16141561172257600080368080601f016020809104026020016040519081016040528093929190818152602001838380828437600081840152601f19601f820116905080830192505050505050509050600080369050905073ffffffffffffffffffffffffffffffffffffffff818301511692505050611726565b3390505b90565b60007f80ac58cd000000000000000000000000000000000000000000000000000000007bffffffffffffffffffffffffffffffffffffffffffffffffffffffff1916827bffffffffffffffffffffffffffffffffffffffffffffffffffffffff191614806117f457507f5b5e139f000000000000000000000000000000000000000000000000000000007bffffffffffffffffffffffffffffffffffffffffffffffffffffffff1916827bffffffffffffffffffffffffffffffffffffffffffffffffffffffff1916145b806118045750611803826122ba565b5b9050919050565b60008073ffffffffffffffffffffffffffffffffffffffff166002600084815260200190815260200160002060009054906101000a900473ffffffffffffffffffffffffffffffffffffffff1673ffffffffffffffffffffffffffffffffffffffff1614159050919050565b6000611881611678565b905090565b816004600083815260200190815260200160002060006101000a81548173ffffffffffffffffffffffffffffffffffffffff021916908373ffffffffffffffffffffffffffffffffffffffff160217905550808273ffffffffffffffffffffffffffffffffffffffff166118f983610f44565b73ffffffffffffffffffffffffffffffffffffffff167f8c5be1e5ebec7d5bd14f71427d1e84f3dd0314c0f7b2291e5b200ac8c7c3b92560405160405180910390a45050565b60008073ffffffffffffffffffffffffffffffffffffffff168673ffffffffffffffffffffffffffffffffffffffff1614156119b0576040517f08c379a00000000000000000000000000000000000000000000000000000000081526004016119a790613eb4565b60405180910390fd5b60016119c36119be87612324565b61238c565b838686604051600081526020016040526040516119e39493929190613ee3565b6020604051602081039080840390855afa158015611a05573d6000803e3d6000fd5b5050506020604051035173ffffffffffffffffffffffffffffffffffffffff168673ffffffffffffffffffffffffffffffffffffffff1614905095945050505050565b60008183611a569190613f57565b905092915050565b6000611a698261180b565b611aa8576040517f08c379a0000000000000000000000000000000000000000000000000000000008152600401611a9f9061401f565b60405180910390fd5b6000611ab383610f44565b90508073ffffffffffffffffffffffffffffffffffffffff168473ffffffffffffffffffffffffffffffffffffffff161480611b2257508373ffffffffffffffffffffffffffffffffffffffff16611b0a846107cf565b73ffffffffffffffffffffffffffffffffffffffff16145b80611b335750611b32818561148d565b5b91505092915050565b8273ffffffffffffffffffffffffffffffffffffffff16611b5c82610f44565b73ffffffffffffffffffffffffffffffffffffffff1614611bb2576040517f08c379a0000000000000000000000000000000000000000000000000000000008152600401611ba9906140b1565b60405180910390fd5b600073ffffffffffffffffffffffffffffffffffffffff168273ffffffffffffffffffffffffffffffffffffffff161415611c22576040517f08c379a0000000000000000000000000000000000000000000000000000000008152600401611c1990614143565b60405180910390fd5b611c2d8383836123c5565b611c38600082611886565b6001600360008573ffffffffffffffffffffffffffffffffffffffff1673ffffffffffffffffffffffffffffffffffffffff1681526020019081526020016000206000828254611c889190614163565b925050819055506001600360008473ffffffffffffffffffffffffffffffffffffffff1673ffffffffffffffffffffffffffffffffffffffff1681526020019081526020016000206000828254611cdf9190613f57565b92505081905550816002600083815260200190815260200160002060006101000a81548173ffffffffffffffffffffffffffffffffffffffff021916908373ffffffffffffffffffffffffffffffffffffffff160217905550808273ffffffffffffffffffffffffffffffffffffffff168473ffffffffffffffffffffffffffffffffffffffff167fddf252ad1be2c89b69c2b068fc378daa952ba7f163c4a11628f55a4df523b3ef60405160405180910390a4505050565b611da0611877565b73ffffffffffffffffffffffffffffffffffffffff16611dbe611308565b73ffffffffffffffffffffffffffffffffffffffff1614611e14576040517f08c379a0000000000000000000000000000000000000000000000000000000008152600401611e0b90613ae0565b60405180910390fd5b6000611e1e6124d9565b9050611e2a82826124f6565b611e326126c4565b5050565b6000600d60009054906101000a900473ffffffffffffffffffffffffffffffffffffffff16905081600d60006101000a81548173ffffffffffffffffffffffffffffffffffffffff021916908373ffffffffffffffffffffffffffffffffffffffff1602179055508173ffffffffffffffffffffffffffffffffffffffff168173ffffffffffffffffffffffffffffffffffffffff167f8be0079c531659141344cd1fd0a4f28419497f9722a3daafe3b4186f6b6457e060405160405180910390a35050565b8173ffffffffffffffffffffffffffffffffffffffff168373ffffffffffffffffffffffffffffffffffffffff161415611f6b576040517f08c379a0000000000000000000000000000000000000000000000000000000008152600401611f62906141e3565b60405180910390fd5b80600560008573ffffffffffffffffffffffffffffffffffffffff1673ffffffffffffffffffffffffffffffffffffffff16815260200190815260200160002060008473ffffffffffffffffffffffffffffffffffffffff1673ffffffffffffffffffffffffffffffffffffffff16815260200190815260200160002060006101000a81548160ff0219169083151502179055508173ffffffffffffffffffffffffffffffffffffffff168373ffffffffffffffffffffffffffffffffffffffff167f17307eab39ab6107e8899845ad3d59bd9653f200f220920489ca2b5937696c318360405161205c9190612cdb565b60405180910390a3505050565b612074848484611b3c565b612080848484846126de565b6120bf576040517f08c379a00000000000000000000000000000000000000000000000000000000081526004016120b690614275565b60405180910390fd5b50505050565b6060600082141561210d576040518060400160405280600181526020017f30000000000000000000000000000000000000000000000000000000000000008152509050612221565b600082905060005b6000821461213f57808061212890614295565b915050600a82612138919061430d565b9150612115565b60008167ffffffffffffffff81111561215b5761215a612ee6565b5b6040519080825280601f01601f19166020018201604052801561218d5781602001600182028036833780820191505090505b5090505b6000851461221a576001826121a69190614163565b9150600a856121b5919061433e565b60306121c19190613f57565b60f81b8183815181106121d7576121d6613b92565b5b60200101907effffffffffffffffffffffffffffffffffffffffffffffffffffffffffffff1916908160001a905350600a85612213919061430d565b9450612191565b8093505050505b919050565b6000600560008473ffffffffffffffffffffffffffffffffffffffff1673ffffffffffffffffffffffffffffffffffffffff16815260200190815260200160002060008373ffffffffffffffffffffffffffffffffffffffff1673ffffffffffffffffffffffffffffffffffffffff16815260200190815260200160002060009054906101000a900460ff16905092915050565b60007f01ffc9a7000000000000000000000000000000000000000000000000000000007bffffffffffffffffffffffffffffffffffffffffffffffffffffffff1916827bffffffffffffffffffffffffffffffffffffffffffffffffffffffff1916149050919050565b60006040518060800160405280604381526020016145ee60439139805190602001208260000151836020015184604001518051906020012060405160200161236f949392919061436f565b604051602081830303815290604052805190602001209050919050565b6000612396610c24565b826040516020016123a8929190614421565b604051602081830303815290604052805190602001209050919050565b6123d0838383612866565b600073ffffffffffffffffffffffffffffffffffffffff168373ffffffffffffffffffffffffffffffffffffffff1614156124135761240e8161286b565b612452565b8173ffffffffffffffffffffffffffffffffffffffff168373ffffffffffffffffffffffffffffffffffffffff16146124515761245083826128b4565b5b5b600073ffffffffffffffffffffffffffffffffffffffff168273ffffffffffffffffffffffffffffffffffffffff1614156124955761249081612a21565b6124d4565b8273ffffffffffffffffffffffffffffffffffffffff168273ffffffffffffffffffffffffffffffffffffffff16146124d3576124d28282612af2565b5b5b505050565b60006124f16001600f54611a4890919063ffffffff16565b905090565b600073ffffffffffffffffffffffffffffffffffffffff168273ffffffffffffffffffffffffffffffffffffffff161415612566576040517f08c379a000000000000000000000000000000000000000000000000000000000815260040161255d906144a4565b60405180910390fd5b61256f8161180b565b156125af576040517f08c379a00000000000000000000000000000000000000000000000000000000081526004016125a690614510565b60405180910390fd5b6125bb600083836123c5565b6001600360008473ffffffffffffffffffffffffffffffffffffffff1673ffffffffffffffffffffffffffffffffffffffff168152602001908152602001600020600082825461260b9190613f57565b92505081905550816002600083815260200190815260200160002060006101000a81548173ffffffffffffffffffffffffffffffffffffffff021916908373ffffffffffffffffffffffffffffffffffffffff160217905550808273ffffffffffffffffffffffffffffffffffffffff16600073ffffffffffffffffffffffffffffffffffffffff167fddf252ad1be2c89b69c2b068fc378daa952ba7f163c4a11628f55a4df523b3ef60405160405180910390a45050565b600f60008154809291906126d790614295565b9190505550565b60006126ff8473ffffffffffffffffffffffffffffffffffffffff16612b71565b15612859578373ffffffffffffffffffffffffffffffffffffffff1663150b7a02612728611877565b8786866040518563ffffffff1660e01b815260040161274a9493929190614530565b6020604051808303816000875af192505050801561278657506040513d601f19601f820116820180604052508101906127839190614591565b60015b612809573d80600081146127b6576040519150601f19603f3d011682016040523d82523d6000602084013e6127bb565b606091505b50600081511415612801576040517f08c379a00000000000000000000000000000000000000000000000000000000081526004016127f890614275565b60405180910390fd5b805181602001fd5b63150b7a0260e01b7bffffffffffffffffffffffffffffffffffffffffffffffffffffffff1916817bffffffffffffffffffffffffffffffffffffffffffffffffffffffff19161491505061285e565b600190505b949350505050565b505050565b6008805490506009600083815260200190815260200160002081905550600881908060018154018082558091505060019003906000526020600020016000909190919091505550565b600060016128c184610ff6565b6128cb9190614163565b90506000600760008481526020019081526020016000205490508181146129b0576000600660008673ffffffffffffffffffffffffffffffffffffffff1673ffffffffffffffffffffffffffffffffffffffff168152602001908152602001600020600084815260200190815260200160002054905080600660008773ffffffffffffffffffffffffffffffffffffffff1673ffffffffffffffffffffffffffffffffffffffff168152602001908152602001600020600084815260200190815260200160002081905550816007600083815260200190815260200160002081905550505b6007600084815260200190815260200160002060009055600660008573ffffffffffffffffffffffffffffffffffffffff1673ffffffffffffffffffffffffffffffffffffffff16815260200190815260200160002060008381526020019081526020016000206000905550505050565b60006001600880549050612a359190614163565b9050600060096000848152602001908152602001600020549050600060088381548110612a6557612a64613b92565b5b906000526020600020015490508060088381548110612a8757612a86613b92565b5b906000526020600020018190555081600960008381526020019081526020016000208190555060096000858152602001908152602001600020600090556008805480612ad657612ad56145be565b5b6001900381819060005260206000200160009055905550505050565b6000612afd83610ff6565b905081600660008573ffffffffffffffffffffffffffffffffffffffff1673ffffffffffffffffffffffffffffffffffffffff168152602001908152602001600020600083815260200190815260200160002081905550806007600084815260200190815260200160002081905550505050565b600080823b905060008111915050919050565b828054612b9090613568565b90600052602060002090601f016020900481019282612bb25760008555612bf9565b82601f10612bcb57805160ff1916838001178555612bf9565b82800160010185558215612bf9579182015b82811115612bf8578251825591602001919060010190612bdd565b5b509050612c069190612c0a565b5090565b5b80821115612c23576000816000905550600101612c0b565b5090565b6000604051905090565b600080fd5b600080fd5b60007fffffffff0000000000000000000000000000000000000000000000000000000082169050919050565b612c7081612c3b565b8114612c7b57600080fd5b50565b600081359050612c8d81612c67565b92915050565b600060208284031215612ca957612ca8612c31565b5b6000612cb784828501612c7e565b91505092915050565b60008115159050919050565b612cd581612cc0565b82525050565b6000602082019050612cf06000830184612ccc565b92915050565b600081519050919050565b600082825260208201905092915050565b60005b83811015612d30578082015181840152602081019050612d15565b83811115612d3f576000848401525b50505050565b6000601f19601f8301169050919050565b6000612d6182612cf6565b612d6b8185612d01565b9350612d7b818560208601612d12565b612d8481612d45565b840191505092915050565b60006020820190508181036000830152612da98184612d56565b905092915050565b6000819050919050565b612dc481612db1565b8114612dcf57600080fd5b50565b600081359050612de181612dbb565b92915050565b600060208284031215612dfd57612dfc612c31565b5b6000612e0b84828501612dd2565b91505092915050565b600073ffffffffffffffffffffffffffffffffffffffff82169050919050565b6000612e3f82612e14565b9050919050565b612e4f81612e34565b82525050565b6000602082019050612e6a6000830184612e46565b92915050565b612e7981612e34565b8114612e8457600080fd5b50565b600081359050612e9681612e70565b92915050565b60008060408385031215612eb357612eb2612c31565b5b6000612ec185828601612e87565b9250506020612ed285828601612dd2565b9150509250929050565b600080fd5b600080fd5b7f4e487b7100000000000000000000000000000000000000000000000000000000600052604160045260246000fd5b612f1e82612d45565b810181811067ffffffffffffffff82111715612f3d57612f3c612ee6565b5b80604052505050565b6000612f50612c27565b9050612f5c8282612f15565b919050565b600067ffffffffffffffff821115612f7c57612f7b612ee6565b5b612f8582612d45565b9050602081019050919050565b82818337600083830152505050565b6000612fb4612faf84612f61565b612f46565b905082815260208101848484011115612fd057612fcf612ee1565b5b612fdb848285612f92565b509392505050565b600082601f830112612ff857612ff7612edc565b5b8135613008848260208601612fa1565b91505092915050565b6000819050919050565b61302481613011565b811461302f57600080fd5b50565b6000813590506130418161301b565b92915050565b600060ff82169050919050565b61305d81613047565b811461306857600080fd5b50565b60008135905061307a81613054565b92915050565b600080600080600060a0868803121561309c5761309b612c31565b5b60006130aa88828901612e87565b955050602086013567ffffffffffffffff8111156130cb576130ca612c36565b5b6130d788828901612fe3565b94505060406130e888828901613032565b93505060606130f988828901613032565b925050608061310a8882890161306b565b9150509295509295909350565b600081519050919050565b600082825260208201905092915050565b600061313e82613117565b6131488185613122565b9350613158818560208601612d12565b61316181612d45565b840191505092915050565b600060208201905081810360008301526131868184613133565b905092915050565b61319781612db1565b82525050565b60006020820190506131b2600083018461318e565b92915050565b6131c181613011565b82525050565b60006020820190506131dc60008301846131b8565b92915050565b6000806000606084860312156131fb576131fa612c31565b5b600061320986828701612e87565b935050602061321a86828701612e87565b925050604061322b86828701612dd2565b9150509250925092565b60006020828403121561324b5761324a612c31565b5b600061325984828501612e87565b91505092915050565b600067ffffffffffffffff82111561327d5761327c612ee6565b5b61328682612d45565b9050602081019050919050565b60006132a66132a184613262565b612f46565b9050828152602081018484840111156132c2576132c1612ee1565b5b6132cd848285612f92565b509392505050565b600082601f8301126132ea576132e9612edc565b5b81356132fa848260208601613293565b91505092915050565b6000806000806080858703121561331d5761331c612c31565b5b600061332b87828801612e87565b945050602085013567ffffffffffffffff81111561334c5761334b612c36565b5b613358878288016132d5565b935050604085013567ffffffffffffffff81111561337957613378612c36565b5b613385878288016132d5565b925050606085013567ffffffffffffffff8111156133a6576133a5612c36565b5b6133b2878288016132d5565b91505092959194509250565b600060608201905081810360008301526133d88186612d56565b905081810360208301526133ec8185612d56565b905081810360408301526134008184612d56565b9050949350505050565b61341381612cc0565b811461341e57600080fd5b50565b6000813590506134308161340a565b92915050565b6000806040838503121561344d5761344c612c31565b5b600061345b85828601612e87565b925050602061346c85828601613421565b9150509250929050565b600080600080608085870312156134905761348f612c31565b5b600061349e87828801612e87565b94505060206134af87828801612e87565b93505060406134c087828801612dd2565b925050606085013567ffffffffffffffff8111156134e1576134e0612c36565b5b6134ed87828801612fe3565b91505092959194509250565b600080604083850312156135105761350f612c31565b5b600061351e85828601612e87565b925050602061352f85828601612e87565b9150509250929050565b7f4e487b7100000000000000000000000000000000000000000000000000000000600052602260045260246000fd5b6000600282049050600182168061358057607f821691505b6020821081141561359457613593613539565b5b50919050565b7f4552433732313a20617070726f76656420717565727920666f72206e6f6e657860008201527f697374656e7420746f6b656e0000000000000000000000000000000000000000602082015250565b60006135f6602c83612d01565b91506136018261359a565b604082019050919050565b60006020820190508181036000830152613625816135e9565b9050919050565b7f4552433732313a20617070726f76616c20746f2063757272656e74206f776e6560008201527f7200000000000000000000000000000000000000000000000000000000000000602082015250565b6000613688602183612d01565b91506136938261362c565b604082019050919050565b600060208201905081810360008301526136b78161367b565b9050919050565b7f4552433732313a20617070726f76652063616c6c6572206973206e6f74206f7760008201527f6e6572206e6f7220617070726f76656420666f7220616c6c0000000000000000602082015250565b600061371a603883612d01565b9150613725826136be565b604082019050919050565b600060208201905081810360008301526137498161370d565b9050919050565b7f5369676e657220616e64207369676e617475726520646f206e6f74206d61746360008201527f6800000000000000000000000000000000000000000000000000000000000000602082015250565b60006137ac602183612d01565b91506137b782613750565b604082019050919050565b600060208201905081810360008301526137db8161379f565b9050919050565b60006137ed82612e14565b9050919050565b6137fd816137e2565b82525050565b60006060820190506138186000830186612e46565b61382560208301856137f4565b81810360408301526138378184613133565b9050949350505050565b600081905092915050565b600061385782613117565b6138618185613841565b9350613871818560208601612d12565b80840191505092915050565b60008160601b9050919050565b60006138958261387d565b9050919050565b60006138a78261388a565b9050919050565b6138bf6138ba82612e34565b61389c565b82525050565b60006138d1828561384c565b91506138dd82846138ae565b6014820191508190509392505050565b60006138f9828461384c565b915081905092915050565b7f46756e6374696f6e2063616c6c206e6f74207375636365737366756c00000000600082015250565b600061393a601c83612d01565b915061394582613904565b602082019050919050565b600060208201905081810360008301526139698161392d565b9050919050565b7f4552433732313a207472616e736665722063616c6c6572206973206e6f74206f60008201527f776e6572206e6f7220617070726f766564000000000000000000000000000000602082015250565b60006139cc603183612d01565b91506139d782613970565b604082019050919050565b600060208201905081810360008301526139fb816139bf565b9050919050565b7f455243373231456e756d657261626c653a206f776e657220696e646578206f7560008201527f74206f6620626f756e6473000000000000000000000000000000000000000000602082015250565b6000613a5e602b83612d01565b9150613a6982613a02565b604082019050919050565b60006020820190508181036000830152613a8d81613a51565b9050919050565b7f4f776e61626c653a2063616c6c6572206973206e6f7420746865206f776e6572600082015250565b6000613aca602083612d01565b9150613ad582613a94565b602082019050919050565b60006020820190508181036000830152613af981613abd565b9050919050565b7f455243373231456e756d657261626c653a20676c6f62616c20696e646578206f60008201527f7574206f6620626f756e64730000000000000000000000000000000000000000602082015250565b6000613b5c602c83612d01565b9150613b6782613b00565b604082019050919050565b60006020820190508181036000830152613b8b81613b4f565b9050919050565b7f4e487b7100000000000000000000000000000000000000000000000000000000600052603260045260246000fd5b7f4552433732313a206f776e657220717565727920666f72206e6f6e657869737460008201527f656e7420746f6b656e0000000000000000000000000000000000000000000000602082015250565b6000613c1d602983612d01565b9150613c2882613bc1565b604082019050919050565b60006020820190508181036000830152613c4c81613c10565b9050919050565b7f4552433732313a2062616c616e636520717565727920666f7220746865207a6560008201527f726f206164647265737300000000000000000000000000000000000000000000602082015250565b6000613caf602a83612d01565b9150613cba82613c53565b604082019050919050565b60006020820190508181036000830152613cde81613ca2565b9050919050565b600081905092915050565b6000613cfb82612cf6565b613d058185613ce5565b9350613d15818560208601612d12565b80840191505092915050565b6000613d2d8285613cf0565b9150613d398284613cf0565b91508190509392505050565b6000613d5082612e34565b9050919050565b613d6081613d45565b8114613d6b57600080fd5b50565b600081519050613d7d81613d57565b92915050565b600060208284031215613d9957613d98612c31565b5b6000613da784828501613d6e565b91505092915050565b7f4f776e61626c653a206e6577206f776e657220697320746865207a65726f206160008201527f6464726573730000000000000000000000000000000000000000000000000000602082015250565b6000613e0c602683612d01565b9150613e1782613db0565b604082019050919050565b60006020820190508181036000830152613e3b81613dff565b9050919050565b7f4e61746976654d6574615472616e73616374696f6e3a20494e56414c49445f5360008201527f49474e4552000000000000000000000000000000000000000000000000000000602082015250565b6000613e9e602583612d01565b9150613ea982613e42565b604082019050919050565b60006020820190508181036000830152613ecd81613e91565b9050919050565b613edd81613047565b82525050565b6000608082019050613ef860008301876131b8565b613f056020830186613ed4565b613f1260408301856131b8565b613f1f60608301846131b8565b95945050505050565b7f4e487b7100000000000000000000000000000000000000000000000000000000600052601160045260246000fd5b6000613f6282612db1565b9150613f6d83612db1565b9250827fffffffffffffffffffffffffffffffffffffffffffffffffffffffffffffffff03821115613fa257613fa1613f28565b5b828201905092915050565b7f4552433732313a206f70657261746f7220717565727920666f72206e6f6e657860008201527f697374656e7420746f6b656e0000000000000000000000000000000000000000602082015250565b6000614009602c83612d01565b915061401482613fad565b604082019050919050565b6000602082019050818103600083015261403881613ffc565b9050919050565b7f4552433732313a207472616e73666572206f6620746f6b656e2074686174206960008201527f73206e6f74206f776e0000000000000000000000000000000000000000000000602082015250565b600061409b602983612d01565b91506140a68261403f565b604082019050919050565b600060208201905081810360008301526140ca8161408e565b9050919050565b7f4552433732313a207472616e7366657220746f20746865207a65726f2061646460008201527f7265737300000000000000000000000000000000000000000000000000000000602082015250565b600061412d602483612d01565b9150614138826140d1565b604082019050919050565b6000602082019050818103600083015261415c81614120565b9050919050565b600061416e82612db1565b915061417983612db1565b92508282101561418c5761418b613f28565b5b828203905092915050565b7f4552433732313a20617070726f766520746f2063616c6c657200000000000000600082015250565b60006141cd601983612d01565b91506141d882614197565b602082019050919050565b600060208201905081810360008301526141fc816141c0565b9050919050565b7f4552433732313a207472616e7366657220746f206e6f6e20455243373231526560008201527f63656976657220696d706c656d656e7465720000000000000000000000000000602082015250565b600061425f603283612d01565b915061426a82614203565b604082019050919050565b6000602082019050818103600083015261428e81614252565b9050919050565b60006142a082612db1565b91507fffffffffffffffffffffffffffffffffffffffffffffffffffffffffffffffff8214156142d3576142d2613f28565b5b600182019050919050565b7f4e487b7100000000000000000000000000000000000000000000000000000000600052601260045260246000fd5b600061431882612db1565b915061432383612db1565b925082614333576143326142de565b5b828204905092915050565b600061434982612db1565b915061435483612db1565b925082614364576143636142de565b5b828206905092915050565b600060808201905061438460008301876131b8565b614391602083018661318e565b61439e6040830185612e46565b6143ab60608301846131b8565b95945050505050565b7f1901000000000000000000000000000000000000000000000000000000000000600082015250565b60006143ea600283613ce5565b91506143f5826143b4565b600282019050919050565b6000819050919050565b61441b61441682613011565b614400565b82525050565b600061442c826143dd565b9150614438828561440a565b602082019150614448828461440a565b6020820191508190509392505050565b7f4552433732313a206d696e7420746f20746865207a65726f2061646472657373600082015250565b600061448e602083612d01565b915061449982614458565b602082019050919050565b600060208201905081810360008301526144bd81614481565b9050919050565b7f4552433732313a20746f6b656e20616c7265616479206d696e74656400000000600082015250565b60006144fa601c83612d01565b9150614505826144c4565b602082019050919050565b60006020820190508181036000830152614529816144ed565b9050919050565b60006080820190506145456000830187612e46565b6145526020830186612e46565b61455f604083018561318e565b81810360608301526145718184613133565b905095945050505050565b60008151905061458b81612c67565b92915050565b6000602082840312156145a7576145a6612c31565b5b60006145b58482850161457c565b91505092915050565b7f4e487b7100000000000000000000000000000000000000000000000000000000600052603160045260246000fdfe4d6574615472616e73616374696f6e2875696e74323536206e6f6e63652c616464726573732066726f6d2c62797465732066756e6374696f6e5369676e617475726529a26469706673582212205538f611b248b5eb2de238d46ab20e13f2e6d7a892ad7c3a58052f6dd5c3a4ea64736f6c634300080a0033454950373132446f6d61696e28737472696e67206e616d652c737472696e672076657273696f6e2c6164647265737320766572696679696e67436f6e74726163742c627974657333322073616c7429",
  "immutableReferences": {},
  "source": "pragma solidity >=0.4.22 <0.9.0;\n\nimport \"@openzeppelin/contracts/access/Ownable.sol\";\nimport \"./ERC721Tradable.sol\";\n\ncontract Human is ERC721Tradable {\n\n  struct VHuman {\n    string name;\n    string description;\n    string hash;\n  }\n\n  VHuman[] public humans;\n  \n\n  constructor(address _proxyRegistryAddress)\n      ERC721Tradable(\"Human\", \"HUM\", _proxyRegistryAddress)\n  {}\n\n\n  function baseTokenURI() override public pure returns (string memory) {\n    return \"\";\n  }\n\n  function mint(address to, string memory name, string memory description, string memory hash) public onlyOwner{\n    mintTo(to);\n    humans.push(VHuman(name, description, hash));\n  }\n\n  // function baseTokenURI() override public pure returns (string memory) {\n  //     return \"https://creatures-api.opensea.io/api/creature/\";\n  // }\n}",
  "sourcePath": "/Users/klleon/workspace/blockchain/vhuman/contracts/Human.sol",
  "compiler": {
    "name": "solc",
    "version": "0.8.10+commit.fc410830.Emscripten.clang"
  },
  "schemaVersion": "3.4.3",
  "updatedAt": "2021-12-06T03:29:33.175Z",
  "networkType": "ethereum",
  "devdoc": {
    "kind": "dev",
    "methods": {
      "approve(address,uint256)": {
        "details": "See {IERC721-approve}."
      },
      "balanceOf(address)": {
        "details": "See {IERC721-balanceOf}."
      },
      "getApproved(uint256)": {
        "details": "See {IERC721-getApproved}."
      },
      "name()": {
        "details": "See {IERC721Metadata-name}."
      },
      "owner()": {
        "details": "Returns the address of the current owner."
      },
      "ownerOf(uint256)": {
        "details": "See {IERC721-ownerOf}."
      },
      "renounceOwnership()": {
        "details": "Leaves the contract without owner. It will not be possible to call `onlyOwner` functions anymore. Can only be called by the current owner. NOTE: Renouncing ownership will leave the contract without an owner, thereby removing any functionality that is only available to the owner."
      },
      "safeTransferFrom(address,address,uint256)": {
        "details": "See {IERC721-safeTransferFrom}."
      },
      "safeTransferFrom(address,address,uint256,bytes)": {
        "details": "See {IERC721-safeTransferFrom}."
      },
      "setApprovalForAll(address,bool)": {
        "details": "See {IERC721-setApprovalForAll}."
      },
      "supportsInterface(bytes4)": {
        "details": "See {IERC165-supportsInterface}."
      },
      "symbol()": {
        "details": "See {IERC721Metadata-symbol}."
      },
      "tokenByIndex(uint256)": {
        "details": "See {IERC721Enumerable-tokenByIndex}."
      },
      "tokenOfOwnerByIndex(address,uint256)": {
        "details": "See {IERC721Enumerable-tokenOfOwnerByIndex}."
      },
      "totalSupply()": {
        "details": "See {IERC721Enumerable-totalSupply}."
      },
      "transferFrom(address,address,uint256)": {
        "details": "See {IERC721-transferFrom}."
      },
      "transferOwnership(address)": {
        "details": "Transfers ownership of the contract to a new account (`newOwner`). Can only be called by the current owner."
      }
    },
    "version": 1
  },
  "userdoc": {
    "kind": "user",
    "methods": {
      "isApprovedForAll(address,address)": {
        "notice": "Override isApprovedForAll to whitelist user's OpenSea proxy accounts to enable gas-less listings."
      }
    },
    "version": 1
  }
}