{
  "contractName": "HumanStaker",
  "abi": [
    {
      "inputs": [],
      "stateMutability": "nonpayable",
      "type": "constructor"
    },
    {
      "anonymous": false,
      "inputs": [
        {
          "indexed": true,
          "internalType": "address",
          "name": "previousOwner",
          "type": "address"
        },
        {
          "indexed": true,
          "internalType": "address",
          "name": "newOwner",
          "type": "address"
        }
      ],
      "name": "OwnershipTransferred",
      "type": "event"
    },
    {
      "anonymous": false,
      "inputs": [
        {
          "indexed": false,
          "internalType": "uint256",
          "name": "tokenId",
          "type": "uint256"
        },
        {
          "indexed": false,
          "internalType": "uint256",
          "name": "fee",
          "type": "uint256"
        },
        {
          "indexed": false,
          "internalType": "bool",
          "name": "manual",
          "type": "bool"
        }
      ],
      "name": "Stake",
      "type": "event"
    },
    {
      "anonymous": false,
      "inputs": [
        {
          "indexed": false,
          "internalType": "uint256",
          "name": "tokenId",
          "type": "uint256"
        }
      ],
      "name": "Unstake",
      "type": "event"
    },
    {
      "anonymous": false,
      "inputs": [
        {
          "indexed": false,
          "internalType": "uint256",
          "name": "tokenId",
          "type": "uint256"
        },
        {
          "indexed": false,
          "internalType": "address",
          "name": "user",
          "type": "address"
        },
        {
          "indexed": false,
          "internalType": "uint256",
          "name": "balance",
          "type": "uint256"
        }
      ],
      "name": "Use",
      "type": "event"
    },
    {
      "anonymous": false,
      "inputs": [
        {
          "indexed": false,
          "internalType": "uint256",
          "name": "tokenId",
          "type": "uint256"
        },
        {
          "indexed": false,
          "internalType": "uint256",
          "name": "balance",
          "type": "uint256"
        }
      ],
      "name": "Withdraw",
      "type": "event"
    },
    {
      "inputs": [],
      "name": "owner",
      "outputs": [
        {
          "internalType": "address",
          "name": "",
          "type": "address"
        }
      ],
      "stateMutability": "view",
      "type": "function"
    },
    {
      "inputs": [],
      "name": "renounceOwnership",
      "outputs": [],
      "stateMutability": "nonpayable",
      "type": "function"
    },
    {
      "inputs": [
        {
          "internalType": "uint256",
          "name": "",
          "type": "uint256"
        }
      ],
      "name": "stakes",
      "outputs": [
        {
          "internalType": "uint256",
          "name": "fee",
          "type": "uint256"
        },
        {
          "internalType": "uint256",
          "name": "balance",
          "type": "uint256"
        },
        {
          "internalType": "bool",
          "name": "isManual",
          "type": "bool"
        },
        {
          "internalType": "bool",
          "name": "isExist",
          "type": "bool"
        }
      ],
      "stateMutability": "view",
      "type": "function"
    },
    {
      "inputs": [
        {
          "internalType": "address",
          "name": "newOwner",
          "type": "address"
        }
      ],
      "name": "transferOwnership",
      "outputs": [],
      "stateMutability": "nonpayable",
      "type": "function"
    },
    {
      "inputs": [
        {
          "internalType": "address",
          "name": "_address",
          "type": "address"
        }
      ],
      "name": "setHumanERC721",
      "outputs": [],
      "stateMutability": "nonpayable",
      "type": "function"
    },
    {
      "inputs": [
        {
          "internalType": "address",
          "name": "_address",
          "type": "address"
        }
      ],
      "name": "setSHumanERC721",
      "outputs": [],
      "stateMutability": "nonpayable",
      "type": "function"
    },
    {
      "inputs": [
        {
          "internalType": "address",
          "name": "_address",
          "type": "address"
        }
      ],
      "name": "setHumanERC20",
      "outputs": [],
      "stateMutability": "nonpayable",
      "type": "function"
    },
    {
      "inputs": [
        {
          "internalType": "uint256",
          "name": "_tokenId",
          "type": "uint256"
        },
        {
          "internalType": "uint256",
          "name": "fee",
          "type": "uint256"
        },
        {
          "internalType": "bool",
          "name": "manual",
          "type": "bool"
        }
      ],
      "name": "stake",
      "outputs": [],
      "stateMutability": "nonpayable",
      "type": "function"
    },
    {
      "inputs": [
        {
          "internalType": "uint256",
          "name": "_tokenId",
          "type": "uint256"
        }
      ],
      "name": "unstake",
      "outputs": [],
      "stateMutability": "nonpayable",
      "type": "function"
    },
    {
      "inputs": [
        {
          "internalType": "uint256",
          "name": "_tokenId",
          "type": "uint256"
        }
      ],
      "name": "use",
      "outputs": [],
      "stateMutability": "nonpayable",
      "type": "function"
    },
    {
      "inputs": [
        {
          "internalType": "uint256",
          "name": "_tokenId",
          "type": "uint256"
        },
        {
          "internalType": "uint256",
          "name": "_balance",
          "type": "uint256"
        }
      ],
      "name": "withdraw",
      "outputs": [],
      "stateMutability": "nonpayable",
      "type": "function"
    }
  ],
  "bytecode": "0x608060405234801561001057600080fd5b5061002d61002261003260201b60201c565b61003a60201b60201c565b6100fe565b600033905090565b60008060009054906101000a900473ffffffffffffffffffffffffffffffffffffffff169050816000806101000a81548173ffffffffffffffffffffffffffffffffffffffff021916908373ffffffffffffffffffffffffffffffffffffffff1602179055508173ffffffffffffffffffffffffffffffffffffffff168173ffffffffffffffffffffffffffffffffffffffff167f8be0079c531659141344cd1fd0a4f28419497f9722a3daafe3b4186f6b6457e060405160405180910390a35050565b6115dc8061010d6000396000f3fe608060405234801561001057600080fd5b50600436106100a95760003560e01c80638da5cb5b116100715780638da5cb5b146101285780638fb4529c146101465780639e1188ff14610162578063ab5b44561461017e578063d5a44f861461019a578063f2fde38b146101cd576100a9565b80632e17de78146100ae57806340a67850146100ca578063441a3e70146100e6578063561b246314610102578063715018a61461011e575b600080fd5b6100c860048036038101906100c39190611038565b6101e9565b005b6100e460048036038101906100df91906110c3565b610521565b005b61010060048036038101906100fb91906110f0565b6105e1565b005b61011c60048036038101906101179190611168565b6107d8565b005b610126610a9e565b005b610130610b26565b60405161013d91906111ca565b60405180910390f35b610160600480360381019061015b91906110c3565b610b4f565b005b61017c600480360381019061017791906110c3565b610c0f565b005b61019860048036038101906101939190611038565b610ccf565b005b6101b460048036038101906101af9190611038565b610def565b6040516101c49493929190611203565b60405180910390f35b6101e760048036038101906101e291906110c3565b610e39565b005b80600360009054906101000a900473ffffffffffffffffffffffffffffffffffffffff1673ffffffffffffffffffffffffffffffffffffffff16636352211e826040518263ffffffff1660e01b81526004016102459190611248565b602060405180830381865afa158015610262573d6000803e3d6000fd5b505050506040513d601f19601f820116820180604052508101906102869190611278565b73ffffffffffffffffffffffffffffffffffffffff163373ffffffffffffffffffffffffffffffffffffffff16146102bd57600080fd5b6000600160008481526020019081526020016000209050600460009054906101000a900473ffffffffffffffffffffffffffffffffffffffff1673ffffffffffffffffffffffffffffffffffffffff1663a9059cbb3383600101546040518363ffffffff1660e01b81526004016103359291906112a5565b6020604051808303816000875af1158015610354573d6000803e3d6000fd5b505050506040513d601f19601f8201168201806040525081019061037891906112e3565b50600260009054906101000a900473ffffffffffffffffffffffffffffffffffffffff1673ffffffffffffffffffffffffffffffffffffffff166342842e0e3033866040518463ffffffff1660e01b81526004016103d893929190611310565b600060405180830381600087803b1580156103f257600080fd5b505af1158015610406573d6000803e3d6000fd5b50505050600360009054906101000a900473ffffffffffffffffffffffffffffffffffffffff1673ffffffffffffffffffffffffffffffffffffffff166342966c68846040518263ffffffff1660e01b81526004016104659190611248565b600060405180830381600087803b15801561047f57600080fd5b505af1158015610493573d6000803e3d6000fd5b505050506001600084815260200190815260200160002060008082016000905560018201600090556002820160006101000a81549060ff02191690556002820160016101000a81549060ff021916905550507ff1f1db1ecefb0a90b3cd6a1903d29374b4a935df69fd25c7fc6ed397d3683c26836040516105149190611248565b60405180910390a1505050565b610529610f31565b73ffffffffffffffffffffffffffffffffffffffff16610547610b26565b73ffffffffffffffffffffffffffffffffffffffff161461059d576040517f08c379a0000000000000000000000000000000000000000000000000000000008152600401610594906113a4565b60405180910390fd5b80600260006101000a81548173ffffffffffffffffffffffffffffffffffffffff021916908373ffffffffffffffffffffffffffffffffffffffff16021790555050565b81600360009054906101000a900473ffffffffffffffffffffffffffffffffffffffff1673ffffffffffffffffffffffffffffffffffffffff16636352211e826040518263ffffffff1660e01b815260040161063d9190611248565b602060405180830381865afa15801561065a573d6000803e3d6000fd5b505050506040513d601f19601f8201168201806040525081019061067e9190611278565b73ffffffffffffffffffffffffffffffffffffffff163373ffffffffffffffffffffffffffffffffffffffff16146106b557600080fd5b600060016000858152602001908152602001600020905082816001015410156106dd57600080fd5b828160010160008282546106f191906113f3565b92505081905550600460009054906101000a900473ffffffffffffffffffffffffffffffffffffffff1673ffffffffffffffffffffffffffffffffffffffff1663a9059cbb33856040518363ffffffff1660e01b81526004016107559291906112a5565b6020604051808303816000875af1158015610774573d6000803e3d6000fd5b505050506040513d601f19601f8201168201806040525081019061079891906112e3565b507f56ca301a9219608c91e7bcee90e083c19671d2cdcc96752c7af291cee5f9c8c884846040516107ca929190611427565b60405180910390a150505050565b82600260009054906101000a900473ffffffffffffffffffffffffffffffffffffffff1673ffffffffffffffffffffffffffffffffffffffff16636352211e826040518263ffffffff1660e01b81526004016108349190611248565b602060405180830381865afa158015610851573d6000803e3d6000fd5b505050506040513d601f19601f820116820180604052508101906108759190611278565b73ffffffffffffffffffffffffffffffffffffffff163373ffffffffffffffffffffffffffffffffffffffff16146108ac57600080fd5b600260009054906101000a900473ffffffffffffffffffffffffffffffffffffffff1673ffffffffffffffffffffffffffffffffffffffff166342842e0e3330876040518463ffffffff1660e01b815260040161090b93929190611310565b600060405180830381600087803b15801561092557600080fd5b505af1158015610939573d6000803e3d6000fd5b5050505060405180608001604052808481526020016000815260200183151581526020016001151581525060016000868152602001908152602001600020600082015181600001556020820151816001015560408201518160020160006101000a81548160ff02191690831515021790555060608201518160020160016101000a81548160ff021916908315150217905550905050600360009054906101000a900473ffffffffffffffffffffffffffffffffffffffff1673ffffffffffffffffffffffffffffffffffffffff1663a144819433866040518363ffffffff1660e01b8152600401610a2b9291906112a5565b600060405180830381600087803b158015610a4557600080fd5b505af1158015610a59573d6000803e3d6000fd5b505050507fa704e351f12b57dc7d7b944f2ab3be36907a92f82c6cb18f383aa72c33f8c987848484604051610a9093929190611450565b60405180910390a150505050565b610aa6610f31565b73ffffffffffffffffffffffffffffffffffffffff16610ac4610b26565b73ffffffffffffffffffffffffffffffffffffffff1614610b1a576040517f08c379a0000000000000000000000000000000000000000000000000000000008152600401610b11906113a4565b60405180910390fd5b610b246000610f39565b565b60008060009054906101000a900473ffffffffffffffffffffffffffffffffffffffff16905090565b610b57610f31565b73ffffffffffffffffffffffffffffffffffffffff16610b75610b26565b73ffffffffffffffffffffffffffffffffffffffff1614610bcb576040517f08c379a0000000000000000000000000000000000000000000000000000000008152600401610bc2906113a4565b60405180910390fd5b80600460006101000a81548173ffffffffffffffffffffffffffffffffffffffff021916908373ffffffffffffffffffffffffffffffffffffffff16021790555050565b610c17610f31565b73ffffffffffffffffffffffffffffffffffffffff16610c35610b26565b73ffffffffffffffffffffffffffffffffffffffff1614610c8b576040517f08c379a0000000000000000000000000000000000000000000000000000000008152600401610c82906113a4565b60405180910390fd5b80600360006101000a81548173ffffffffffffffffffffffffffffffffffffffff021916908373ffffffffffffffffffffffffffffffffffffffff16021790555050565b6000600160008381526020019081526020016000209050600460009054906101000a900473ffffffffffffffffffffffffffffffffffffffff1673ffffffffffffffffffffffffffffffffffffffff166323b872dd333084600001546040518463ffffffff1660e01b8152600401610d4993929190611310565b6020604051808303816000875af1158015610d68573d6000803e3d6000fd5b505050506040513d601f19601f82011682018060405250810190610d8c91906112e3565b508060000154816001016000828254610da59190611487565b925050819055507fadd3d3c21c3dc2d229b03bad547c2e7de82af88fa5b935eb3d08fb6de2ad9d4f82338360000154604051610de3939291906114dd565b60405180910390a15050565b60016020528060005260406000206000915090508060000154908060010154908060020160009054906101000a900460ff16908060020160019054906101000a900460ff16905084565b610e41610f31565b73ffffffffffffffffffffffffffffffffffffffff16610e5f610b26565b73ffffffffffffffffffffffffffffffffffffffff1614610eb5576040517f08c379a0000000000000000000000000000000000000000000000000000000008152600401610eac906113a4565b60405180910390fd5b600073ffffffffffffffffffffffffffffffffffffffff168173ffffffffffffffffffffffffffffffffffffffff161415610f25576040517f08c379a0000000000000000000000000000000000000000000000000000000008152600401610f1c90611586565b60405180910390fd5b610f2e81610f39565b50565b600033905090565b60008060009054906101000a900473ffffffffffffffffffffffffffffffffffffffff169050816000806101000a81548173ffffffffffffffffffffffffffffffffffffffff021916908373ffffffffffffffffffffffffffffffffffffffff1602179055508173ffffffffffffffffffffffffffffffffffffffff168173ffffffffffffffffffffffffffffffffffffffff167f8be0079c531659141344cd1fd0a4f28419497f9722a3daafe3b4186f6b6457e060405160405180910390a35050565b600080fd5b6000819050919050565b61101581611002565b811461102057600080fd5b50565b6000813590506110328161100c565b92915050565b60006020828403121561104e5761104d610ffd565b5b600061105c84828501611023565b91505092915050565b600073ffffffffffffffffffffffffffffffffffffffff82169050919050565b600061109082611065565b9050919050565b6110a081611085565b81146110ab57600080fd5b50565b6000813590506110bd81611097565b92915050565b6000602082840312156110d9576110d8610ffd565b5b60006110e7848285016110ae565b91505092915050565b6000806040838503121561110757611106610ffd565b5b600061111585828601611023565b925050602061112685828601611023565b9150509250929050565b60008115159050919050565b61114581611130565b811461115057600080fd5b50565b6000813590506111628161113c565b92915050565b60008060006060848603121561118157611180610ffd565b5b600061118f86828701611023565b93505060206111a086828701611023565b92505060406111b186828701611153565b9150509250925092565b6111c481611085565b82525050565b60006020820190506111df60008301846111bb565b92915050565b6111ee81611002565b82525050565b6111fd81611130565b82525050565b600060808201905061121860008301876111e5565b61122560208301866111e5565b61123260408301856111f4565b61123f60608301846111f4565b95945050505050565b600060208201905061125d60008301846111e5565b92915050565b60008151905061127281611097565b92915050565b60006020828403121561128e5761128d610ffd565b5b600061129c84828501611263565b91505092915050565b60006040820190506112ba60008301856111bb565b6112c760208301846111e5565b9392505050565b6000815190506112dd8161113c565b92915050565b6000602082840312156112f9576112f8610ffd565b5b6000611307848285016112ce565b91505092915050565b600060608201905061132560008301866111bb565b61133260208301856111bb565b61133f60408301846111e5565b949350505050565b600082825260208201905092915050565b7f4f776e61626c653a2063616c6c6572206973206e6f7420746865206f776e6572600082015250565b600061138e602083611347565b915061139982611358565b602082019050919050565b600060208201905081810360008301526113bd81611381565b9050919050565b7f4e487b7100000000000000000000000000000000000000000000000000000000600052601160045260246000fd5b60006113fe82611002565b915061140983611002565b92508282101561141c5761141b6113c4565b5b828203905092915050565b600060408201905061143c60008301856111e5565b61144960208301846111e5565b9392505050565b600060608201905061146560008301866111e5565b61147260208301856111e5565b61147f60408301846111f4565b949350505050565b600061149282611002565b915061149d83611002565b9250827fffffffffffffffffffffffffffffffffffffffffffffffffffffffffffffffff038211156114d2576114d16113c4565b5b828201905092915050565b60006060820190506114f260008301866111e5565b6114ff60208301856111bb565b61150c60408301846111e5565b949350505050565b7f4f776e61626c653a206e6577206f776e657220697320746865207a65726f206160008201527f6464726573730000000000000000000000000000000000000000000000000000602082015250565b6000611570602683611347565b915061157b82611514565b604082019050919050565b6000602082019050818103600083015261159f81611563565b905091905056fea2646970667358221220b2ed990e27905f6f3d95bdad6f6afc3a30d9ed946e313177263c841b4a35261164736f6c634300080a0033",
  "immutableReferences": {},
  "source": "pragma solidity >=0.4.22 <0.9.0;\n\nimport \"@openzeppelin/contracts/access/Ownable.sol\";\nimport \"@openzeppelin/contracts/token/ERC721/extensions/IERC721Enumerable.sol\";\nimport \"@openzeppelin/contracts/token/ERC721/ERC721.sol\";\nimport \"@openzeppelin/contracts/token/ERC20/ERC20.sol\";\nimport \"./SHumanERC721.sol\";\n\ncontract HumanStaker is Ownable {\n\n  event Stake(uint tokenId, uint fee, bool manual);\n  event Unstake(uint tokenId);\n  event Use(uint tokenId, address user, uint balance);\n  event Withdraw(uint tokenId, uint balance);\n\n  struct StakingOption {\n    uint fee;\n    uint balance;\n    bool isManual;\n    bool isExist;\n  }\n\n  mapping (uint => StakingOption) public stakes; \n  ERC721 humanERC721;\n  SHumanERC721 shumanERC721;\n  ERC20 humanERC20;\n\n  constructor () {}\n\n  function setHumanERC721(address _address) public onlyOwner {\n    humanERC721 = ERC721(_address);\n  }\n\n  function setSHumanERC721(address _address) public onlyOwner {\n    shumanERC721 = SHumanERC721(_address);\n  }\n\n  function setHumanERC20(address _address) public onlyOwner {\n    humanERC20 = ERC20(_address);\n  }\n\n  modifier onlyHumanOwner(uint _tokenId) {\n    require(msg.sender == humanERC721.ownerOf(_tokenId));\n    _;\n  }\n\n  modifier onlySHumanOwner(uint _tokenId) {\n    require(msg.sender == shumanERC721.ownerOf(_tokenId));\n    _;\n  }\n\n  function stake(uint _tokenId, uint fee, bool manual) public onlyHumanOwner(_tokenId) {\n    //  ?\n    humanERC721.safeTransferFrom(msg.sender, address(this), _tokenId);\n    stakes[_tokenId] = StakingOption(fee, 0, manual, true);\n    shumanERC721.safeMint(msg.sender, _tokenId);\n    emit Stake(_tokenId, fee, manual);\n  }\n\n  function unstake(uint _tokenId) public onlySHumanOwner(_tokenId) {\n    StakingOption storage option = stakes[_tokenId];\n    humanERC20.transfer(msg.sender, option.balance);\n    humanERC721.safeTransferFrom(address(this), msg.sender, _tokenId);\n    shumanERC721.burn(_tokenId);\n    delete stakes[_tokenId];\n    emit Unstake(_tokenId);\n  }\n\n  function use(uint _tokenId) public {\n    StakingOption storage option = stakes[_tokenId];\n    humanERC20.transferFrom(msg.sender, address(this), option.fee);\n    option.balance += option.fee;\n    emit Use(_tokenId, msg.sender, option.fee);\n  }\n\n  function withdraw(uint _tokenId, uint _balance) public onlySHumanOwner(_tokenId) {\n    StakingOption storage option = stakes[_tokenId];\n    require(option.balance >= _balance);\n    option.balance -= _balance;\n    humanERC20.transfer(msg.sender, _balance);\n    emit Withdraw(_tokenId, _balance);\n  }\n}",
  "sourcePath": "/Users/klleon/workspace/blockchain/vhuman/contracts/HumanStaker.sol",
  "compiler": {
    "name": "solc",
    "version": "0.8.10+commit.fc410830.Emscripten.clang"
  },
  "schemaVersion": "3.4.3",
  "updatedAt": "2021-12-16T05:07:58.154Z",
  "devdoc": {
    "kind": "dev",
    "methods": {
      "owner()": {
        "details": "Returns the address of the current owner."
      },
      "renounceOwnership()": {
        "details": "Leaves the contract without owner. It will not be possible to call `onlyOwner` functions anymore. Can only be called by the current owner. NOTE: Renouncing ownership will leave the contract without an owner, thereby removing any functionality that is only available to the owner."
      },
      "transferOwnership(address)": {
        "details": "Transfers ownership of the contract to a new account (`newOwner`). Can only be called by the current owner."
      }
    },
    "version": 1
  },
  "userdoc": {
    "kind": "user",
    "methods": {},
    "version": 1
  }
}