{
  "contractName": "HumanConverter",
  "abi": [
    {
      "inputs": [],
      "stateMutability": "nonpayable",
      "type": "constructor"
    },
    {
      "anonymous": false,
      "inputs": [
        {
          "indexed": true,
          "internalType": "address",
          "name": "previousOwner",
          "type": "address"
        },
        {
          "indexed": true,
          "internalType": "address",
          "name": "newOwner",
          "type": "address"
        }
      ],
      "name": "OwnershipTransferred",
      "type": "event"
    },
    {
      "anonymous": false,
      "inputs": [
        {
          "indexed": false,
          "internalType": "uint256",
          "name": "_tokenId",
          "type": "uint256"
        }
      ],
      "name": "Stake",
      "type": "event"
    },
    {
      "anonymous": false,
      "inputs": [
        {
          "indexed": false,
          "internalType": "uint256",
          "name": "_tokenId",
          "type": "uint256"
        }
      ],
      "name": "Unstake",
      "type": "event"
    },
    {
      "inputs": [
        {
          "internalType": "address",
          "name": "",
          "type": "address"
        }
      ],
      "name": "converter",
      "outputs": [
        {
          "internalType": "uint256",
          "name": "amount",
          "type": "uint256"
        },
        {
          "internalType": "uint256",
          "name": "convertCount",
          "type": "uint256"
        },
        {
          "internalType": "uint256",
          "name": "complainCount",
          "type": "uint256"
        }
      ],
      "stateMutability": "view",
      "type": "function",
      "constant": true
    },
    {
      "inputs": [],
      "name": "owner",
      "outputs": [
        {
          "internalType": "address",
          "name": "",
          "type": "address"
        }
      ],
      "stateMutability": "view",
      "type": "function",
      "constant": true
    },
    {
      "inputs": [],
      "name": "renounceOwnership",
      "outputs": [],
      "stateMutability": "nonpayable",
      "type": "function"
    },
    {
      "inputs": [
        {
          "internalType": "uint256",
          "name": "",
          "type": "uint256"
        }
      ],
      "name": "requests",
      "outputs": [
        {
          "internalType": "address",
          "name": "client",
          "type": "address"
        },
        {
          "internalType": "address",
          "name": "converter",
          "type": "address"
        },
        {
          "internalType": "string",
          "name": "sourceUri",
          "type": "string"
        },
        {
          "internalType": "string",
          "name": "humanNumber",
          "type": "string"
        },
        {
          "internalType": "string",
          "name": "resultUri",
          "type": "string"
        },
        {
          "internalType": "enum HumanConverter.STATUS",
          "name": "status",
          "type": "uint8"
        },
        {
          "internalType": "uint256",
          "name": "tokenId",
          "type": "uint256"
        },
        {
          "internalType": "uint256",
          "name": "result",
          "type": "uint256"
        },
        {
          "internalType": "uint256",
          "name": "date",
          "type": "uint256"
        }
      ],
      "stateMutability": "view",
      "type": "function",
      "constant": true
    },
    {
      "inputs": [
        {
          "internalType": "address",
          "name": "_address",
          "type": "address"
        }
      ],
      "name": "setHumanERC20",
      "outputs": [],
      "stateMutability": "nonpayable",
      "type": "function"
    },
    {
      "inputs": [
        {
          "internalType": "address",
          "name": "_address",
          "type": "address"
        }
      ],
      "name": "setHumanERC721",
      "outputs": [],
      "stateMutability": "nonpayable",
      "type": "function"
    },
    {
      "inputs": [
        {
          "internalType": "uint256",
          "name": "_tokenId",
          "type": "uint256"
        },
        {
          "internalType": "uint256",
          "name": "fee",
          "type": "uint256"
        },
        {
          "internalType": "uint256",
          "name": "price",
          "type": "uint256"
        },
        {
          "internalType": "bool",
          "name": "manual",
          "type": "bool"
        }
      ],
      "name": "stake",
      "outputs": [],
      "stateMutability": "nonpayable",
      "type": "function"
    },
    {
      "inputs": [
        {
          "internalType": "uint256",
          "name": "",
          "type": "uint256"
        }
      ],
      "name": "stakes",
      "outputs": [
        {
          "internalType": "uint256",
          "name": "fee",
          "type": "uint256"
        },
        {
          "internalType": "uint256",
          "name": "price",
          "type": "uint256"
        },
        {
          "internalType": "uint256",
          "name": "balance",
          "type": "uint256"
        },
        {
          "internalType": "bool",
          "name": "isManual",
          "type": "bool"
        },
        {
          "internalType": "bool",
          "name": "isExist",
          "type": "bool"
        }
      ],
      "stateMutability": "view",
      "type": "function",
      "constant": true
    },
    {
      "inputs": [
        {
          "internalType": "address",
          "name": "newOwner",
          "type": "address"
        }
      ],
      "name": "transferOwnership",
      "outputs": [],
      "stateMutability": "nonpayable",
      "type": "function"
    },
    {
      "inputs": [
        {
          "internalType": "uint256",
          "name": "_tokenId",
          "type": "uint256"
        }
      ],
      "name": "unstake",
      "outputs": [],
      "stateMutability": "nonpayable",
      "type": "function"
    },
    {
      "inputs": [
        {
          "internalType": "uint256",
          "name": "_tokenId",
          "type": "uint256"
        }
      ],
      "name": "use",
      "outputs": [],
      "stateMutability": "nonpayable",
      "type": "function"
    },
    {
      "inputs": [
        {
          "internalType": "uint256",
          "name": "_tokenId",
          "type": "uint256"
        },
        {
          "internalType": "uint256",
          "name": "balance",
          "type": "uint256"
        }
      ],
      "name": "withdraw",
      "outputs": [],
      "stateMutability": "nonpayable",
      "type": "function"
    },
    {
      "inputs": [
        {
          "internalType": "string",
          "name": "_sourceUri",
          "type": "string"
        },
        {
          "internalType": "string",
          "name": "_humanNumber",
          "type": "string"
        },
        {
          "internalType": "uint256",
          "name": "_tokenId",
          "type": "uint256"
        }
      ],
      "name": "request",
      "outputs": [],
      "stateMutability": "nonpayable",
      "type": "function"
    },
    {
      "inputs": [
        {
          "internalType": "uint256",
          "name": "_requestId",
          "type": "uint256"
        }
      ],
      "name": "start",
      "outputs": [],
      "stateMutability": "nonpayable",
      "type": "function"
    },
    {
      "inputs": [
        {
          "internalType": "uint256",
          "name": "_requestId",
          "type": "uint256"
        },
        {
          "internalType": "string",
          "name": "_resultUri",
          "type": "string"
        }
      ],
      "name": "success",
      "outputs": [],
      "stateMutability": "nonpayable",
      "type": "function"
    },
    {
      "inputs": [
        {
          "internalType": "uint256",
          "name": "_requestId",
          "type": "uint256"
        }
      ],
      "name": "confirm",
      "outputs": [],
      "stateMutability": "nonpayable",
      "type": "function"
    },
    {
      "inputs": [
        {
          "internalType": "uint256",
          "name": "_requsetId",
          "type": "uint256"
        }
      ],
      "name": "complain",
      "outputs": [],
      "stateMutability": "nonpayable",
      "type": "function"
    }
  ],
  "bytecode": "0x608060405234801561001057600080fd5b5061002d61002261003260201b60201c565b61003a60201b60201c565b6100fe565b600033905090565b60008060009054906101000a900473ffffffffffffffffffffffffffffffffffffffff169050816000806101000a81548173ffffffffffffffffffffffffffffffffffffffff021916908373ffffffffffffffffffffffffffffffffffffffff1602179055508173ffffffffffffffffffffffffffffffffffffffff168173ffffffffffffffffffffffffffffffffffffffff167f8be0079c531659141344cd1fd0a4f28419497f9722a3daafe3b4186f6b6457e060405160405180910390a35050565b612106806200010e6000396000f3fe608060405234801561001057600080fd5b506004361061010b5760003560e01c80638da5cb5b116100a2578063ba0179b511610071578063ba0179b514610282578063d19769a51461029e578063d5a44f86146102ba578063e3be1b03146102ee578063f2fde38b1461030a5761010b565b80638da5cb5b146102105780638fb4529c1461022e57806395805dad1461024a578063ab5b4456146102665761010b565b8063441a3e70116100de578063441a3e70146101805780636e0b4f901461019c578063715018a6146101ce57806381d12c58146101d85761010b565b806311319f8d14610110578063284f09231461012c5780632e17de781461014857806340a6785014610164575b600080fd5b61012a60048036038101906101259190611899565b610326565b005b61014660048036038101906101419190611924565b61051d565b005b610162600480360381019061015d9190611924565b610547565b005b61017e600480360381019061017991906119af565b6107fa565b005b61019a600480360381019061019591906119dc565b6108ba565b005b6101b660048036038101906101b191906119af565b610a78565b6040516101c593929190611a2b565b60405180910390f35b6101d6610aa2565b005b6101f260048036038101906101ed9190611924565b610b2a565b60405161020799989796959493929190611b70565b60405180910390f35b610218610d6d565b6040516102259190611c12565b60405180910390f35b610248600480360381019061024391906119af565b610d96565b005b610264600480360381019061025f9190611924565b610e56565b005b610280600480360381019061027b9190611924565b610f82565b005b61029c60048036038101906102979190611924565b611063565b005b6102b860048036038101906102b39190611c65565b611138565b005b6102d460048036038101906102cf9190611924565b61137c565b6040516102e5959493929190611cdb565b60405180910390f35b61030860048036038101906103039190611d2e565b6113cc565b005b610324600480360381019061031f91906119af565b6114a2565b005b60056040518061012001604052803373ffffffffffffffffffffffffffffffffffffffff168152602001600073ffffffffffffffffffffffffffffffffffffffff168152602001858152602001604051806020016040528060008152508152602001848152602001600060068111156103a2576103a1611af9565b5b8152602001838152602001600081526020016000815250908060018154018082558091505060019003906000526020600020906009020160009091909190915060008201518160000160006101000a81548173ffffffffffffffffffffffffffffffffffffffff021916908373ffffffffffffffffffffffffffffffffffffffff16021790555060208201518160010160006101000a81548173ffffffffffffffffffffffffffffffffffffffff021916908373ffffffffffffffffffffffffffffffffffffffff160217905550604082015181600201908051906020019061048c929190611666565b5060608201518160030190805190602001906104a9929190611666565b5060808201518160040190805190602001906104c6929190611666565b5060a08201518160050160006101000a81548160ff021916908360068111156104f2576104f1611af9565b5b021790555060c0820151816006015560e0820151816007015561010082015181600801555050505050565b60006005828154811061053357610532611d8a565b5b906000526020600020906009020190505050565b80600260009054906101000a900473ffffffffffffffffffffffffffffffffffffffff1673ffffffffffffffffffffffffffffffffffffffff16636352211e826040518263ffffffff1660e01b81526004016105a39190611db9565b602060405180830381865afa1580156105c0573d6000803e3d6000fd5b505050506040513d601f19601f820116820180604052508101906105e49190611de9565b73ffffffffffffffffffffffffffffffffffffffff163373ffffffffffffffffffffffffffffffffffffffff161461061b57600080fd5b6000600160008481526020019081526020016000209050600360009054906101000a900473ffffffffffffffffffffffffffffffffffffffff1673ffffffffffffffffffffffffffffffffffffffff1663a9059cbb3383600201546040518363ffffffff1660e01b8152600401610693929190611e16565b6020604051808303816000875af11580156106b2573d6000803e3d6000fd5b505050506040513d601f19601f820116820180604052508101906106d69190611e54565b50600260009054906101000a900473ffffffffffffffffffffffffffffffffffffffff1673ffffffffffffffffffffffffffffffffffffffff166342842e0e3033866040518463ffffffff1660e01b815260040161073693929190611e81565b600060405180830381600087803b15801561075057600080fd5b505af1158015610764573d6000803e3d6000fd5b5050505060016000848152602001908152602001600020600080820160009055600182016000905560028201600090556003820160006101000a81549060ff02191690556003820160016101000a81549060ff021916905550507ff1f1db1ecefb0a90b3cd6a1903d29374b4a935df69fd25c7fc6ed397d3683c26836040516107ed9190611db9565b60405180910390a1505050565b61080261159a565b73ffffffffffffffffffffffffffffffffffffffff16610820610d6d565b73ffffffffffffffffffffffffffffffffffffffff1614610876576040517f08c379a000000000000000000000000000000000000000000000000000000000815260040161086d90611f04565b60405180910390fd5b80600260006101000a81548173ffffffffffffffffffffffffffffffffffffffff021916908373ffffffffffffffffffffffffffffffffffffffff16021790555050565b81600260009054906101000a900473ffffffffffffffffffffffffffffffffffffffff1673ffffffffffffffffffffffffffffffffffffffff16636352211e826040518263ffffffff1660e01b81526004016109169190611db9565b602060405180830381865afa158015610933573d6000803e3d6000fd5b505050506040513d601f19601f820116820180604052508101906109579190611de9565b73ffffffffffffffffffffffffffffffffffffffff163373ffffffffffffffffffffffffffffffffffffffff161461098e57600080fd5b600060016000858152602001908152602001600020905082816002015410156109b657600080fd5b828160020160008282546109ca9190611f53565b92505081905550600360009054906101000a900473ffffffffffffffffffffffffffffffffffffffff1673ffffffffffffffffffffffffffffffffffffffff1663a9059cbb33856040518363ffffffff1660e01b8152600401610a2e929190611e16565b6020604051808303816000875af1158015610a4d573d6000803e3d6000fd5b505050506040513d601f19601f82011682018060405250810190610a719190611e54565b5050505050565b60046020528060005260406000206000915090508060000154908060010154908060020154905083565b610aaa61159a565b73ffffffffffffffffffffffffffffffffffffffff16610ac8610d6d565b73ffffffffffffffffffffffffffffffffffffffff1614610b1e576040517f08c379a0000000000000000000000000000000000000000000000000000000008152600401610b1590611f04565b60405180910390fd5b610b2860006115a2565b565b60058181548110610b3a57600080fd5b90600052602060002090600902016000915090508060000160009054906101000a900473ffffffffffffffffffffffffffffffffffffffff16908060010160009054906101000a900473ffffffffffffffffffffffffffffffffffffffff1690806002018054610ba990611fb6565b80601f0160208091040260200160405190810160405280929190818152602001828054610bd590611fb6565b8015610c225780601f10610bf757610100808354040283529160200191610c22565b820191906000526020600020905b815481529060010190602001808311610c0557829003601f168201915b505050505090806003018054610c3790611fb6565b80601f0160208091040260200160405190810160405280929190818152602001828054610c6390611fb6565b8015610cb05780601f10610c8557610100808354040283529160200191610cb0565b820191906000526020600020905b815481529060010190602001808311610c9357829003601f168201915b505050505090806004018054610cc590611fb6565b80601f0160208091040260200160405190810160405280929190818152602001828054610cf190611fb6565b8015610d3e5780601f10610d1357610100808354040283529160200191610d3e565b820191906000526020600020905b815481529060010190602001808311610d2157829003601f168201915b5050505050908060050160009054906101000a900460ff16908060060154908060070154908060080154905089565b60008060009054906101000a900473ffffffffffffffffffffffffffffffffffffffff16905090565b610d9e61159a565b73ffffffffffffffffffffffffffffffffffffffff16610dbc610d6d565b73ffffffffffffffffffffffffffffffffffffffff1614610e12576040517f08c379a0000000000000000000000000000000000000000000000000000000008152600401610e0990611f04565b60405180910390fd5b80600360006101000a81548173ffffffffffffffffffffffffffffffffffffffff021916908373ffffffffffffffffffffffffffffffffffffffff16021790555050565b6000600460003373ffffffffffffffffffffffffffffffffffffffff1673ffffffffffffffffffffffffffffffffffffffff168152602001908152602001600020600001541015610ea657600080fd5b600060058281548110610ebc57610ebb611d8a565b5b9060005260206000209060090201905060006006811115610ee057610edf611af9565b5b8160050160009054906101000a900460ff166006811115610f0457610f03611af9565b5b14610f0e57600080fd5b60018160050160006101000a81548160ff02191690836006811115610f3657610f35611af9565b5b0217905550338160010160006101000a81548173ffffffffffffffffffffffffffffffffffffffff021916908373ffffffffffffffffffffffffffffffffffffffff1602179055505050565b6000600160008381526020019081526020016000209050600360009054906101000a900473ffffffffffffffffffffffffffffffffffffffff1673ffffffffffffffffffffffffffffffffffffffff166323b872dd333084600001546040518463ffffffff1660e01b8152600401610ffc93929190611e81565b6020604051808303816000875af115801561101b573d6000803e3d6000fd5b505050506040513d601f19601f8201168201806040525081019061103f9190611e54565b5080600001548160020160008282546110589190611fe8565b925050819055505050565b60006005828154811061107957611078611d8a565b5b906000526020600020906009020190506001600460008360010160009054906101000a900473ffffffffffffffffffffffffffffffffffffffff1673ffffffffffffffffffffffffffffffffffffffff1673ffffffffffffffffffffffffffffffffffffffff16815260200190815260200160002060010160008282546111009190611fe8565b9250508190555060068160050160006101000a81548160ff0219169083600681111561112f5761112e611af9565b5b02179055505050565b83600260009054906101000a900473ffffffffffffffffffffffffffffffffffffffff1673ffffffffffffffffffffffffffffffffffffffff16636352211e826040518263ffffffff1660e01b81526004016111949190611db9565b602060405180830381865afa1580156111b1573d6000803e3d6000fd5b505050506040513d601f19601f820116820180604052508101906111d59190611de9565b73ffffffffffffffffffffffffffffffffffffffff163373ffffffffffffffffffffffffffffffffffffffff161461120c57600080fd5b600260009054906101000a900473ffffffffffffffffffffffffffffffffffffffff1673ffffffffffffffffffffffffffffffffffffffff166342842e0e3330886040518463ffffffff1660e01b815260040161126b93929190611e81565b600060405180830381600087803b15801561128557600080fd5b505af1158015611299573d6000803e3d6000fd5b505050506040518060a00160405280858152602001848152602001600081526020018315158152602001600115158152506001600087815260200190815260200160002060008201518160000155602082015181600101556040820151816002015560608201518160030160006101000a81548160ff02191690831515021790555060808201518160030160016101000a81548160ff0219169083151502179055509050507f227a473b70d2f893cc7659219575c030a63b5743024fe1e0c1a680e708b1525a8560405161136d9190611db9565b60405180910390a15050505050565b60016020528060005260406000206000915090508060000154908060010154908060020154908060030160009054906101000a900460ff16908060030160019054906101000a900460ff16905085565b6000600583815481106113e2576113e1611d8a565b5b906000526020600020906009020190503373ffffffffffffffffffffffffffffffffffffffff168160010160009054906101000a900473ffffffffffffffffffffffffffffffffffffffff1673ffffffffffffffffffffffffffffffffffffffff161461144e57600080fd5b60028160050160006101000a81548160ff0219169083600681111561147657611475611af9565b5b021790555081816004019080519060200190611493929190611666565b50428160080181905550505050565b6114aa61159a565b73ffffffffffffffffffffffffffffffffffffffff166114c8610d6d565b73ffffffffffffffffffffffffffffffffffffffff161461151e576040517f08c379a000000000000000000000000000000000000000000000000000000000815260040161151590611f04565b60405180910390fd5b600073ffffffffffffffffffffffffffffffffffffffff168173ffffffffffffffffffffffffffffffffffffffff16141561158e576040517f08c379a0000000000000000000000000000000000000000000000000000000008152600401611585906120b0565b60405180910390fd5b611597816115a2565b50565b600033905090565b60008060009054906101000a900473ffffffffffffffffffffffffffffffffffffffff169050816000806101000a81548173ffffffffffffffffffffffffffffffffffffffff021916908373ffffffffffffffffffffffffffffffffffffffff1602179055508173ffffffffffffffffffffffffffffffffffffffff168173ffffffffffffffffffffffffffffffffffffffff167f8be0079c531659141344cd1fd0a4f28419497f9722a3daafe3b4186f6b6457e060405160405180910390a35050565b82805461167290611fb6565b90600052602060002090601f01602090048101928261169457600085556116db565b82601f106116ad57805160ff19168380011785556116db565b828001600101855582156116db579182015b828111156116da5782518255916020019190600101906116bf565b5b5090506116e891906116ec565b5090565b5b808211156117055760008160009055506001016116ed565b5090565b6000604051905090565b600080fd5b600080fd5b600080fd5b600080fd5b6000601f19601f8301169050919050565b7f4e487b7100000000000000000000000000000000000000000000000000000000600052604160045260246000fd5b61177082611727565b810181811067ffffffffffffffff8211171561178f5761178e611738565b5b80604052505050565b60006117a2611709565b90506117ae8282611767565b919050565b600067ffffffffffffffff8211156117ce576117cd611738565b5b6117d782611727565b9050602081019050919050565b82818337600083830152505050565b6000611806611801846117b3565b611798565b90508281526020810184848401111561182257611821611722565b5b61182d8482856117e4565b509392505050565b600082601f83011261184a5761184961171d565b5b813561185a8482602086016117f3565b91505092915050565b6000819050919050565b61187681611863565b811461188157600080fd5b50565b6000813590506118938161186d565b92915050565b6000806000606084860312156118b2576118b1611713565b5b600084013567ffffffffffffffff8111156118d0576118cf611718565b5b6118dc86828701611835565b935050602084013567ffffffffffffffff8111156118fd576118fc611718565b5b61190986828701611835565b925050604061191a86828701611884565b9150509250925092565b60006020828403121561193a57611939611713565b5b600061194884828501611884565b91505092915050565b600073ffffffffffffffffffffffffffffffffffffffff82169050919050565b600061197c82611951565b9050919050565b61198c81611971565b811461199757600080fd5b50565b6000813590506119a981611983565b92915050565b6000602082840312156119c5576119c4611713565b5b60006119d38482850161199a565b91505092915050565b600080604083850312156119f3576119f2611713565b5b6000611a0185828601611884565b9250506020611a1285828601611884565b9150509250929050565b611a2581611863565b82525050565b6000606082019050611a406000830186611a1c565b611a4d6020830185611a1c565b611a5a6040830184611a1c565b949350505050565b611a6b81611971565b82525050565b600081519050919050565b600082825260208201905092915050565b60005b83811015611aab578082015181840152602081019050611a90565b83811115611aba576000848401525b50505050565b6000611acb82611a71565b611ad58185611a7c565b9350611ae5818560208601611a8d565b611aee81611727565b840191505092915050565b7f4e487b7100000000000000000000000000000000000000000000000000000000600052602160045260246000fd5b60078110611b3957611b38611af9565b5b50565b6000819050611b4a82611b28565b919050565b6000611b5a82611b3c565b9050919050565b611b6a81611b4f565b82525050565b600061012082019050611b86600083018c611a62565b611b93602083018b611a62565b8181036040830152611ba5818a611ac0565b90508181036060830152611bb98189611ac0565b90508181036080830152611bcd8188611ac0565b9050611bdc60a0830187611b61565b611be960c0830186611a1c565b611bf660e0830185611a1c565b611c04610100830184611a1c565b9a9950505050505050505050565b6000602082019050611c276000830184611a62565b92915050565b60008115159050919050565b611c4281611c2d565b8114611c4d57600080fd5b50565b600081359050611c5f81611c39565b92915050565b60008060008060808587031215611c7f57611c7e611713565b5b6000611c8d87828801611884565b9450506020611c9e87828801611884565b9350506040611caf87828801611884565b9250506060611cc087828801611c50565b91505092959194509250565b611cd581611c2d565b82525050565b600060a082019050611cf06000830188611a1c565b611cfd6020830187611a1c565b611d0a6040830186611a1c565b611d176060830185611ccc565b611d246080830184611ccc565b9695505050505050565b60008060408385031215611d4557611d44611713565b5b6000611d5385828601611884565b925050602083013567ffffffffffffffff811115611d7457611d73611718565b5b611d8085828601611835565b9150509250929050565b7f4e487b7100000000000000000000000000000000000000000000000000000000600052603260045260246000fd5b6000602082019050611dce6000830184611a1c565b92915050565b600081519050611de381611983565b92915050565b600060208284031215611dff57611dfe611713565b5b6000611e0d84828501611dd4565b91505092915050565b6000604082019050611e2b6000830185611a62565b611e386020830184611a1c565b9392505050565b600081519050611e4e81611c39565b92915050565b600060208284031215611e6a57611e69611713565b5b6000611e7884828501611e3f565b91505092915050565b6000606082019050611e966000830186611a62565b611ea36020830185611a62565b611eb06040830184611a1c565b949350505050565b7f4f776e61626c653a2063616c6c6572206973206e6f7420746865206f776e6572600082015250565b6000611eee602083611a7c565b9150611ef982611eb8565b602082019050919050565b60006020820190508181036000830152611f1d81611ee1565b9050919050565b7f4e487b7100000000000000000000000000000000000000000000000000000000600052601160045260246000fd5b6000611f5e82611863565b9150611f6983611863565b925082821015611f7c57611f7b611f24565b5b828203905092915050565b7f4e487b7100000000000000000000000000000000000000000000000000000000600052602260045260246000fd5b60006002820490506001821680611fce57607f821691505b60208210811415611fe257611fe1611f87565b5b50919050565b6000611ff382611863565b9150611ffe83611863565b9250827fffffffffffffffffffffffffffffffffffffffffffffffffffffffffffffffff0382111561203357612032611f24565b5b828201905092915050565b7f4f776e61626c653a206e6577206f776e657220697320746865207a65726f206160008201527f6464726573730000000000000000000000000000000000000000000000000000602082015250565b600061209a602683611a7c565b91506120a58261203e565b604082019050919050565b600060208201905081810360008301526120c98161208d565b905091905056fea2646970667358221220e460696e57781833b1623e75f09e7ab8dea3985ad4137683637f85a90789d51264736f6c634300080a0033",
  "immutableReferences": {},
  "source": "pragma solidity >=0.4.22 <0.9.0;\n\nimport \"@openzeppelin/contracts/access/Ownable.sol\";\nimport \"./HumanStaker.sol\";\n\n//    .\ncontract HumanConverter is HumanStaker {\n\n  enum STATUS { WAIT, CONVERT, SUCCESS, CANCEL, ERROR, COMPLAIN, END }\n\n  struct Request {\n    address client;\n    address converter;\n    string sourceUri;\n    string humanNumber;\n    string resultUri;\n    STATUS status;\n    uint tokenId;\n    uint result;\n    uint date;\n  }\n\n  struct Converter {\n    uint amount;\n    uint convertCount;\n    uint complainCount;\n  }\n\n  mapping (address => Converter) public converter;\n  Request[] public requests;\n\n  constructor () {}\n\n  modifier onlyConverter() {\n    require(converter[msg.sender].amount >= 0); //   \n    _;\n  }\n\n  modifier onlyConverterOf(uint _requestId) {\n    require(requests[_requestId].converter == msg.sender);\n    _;\n  }\n\n  function request(string memory _sourceUri, string memory _humanNumber, uint _tokenId) public {\n    // stakes[_tokenId];\n    // ,   \n    requests.push(Request(msg.sender, address(0), _sourceUri, \"\", _humanNumber, STATUS.WAIT, _tokenId, 0, 0));\n  }\n\n  function start(uint _requestId) public onlyConverter {\n    Request storage _request = requests[_requestId];\n    require(_request.status == STATUS.WAIT);\n    \n    _request.status = STATUS.CONVERT;\n    _request.converter = msg.sender;\n  }\n\n  function success(uint _requestId, string memory _resultUri) public {\n    Request storage _request = requests[_requestId];\n    require(_request.converter == msg.sender);\n\n    _request.status = STATUS.SUCCESS;\n    _request.resultUri = _resultUri;\n    _request.date = block.timestamp;\n  }\n\n  function confirm(uint _requestId) public {\n    Request storage _request = requests[_requestId];\n    converter[_request.converter].convertCount += 1;\n    _request.status = STATUS.END;\n  }\n\n  function complain(uint _requsetId) public {\n    Request storage _request = requests[_requsetId];\n    //    .   .\n  }\n}",
  "sourcePath": "/Users/weather/workspace/blockchain/vhuman/contracts/HumanConverter.sol",
  "compiler": {
    "name": "solc",
    "version": "0.8.10+commit.fc410830.Emscripten.clang"
  },
  "schemaVersion": "3.4.3",
  "updatedAt": "2021-12-06T04:33:27.363Z",
  "networkType": "ethereum",
  "devdoc": {
    "kind": "dev",
    "methods": {
      "owner()": {
        "details": "Returns the address of the current owner."
      },
      "renounceOwnership()": {
        "details": "Leaves the contract without owner. It will not be possible to call `onlyOwner` functions anymore. Can only be called by the current owner. NOTE: Renouncing ownership will leave the contract without an owner, thereby removing any functionality that is only available to the owner."
      },
      "transferOwnership(address)": {
        "details": "Transfers ownership of the contract to a new account (`newOwner`). Can only be called by the current owner."
      }
    },
    "version": 1
  },
  "userdoc": {
    "kind": "user",
    "methods": {},
    "version": 1
  }
}