{
  "contractName": "HumanConverter",
  "abi": [
    {
      "inputs": [],
      "stateMutability": "nonpayable",
      "type": "constructor"
    },
    {
      "anonymous": false,
      "inputs": [
        {
          "indexed": false,
          "internalType": "address",
          "name": "converter",
          "type": "address"
        }
      ],
      "name": "AddConverter",
      "type": "event"
    },
    {
      "anonymous": false,
      "inputs": [
        {
          "indexed": false,
          "internalType": "uint256",
          "name": "requestId",
          "type": "uint256"
        },
        {
          "components": [
            {
              "internalType": "address",
              "name": "client",
              "type": "address"
            },
            {
              "internalType": "address",
              "name": "converter",
              "type": "address"
            },
            {
              "internalType": "string",
              "name": "sourceUri",
              "type": "string"
            },
            {
              "internalType": "string",
              "name": "humanNumber",
              "type": "string"
            },
            {
              "internalType": "string",
              "name": "resultUri",
              "type": "string"
            },
            {
              "internalType": "enum HumanConverter.STATUS",
              "name": "status",
              "type": "uint8"
            },
            {
              "internalType": "uint256",
              "name": "tokenId",
              "type": "uint256"
            },
            {
              "internalType": "uint256",
              "name": "date",
              "type": "uint256"
            },
            {
              "internalType": "bool",
              "name": "allowed",
              "type": "bool"
            }
          ],
          "indexed": false,
          "internalType": "struct HumanConverter.Request",
          "name": "request",
          "type": "tuple"
        }
      ],
      "name": "AddRequest",
      "type": "event"
    },
    {
      "anonymous": false,
      "inputs": [
        {
          "indexed": false,
          "internalType": "uint256",
          "name": "requestId",
          "type": "uint256"
        },
        {
          "components": [
            {
              "internalType": "address",
              "name": "client",
              "type": "address"
            },
            {
              "internalType": "address",
              "name": "converter",
              "type": "address"
            },
            {
              "internalType": "string",
              "name": "sourceUri",
              "type": "string"
            },
            {
              "internalType": "string",
              "name": "humanNumber",
              "type": "string"
            },
            {
              "internalType": "string",
              "name": "resultUri",
              "type": "string"
            },
            {
              "internalType": "enum HumanConverter.STATUS",
              "name": "status",
              "type": "uint8"
            },
            {
              "internalType": "uint256",
              "name": "tokenId",
              "type": "uint256"
            },
            {
              "internalType": "uint256",
              "name": "date",
              "type": "uint256"
            },
            {
              "internalType": "bool",
              "name": "allowed",
              "type": "bool"
            }
          ],
          "indexed": false,
          "internalType": "struct HumanConverter.Request",
          "name": "request",
          "type": "tuple"
        }
      ],
      "name": "ConvertAllow",
      "type": "event"
    },
    {
      "anonymous": false,
      "inputs": [
        {
          "indexed": false,
          "internalType": "uint256",
          "name": "requestId",
          "type": "uint256"
        },
        {
          "components": [
            {
              "internalType": "address",
              "name": "client",
              "type": "address"
            },
            {
              "internalType": "address",
              "name": "converter",
              "type": "address"
            },
            {
              "internalType": "string",
              "name": "sourceUri",
              "type": "string"
            },
            {
              "internalType": "string",
              "name": "humanNumber",
              "type": "string"
            },
            {
              "internalType": "string",
              "name": "resultUri",
              "type": "string"
            },
            {
              "internalType": "enum HumanConverter.STATUS",
              "name": "status",
              "type": "uint8"
            },
            {
              "internalType": "uint256",
              "name": "tokenId",
              "type": "uint256"
            },
            {
              "internalType": "uint256",
              "name": "date",
              "type": "uint256"
            },
            {
              "internalType": "bool",
              "name": "allowed",
              "type": "bool"
            }
          ],
          "indexed": false,
          "internalType": "struct HumanConverter.Request",
          "name": "request",
          "type": "tuple"
        }
      ],
      "name": "ConvertComplain",
      "type": "event"
    },
    {
      "anonymous": false,
      "inputs": [
        {
          "indexed": false,
          "internalType": "uint256",
          "name": "requestId",
          "type": "uint256"
        },
        {
          "components": [
            {
              "internalType": "address",
              "name": "client",
              "type": "address"
            },
            {
              "internalType": "address",
              "name": "converter",
              "type": "address"
            },
            {
              "internalType": "string",
              "name": "sourceUri",
              "type": "string"
            },
            {
              "internalType": "string",
              "name": "humanNumber",
              "type": "string"
            },
            {
              "internalType": "string",
              "name": "resultUri",
              "type": "string"
            },
            {
              "internalType": "enum HumanConverter.STATUS",
              "name": "status",
              "type": "uint8"
            },
            {
              "internalType": "uint256",
              "name": "tokenId",
              "type": "uint256"
            },
            {
              "internalType": "uint256",
              "name": "date",
              "type": "uint256"
            },
            {
              "internalType": "bool",
              "name": "allowed",
              "type": "bool"
            }
          ],
          "indexed": false,
          "internalType": "struct HumanConverter.Request",
          "name": "request",
          "type": "tuple"
        }
      ],
      "name": "ConvertConfirm",
      "type": "event"
    },
    {
      "anonymous": false,
      "inputs": [
        {
          "indexed": false,
          "internalType": "uint256",
          "name": "requestId",
          "type": "uint256"
        },
        {
          "components": [
            {
              "internalType": "address",
              "name": "client",
              "type": "address"
            },
            {
              "internalType": "address",
              "name": "converter",
              "type": "address"
            },
            {
              "internalType": "string",
              "name": "sourceUri",
              "type": "string"
            },
            {
              "internalType": "string",
              "name": "humanNumber",
              "type": "string"
            },
            {
              "internalType": "string",
              "name": "resultUri",
              "type": "string"
            },
            {
              "internalType": "enum HumanConverter.STATUS",
              "name": "status",
              "type": "uint8"
            },
            {
              "internalType": "uint256",
              "name": "tokenId",
              "type": "uint256"
            },
            {
              "internalType": "uint256",
              "name": "date",
              "type": "uint256"
            },
            {
              "internalType": "bool",
              "name": "allowed",
              "type": "bool"
            }
          ],
          "indexed": false,
          "internalType": "struct HumanConverter.Request",
          "name": "request",
          "type": "tuple"
        }
      ],
      "name": "ConvertStart",
      "type": "event"
    },
    {
      "anonymous": false,
      "inputs": [
        {
          "indexed": false,
          "internalType": "uint256",
          "name": "requestId",
          "type": "uint256"
        },
        {
          "components": [
            {
              "internalType": "address",
              "name": "client",
              "type": "address"
            },
            {
              "internalType": "address",
              "name": "converter",
              "type": "address"
            },
            {
              "internalType": "string",
              "name": "sourceUri",
              "type": "string"
            },
            {
              "internalType": "string",
              "name": "humanNumber",
              "type": "string"
            },
            {
              "internalType": "string",
              "name": "resultUri",
              "type": "string"
            },
            {
              "internalType": "enum HumanConverter.STATUS",
              "name": "status",
              "type": "uint8"
            },
            {
              "internalType": "uint256",
              "name": "tokenId",
              "type": "uint256"
            },
            {
              "internalType": "uint256",
              "name": "date",
              "type": "uint256"
            },
            {
              "internalType": "bool",
              "name": "allowed",
              "type": "bool"
            }
          ],
          "indexed": false,
          "internalType": "struct HumanConverter.Request",
          "name": "request",
          "type": "tuple"
        }
      ],
      "name": "ConvertSuccess",
      "type": "event"
    },
    {
      "anonymous": false,
      "inputs": [
        {
          "indexed": true,
          "internalType": "address",
          "name": "previousOwner",
          "type": "address"
        },
        {
          "indexed": true,
          "internalType": "address",
          "name": "newOwner",
          "type": "address"
        }
      ],
      "name": "OwnershipTransferred",
      "type": "event"
    },
    {
      "anonymous": false,
      "inputs": [
        {
          "indexed": false,
          "internalType": "address",
          "name": "converter",
          "type": "address"
        }
      ],
      "name": "RemoveConverter",
      "type": "event"
    },
    {
      "anonymous": false,
      "inputs": [
        {
          "indexed": false,
          "internalType": "uint256",
          "name": "balance",
          "type": "uint256"
        }
      ],
      "name": "SetConverterFee",
      "type": "event"
    },
    {
      "anonymous": false,
      "inputs": [
        {
          "indexed": false,
          "internalType": "uint256",
          "name": "tokenId",
          "type": "uint256"
        },
        {
          "indexed": false,
          "internalType": "uint256",
          "name": "fee",
          "type": "uint256"
        },
        {
          "indexed": false,
          "internalType": "bool",
          "name": "manual",
          "type": "bool"
        }
      ],
      "name": "Stake",
      "type": "event"
    },
    {
      "anonymous": false,
      "inputs": [
        {
          "indexed": false,
          "internalType": "uint256",
          "name": "tokenId",
          "type": "uint256"
        }
      ],
      "name": "Unstake",
      "type": "event"
    },
    {
      "anonymous": false,
      "inputs": [
        {
          "indexed": false,
          "internalType": "uint256",
          "name": "tokenId",
          "type": "uint256"
        },
        {
          "indexed": false,
          "internalType": "address",
          "name": "user",
          "type": "address"
        },
        {
          "indexed": false,
          "internalType": "uint256",
          "name": "balance",
          "type": "uint256"
        }
      ],
      "name": "Use",
      "type": "event"
    },
    {
      "anonymous": false,
      "inputs": [
        {
          "indexed": false,
          "internalType": "uint256",
          "name": "tokenId",
          "type": "uint256"
        },
        {
          "indexed": false,
          "internalType": "uint256",
          "name": "balance",
          "type": "uint256"
        }
      ],
      "name": "Withdraw",
      "type": "event"
    },
    {
      "anonymous": false,
      "inputs": [
        {
          "indexed": false,
          "internalType": "address",
          "name": "converter",
          "type": "address"
        },
        {
          "indexed": false,
          "internalType": "uint256",
          "name": "balance",
          "type": "uint256"
        }
      ],
      "name": "WithdrawConverter",
      "type": "event"
    },
    {
      "inputs": [
        {
          "internalType": "address",
          "name": "",
          "type": "address"
        }
      ],
      "name": "converter",
      "outputs": [
        {
          "internalType": "uint256",
          "name": "total",
          "type": "uint256"
        },
        {
          "internalType": "uint256",
          "name": "balance",
          "type": "uint256"
        },
        {
          "internalType": "uint256",
          "name": "convertCount",
          "type": "uint256"
        },
        {
          "internalType": "uint256",
          "name": "complainCount",
          "type": "uint256"
        },
        {
          "internalType": "bool",
          "name": "active",
          "type": "bool"
        }
      ],
      "stateMutability": "view",
      "type": "function",
      "constant": true
    },
    {
      "inputs": [],
      "name": "owner",
      "outputs": [
        {
          "internalType": "address",
          "name": "",
          "type": "address"
        }
      ],
      "stateMutability": "view",
      "type": "function",
      "constant": true
    },
    {
      "inputs": [],
      "name": "renounceOwnership",
      "outputs": [],
      "stateMutability": "nonpayable",
      "type": "function"
    },
    {
      "inputs": [
        {
          "internalType": "uint256",
          "name": "",
          "type": "uint256"
        }
      ],
      "name": "requests",
      "outputs": [
        {
          "internalType": "address",
          "name": "client",
          "type": "address"
        },
        {
          "internalType": "address",
          "name": "converter",
          "type": "address"
        },
        {
          "internalType": "string",
          "name": "sourceUri",
          "type": "string"
        },
        {
          "internalType": "string",
          "name": "humanNumber",
          "type": "string"
        },
        {
          "internalType": "string",
          "name": "resultUri",
          "type": "string"
        },
        {
          "internalType": "enum HumanConverter.STATUS",
          "name": "status",
          "type": "uint8"
        },
        {
          "internalType": "uint256",
          "name": "tokenId",
          "type": "uint256"
        },
        {
          "internalType": "uint256",
          "name": "date",
          "type": "uint256"
        },
        {
          "internalType": "bool",
          "name": "allowed",
          "type": "bool"
        }
      ],
      "stateMutability": "view",
      "type": "function",
      "constant": true
    },
    {
      "inputs": [
        {
          "internalType": "uint256",
          "name": "",
          "type": "uint256"
        },
        {
          "internalType": "uint256",
          "name": "",
          "type": "uint256"
        }
      ],
      "name": "requestsOfHuman",
      "outputs": [
        {
          "internalType": "uint256",
          "name": "",
          "type": "uint256"
        }
      ],
      "stateMutability": "view",
      "type": "function",
      "constant": true
    },
    {
      "inputs": [
        {
          "internalType": "address",
          "name": "_address",
          "type": "address"
        }
      ],
      "name": "setHumanERC20",
      "outputs": [],
      "stateMutability": "nonpayable",
      "type": "function"
    },
    {
      "inputs": [
        {
          "internalType": "address",
          "name": "_address",
          "type": "address"
        }
      ],
      "name": "setHumanERC721",
      "outputs": [],
      "stateMutability": "nonpayable",
      "type": "function"
    },
    {
      "inputs": [
        {
          "internalType": "address",
          "name": "_address",
          "type": "address"
        }
      ],
      "name": "setSHumanERC721",
      "outputs": [],
      "stateMutability": "nonpayable",
      "type": "function"
    },
    {
      "inputs": [
        {
          "internalType": "uint256",
          "name": "_tokenId",
          "type": "uint256"
        },
        {
          "internalType": "uint256",
          "name": "fee",
          "type": "uint256"
        },
        {
          "internalType": "bool",
          "name": "manual",
          "type": "bool"
        }
      ],
      "name": "stake",
      "outputs": [],
      "stateMutability": "nonpayable",
      "type": "function"
    },
    {
      "inputs": [
        {
          "internalType": "uint256",
          "name": "",
          "type": "uint256"
        }
      ],
      "name": "stakes",
      "outputs": [
        {
          "internalType": "uint256",
          "name": "fee",
          "type": "uint256"
        },
        {
          "internalType": "uint256",
          "name": "balance",
          "type": "uint256"
        },
        {
          "internalType": "bool",
          "name": "isManual",
          "type": "bool"
        },
        {
          "internalType": "bool",
          "name": "isExist",
          "type": "bool"
        }
      ],
      "stateMutability": "view",
      "type": "function",
      "constant": true
    },
    {
      "inputs": [
        {
          "internalType": "address",
          "name": "newOwner",
          "type": "address"
        }
      ],
      "name": "transferOwnership",
      "outputs": [],
      "stateMutability": "nonpayable",
      "type": "function"
    },
    {
      "inputs": [
        {
          "internalType": "uint256",
          "name": "_tokenId",
          "type": "uint256"
        }
      ],
      "name": "unstake",
      "outputs": [],
      "stateMutability": "nonpayable",
      "type": "function"
    },
    {
      "inputs": [
        {
          "internalType": "uint256",
          "name": "_tokenId",
          "type": "uint256"
        }
      ],
      "name": "use",
      "outputs": [],
      "stateMutability": "nonpayable",
      "type": "function"
    },
    {
      "inputs": [
        {
          "internalType": "uint256",
          "name": "_tokenId",
          "type": "uint256"
        },
        {
          "internalType": "uint256",
          "name": "_balance",
          "type": "uint256"
        }
      ],
      "name": "withdraw",
      "outputs": [],
      "stateMutability": "nonpayable",
      "type": "function"
    },
    {
      "inputs": [
        {
          "internalType": "address",
          "name": "operator",
          "type": "address"
        },
        {
          "internalType": "address",
          "name": "from",
          "type": "address"
        },
        {
          "internalType": "uint256",
          "name": "tokenId",
          "type": "uint256"
        },
        {
          "internalType": "bytes",
          "name": "data",
          "type": "bytes"
        }
      ],
      "name": "onERC721Received",
      "outputs": [
        {
          "internalType": "bytes4",
          "name": "",
          "type": "bytes4"
        }
      ],
      "stateMutability": "nonpayable",
      "type": "function"
    },
    {
      "inputs": [],
      "name": "addConverter",
      "outputs": [],
      "stateMutability": "nonpayable",
      "type": "function"
    },
    {
      "inputs": [
        {
          "internalType": "address",
          "name": "_address",
          "type": "address"
        }
      ],
      "name": "removeConverter",
      "outputs": [],
      "stateMutability": "nonpayable",
      "type": "function"
    },
    {
      "inputs": [
        {
          "internalType": "address",
          "name": "_address",
          "type": "address"
        }
      ],
      "name": "setHumanERC20Staker",
      "outputs": [],
      "stateMutability": "nonpayable",
      "type": "function"
    },
    {
      "inputs": [
        {
          "internalType": "uint256",
          "name": "_balance",
          "type": "uint256"
        }
      ],
      "name": "setConverterFee",
      "outputs": [],
      "stateMutability": "nonpayable",
      "type": "function"
    },
    {
      "inputs": [
        {
          "internalType": "uint256",
          "name": "_balance",
          "type": "uint256"
        }
      ],
      "name": "withdrawConverter",
      "outputs": [],
      "stateMutability": "nonpayable",
      "type": "function"
    },
    {
      "inputs": [
        {
          "internalType": "uint256",
          "name": "_tokenId",
          "type": "uint256"
        },
        {
          "internalType": "string",
          "name": "_sourceUri",
          "type": "string"
        },
        {
          "internalType": "address",
          "name": "_converter",
          "type": "address"
        },
        {
          "internalType": "string",
          "name": "_humanNumber",
          "type": "string"
        }
      ],
      "name": "request",
      "outputs": [],
      "stateMutability": "nonpayable",
      "type": "function"
    },
    {
      "inputs": [
        {
          "internalType": "uint256",
          "name": "_requestId",
          "type": "uint256"
        }
      ],
      "name": "allow",
      "outputs": [],
      "stateMutability": "nonpayable",
      "type": "function"
    },
    {
      "inputs": [
        {
          "internalType": "uint256",
          "name": "_requestId",
          "type": "uint256"
        }
      ],
      "name": "start",
      "outputs": [],
      "stateMutability": "nonpayable",
      "type": "function"
    },
    {
      "inputs": [
        {
          "internalType": "uint256",
          "name": "_requestId",
          "type": "uint256"
        },
        {
          "internalType": "string",
          "name": "_resultUri",
          "type": "string"
        }
      ],
      "name": "success",
      "outputs": [],
      "stateMutability": "nonpayable",
      "type": "function"
    },
    {
      "inputs": [
        {
          "internalType": "uint256",
          "name": "_requestId",
          "type": "uint256"
        }
      ],
      "name": "confirm",
      "outputs": [],
      "stateMutability": "nonpayable",
      "type": "function"
    },
    {
      "inputs": [
        {
          "internalType": "uint256",
          "name": "_requestId",
          "type": "uint256"
        }
      ],
      "name": "complain",
      "outputs": [],
      "stateMutability": "nonpayable",
      "type": "function"
    }
  ],
  "bytecode": "0x60806040523480156200001157600080fd5b5062000032620000266200003860201b60201c565b6200004060201b60201c565b62000104565b600033905090565b60008060009054906101000a900473ffffffffffffffffffffffffffffffffffffffff169050816000806101000a81548173ffffffffffffffffffffffffffffffffffffffff021916908373ffffffffffffffffffffffffffffffffffffffff1602179055508173ffffffffffffffffffffffffffffffffffffffff168173ffffffffffffffffffffffffffffffffffffffff167f8be0079c531659141344cd1fd0a4f28419497f9722a3daafe3b4186f6b6457e060405160405180910390a35050565b61391380620001146000396000f3fe608060405234801561001057600080fd5b506004361061018e5760003560e01c80638fb4529c116100de578063ab5b445611610097578063e3be1b0311610071578063e3be1b0314610438578063ec5a90e714610454578063f12f77fc14610484578063f2fde38b146104a05761018e565b8063ab5b4456146103cd578063ba0179b5146103e9578063d5a44f86146104055761018e565b80638fb4529c14610325578063905bf0311461034157806395805dad1461035d57806395e2360e146103795780639e1188ff146103955780639e76a007146103b15761018e565b8063441a3e701161014b5780636e0b4f90116101255780636e0b4f9014610291578063715018a6146102c557806381d12c58146102cf5780638da5cb5b146103075761018e565b8063441a3e701461023d57806345dbf1b514610259578063561b2463146102755761018e565b806302a8b3bc14610193578063150b7a021461019d57806321b81063146101cd578063284f0923146101e95780632e17de781461020557806340a6785014610221575b600080fd5b61019b6104bc565b005b6101b760048036038101906101b2919061294e565b6106c2565b6040516101c49190612a11565b60405180910390f35b6101e760048036038101906101e29190612a2c565b6106d7565b005b61020360048036038101906101fe9190612a2c565b6107d5565b005b61021f600480360381019061021a9190612a2c565b61093f565b005b61023b60048036038101906102369190612a59565b610c77565b005b61025760048036038101906102529190612a86565b610d37565b005b610273600480360381019061026e9190612a2c565b610f2e565b005b61028f600480360381019061028a9190612afe565b610feb565b005b6102ab60048036038101906102a69190612a59565b6112b1565b6040516102bc959493929190612b6f565b60405180910390f35b6102cd6112f4565b005b6102e960048036038101906102e49190612a2c565b61137c565b6040516102fe99989796959493929190612ce1565b60405180910390f35b61030f6115cc565b60405161031c9190612d83565b60405180910390f35b61033f600480360381019061033a9190612a59565b6115f5565b005b61035b60048036038101906103569190612a2c565b6116b5565b005b61037760048036038101906103729190612a2c565b61183b565b005b610393600480360381019061038e9190612ece565b611a89565b005b6103af60048036038101906103aa9190612a59565b611f2b565b005b6103cb60048036038101906103c69190612a59565b611feb565b005b6103e760048036038101906103e29190612a2c565b6120cb565b005b61040360048036038101906103fe9190612a2c565b6121eb565b005b61041f600480360381019061041a9190612a2c565b612390565b60405161042f9493929190612f6d565b60405180910390f35b610452600480360381019061044d9190612fb2565b6123da565b005b61046e60048036038101906104699190612a86565b6124e9565b60405161047b919061300e565b60405180910390f35b61049e60048036038101906104999190612a59565b61251a565b005b6104ba60048036038101906104b59190612a59565b6125da565b005b6001600760003373ffffffffffffffffffffffffffffffffffffffff1673ffffffffffffffffffffffffffffffffffffffff1681526020019081526020016000206000015410610541576040517f08c379a000000000000000000000000000000000000000000000000000000000815260040161053890613075565b60405180910390fd5b600460009054906101000a900473ffffffffffffffffffffffffffffffffffffffff1673ffffffffffffffffffffffffffffffffffffffff166323b872dd33600660009054906101000a900473ffffffffffffffffffffffffffffffffffffffff166005546040518463ffffffff1660e01b81526004016105c493929190613095565b6020604051808303816000875af11580156105e3573d6000803e3d6000fd5b505050506040513d601f19601f8201168201806040525081019061060791906130e1565b506040518060a001604052806000815260200160008152602001600081526020016000815260200160011515815250600760003373ffffffffffffffffffffffffffffffffffffffff1673ffffffffffffffffffffffffffffffffffffffff1681526020019081526020016000206000820151816000015560208201518160010155604082015181600201556060820151816003015560808201518160040160006101000a81548160ff021916908315150217905550905050565b600063150b7a0260e01b905095945050505050565b6000600882815481106106ed576106ec61310e565b5b90600052602060002090600902019050600015158160080160009054906101000a900460ff1615151461071f57600080fd5b3373ffffffffffffffffffffffffffffffffffffffff168160000160009054906101000a900473ffffffffffffffffffffffffffffffffffffffff1673ffffffffffffffffffffffffffffffffffffffff161461077b57600080fd5b60018160080160006101000a81548160ff0219169083151502179055507f0edfbe1eae591db236fee71ac5399007287d695564b5fb1d64a0b5050a96ee6b82826040516107c992919061344c565b60405180910390a15050565b6000600882815481106107eb576107ea61310e565b5b906000526020600020906009020190503373ffffffffffffffffffffffffffffffffffffffff168160000160009054906101000a900473ffffffffffffffffffffffffffffffffffffffff1673ffffffffffffffffffffffffffffffffffffffff161461085757600080fd5b6001600760008360010160009054906101000a900473ffffffffffffffffffffffffffffffffffffffff1673ffffffffffffffffffffffffffffffffffffffff1673ffffffffffffffffffffffffffffffffffffffff16815260200190815260200160002060030160008282546108ce91906134ab565b9250508190555060058160050160006101000a81548160ff021916908360068111156108fd576108fc612c6a565b5b02179055507f263e0a7724d4f12ff85f69b75291bf438a7d67ea6199ad69523d23c54c1e773d828260405161093392919061344c565b60405180910390a15050565b80600360009054906101000a900473ffffffffffffffffffffffffffffffffffffffff1673ffffffffffffffffffffffffffffffffffffffff16636352211e826040518263ffffffff1660e01b815260040161099b919061300e565b602060405180830381865afa1580156109b8573d6000803e3d6000fd5b505050506040513d601f19601f820116820180604052508101906109dc9190613516565b73ffffffffffffffffffffffffffffffffffffffff163373ffffffffffffffffffffffffffffffffffffffff1614610a1357600080fd5b6000600160008481526020019081526020016000209050600460009054906101000a900473ffffffffffffffffffffffffffffffffffffffff1673ffffffffffffffffffffffffffffffffffffffff1663a9059cbb3383600101546040518363ffffffff1660e01b8152600401610a8b929190613543565b6020604051808303816000875af1158015610aaa573d6000803e3d6000fd5b505050506040513d601f19601f82011682018060405250810190610ace91906130e1565b50600260009054906101000a900473ffffffffffffffffffffffffffffffffffffffff1673ffffffffffffffffffffffffffffffffffffffff166342842e0e3033866040518463ffffffff1660e01b8152600401610b2e93929190613095565b600060405180830381600087803b158015610b4857600080fd5b505af1158015610b5c573d6000803e3d6000fd5b50505050600360009054906101000a900473ffffffffffffffffffffffffffffffffffffffff1673ffffffffffffffffffffffffffffffffffffffff166342966c68846040518263ffffffff1660e01b8152600401610bbb919061300e565b600060405180830381600087803b158015610bd557600080fd5b505af1158015610be9573d6000803e3d6000fd5b505050506001600084815260200190815260200160002060008082016000905560018201600090556002820160006101000a81549060ff02191690556002820160016101000a81549060ff021916905550507ff1f1db1ecefb0a90b3cd6a1903d29374b4a935df69fd25c7fc6ed397d3683c2683604051610c6a919061300e565b60405180910390a1505050565b610c7f6126d2565b73ffffffffffffffffffffffffffffffffffffffff16610c9d6115cc565b73ffffffffffffffffffffffffffffffffffffffff1614610cf3576040517f08c379a0000000000000000000000000000000000000000000000000000000008152600401610cea906135b8565b60405180910390fd5b80600260006101000a81548173ffffffffffffffffffffffffffffffffffffffff021916908373ffffffffffffffffffffffffffffffffffffffff16021790555050565b81600360009054906101000a900473ffffffffffffffffffffffffffffffffffffffff1673ffffffffffffffffffffffffffffffffffffffff16636352211e826040518263ffffffff1660e01b8152600401610d93919061300e565b602060405180830381865afa158015610db0573d6000803e3d6000fd5b505050506040513d601f19601f82011682018060405250810190610dd49190613516565b73ffffffffffffffffffffffffffffffffffffffff163373ffffffffffffffffffffffffffffffffffffffff1614610e0b57600080fd5b60006001600085815260200190815260200160002090508281600101541015610e3357600080fd5b82816001016000828254610e4791906135d8565b92505081905550600460009054906101000a900473ffffffffffffffffffffffffffffffffffffffff1673ffffffffffffffffffffffffffffffffffffffff1663a9059cbb33856040518363ffffffff1660e01b8152600401610eab929190613543565b6020604051808303816000875af1158015610eca573d6000803e3d6000fd5b505050506040513d601f19601f82011682018060405250810190610eee91906130e1565b507f56ca301a9219608c91e7bcee90e083c19671d2cdcc96752c7af291cee5f9c8c88484604051610f2092919061360c565b60405180910390a150505050565b610f366126d2565b73ffffffffffffffffffffffffffffffffffffffff16610f546115cc565b73ffffffffffffffffffffffffffffffffffffffff1614610faa576040517f08c379a0000000000000000000000000000000000000000000000000000000008152600401610fa1906135b8565b60405180910390fd5b806005819055507fbf7af57d2263d871d51856d7f31c6dcf3fe9125900a235a6dae85121b803a48d81604051610fe0919061300e565b60405180910390a150565b82600260009054906101000a900473ffffffffffffffffffffffffffffffffffffffff1673ffffffffffffffffffffffffffffffffffffffff16636352211e826040518263ffffffff1660e01b8152600401611047919061300e565b602060405180830381865afa158015611064573d6000803e3d6000fd5b505050506040513d601f19601f820116820180604052508101906110889190613516565b73ffffffffffffffffffffffffffffffffffffffff163373ffffffffffffffffffffffffffffffffffffffff16146110bf57600080fd5b600260009054906101000a900473ffffffffffffffffffffffffffffffffffffffff1673ffffffffffffffffffffffffffffffffffffffff166342842e0e3330876040518463ffffffff1660e01b815260040161111e93929190613095565b600060405180830381600087803b15801561113857600080fd5b505af115801561114c573d6000803e3d6000fd5b5050505060405180608001604052808481526020016000815260200183151581526020016001151581525060016000868152602001908152602001600020600082015181600001556020820151816001015560408201518160020160006101000a81548160ff02191690831515021790555060608201518160020160016101000a81548160ff021916908315150217905550905050600360009054906101000a900473ffffffffffffffffffffffffffffffffffffffff1673ffffffffffffffffffffffffffffffffffffffff1663a144819433866040518363ffffffff1660e01b815260040161123e929190613543565b600060405180830381600087803b15801561125857600080fd5b505af115801561126c573d6000803e3d6000fd5b505050507fa704e351f12b57dc7d7b944f2ab3be36907a92f82c6cb18f383aa72c33f8c9878484846040516112a393929190613635565b60405180910390a150505050565b60076020528060005260406000206000915090508060000154908060010154908060020154908060030154908060040160009054906101000a900460ff16905085565b6112fc6126d2565b73ffffffffffffffffffffffffffffffffffffffff1661131a6115cc565b73ffffffffffffffffffffffffffffffffffffffff1614611370576040517f08c379a0000000000000000000000000000000000000000000000000000000008152600401611367906135b8565b60405180910390fd5b61137a60006126da565b565b6008818154811061138c57600080fd5b90600052602060002090600902016000915090508060000160009054906101000a900473ffffffffffffffffffffffffffffffffffffffff16908060010160009054906101000a900473ffffffffffffffffffffffffffffffffffffffff16908060020180546113fb906131c2565b80601f0160208091040260200160405190810160405280929190818152602001828054611427906131c2565b80156114745780601f1061144957610100808354040283529160200191611474565b820191906000526020600020905b81548152906001019060200180831161145757829003601f168201915b505050505090806003018054611489906131c2565b80601f01602080910402602001604051908101604052809291908181526020018280546114b5906131c2565b80156115025780601f106114d757610100808354040283529160200191611502565b820191906000526020600020905b8154815290600101906020018083116114e557829003601f168201915b505050505090806004018054611517906131c2565b80601f0160208091040260200160405190810160405280929190818152602001828054611543906131c2565b80156115905780601f1061156557610100808354040283529160200191611590565b820191906000526020600020905b81548152906001019060200180831161157357829003601f168201915b5050505050908060050160009054906101000a900460ff16908060060154908060070154908060080160009054906101000a900460ff16905089565b60008060009054906101000a900473ffffffffffffffffffffffffffffffffffffffff16905090565b6115fd6126d2565b73ffffffffffffffffffffffffffffffffffffffff1661161b6115cc565b73ffffffffffffffffffffffffffffffffffffffff1614611671576040517f08c379a0000000000000000000000000000000000000000000000000000000008152600401611668906135b8565b60405180910390fd5b80600460006101000a81548173ffffffffffffffffffffffffffffffffffffffff021916908373ffffffffffffffffffffffffffffffffffffffff16021790555050565b80600760003373ffffffffffffffffffffffffffffffffffffffff1673ffffffffffffffffffffffffffffffffffffffff168152602001908152602001600020600101541161170357600080fd5b80600760003373ffffffffffffffffffffffffffffffffffffffff1673ffffffffffffffffffffffffffffffffffffffff168152602001908152602001600020600101600082825461175591906135d8565b92505081905550600460009054906101000a900473ffffffffffffffffffffffffffffffffffffffff1673ffffffffffffffffffffffffffffffffffffffff166323b872dd3033846040518463ffffffff1660e01b81526004016117bb93929190613095565b6020604051808303816000875af11580156117da573d6000803e3d6000fd5b505050506040513d601f19601f820116820180604052508101906117fe91906130e1565b507fcc72340b5193e503ff98cb04bceb47a22a85846ab7ab1aafd5a5e0ad75495f1e3382604051611830929190613543565b60405180910390a150565b60011515600760003373ffffffffffffffffffffffffffffffffffffffff1673ffffffffffffffffffffffffffffffffffffffff16815260200190815260200160002060040160009054906101000a900460ff1615151461189b57600080fd5b6000600882815481106118b1576118b061310e565b5b90600052602060002090600902019050600115158160080160009054906101000a900460ff161515146118e357600080fd5b600060068111156118f7576118f6612c6a565b5b8160050160009054906101000a900460ff16600681111561191b5761191a612c6a565b5b1461192557600080fd5b600073ffffffffffffffffffffffffffffffffffffffff168160010160009054906101000a900473ffffffffffffffffffffffffffffffffffffffff1673ffffffffffffffffffffffffffffffffffffffff1614806119d357503373ffffffffffffffffffffffffffffffffffffffff168160010160009054906101000a900473ffffffffffffffffffffffffffffffffffffffff1673ffffffffffffffffffffffffffffffffffffffff16145b6119dc57600080fd5b60018160050160006101000a81548160ff02191690836006811115611a0457611a03612c6a565b5b0217905550338160010160006101000a81548173ffffffffffffffffffffffffffffffffffffffff021916908373ffffffffffffffffffffffffffffffffffffffff1602179055507f8269f832c8a0082ad2ce80c8ba52f2ee343d1638d7ce33f69ad26a82368d33d68282604051611a7d92919061344c565b60405180910390a15050565b600073ffffffffffffffffffffffffffffffffffffffff16600360009054906101000a900473ffffffffffffffffffffffffffffffffffffffff1673ffffffffffffffffffffffffffffffffffffffff16636352211e866040518263ffffffff1660e01b8152600401611afc919061300e565b602060405180830381865afa158015611b19573d6000803e3d6000fd5b505050506040513d601f19601f82011682018060405250810190611b3d9190613516565b73ffffffffffffffffffffffffffffffffffffffff1614611b6657611b61846120cb565b611c70565b3373ffffffffffffffffffffffffffffffffffffffff16600260009054906101000a900473ffffffffffffffffffffffffffffffffffffffff1673ffffffffffffffffffffffffffffffffffffffff16636352211e866040518263ffffffff1660e01b8152600401611bd8919061300e565b602060405180830381865afa158015611bf5573d6000803e3d6000fd5b505050506040513d601f19601f82011682018060405250810190611c199190613516565b73ffffffffffffffffffffffffffffffffffffffff1614611c6f576040517f08c379a0000000000000000000000000000000000000000000000000000000008152600401611c66906136b8565b60405180910390fd5b5b60006001600086815260200190815260200160002060020160009054906101000a900460ff1615905060006040518061012001604052803373ffffffffffffffffffffffffffffffffffffffff1681526020018573ffffffffffffffffffffffffffffffffffffffff16815260200186815260200184815260200160405180602001604052806000815250815260200160006006811115611d1457611d13612c6a565b5b8152602001878152602001428152602001831515815250905060006008805490509050600882908060018154018082558091505060019003906000526020600020906009020160009091909190915060008201518160000160006101000a81548173ffffffffffffffffffffffffffffffffffffffff021916908373ffffffffffffffffffffffffffffffffffffffff16021790555060208201518160010160006101000a81548173ffffffffffffffffffffffffffffffffffffffff021916908373ffffffffffffffffffffffffffffffffffffffff1602179055506040820151816002019080519060200190611e0d92919061279e565b506060820151816003019080519060200190611e2a92919061279e565b506080820151816004019080519060200190611e4792919061279e565b5060a08201518160050160006101000a81548160ff02191690836006811115611e7357611e72612c6a565b5b021790555060c0820151816006015560e082015181600701556101008201518160080160006101000a81548160ff0219169083151502179055505050600960008881526020019081526020016000208190806001815401808255809150506001900390600052602060002001600090919091909150557f84c8ed21c52213d547939a72947b353c403d6eb115f916cc396d01286bfc13208183604051611f1a9291906137e4565b60405180910390a150505050505050565b611f336126d2565b73ffffffffffffffffffffffffffffffffffffffff16611f516115cc565b73ffffffffffffffffffffffffffffffffffffffff1614611fa7576040517f08c379a0000000000000000000000000000000000000000000000000000000008152600401611f9e906135b8565b60405180910390fd5b80600360006101000a81548173ffffffffffffffffffffffffffffffffffffffff021916908373ffffffffffffffffffffffffffffffffffffffff16021790555050565b611ff36126d2565b73ffffffffffffffffffffffffffffffffffffffff166120116115cc565b73ffffffffffffffffffffffffffffffffffffffff1614612067576040517f08c379a000000000000000000000000000000000000000000000000000000000815260040161205e906135b8565b60405180910390fd5b6000600760008373ffffffffffffffffffffffffffffffffffffffff1673ffffffffffffffffffffffffffffffffffffffff168152602001908152602001600020905060008160040160006101000a81548160ff0219169083151502179055505050565b6000600160008381526020019081526020016000209050600460009054906101000a900473ffffffffffffffffffffffffffffffffffffffff1673ffffffffffffffffffffffffffffffffffffffff166323b872dd333084600001546040518463ffffffff1660e01b815260040161214593929190613095565b6020604051808303816000875af1158015612164573d6000803e3d6000fd5b505050506040513d601f19601f8201168201806040525081019061218891906130e1565b5080600001548160010160008282546121a191906134ab565b925050819055507fadd3d3c21c3dc2d229b03bad547c2e7de82af88fa5b935eb3d08fb6de2ad9d4f823383600001546040516121df93929190613814565b60405180910390a15050565b6000600882815481106122015761220061310e565b5b906000526020600020906009020190503373ffffffffffffffffffffffffffffffffffffffff168160000160009054906101000a900473ffffffffffffffffffffffffffffffffffffffff1673ffffffffffffffffffffffffffffffffffffffff161461226d57600080fd5b6001600760008360010160009054906101000a900473ffffffffffffffffffffffffffffffffffffffff1673ffffffffffffffffffffffffffffffffffffffff1673ffffffffffffffffffffffffffffffffffffffff16815260200190815260200160002060020160008282546122e491906134ab565b9250508190555060068160050160006101000a81548160ff0219169083600681111561231357612312612c6a565b5b0217905550600060016000836006015481526020019081526020016000209050806000015481600101600082825461234b91906134ab565b925050819055507fcefa1971c280a21f4b4f039ee1e7529e81fdcb19f30c5f0a3a696fb033abdf8d838360405161238392919061344c565b60405180910390a1505050565b60016020528060005260406000206000915090508060000154908060010154908060020160009054906101000a900460ff16908060020160019054906101000a900460ff16905084565b6000600883815481106123f0576123ef61310e565b5b906000526020600020906009020190503373ffffffffffffffffffffffffffffffffffffffff168160010160009054906101000a900473ffffffffffffffffffffffffffffffffffffffff1673ffffffffffffffffffffffffffffffffffffffff161461245c57600080fd5b60028160050160006101000a81548160ff0219169083600681111561248457612483612c6a565b5b0217905550818160040190805190602001906124a192919061279e565b504281600701819055507f75779490f3089b90395b01e8f88ea6cf696cefbba7e238a8fc19cb26eee740fa83826040516124dc92919061344c565b60405180910390a1505050565b6009602052816000526040600020818154811061250557600080fd5b90600052602060002001600091509150505481565b6125226126d2565b73ffffffffffffffffffffffffffffffffffffffff166125406115cc565b73ffffffffffffffffffffffffffffffffffffffff1614612596576040517f08c379a000000000000000000000000000000000000000000000000000000000815260040161258d906135b8565b60405180910390fd5b80600660006101000a81548173ffffffffffffffffffffffffffffffffffffffff021916908373ffffffffffffffffffffffffffffffffffffffff16021790555050565b6125e26126d2565b73ffffffffffffffffffffffffffffffffffffffff166126006115cc565b73ffffffffffffffffffffffffffffffffffffffff1614612656576040517f08c379a000000000000000000000000000000000000000000000000000000000815260040161264d906135b8565b60405180910390fd5b600073ffffffffffffffffffffffffffffffffffffffff168173ffffffffffffffffffffffffffffffffffffffff1614156126c6576040517f08c379a00000000000000000000000000000000000000000000000000000000081526004016126bd906138bd565b60405180910390fd5b6126cf816126da565b50565b600033905090565b60008060009054906101000a900473ffffffffffffffffffffffffffffffffffffffff169050816000806101000a81548173ffffffffffffffffffffffffffffffffffffffff021916908373ffffffffffffffffffffffffffffffffffffffff1602179055508173ffffffffffffffffffffffffffffffffffffffff168173ffffffffffffffffffffffffffffffffffffffff167f8be0079c531659141344cd1fd0a4f28419497f9722a3daafe3b4186f6b6457e060405160405180910390a35050565b8280546127aa906131c2565b90600052602060002090601f0160209004810192826127cc5760008555612813565b82601f106127e557805160ff1916838001178555612813565b82800160010185558215612813579182015b828111156128125782518255916020019190600101906127f7565b5b5090506128209190612824565b5090565b5b8082111561283d576000816000905550600101612825565b5090565b6000604051905090565b600080fd5b600080fd5b600073ffffffffffffffffffffffffffffffffffffffff82169050919050565b600061288082612855565b9050919050565b61289081612875565b811461289b57600080fd5b50565b6000813590506128ad81612887565b92915050565b6000819050919050565b6128c6816128b3565b81146128d157600080fd5b50565b6000813590506128e3816128bd565b92915050565b600080fd5b600080fd5b600080fd5b60008083601f84011261290e5761290d6128e9565b5b8235905067ffffffffffffffff81111561292b5761292a6128ee565b5b602083019150836001820283011115612947576129466128f3565b5b9250929050565b60008060008060006080868803121561296a5761296961284b565b5b60006129788882890161289e565b95505060206129898882890161289e565b945050604061299a888289016128d4565b935050606086013567ffffffffffffffff8111156129bb576129ba612850565b5b6129c7888289016128f8565b92509250509295509295909350565b60007fffffffff0000000000000000000000000000000000000000000000000000000082169050919050565b612a0b816129d6565b82525050565b6000602082019050612a266000830184612a02565b92915050565b600060208284031215612a4257612a4161284b565b5b6000612a50848285016128d4565b91505092915050565b600060208284031215612a6f57612a6e61284b565b5b6000612a7d8482850161289e565b91505092915050565b60008060408385031215612a9d57612a9c61284b565b5b6000612aab858286016128d4565b9250506020612abc858286016128d4565b9150509250929050565b60008115159050919050565b612adb81612ac6565b8114612ae657600080fd5b50565b600081359050612af881612ad2565b92915050565b600080600060608486031215612b1757612b1661284b565b5b6000612b25868287016128d4565b9350506020612b36868287016128d4565b9250506040612b4786828701612ae9565b9150509250925092565b612b5a816128b3565b82525050565b612b6981612ac6565b82525050565b600060a082019050612b846000830188612b51565b612b916020830187612b51565b612b9e6040830186612b51565b612bab6060830185612b51565b612bb86080830184612b60565b9695505050505050565b612bcb81612875565b82525050565b600081519050919050565b600082825260208201905092915050565b60005b83811015612c0b578082015181840152602081019050612bf0565b83811115612c1a576000848401525b50505050565b6000601f19601f8301169050919050565b6000612c3c82612bd1565b612c468185612bdc565b9350612c56818560208601612bed565b612c5f81612c20565b840191505092915050565b7f4e487b7100000000000000000000000000000000000000000000000000000000600052602160045260246000fd5b60078110612caa57612ca9612c6a565b5b50565b6000819050612cbb82612c99565b919050565b6000612ccb82612cad565b9050919050565b612cdb81612cc0565b82525050565b600061012082019050612cf7600083018c612bc2565b612d04602083018b612bc2565b8181036040830152612d16818a612c31565b90508181036060830152612d2a8189612c31565b90508181036080830152612d3e8188612c31565b9050612d4d60a0830187612cd2565b612d5a60c0830186612b51565b612d6760e0830185612b51565b612d75610100830184612b60565b9a9950505050505050505050565b6000602082019050612d986000830184612bc2565b92915050565b600080fd5b7f4e487b7100000000000000000000000000000000000000000000000000000000600052604160045260246000fd5b612ddb82612c20565b810181811067ffffffffffffffff82111715612dfa57612df9612da3565b5b80604052505050565b6000612e0d612841565b9050612e198282612dd2565b919050565b600067ffffffffffffffff821115612e3957612e38612da3565b5b612e4282612c20565b9050602081019050919050565b82818337600083830152505050565b6000612e71612e6c84612e1e565b612e03565b905082815260208101848484011115612e8d57612e8c612d9e565b5b612e98848285612e4f565b509392505050565b600082601f830112612eb557612eb46128e9565b5b8135612ec5848260208601612e5e565b91505092915050565b60008060008060808587031215612ee857612ee761284b565b5b6000612ef6878288016128d4565b945050602085013567ffffffffffffffff811115612f1757612f16612850565b5b612f2387828801612ea0565b9350506040612f348782880161289e565b925050606085013567ffffffffffffffff811115612f5557612f54612850565b5b612f6187828801612ea0565b91505092959194509250565b6000608082019050612f826000830187612b51565b612f8f6020830186612b51565b612f9c6040830185612b60565b612fa96060830184612b60565b95945050505050565b60008060408385031215612fc957612fc861284b565b5b6000612fd7858286016128d4565b925050602083013567ffffffffffffffff811115612ff857612ff7612850565b5b61300485828601612ea0565b9150509250929050565b60006020820190506130236000830184612b51565b92915050565b7f616c726561647920636f6e766572746572210000000000000000000000000000600082015250565b600061305f601283612bdc565b915061306a82613029565b602082019050919050565b6000602082019050818103600083015261308e81613052565b9050919050565b60006060820190506130aa6000830186612bc2565b6130b76020830185612bc2565b6130c46040830184612b51565b949350505050565b6000815190506130db81612ad2565b92915050565b6000602082840312156130f7576130f661284b565b5b6000613105848285016130cc565b91505092915050565b7f4e487b7100000000000000000000000000000000000000000000000000000000600052603260045260246000fd5b60008160001c9050919050565b600073ffffffffffffffffffffffffffffffffffffffff82169050919050565b600061317d6131788361313d565b61314a565b9050919050565b61318d81612875565b82525050565b7f4e487b7100000000000000000000000000000000000000000000000000000000600052602260045260246000fd5b600060028204905060018216806131da57607f821691505b602082108114156131ee576131ed613193565b5b50919050565b600082825260208201905092915050565b60008190508160005260206000209050919050565b60008154613227816131c2565b61323181866131f4565b9450600182166000811461324c576001811461325e57613291565b60ff1983168652602086019350613291565b61326785613205565b60005b838110156132895781548189015260018201915060208101905061326a565b808801955050505b50505092915050565b600060ff82169050919050565b60006132ba6132b58361313d565b61329a565b9050919050565b6132ca81612cc0565b82525050565b6000819050919050565b60006132ed6132e88361313d565b6132d0565b9050919050565b6132fd816128b3565b82525050565b600060ff82169050919050565b600061332361331e8361313d565b613303565b9050919050565b61333381612ac6565b82525050565b6000610120830160008084015490506133518161316a565b61335e6000870182613184565b506001840154905061336f8161316a565b61337c6020870182613184565b50600284018583036040870152613393838261321a565b9250506003840185830360608701526133ac838261321a565b9250506004840185830360808701526133c5838261321a565b925050600584015490506133d8816132a7565b6133e560a08701826132c1565b50600684015490506133f6816132da565b61340360c08701826132f4565b5060078401549050613414816132da565b61342160e08701826132f4565b506008840154905061343281613310565b61344061010087018261332a565b50819250505092915050565b60006040820190506134616000830185612b51565b81810360208301526134738184613339565b90509392505050565b7f4e487b7100000000000000000000000000000000000000000000000000000000600052601160045260246000fd5b60006134b6826128b3565b91506134c1836128b3565b9250827fffffffffffffffffffffffffffffffffffffffffffffffffffffffffffffffff038211156134f6576134f561347c565b5b828201905092915050565b60008151905061351081612887565b92915050565b60006020828403121561352c5761352b61284b565b5b600061353a84828501613501565b91505092915050565b60006040820190506135586000830185612bc2565b6135656020830184612b51565b9392505050565b7f4f776e61626c653a2063616c6c6572206973206e6f7420746865206f776e6572600082015250565b60006135a2602083612bdc565b91506135ad8261356c565b602082019050919050565b600060208201905081810360008301526135d181613595565b9050919050565b60006135e3826128b3565b91506135ee836128b3565b9250828210156136015761360061347c565b5b828203905092915050565b60006040820190506136216000830185612b51565b61362e6020830184612b51565b9392505050565b600060608201905061364a6000830186612b51565b6136576020830185612b51565b6136646040830184612b60565b949350505050565b7f6e6f74206f776e65720000000000000000000000000000000000000000000000600082015250565b60006136a2600983612bdc565b91506136ad8261366c565b602082019050919050565b600060208201905081810360008301526136d181613695565b9050919050565b60006136e382612bd1565b6136ed81856131f4565b93506136fd818560208601612bed565b61370681612c20565b840191505092915050565b60006101208301600083015161372a6000860182613184565b50602083015161373d6020860182613184565b506040830151848203604086015261375582826136d8565b9150506060830151848203606086015261376f82826136d8565b9150506080830151848203608086015261378982826136d8565b91505060a083015161379e60a08601826132c1565b5060c08301516137b160c08601826132f4565b5060e08301516137c460e08601826132f4565b506101008301516137d961010086018261332a565b508091505092915050565b60006040820190506137f96000830185612b51565b818103602083015261380b8184613711565b90509392505050565b60006060820190506138296000830186612b51565b6138366020830185612bc2565b6138436040830184612b51565b949350505050565b7f4f776e61626c653a206e6577206f776e657220697320746865207a65726f206160008201527f6464726573730000000000000000000000000000000000000000000000000000602082015250565b60006138a7602683612bdc565b91506138b28261384b565b604082019050919050565b600060208201905081810360008301526138d68161389a565b905091905056fea2646970667358221220528bfaca0dc2ec89ab67a82f09684f2383b5096d78c34db132581a92eea9194164736f6c634300080a0033",
  "immutableReferences": {},
  "source": "pragma solidity >=0.4.22 <0.9.0;\n\nimport \"@openzeppelin/contracts/access/Ownable.sol\";\nimport \"@openzeppelin/contracts/token/ERC721/IERC721Receiver.sol\";\nimport \"./HumanStaker.sol\";\nimport \"./HumanERC20.sol\";\n\n//    .\ncontract HumanConverter is HumanStaker, IERC721Receiver {\n\n  event AddConverter(address converter);\n  event RemoveConverter(address converter);\n  event AddRequest(uint requestId, Request request);\n  event WithdrawConverter(address converter, uint balance);\n  event ConvertAllow(uint requestId, Request request);\n  event ConvertStart(uint requestId, Request request);\n  event ConvertSuccess(uint requestId, Request request);\n  event ConvertConfirm(uint requestId, Request request);\n  event ConvertComplain(uint requestId, Request request);\n  event SetConverterFee(uint balance);\n\n  enum STATUS { WAIT, CONVERT, SUCCESS, CANCEL, ERROR, COMPLAIN, END }\n\n  struct Request {\n    address client;\n    address converter;\n    string sourceUri;\n    string humanNumber;\n    string resultUri;\n    STATUS status;\n    uint tokenId;\n    uint date;\n    bool allowed;\n  }\n\n  struct Converter {\n    uint total;\n    uint balance;\n    uint convertCount;\n    uint complainCount;\n    bool active;\n  }\n\n  uint converterFee;\n  address humanERC20StakerAddress;\n  mapping (address => Converter) public converter;\n  Request[] public requests;\n  mapping (uint => uint[]) public requestsOfHuman;\n  // mapping (uint => uint[]) public requestsOfConverter;\n\n  constructor () {}\n\n  modifier onlyConverter() {\n    require(converter[msg.sender].active == true);\n    _;\n  }\n\n  modifier onlyConverterOf(uint _requestId) {\n    require(requests[_requestId].converter == msg.sender);\n    _;\n  }\n\n  function onERC721Received(\n      address operator,\n      address from,\n      uint256 tokenId,\n      bytes calldata data\n  ) public returns (bytes4) {\n    return IERC721Receiver.onERC721Received.selector;\n  }\n\n  function addConverter() public {\n    require(converter[msg.sender].total < 1, \"already converter!\");\n    humanERC20.transferFrom(msg.sender, humanERC20StakerAddress, converterFee);\n    converter[msg.sender] = Converter(0, 0, 0, 0, true);\n  }\n\n  function removeConverter(address _address) public onlyOwner {\n    Converter storage _converter = converter[_address];\n    _converter.active = false;\n  }\n\n  function setHumanERC20Staker(address _address) public onlyOwner {\n    humanERC20StakerAddress = _address;\n  } \n\n  function setConverterFee(uint _balance) public onlyOwner {\n    converterFee = _balance;\n    emit SetConverterFee(_balance);\n  }\n\n  function withdrawConverter(uint _balance) public {\n    require(converter[msg.sender].balance > _balance);\n    converter[msg.sender].balance -= _balance;\n    humanERC20.transferFrom(address(this), msg.sender, _balance);\n    emit WithdrawConverter(msg.sender, _balance);\n  }\n\n  function request(uint _tokenId, string memory _sourceUri, address _converter, string memory _humanNumber) public {\n    // stakes[_tokenId];\n    // ,   \n    if (shumanERC721.ownerOf(_tokenId) != address(0)) {\n      use(_tokenId);\n    } else {\n      require(humanERC721.ownerOf(_tokenId) == msg.sender, \"not owner\");\n    }\n    bool allowed = !stakes[_tokenId].isManual;\n    \n    Request memory _request = Request(msg.sender, _converter, _sourceUri, _humanNumber, \"\", STATUS.WAIT, _tokenId, block.timestamp, allowed);\n    \n    uint requestId = requests.length;\n    requests.push(_request);\n    requestsOfHuman[_tokenId].push(requestId);\n    emit AddRequest(requestId, _request);\n  }\n\n  function allow(uint _requestId) public {\n    Request storage _request = requests[_requestId];\n    require(_request.allowed == false);\n    require(_request.client == msg.sender);\n    _request.allowed = true;\n    emit ConvertAllow(_requestId, _request);\n  }\n\n  function start(uint _requestId) public onlyConverter {\n    Request storage _request = requests[_requestId];\n    require(_request.allowed == true);\n    require(_request.status == STATUS.WAIT);\n    require(_request.converter == address(0) || _request.converter == msg.sender);\n    \n    _request.status = STATUS.CONVERT;\n    _request.converter = msg.sender;\n    emit ConvertStart(_requestId, _request);\n  }\n\n  function success(uint _requestId, string memory _resultUri) public {\n    Request storage _request = requests[_requestId];\n    require(_request.converter == msg.sender);\n\n    _request.status = STATUS.SUCCESS;\n    _request.resultUri = _resultUri;\n    _request.date = block.timestamp;\n    emit ConvertSuccess(_requestId, _request);\n  }\n\n  function confirm(uint _requestId) public {\n    Request storage _request = requests[_requestId];\n    require(_request.client == msg.sender);\n    converter[_request.converter].convertCount += 1;\n    _request.status = STATUS.END;\n    StakingOption storage option = stakes[_request.tokenId];\n    option.balance += option.fee;\n    emit ConvertConfirm(_requestId, _request);\n  }\n\n  function complain(uint _requestId) public {\n    Request storage _request = requests[_requestId];\n    require(_request.client == msg.sender);\n    converter[_request.converter].complainCount += 1;\n    _request.status = STATUS.COMPLAIN;\n    emit ConvertComplain(_requestId, _request);\n  }\n}",
  "sourcePath": "/Users/klleon/workspace/blockchain/vhuman/contracts/HumanConverter.sol",
  "compiler": {
    "name": "solc",
    "version": "0.8.10+commit.fc410830.Emscripten.clang"
  },
  "schemaVersion": "3.4.3",
  "updatedAt": "2021-12-17T02:37:51.850Z",
  "networkType": "ethereum",
  "devdoc": {
    "kind": "dev",
    "methods": {
      "onERC721Received(address,address,uint256,bytes)": {
        "details": "Whenever an {IERC721} `tokenId` token is transferred to this contract via {IERC721-safeTransferFrom} by `operator` from `from`, this function is called. It must return its Solidity selector to confirm the token transfer. If any other value is returned or the interface is not implemented by the recipient, the transfer will be reverted. The selector can be obtained in Solidity with `IERC721.onERC721Received.selector`."
      },
      "owner()": {
        "details": "Returns the address of the current owner."
      },
      "renounceOwnership()": {
        "details": "Leaves the contract without owner. It will not be possible to call `onlyOwner` functions anymore. Can only be called by the current owner. NOTE: Renouncing ownership will leave the contract without an owner, thereby removing any functionality that is only available to the owner."
      },
      "transferOwnership(address)": {
        "details": "Transfers ownership of the contract to a new account (`newOwner`). Can only be called by the current owner."
      }
    },
    "version": 1
  },
  "userdoc": {
    "kind": "user",
    "methods": {},
    "version": 1
  }
}