{
  "contractName": "Human",
  "abi": [
    {
      "inputs": [
        {
          "internalType": "address",
          "name": "_proxyRegistryAddress",
          "type": "address"
        }
      ],
      "stateMutability": "nonpayable",
      "type": "constructor"
    },
    {
      "anonymous": false,
      "inputs": [
        {
          "indexed": true,
          "internalType": "address",
          "name": "owner",
          "type": "address"
        },
        {
          "indexed": true,
          "internalType": "address",
          "name": "approved",
          "type": "address"
        },
        {
          "indexed": true,
          "internalType": "uint256",
          "name": "tokenId",
          "type": "uint256"
        }
      ],
      "name": "Approval",
      "type": "event"
    },
    {
      "anonymous": false,
      "inputs": [
        {
          "indexed": true,
          "internalType": "address",
          "name": "owner",
          "type": "address"
        },
        {
          "indexed": true,
          "internalType": "address",
          "name": "operator",
          "type": "address"
        },
        {
          "indexed": false,
          "internalType": "bool",
          "name": "approved",
          "type": "bool"
        }
      ],
      "name": "ApprovalForAll",
      "type": "event"
    },
    {
      "anonymous": false,
      "inputs": [
        {
          "indexed": false,
          "internalType": "address",
          "name": "userAddress",
          "type": "address"
        },
        {
          "indexed": false,
          "internalType": "address payable",
          "name": "relayerAddress",
          "type": "address"
        },
        {
          "indexed": false,
          "internalType": "bytes",
          "name": "functionSignature",
          "type": "bytes"
        }
      ],
      "name": "MetaTransactionExecuted",
      "type": "event"
    },
    {
      "anonymous": false,
      "inputs": [
        {
          "indexed": false,
          "internalType": "address",
          "name": "to",
          "type": "address"
        },
        {
          "indexed": false,
          "internalType": "uint256",
          "name": "tokenId",
          "type": "uint256"
        },
        {
          "components": [
            {
              "internalType": "string",
              "name": "name",
              "type": "string"
            },
            {
              "internalType": "string",
              "name": "description",
              "type": "string"
            },
            {
              "internalType": "string",
              "name": "hash",
              "type": "string"
            }
          ],
          "indexed": false,
          "internalType": "struct Human.VHuman",
          "name": "human",
          "type": "tuple"
        }
      ],
      "name": "Mint",
      "type": "event"
    },
    {
      "anonymous": false,
      "inputs": [
        {
          "indexed": true,
          "internalType": "address",
          "name": "previousOwner",
          "type": "address"
        },
        {
          "indexed": true,
          "internalType": "address",
          "name": "newOwner",
          "type": "address"
        }
      ],
      "name": "OwnershipTransferred",
      "type": "event"
    },
    {
      "anonymous": false,
      "inputs": [
        {
          "indexed": true,
          "internalType": "address",
          "name": "from",
          "type": "address"
        },
        {
          "indexed": true,
          "internalType": "address",
          "name": "to",
          "type": "address"
        },
        {
          "indexed": true,
          "internalType": "uint256",
          "name": "tokenId",
          "type": "uint256"
        }
      ],
      "name": "Transfer",
      "type": "event"
    },
    {
      "inputs": [],
      "name": "ERC712_VERSION",
      "outputs": [
        {
          "internalType": "string",
          "name": "",
          "type": "string"
        }
      ],
      "stateMutability": "view",
      "type": "function",
      "constant": true
    },
    {
      "inputs": [
        {
          "internalType": "address",
          "name": "to",
          "type": "address"
        },
        {
          "internalType": "uint256",
          "name": "tokenId",
          "type": "uint256"
        }
      ],
      "name": "approve",
      "outputs": [],
      "stateMutability": "nonpayable",
      "type": "function"
    },
    {
      "inputs": [
        {
          "internalType": "address",
          "name": "owner",
          "type": "address"
        }
      ],
      "name": "balanceOf",
      "outputs": [
        {
          "internalType": "uint256",
          "name": "",
          "type": "uint256"
        }
      ],
      "stateMutability": "view",
      "type": "function",
      "constant": true
    },
    {
      "inputs": [
        {
          "internalType": "address",
          "name": "userAddress",
          "type": "address"
        },
        {
          "internalType": "bytes",
          "name": "functionSignature",
          "type": "bytes"
        },
        {
          "internalType": "bytes32",
          "name": "sigR",
          "type": "bytes32"
        },
        {
          "internalType": "bytes32",
          "name": "sigS",
          "type": "bytes32"
        },
        {
          "internalType": "uint8",
          "name": "sigV",
          "type": "uint8"
        }
      ],
      "name": "executeMetaTransaction",
      "outputs": [
        {
          "internalType": "bytes",
          "name": "",
          "type": "bytes"
        }
      ],
      "stateMutability": "payable",
      "type": "function",
      "payable": true
    },
    {
      "inputs": [
        {
          "internalType": "uint256",
          "name": "tokenId",
          "type": "uint256"
        }
      ],
      "name": "getApproved",
      "outputs": [
        {
          "internalType": "address",
          "name": "",
          "type": "address"
        }
      ],
      "stateMutability": "view",
      "type": "function",
      "constant": true
    },
    {
      "inputs": [],
      "name": "getChainId",
      "outputs": [
        {
          "internalType": "uint256",
          "name": "",
          "type": "uint256"
        }
      ],
      "stateMutability": "view",
      "type": "function",
      "constant": true
    },
    {
      "inputs": [],
      "name": "getDomainSeperator",
      "outputs": [
        {
          "internalType": "bytes32",
          "name": "",
          "type": "bytes32"
        }
      ],
      "stateMutability": "view",
      "type": "function",
      "constant": true
    },
    {
      "inputs": [
        {
          "internalType": "address",
          "name": "user",
          "type": "address"
        }
      ],
      "name": "getNonce",
      "outputs": [
        {
          "internalType": "uint256",
          "name": "nonce",
          "type": "uint256"
        }
      ],
      "stateMutability": "view",
      "type": "function",
      "constant": true
    },
    {
      "inputs": [
        {
          "internalType": "uint256",
          "name": "",
          "type": "uint256"
        }
      ],
      "name": "humans",
      "outputs": [
        {
          "internalType": "string",
          "name": "name",
          "type": "string"
        },
        {
          "internalType": "string",
          "name": "description",
          "type": "string"
        },
        {
          "internalType": "string",
          "name": "hash",
          "type": "string"
        }
      ],
      "stateMutability": "view",
      "type": "function",
      "constant": true
    },
    {
      "inputs": [
        {
          "internalType": "address",
          "name": "owner",
          "type": "address"
        },
        {
          "internalType": "address",
          "name": "operator",
          "type": "address"
        }
      ],
      "name": "isApprovedForAll",
      "outputs": [
        {
          "internalType": "bool",
          "name": "",
          "type": "bool"
        }
      ],
      "stateMutability": "view",
      "type": "function",
      "constant": true
    },
    {
      "inputs": [],
      "name": "name",
      "outputs": [
        {
          "internalType": "string",
          "name": "",
          "type": "string"
        }
      ],
      "stateMutability": "view",
      "type": "function",
      "constant": true
    },
    {
      "inputs": [],
      "name": "owner",
      "outputs": [
        {
          "internalType": "address",
          "name": "",
          "type": "address"
        }
      ],
      "stateMutability": "view",
      "type": "function",
      "constant": true
    },
    {
      "inputs": [
        {
          "internalType": "uint256",
          "name": "tokenId",
          "type": "uint256"
        }
      ],
      "name": "ownerOf",
      "outputs": [
        {
          "internalType": "address",
          "name": "",
          "type": "address"
        }
      ],
      "stateMutability": "view",
      "type": "function",
      "constant": true
    },
    {
      "inputs": [],
      "name": "renounceOwnership",
      "outputs": [],
      "stateMutability": "nonpayable",
      "type": "function"
    },
    {
      "inputs": [
        {
          "internalType": "address",
          "name": "from",
          "type": "address"
        },
        {
          "internalType": "address",
          "name": "to",
          "type": "address"
        },
        {
          "internalType": "uint256",
          "name": "tokenId",
          "type": "uint256"
        }
      ],
      "name": "safeTransferFrom",
      "outputs": [],
      "stateMutability": "nonpayable",
      "type": "function"
    },
    {
      "inputs": [
        {
          "internalType": "address",
          "name": "from",
          "type": "address"
        },
        {
          "internalType": "address",
          "name": "to",
          "type": "address"
        },
        {
          "internalType": "uint256",
          "name": "tokenId",
          "type": "uint256"
        },
        {
          "internalType": "bytes",
          "name": "_data",
          "type": "bytes"
        }
      ],
      "name": "safeTransferFrom",
      "outputs": [],
      "stateMutability": "nonpayable",
      "type": "function"
    },
    {
      "inputs": [
        {
          "internalType": "address",
          "name": "operator",
          "type": "address"
        },
        {
          "internalType": "bool",
          "name": "approved",
          "type": "bool"
        }
      ],
      "name": "setApprovalForAll",
      "outputs": [],
      "stateMutability": "nonpayable",
      "type": "function"
    },
    {
      "inputs": [
        {
          "internalType": "bytes4",
          "name": "interfaceId",
          "type": "bytes4"
        }
      ],
      "name": "supportsInterface",
      "outputs": [
        {
          "internalType": "bool",
          "name": "",
          "type": "bool"
        }
      ],
      "stateMutability": "view",
      "type": "function",
      "constant": true
    },
    {
      "inputs": [],
      "name": "symbol",
      "outputs": [
        {
          "internalType": "string",
          "name": "",
          "type": "string"
        }
      ],
      "stateMutability": "view",
      "type": "function",
      "constant": true
    },
    {
      "inputs": [
        {
          "internalType": "uint256",
          "name": "index",
          "type": "uint256"
        }
      ],
      "name": "tokenByIndex",
      "outputs": [
        {
          "internalType": "uint256",
          "name": "",
          "type": "uint256"
        }
      ],
      "stateMutability": "view",
      "type": "function",
      "constant": true
    },
    {
      "inputs": [
        {
          "internalType": "address",
          "name": "owner",
          "type": "address"
        },
        {
          "internalType": "uint256",
          "name": "index",
          "type": "uint256"
        }
      ],
      "name": "tokenOfOwnerByIndex",
      "outputs": [
        {
          "internalType": "uint256",
          "name": "",
          "type": "uint256"
        }
      ],
      "stateMutability": "view",
      "type": "function",
      "constant": true
    },
    {
      "inputs": [
        {
          "internalType": "uint256",
          "name": "_tokenId",
          "type": "uint256"
        }
      ],
      "name": "tokenURI",
      "outputs": [
        {
          "internalType": "string",
          "name": "",
          "type": "string"
        }
      ],
      "stateMutability": "pure",
      "type": "function",
      "constant": true
    },
    {
      "inputs": [],
      "name": "totalSupply",
      "outputs": [
        {
          "internalType": "uint256",
          "name": "",
          "type": "uint256"
        }
      ],
      "stateMutability": "view",
      "type": "function",
      "constant": true
    },
    {
      "inputs": [
        {
          "internalType": "address",
          "name": "from",
          "type": "address"
        },
        {
          "internalType": "address",
          "name": "to",
          "type": "address"
        },
        {
          "internalType": "uint256",
          "name": "tokenId",
          "type": "uint256"
        }
      ],
      "name": "transferFrom",
      "outputs": [],
      "stateMutability": "nonpayable",
      "type": "function"
    },
    {
      "inputs": [
        {
          "internalType": "address",
          "name": "newOwner",
          "type": "address"
        }
      ],
      "name": "transferOwnership",
      "outputs": [],
      "stateMutability": "nonpayable",
      "type": "function"
    },
    {
      "inputs": [],
      "name": "baseTokenURI",
      "outputs": [
        {
          "internalType": "string",
          "name": "",
          "type": "string"
        }
      ],
      "stateMutability": "pure",
      "type": "function",
      "constant": true
    },
    {
      "inputs": [
        {
          "internalType": "address",
          "name": "to",
          "type": "address"
        },
        {
          "internalType": "string",
          "name": "name",
          "type": "string"
        },
        {
          "internalType": "string",
          "name": "description",
          "type": "string"
        },
        {
          "internalType": "string",
          "name": "hash",
          "type": "string"
        }
      ],
      "name": "mint",
      "outputs": [],
      "stateMutability": "nonpayable",
      "type": "function"
    }
  ],
  "bytecode": "0x60806040526000600a60006101000a81548160ff0219169083151502179055506000600f553480156200003157600080fd5b5060405162004f7e38038062004f7e833981810160405281019062000057919062000563565b6040518060400160405280600581526020017f48756d616e0000000000000000000000000000000000000000000000000000008152506040518060400160405280600381526020017f48554d00000000000000000000000000000000000000000000000000000000008152508282828160009080519060200190620000de92919062000449565b508060019080519060200190620000f792919062000449565b5050506200011a6200010e6200017660201b60201c565b6200019260201b60201c565b80600e60006101000a81548173ffffffffffffffffffffffffffffffffffffffff021916908373ffffffffffffffffffffffffffffffffffffffff1602179055506200016c836200025860201b60201c565b5050505062000706565b60006200018d620002da60201b620016ea1760201c565b905090565b6000600d60009054906101000a900473ffffffffffffffffffffffffffffffffffffffff16905081600d60006101000a81548173ffffffffffffffffffffffffffffffffffffffff021916908373ffffffffffffffffffffffffffffffffffffffff1602179055508173ffffffffffffffffffffffffffffffffffffffff168173ffffffffffffffffffffffffffffffffffffffff167f8be0079c531659141344cd1fd0a4f28419497f9722a3daafe3b4186f6b6457e060405160405180910390a35050565b600a60009054906101000a900460ff1615620002ab576040517f08c379a0000000000000000000000000000000000000000000000000000000008152600401620002a290620005f6565b60405180910390fd5b620002bc816200038d60201b60201c565b6001600a60006101000a81548160ff02191690831515021790555050565b60003073ffffffffffffffffffffffffffffffffffffffff163373ffffffffffffffffffffffffffffffffffffffff1614156200038657600080368080601f016020809104026020016040519081016040528093929190818152602001838380828437600081840152601f19601f820116905080830192505050505050509050600080369050905073ffffffffffffffffffffffffffffffffffffffff8183015116925050506200038a565b3390505b90565b6040518060800160405280604f815260200162004f2f604f91398051906020012081805190602001206040518060400160405280600181526020017f31000000000000000000000000000000000000000000000000000000000000008152508051906020012030620004046200043c60201b60201c565b60001b6040516020016200041d95949392919062000644565b60405160208183030381529060405280519060200120600b8190555050565b6000804690508091505090565b8280546200045790620006d0565b90600052602060002090601f0160209004810192826200047b5760008555620004c7565b82601f106200049657805160ff1916838001178555620004c7565b82800160010185558215620004c7579182015b82811115620004c6578251825591602001919060010190620004a9565b5b509050620004d69190620004da565b5090565b5b80821115620004f5576000816000905550600101620004db565b5090565b600080fd5b600073ffffffffffffffffffffffffffffffffffffffff82169050919050565b60006200052b82620004fe565b9050919050565b6200053d816200051e565b81146200054957600080fd5b50565b6000815190506200055d8162000532565b92915050565b6000602082840312156200057c576200057b620004f9565b5b60006200058c848285016200054c565b91505092915050565b600082825260208201905092915050565b7f616c726561647920696e69746564000000000000000000000000000000000000600082015250565b6000620005de600e8362000595565b9150620005eb82620005a6565b602082019050919050565b600060208201905081810360008301526200061181620005cf565b9050919050565b6000819050919050565b6200062d8162000618565b82525050565b6200063e816200051e565b82525050565b600060a0820190506200065b600083018862000622565b6200066a602083018762000622565b62000679604083018662000622565b62000688606083018562000633565b62000697608083018462000622565b9695505050505050565b7f4e487b7100000000000000000000000000000000000000000000000000000000600052602260045260246000fd5b60006002820490506001821680620006e957607f821691505b602082108114156200070057620006ff620006a1565b5b50919050565b61481980620007166000396000f3fe60806040526004361061019c5760003560e01c80634a0706be116100ec57806395d89b411161008a578063c87b56dd11610064578063c87b56dd146105f5578063d547cfb714610632578063e985e9c51461065d578063f2fde38b1461069a5761019c565b806395d89b4114610578578063a22cb465146105a3578063b88d4fde146105cc5761019c565b806370a08231116100c657806370a08231146104ba578063715018a6146104f75780638102fced1461050e5780638da5cb5b1461054d5761019c565b80634a0706be146104175780634f6ccce7146104405780636352211e1461047d5761019c565b806318160ddd116101595780632d0335ab116101335780632d0335ab146103495780632f745c59146103865780633408e470146103c357806342842e0e146103ee5761019c565b806318160ddd146102ca57806320379ee5146102f557806323b872dd146103205761019c565b806301ffc9a7146101a157806306fdde03146101de578063081812fc14610209578063095ea7b3146102465780630c53c51c1461026f5780630f7e59701461029f575b600080fd5b3480156101ad57600080fd5b506101c860048036038101906101c39190612d05565b6106c3565b6040516101d59190612d4d565b60405180910390f35b3480156101ea57600080fd5b506101f361073d565b6040516102009190612e01565b60405180910390f35b34801561021557600080fd5b50610230600480360381019061022b9190612e59565b6107cf565b60405161023d9190612ec7565b60405180910390f35b34801561025257600080fd5b5061026d60048036038101906102689190612f0e565b610854565b005b610289600480360381019061028491906130f2565b61096c565b60405161029691906131de565b60405180910390f35b3480156102ab57600080fd5b506102b4610bde565b6040516102c19190612e01565b60405180910390f35b3480156102d657600080fd5b506102df610c17565b6040516102ec919061320f565b60405180910390f35b34801561030157600080fd5b5061030a610c24565b6040516103179190613239565b60405180910390f35b34801561032c57600080fd5b5061034760048036038101906103429190613254565b610c2e565b005b34801561035557600080fd5b50610370600480360381019061036b91906132a7565b610c8e565b60405161037d919061320f565b60405180910390f35b34801561039257600080fd5b506103ad60048036038101906103a89190612f0e565b610cd7565b6040516103ba919061320f565b60405180910390f35b3480156103cf57600080fd5b506103d8610d7c565b6040516103e5919061320f565b60405180910390f35b3480156103fa57600080fd5b5061041560048036038101906104109190613254565b610d89565b005b34801561042357600080fd5b5061043e60048036038101906104399190613375565b610da9565b005b34801561044c57600080fd5b5061046760048036038101906104629190612e59565b610f45565b604051610474919061320f565b60405180910390f35b34801561048957600080fd5b506104a4600480360381019061049f9190612e59565b610fb6565b6040516104b19190612ec7565b60405180910390f35b3480156104c657600080fd5b506104e160048036038101906104dc91906132a7565b611068565b6040516104ee919061320f565b60405180910390f35b34801561050357600080fd5b5061050c611120565b005b34801561051a57600080fd5b5061053560048036038101906105309190612e59565b6111a8565b60405161054493929190613430565b60405180910390f35b34801561055957600080fd5b5061056261137a565b60405161056f9190612ec7565b60405180910390f35b34801561058457600080fd5b5061058d6113a4565b60405161059a9190612e01565b60405180910390f35b3480156105af57600080fd5b506105ca60048036038101906105c591906134a8565b611436565b005b3480156105d857600080fd5b506105f360048036038101906105ee91906134e8565b61144c565b005b34801561060157600080fd5b5061061c60048036038101906106179190612e59565b6114ae565b6040516106299190612e01565b60405180910390f35b34801561063e57600080fd5b506106476114e8565b6040516106549190612e01565b60405180910390f35b34801561066957600080fd5b50610684600480360381019061067f919061356b565b6114ff565b6040516106919190612d4d565b60405180910390f35b3480156106a657600080fd5b506106c160048036038101906106bc91906132a7565b6115f2565b005b60007f780e9d63000000000000000000000000000000000000000000000000000000007bffffffffffffffffffffffffffffffffffffffffffffffffffffffff1916827bffffffffffffffffffffffffffffffffffffffffffffffffffffffff1916148061073657506107358261179b565b5b9050919050565b60606000805461074c906135da565b80601f0160208091040260200160405190810160405280929190818152602001828054610778906135da565b80156107c55780601f1061079a576101008083540402835291602001916107c5565b820191906000526020600020905b8154815290600101906020018083116107a857829003601f168201915b5050505050905090565b60006107da8261187d565b610819576040517f08c379a00000000000000000000000000000000000000000000000000000000081526004016108109061367e565b60405180910390fd5b6004600083815260200190815260200160002060009054906101000a900473ffffffffffffffffffffffffffffffffffffffff169050919050565b600061085f82610fb6565b90508073ffffffffffffffffffffffffffffffffffffffff168373ffffffffffffffffffffffffffffffffffffffff1614156108d0576040517f08c379a00000000000000000000000000000000000000000000000000000000081526004016108c790613710565b60405180910390fd5b8073ffffffffffffffffffffffffffffffffffffffff166108ef6118e9565b73ffffffffffffffffffffffffffffffffffffffff16148061091e575061091d816109186118e9565b6114ff565b5b61095d576040517f08c379a0000000000000000000000000000000000000000000000000000000008152600401610954906137a2565b60405180910390fd5b61096783836118f8565b505050565b606060006040518060600160405280600c60008a73ffffffffffffffffffffffffffffffffffffffff1673ffffffffffffffffffffffffffffffffffffffff1681526020019081526020016000205481526020018873ffffffffffffffffffffffffffffffffffffffff1681526020018781525090506109ef87828787876119b1565b610a2e576040517f08c379a0000000000000000000000000000000000000000000000000000000008152600401610a2590613834565b60405180910390fd5b610a816001600c60008a73ffffffffffffffffffffffffffffffffffffffff1673ffffffffffffffffffffffffffffffffffffffff16815260200190815260200160002054611aba90919063ffffffff16565b600c60008973ffffffffffffffffffffffffffffffffffffffff1673ffffffffffffffffffffffffffffffffffffffff168152602001908152602001600020819055507f5845892132946850460bff5a0083f71031bc5bf9aadcd40f1de79423eac9b10b873388604051610af793929190613875565b60405180910390a16000803073ffffffffffffffffffffffffffffffffffffffff16888a604051602001610b2c929190613937565b604051602081830303815290604052604051610b48919061395f565b6000604051808303816000865af19150503d8060008114610b85576040519150601f19603f3d011682016040523d82523d6000602084013e610b8a565b606091505b509150915081610bcf576040517f08c379a0000000000000000000000000000000000000000000000000000000008152600401610bc6906139c2565b60405180910390fd5b80935050505095945050505050565b6040518060400160405280600181526020017f310000000000000000000000000000000000000000000000000000000000000081525081565b6000600880549050905090565b6000600b54905090565b610c3f610c396118e9565b82611ad0565b610c7e576040517f08c379a0000000000000000000000000000000000000000000000000000000008152600401610c7590613a54565b60405180910390fd5b610c89838383611bae565b505050565b6000600c60008373ffffffffffffffffffffffffffffffffffffffff1673ffffffffffffffffffffffffffffffffffffffff168152602001908152602001600020549050919050565b6000610ce283611068565b8210610d23576040517f08c379a0000000000000000000000000000000000000000000000000000000008152600401610d1a90613ae6565b60405180910390fd5b600660008473ffffffffffffffffffffffffffffffffffffffff1673ffffffffffffffffffffffffffffffffffffffff168152602001908152602001600020600083815260200190815260200160002054905092915050565b6000804690508091505090565b610da48383836040518060200160405280600081525061144c565b505050565b610db16118e9565b73ffffffffffffffffffffffffffffffffffffffff16610dcf61137a565b73ffffffffffffffffffffffffffffffffffffffff1614610e25576040517f08c379a0000000000000000000000000000000000000000000000000000000008152600401610e1c90613b52565b60405180910390fd5b610e2e84611e0a565b601060405180606001604052808581526020018481526020018381525090806001815401808255809150506001900390600052602060002090600302016000909190919091506000820151816000019080519060200190610e90929190612bf6565b506020820151816001019080519060200190610ead929190612bf6565b506040820151816002019080519060200190610eca929190612bf6565b5050507f433f3f89b626a2cb72dedf6610d07c0ac05901ae0679b24f11970dc11fbaa0e98460108054905060106001601080549050610f099190613ba1565b81548110610f1a57610f19613bd5565b5b9060005260206000209060030201604051610f3793929190613d07565b60405180910390a150505050565b6000610f4f610c17565b8210610f90576040517f08c379a0000000000000000000000000000000000000000000000000000000008152600401610f8790613db7565b60405180910390fd5b60088281548110610fa457610fa3613bd5565b5b90600052602060002001549050919050565b6000806002600084815260200190815260200160002060009054906101000a900473ffffffffffffffffffffffffffffffffffffffff169050600073ffffffffffffffffffffffffffffffffffffffff168173ffffffffffffffffffffffffffffffffffffffff16141561105f576040517f08c379a000000000000000000000000000000000000000000000000000000000815260040161105690613e49565b60405180910390fd5b80915050919050565b60008073ffffffffffffffffffffffffffffffffffffffff168273ffffffffffffffffffffffffffffffffffffffff1614156110d9576040517f08c379a00000000000000000000000000000000000000000000000000000000081526004016110d090613edb565b60405180910390fd5b600360008373ffffffffffffffffffffffffffffffffffffffff1673ffffffffffffffffffffffffffffffffffffffff168152602001908152602001600020549050919050565b6111286118e9565b73ffffffffffffffffffffffffffffffffffffffff1661114661137a565b73ffffffffffffffffffffffffffffffffffffffff161461119c576040517f08c379a000000000000000000000000000000000000000000000000000000000815260040161119390613b52565b60405180910390fd5b6111a66000611ea8565b565b601081815481106111b857600080fd5b90600052602060002090600302016000915090508060000180546111db906135da565b80601f0160208091040260200160405190810160405280929190818152602001828054611207906135da565b80156112545780601f1061122957610100808354040283529160200191611254565b820191906000526020600020905b81548152906001019060200180831161123757829003601f168201915b505050505090806001018054611269906135da565b80601f0160208091040260200160405190810160405280929190818152602001828054611295906135da565b80156112e25780601f106112b7576101008083540402835291602001916112e2565b820191906000526020600020905b8154815290600101906020018083116112c557829003601f168201915b5050505050908060020180546112f7906135da565b80601f0160208091040260200160405190810160405280929190818152602001828054611323906135da565b80156113705780601f1061134557610100808354040283529160200191611370565b820191906000526020600020905b81548152906001019060200180831161135357829003601f168201915b5050505050905083565b6000600d60009054906101000a900473ffffffffffffffffffffffffffffffffffffffff16905090565b6060600180546113b3906135da565b80601f01602080910402602001604051908101604052809291908181526020018280546113df906135da565b801561142c5780601f106114015761010080835404028352916020019161142c565b820191906000526020600020905b81548152906001019060200180831161140f57829003601f168201915b5050505050905090565b6114486114416118e9565b8383611f6e565b5050565b61145d6114576118e9565b83611ad0565b61149c576040517f08c379a000000000000000000000000000000000000000000000000000000000815260040161149390613a54565b60405180910390fd5b6114a8848484846120db565b50505050565b60606114b86114e8565b6114c183612137565b6040516020016114d2929190613f37565b6040516020818303038152906040529050919050565b606060405180602001604052806000815250905090565b600080600e60009054906101000a900473ffffffffffffffffffffffffffffffffffffffff1690508273ffffffffffffffffffffffffffffffffffffffff168173ffffffffffffffffffffffffffffffffffffffff1663c4552791866040518263ffffffff1660e01b81526004016115779190612ec7565b602060405180830381865afa158015611594573d6000803e3d6000fd5b505050506040513d601f19601f820116820180604052508101906115b89190613f99565b73ffffffffffffffffffffffffffffffffffffffff1614156115de5760019150506115ec565b6115e88484612298565b9150505b92915050565b6115fa6118e9565b73ffffffffffffffffffffffffffffffffffffffff1661161861137a565b73ffffffffffffffffffffffffffffffffffffffff161461166e576040517f08c379a000000000000000000000000000000000000000000000000000000000815260040161166590613b52565b60405180910390fd5b600073ffffffffffffffffffffffffffffffffffffffff168173ffffffffffffffffffffffffffffffffffffffff1614156116de576040517f08c379a00000000000000000000000000000000000000000000000000000000081526004016116d590614038565b60405180910390fd5b6116e781611ea8565b50565b60003073ffffffffffffffffffffffffffffffffffffffff163373ffffffffffffffffffffffffffffffffffffffff16141561179457600080368080601f016020809104026020016040519081016040528093929190818152602001838380828437600081840152601f19601f820116905080830192505050505050509050600080369050905073ffffffffffffffffffffffffffffffffffffffff818301511692505050611798565b3390505b90565b60007f80ac58cd000000000000000000000000000000000000000000000000000000007bffffffffffffffffffffffffffffffffffffffffffffffffffffffff1916827bffffffffffffffffffffffffffffffffffffffffffffffffffffffff1916148061186657507f5b5e139f000000000000000000000000000000000000000000000000000000007bffffffffffffffffffffffffffffffffffffffffffffffffffffffff1916827bffffffffffffffffffffffffffffffffffffffffffffffffffffffff1916145b8061187657506118758261232c565b5b9050919050565b60008073ffffffffffffffffffffffffffffffffffffffff166002600084815260200190815260200160002060009054906101000a900473ffffffffffffffffffffffffffffffffffffffff1673ffffffffffffffffffffffffffffffffffffffff1614159050919050565b60006118f36116ea565b905090565b816004600083815260200190815260200160002060006101000a81548173ffffffffffffffffffffffffffffffffffffffff021916908373ffffffffffffffffffffffffffffffffffffffff160217905550808273ffffffffffffffffffffffffffffffffffffffff1661196b83610fb6565b73ffffffffffffffffffffffffffffffffffffffff167f8c5be1e5ebec7d5bd14f71427d1e84f3dd0314c0f7b2291e5b200ac8c7c3b92560405160405180910390a45050565b60008073ffffffffffffffffffffffffffffffffffffffff168673ffffffffffffffffffffffffffffffffffffffff161415611a22576040517f08c379a0000000000000000000000000000000000000000000000000000000008152600401611a19906140ca565b60405180910390fd5b6001611a35611a3087612396565b6123fe565b83868660405160008152602001604052604051611a5594939291906140f9565b6020604051602081039080840390855afa158015611a77573d6000803e3d6000fd5b5050506020604051035173ffffffffffffffffffffffffffffffffffffffff168673ffffffffffffffffffffffffffffffffffffffff1614905095945050505050565b60008183611ac8919061413e565b905092915050565b6000611adb8261187d565b611b1a576040517f08c379a0000000000000000000000000000000000000000000000000000000008152600401611b1190614206565b60405180910390fd5b6000611b2583610fb6565b90508073ffffffffffffffffffffffffffffffffffffffff168473ffffffffffffffffffffffffffffffffffffffff161480611b9457508373ffffffffffffffffffffffffffffffffffffffff16611b7c846107cf565b73ffffffffffffffffffffffffffffffffffffffff16145b80611ba55750611ba481856114ff565b5b91505092915050565b8273ffffffffffffffffffffffffffffffffffffffff16611bce82610fb6565b73ffffffffffffffffffffffffffffffffffffffff1614611c24576040517f08c379a0000000000000000000000000000000000000000000000000000000008152600401611c1b90614298565b60405180910390fd5b600073ffffffffffffffffffffffffffffffffffffffff168273ffffffffffffffffffffffffffffffffffffffff161415611c94576040517f08c379a0000000000000000000000000000000000000000000000000000000008152600401611c8b9061432a565b60405180910390fd5b611c9f838383612437565b611caa6000826118f8565b6001600360008573ffffffffffffffffffffffffffffffffffffffff1673ffffffffffffffffffffffffffffffffffffffff1681526020019081526020016000206000828254611cfa9190613ba1565b925050819055506001600360008473ffffffffffffffffffffffffffffffffffffffff1673ffffffffffffffffffffffffffffffffffffffff1681526020019081526020016000206000828254611d51919061413e565b92505081905550816002600083815260200190815260200160002060006101000a81548173ffffffffffffffffffffffffffffffffffffffff021916908373ffffffffffffffffffffffffffffffffffffffff160217905550808273ffffffffffffffffffffffffffffffffffffffff168473ffffffffffffffffffffffffffffffffffffffff167fddf252ad1be2c89b69c2b068fc378daa952ba7f163c4a11628f55a4df523b3ef60405160405180910390a4505050565b611e126118e9565b73ffffffffffffffffffffffffffffffffffffffff16611e3061137a565b73ffffffffffffffffffffffffffffffffffffffff1614611e86576040517f08c379a0000000000000000000000000000000000000000000000000000000008152600401611e7d90613b52565b60405180910390fd5b6000611e9061254b565b9050611e9c8282612568565b611ea4612736565b5050565b6000600d60009054906101000a900473ffffffffffffffffffffffffffffffffffffffff16905081600d60006101000a81548173ffffffffffffffffffffffffffffffffffffffff021916908373ffffffffffffffffffffffffffffffffffffffff1602179055508173ffffffffffffffffffffffffffffffffffffffff168173ffffffffffffffffffffffffffffffffffffffff167f8be0079c531659141344cd1fd0a4f28419497f9722a3daafe3b4186f6b6457e060405160405180910390a35050565b8173ffffffffffffffffffffffffffffffffffffffff168373ffffffffffffffffffffffffffffffffffffffff161415611fdd576040517f08c379a0000000000000000000000000000000000000000000000000000000008152600401611fd490614396565b60405180910390fd5b80600560008573ffffffffffffffffffffffffffffffffffffffff1673ffffffffffffffffffffffffffffffffffffffff16815260200190815260200160002060008473ffffffffffffffffffffffffffffffffffffffff1673ffffffffffffffffffffffffffffffffffffffff16815260200190815260200160002060006101000a81548160ff0219169083151502179055508173ffffffffffffffffffffffffffffffffffffffff168373ffffffffffffffffffffffffffffffffffffffff167f17307eab39ab6107e8899845ad3d59bd9653f200f220920489ca2b5937696c31836040516120ce9190612d4d565b60405180910390a3505050565b6120e6848484611bae565b6120f284848484612750565b612131576040517f08c379a000000000000000000000000000000000000000000000000000000000815260040161212890614428565b60405180910390fd5b50505050565b6060600082141561217f576040518060400160405280600181526020017f30000000000000000000000000000000000000000000000000000000000000008152509050612293565b600082905060005b600082146121b157808061219a90614448565b915050600a826121aa91906144c0565b9150612187565b60008167ffffffffffffffff8111156121cd576121cc612f58565b5b6040519080825280601f01601f1916602001820160405280156121ff5781602001600182028036833780820191505090505b5090505b6000851461228c576001826122189190613ba1565b9150600a8561222791906144f1565b6030612233919061413e565b60f81b81838151811061224957612248613bd5565b5b60200101907effffffffffffffffffffffffffffffffffffffffffffffffffffffffffffff1916908160001a905350600a8561228591906144c0565b9450612203565b8093505050505b919050565b6000600560008473ffffffffffffffffffffffffffffffffffffffff1673ffffffffffffffffffffffffffffffffffffffff16815260200190815260200160002060008373ffffffffffffffffffffffffffffffffffffffff1673ffffffffffffffffffffffffffffffffffffffff16815260200190815260200160002060009054906101000a900460ff16905092915050565b60007f01ffc9a7000000000000000000000000000000000000000000000000000000007bffffffffffffffffffffffffffffffffffffffffffffffffffffffff1916827bffffffffffffffffffffffffffffffffffffffffffffffffffffffff1916149050919050565b60006040518060800160405280604381526020016147a16043913980519060200120826000015183602001518460400151805190602001206040516020016123e19493929190614522565b604051602081830303815290604052805190602001209050919050565b6000612408610c24565b8260405160200161241a9291906145d4565b604051602081830303815290604052805190602001209050919050565b6124428383836128d8565b600073ffffffffffffffffffffffffffffffffffffffff168373ffffffffffffffffffffffffffffffffffffffff16141561248557612480816128dd565b6124c4565b8173ffffffffffffffffffffffffffffffffffffffff168373ffffffffffffffffffffffffffffffffffffffff16146124c3576124c28382612926565b5b5b600073ffffffffffffffffffffffffffffffffffffffff168273ffffffffffffffffffffffffffffffffffffffff1614156125075761250281612a93565b612546565b8273ffffffffffffffffffffffffffffffffffffffff168273ffffffffffffffffffffffffffffffffffffffff1614612545576125448282612b64565b5b5b505050565b60006125636001600f54611aba90919063ffffffff16565b905090565b600073ffffffffffffffffffffffffffffffffffffffff168273ffffffffffffffffffffffffffffffffffffffff1614156125d8576040517f08c379a00000000000000000000000000000000000000000000000000000000081526004016125cf90614657565b60405180910390fd5b6125e18161187d565b15612621576040517f08c379a0000000000000000000000000000000000000000000000000000000008152600401612618906146c3565b60405180910390fd5b61262d60008383612437565b6001600360008473ffffffffffffffffffffffffffffffffffffffff1673ffffffffffffffffffffffffffffffffffffffff168152602001908152602001600020600082825461267d919061413e565b92505081905550816002600083815260200190815260200160002060006101000a81548173ffffffffffffffffffffffffffffffffffffffff021916908373ffffffffffffffffffffffffffffffffffffffff160217905550808273ffffffffffffffffffffffffffffffffffffffff16600073ffffffffffffffffffffffffffffffffffffffff167fddf252ad1be2c89b69c2b068fc378daa952ba7f163c4a11628f55a4df523b3ef60405160405180910390a45050565b600f600081548092919061274990614448565b9190505550565b60006127718473ffffffffffffffffffffffffffffffffffffffff16612be3565b156128cb578373ffffffffffffffffffffffffffffffffffffffff1663150b7a0261279a6118e9565b8786866040518563ffffffff1660e01b81526004016127bc94939291906146e3565b6020604051808303816000875af19250505080156127f857506040513d601f19601f820116820180604052508101906127f59190614744565b60015b61287b573d8060008114612828576040519150601f19603f3d011682016040523d82523d6000602084013e61282d565b606091505b50600081511415612873576040517f08c379a000000000000000000000000000000000000000000000000000000000815260040161286a90614428565b60405180910390fd5b805181602001fd5b63150b7a0260e01b7bffffffffffffffffffffffffffffffffffffffffffffffffffffffff1916817bffffffffffffffffffffffffffffffffffffffffffffffffffffffff1916149150506128d0565b600190505b949350505050565b505050565b6008805490506009600083815260200190815260200160002081905550600881908060018154018082558091505060019003906000526020600020016000909190919091505550565b6000600161293384611068565b61293d9190613ba1565b9050600060076000848152602001908152602001600020549050818114612a22576000600660008673ffffffffffffffffffffffffffffffffffffffff1673ffffffffffffffffffffffffffffffffffffffff168152602001908152602001600020600084815260200190815260200160002054905080600660008773ffffffffffffffffffffffffffffffffffffffff1673ffffffffffffffffffffffffffffffffffffffff168152602001908152602001600020600084815260200190815260200160002081905550816007600083815260200190815260200160002081905550505b6007600084815260200190815260200160002060009055600660008573ffffffffffffffffffffffffffffffffffffffff1673ffffffffffffffffffffffffffffffffffffffff16815260200190815260200160002060008381526020019081526020016000206000905550505050565b60006001600880549050612aa79190613ba1565b9050600060096000848152602001908152602001600020549050600060088381548110612ad757612ad6613bd5565b5b906000526020600020015490508060088381548110612af957612af8613bd5565b5b906000526020600020018190555081600960008381526020019081526020016000208190555060096000858152602001908152602001600020600090556008805480612b4857612b47614771565b5b6001900381819060005260206000200160009055905550505050565b6000612b6f83611068565b905081600660008573ffffffffffffffffffffffffffffffffffffffff1673ffffffffffffffffffffffffffffffffffffffff168152602001908152602001600020600083815260200190815260200160002081905550806007600084815260200190815260200160002081905550505050565b600080823b905060008111915050919050565b828054612c02906135da565b90600052602060002090601f016020900481019282612c245760008555612c6b565b82601f10612c3d57805160ff1916838001178555612c6b565b82800160010185558215612c6b579182015b82811115612c6a578251825591602001919060010190612c4f565b5b509050612c789190612c7c565b5090565b5b80821115612c95576000816000905550600101612c7d565b5090565b6000604051905090565b600080fd5b600080fd5b60007fffffffff0000000000000000000000000000000000000000000000000000000082169050919050565b612ce281612cad565b8114612ced57600080fd5b50565b600081359050612cff81612cd9565b92915050565b600060208284031215612d1b57612d1a612ca3565b5b6000612d2984828501612cf0565b91505092915050565b60008115159050919050565b612d4781612d32565b82525050565b6000602082019050612d626000830184612d3e565b92915050565b600081519050919050565b600082825260208201905092915050565b60005b83811015612da2578082015181840152602081019050612d87565b83811115612db1576000848401525b50505050565b6000601f19601f8301169050919050565b6000612dd382612d68565b612ddd8185612d73565b9350612ded818560208601612d84565b612df681612db7565b840191505092915050565b60006020820190508181036000830152612e1b8184612dc8565b905092915050565b6000819050919050565b612e3681612e23565b8114612e4157600080fd5b50565b600081359050612e5381612e2d565b92915050565b600060208284031215612e6f57612e6e612ca3565b5b6000612e7d84828501612e44565b91505092915050565b600073ffffffffffffffffffffffffffffffffffffffff82169050919050565b6000612eb182612e86565b9050919050565b612ec181612ea6565b82525050565b6000602082019050612edc6000830184612eb8565b92915050565b612eeb81612ea6565b8114612ef657600080fd5b50565b600081359050612f0881612ee2565b92915050565b60008060408385031215612f2557612f24612ca3565b5b6000612f3385828601612ef9565b9250506020612f4485828601612e44565b9150509250929050565b600080fd5b600080fd5b7f4e487b7100000000000000000000000000000000000000000000000000000000600052604160045260246000fd5b612f9082612db7565b810181811067ffffffffffffffff82111715612faf57612fae612f58565b5b80604052505050565b6000612fc2612c99565b9050612fce8282612f87565b919050565b600067ffffffffffffffff821115612fee57612fed612f58565b5b612ff782612db7565b9050602081019050919050565b82818337600083830152505050565b600061302661302184612fd3565b612fb8565b90508281526020810184848401111561304257613041612f53565b5b61304d848285613004565b509392505050565b600082601f83011261306a57613069612f4e565b5b813561307a848260208601613013565b91505092915050565b6000819050919050565b61309681613083565b81146130a157600080fd5b50565b6000813590506130b38161308d565b92915050565b600060ff82169050919050565b6130cf816130b9565b81146130da57600080fd5b50565b6000813590506130ec816130c6565b92915050565b600080600080600060a0868803121561310e5761310d612ca3565b5b600061311c88828901612ef9565b955050602086013567ffffffffffffffff81111561313d5761313c612ca8565b5b61314988828901613055565b945050604061315a888289016130a4565b935050606061316b888289016130a4565b925050608061317c888289016130dd565b9150509295509295909350565b600081519050919050565b600082825260208201905092915050565b60006131b082613189565b6131ba8185613194565b93506131ca818560208601612d84565b6131d381612db7565b840191505092915050565b600060208201905081810360008301526131f881846131a5565b905092915050565b61320981612e23565b82525050565b60006020820190506132246000830184613200565b92915050565b61323381613083565b82525050565b600060208201905061324e600083018461322a565b92915050565b60008060006060848603121561326d5761326c612ca3565b5b600061327b86828701612ef9565b935050602061328c86828701612ef9565b925050604061329d86828701612e44565b9150509250925092565b6000602082840312156132bd576132bc612ca3565b5b60006132cb84828501612ef9565b91505092915050565b600067ffffffffffffffff8211156132ef576132ee612f58565b5b6132f882612db7565b9050602081019050919050565b6000613318613313846132d4565b612fb8565b90508281526020810184848401111561333457613333612f53565b5b61333f848285613004565b509392505050565b600082601f83011261335c5761335b612f4e565b5b813561336c848260208601613305565b91505092915050565b6000806000806080858703121561338f5761338e612ca3565b5b600061339d87828801612ef9565b945050602085013567ffffffffffffffff8111156133be576133bd612ca8565b5b6133ca87828801613347565b935050604085013567ffffffffffffffff8111156133eb576133ea612ca8565b5b6133f787828801613347565b925050606085013567ffffffffffffffff81111561341857613417612ca8565b5b61342487828801613347565b91505092959194509250565b6000606082019050818103600083015261344a8186612dc8565b9050818103602083015261345e8185612dc8565b905081810360408301526134728184612dc8565b9050949350505050565b61348581612d32565b811461349057600080fd5b50565b6000813590506134a28161347c565b92915050565b600080604083850312156134bf576134be612ca3565b5b60006134cd85828601612ef9565b92505060206134de85828601613493565b9150509250929050565b6000806000806080858703121561350257613501612ca3565b5b600061351087828801612ef9565b945050602061352187828801612ef9565b935050604061353287828801612e44565b925050606085013567ffffffffffffffff81111561355357613552612ca8565b5b61355f87828801613055565b91505092959194509250565b6000806040838503121561358257613581612ca3565b5b600061359085828601612ef9565b92505060206135a185828601612ef9565b9150509250929050565b7f4e487b7100000000000000000000000000000000000000000000000000000000600052602260045260246000fd5b600060028204905060018216806135f257607f821691505b60208210811415613606576136056135ab565b5b50919050565b7f4552433732313a20617070726f76656420717565727920666f72206e6f6e657860008201527f697374656e7420746f6b656e0000000000000000000000000000000000000000602082015250565b6000613668602c83612d73565b91506136738261360c565b604082019050919050565b600060208201905081810360008301526136978161365b565b9050919050565b7f4552433732313a20617070726f76616c20746f2063757272656e74206f776e6560008201527f7200000000000000000000000000000000000000000000000000000000000000602082015250565b60006136fa602183612d73565b91506137058261369e565b604082019050919050565b60006020820190508181036000830152613729816136ed565b9050919050565b7f4552433732313a20617070726f76652063616c6c6572206973206e6f74206f7760008201527f6e6572206e6f7220617070726f76656420666f7220616c6c0000000000000000602082015250565b600061378c603883612d73565b915061379782613730565b604082019050919050565b600060208201905081810360008301526137bb8161377f565b9050919050565b7f5369676e657220616e64207369676e617475726520646f206e6f74206d61746360008201527f6800000000000000000000000000000000000000000000000000000000000000602082015250565b600061381e602183612d73565b9150613829826137c2565b604082019050919050565b6000602082019050818103600083015261384d81613811565b9050919050565b600061385f82612e86565b9050919050565b61386f81613854565b82525050565b600060608201905061388a6000830186612eb8565b6138976020830185613866565b81810360408301526138a981846131a5565b9050949350505050565b600081905092915050565b60006138c982613189565b6138d381856138b3565b93506138e3818560208601612d84565b80840191505092915050565b60008160601b9050919050565b6000613907826138ef565b9050919050565b6000613919826138fc565b9050919050565b61393161392c82612ea6565b61390e565b82525050565b600061394382856138be565b915061394f8284613920565b6014820191508190509392505050565b600061396b82846138be565b915081905092915050565b7f46756e6374696f6e2063616c6c206e6f74207375636365737366756c00000000600082015250565b60006139ac601c83612d73565b91506139b782613976565b602082019050919050565b600060208201905081810360008301526139db8161399f565b9050919050565b7f4552433732313a207472616e736665722063616c6c6572206973206e6f74206f60008201527f776e6572206e6f7220617070726f766564000000000000000000000000000000602082015250565b6000613a3e603183612d73565b9150613a49826139e2565b604082019050919050565b60006020820190508181036000830152613a6d81613a31565b9050919050565b7f455243373231456e756d657261626c653a206f776e657220696e646578206f7560008201527f74206f6620626f756e6473000000000000000000000000000000000000000000602082015250565b6000613ad0602b83612d73565b9150613adb82613a74565b604082019050919050565b60006020820190508181036000830152613aff81613ac3565b9050919050565b7f4f776e61626c653a2063616c6c6572206973206e6f7420746865206f776e6572600082015250565b6000613b3c602083612d73565b9150613b4782613b06565b602082019050919050565b60006020820190508181036000830152613b6b81613b2f565b9050919050565b7f4e487b7100000000000000000000000000000000000000000000000000000000600052601160045260246000fd5b6000613bac82612e23565b9150613bb783612e23565b925082821015613bca57613bc9613b72565b5b828203905092915050565b7f4e487b7100000000000000000000000000000000000000000000000000000000600052603260045260246000fd5b600082825260208201905092915050565b60008190508160005260206000209050919050565b60008154613c37816135da565b613c418186613c04565b94506001821660008114613c5c5760018114613c6e57613ca1565b60ff1983168652602086019350613ca1565b613c7785613c15565b60005b83811015613c9957815481890152600182019150602081019050613c7a565b808801955050505b50505092915050565b60006060830160008084018583036000870152613cc78382613c2a565b925050600184018583036020870152613ce08382613c2a565b925050600284018583036040870152613cf98382613c2a565b925050819250505092915050565b6000606082019050613d1c6000830186612eb8565b613d296020830185613200565b8181036040830152613d3b8184613caa565b9050949350505050565b7f455243373231456e756d657261626c653a20676c6f62616c20696e646578206f60008201527f7574206f6620626f756e64730000000000000000000000000000000000000000602082015250565b6000613da1602c83612d73565b9150613dac82613d45565b604082019050919050565b60006020820190508181036000830152613dd081613d94565b9050919050565b7f4552433732313a206f776e657220717565727920666f72206e6f6e657869737460008201527f656e7420746f6b656e0000000000000000000000000000000000000000000000602082015250565b6000613e33602983612d73565b9150613e3e82613dd7565b604082019050919050565b60006020820190508181036000830152613e6281613e26565b9050919050565b7f4552433732313a2062616c616e636520717565727920666f7220746865207a6560008201527f726f206164647265737300000000000000000000000000000000000000000000602082015250565b6000613ec5602a83612d73565b9150613ed082613e69565b604082019050919050565b60006020820190508181036000830152613ef481613eb8565b9050919050565b600081905092915050565b6000613f1182612d68565b613f1b8185613efb565b9350613f2b818560208601612d84565b80840191505092915050565b6000613f438285613f06565b9150613f4f8284613f06565b91508190509392505050565b6000613f6682612ea6565b9050919050565b613f7681613f5b565b8114613f8157600080fd5b50565b600081519050613f9381613f6d565b92915050565b600060208284031215613faf57613fae612ca3565b5b6000613fbd84828501613f84565b91505092915050565b7f4f776e61626c653a206e6577206f776e657220697320746865207a65726f206160008201527f6464726573730000000000000000000000000000000000000000000000000000602082015250565b6000614022602683612d73565b915061402d82613fc6565b604082019050919050565b6000602082019050818103600083015261405181614015565b9050919050565b7f4e61746976654d6574615472616e73616374696f6e3a20494e56414c49445f5360008201527f49474e4552000000000000000000000000000000000000000000000000000000602082015250565b60006140b4602583612d73565b91506140bf82614058565b604082019050919050565b600060208201905081810360008301526140e3816140a7565b9050919050565b6140f3816130b9565b82525050565b600060808201905061410e600083018761322a565b61411b60208301866140ea565b614128604083018561322a565b614135606083018461322a565b95945050505050565b600061414982612e23565b915061415483612e23565b9250827fffffffffffffffffffffffffffffffffffffffffffffffffffffffffffffffff0382111561418957614188613b72565b5b828201905092915050565b7f4552433732313a206f70657261746f7220717565727920666f72206e6f6e657860008201527f697374656e7420746f6b656e0000000000000000000000000000000000000000602082015250565b60006141f0602c83612d73565b91506141fb82614194565b604082019050919050565b6000602082019050818103600083015261421f816141e3565b9050919050565b7f4552433732313a207472616e73666572206f6620746f6b656e2074686174206960008201527f73206e6f74206f776e0000000000000000000000000000000000000000000000602082015250565b6000614282602983612d73565b915061428d82614226565b604082019050919050565b600060208201905081810360008301526142b181614275565b9050919050565b7f4552433732313a207472616e7366657220746f20746865207a65726f2061646460008201527f7265737300000000000000000000000000000000000000000000000000000000602082015250565b6000614314602483612d73565b915061431f826142b8565b604082019050919050565b6000602082019050818103600083015261434381614307565b9050919050565b7f4552433732313a20617070726f766520746f2063616c6c657200000000000000600082015250565b6000614380601983612d73565b915061438b8261434a565b602082019050919050565b600060208201905081810360008301526143af81614373565b9050919050565b7f4552433732313a207472616e7366657220746f206e6f6e20455243373231526560008201527f63656976657220696d706c656d656e7465720000000000000000000000000000602082015250565b6000614412603283612d73565b915061441d826143b6565b604082019050919050565b6000602082019050818103600083015261444181614405565b9050919050565b600061445382612e23565b91507fffffffffffffffffffffffffffffffffffffffffffffffffffffffffffffffff82141561448657614485613b72565b5b600182019050919050565b7f4e487b7100000000000000000000000000000000000000000000000000000000600052601260045260246000fd5b60006144cb82612e23565b91506144d683612e23565b9250826144e6576144e5614491565b5b828204905092915050565b60006144fc82612e23565b915061450783612e23565b92508261451757614516614491565b5b828206905092915050565b6000608082019050614537600083018761322a565b6145446020830186613200565b6145516040830185612eb8565b61455e606083018461322a565b95945050505050565b7f1901000000000000000000000000000000000000000000000000000000000000600082015250565b600061459d600283613efb565b91506145a882614567565b600282019050919050565b6000819050919050565b6145ce6145c982613083565b6145b3565b82525050565b60006145df82614590565b91506145eb82856145bd565b6020820191506145fb82846145bd565b6020820191508190509392505050565b7f4552433732313a206d696e7420746f20746865207a65726f2061646472657373600082015250565b6000614641602083612d73565b915061464c8261460b565b602082019050919050565b6000602082019050818103600083015261467081614634565b9050919050565b7f4552433732313a20746f6b656e20616c7265616479206d696e74656400000000600082015250565b60006146ad601c83612d73565b91506146b882614677565b602082019050919050565b600060208201905081810360008301526146dc816146a0565b9050919050565b60006080820190506146f86000830187612eb8565b6147056020830186612eb8565b6147126040830185613200565b818103606083015261472481846131a5565b905095945050505050565b60008151905061473e81612cd9565b92915050565b60006020828403121561475a57614759612ca3565b5b60006147688482850161472f565b91505092915050565b7f4e487b7100000000000000000000000000000000000000000000000000000000600052603160045260246000fdfe4d6574615472616e73616374696f6e2875696e74323536206e6f6e63652c616464726573732066726f6d2c62797465732066756e6374696f6e5369676e617475726529a2646970667358221220f5eb610912dbb3033b288718383d8713e6fcbcec9c45a2e4a4252944a09e2f5a64736f6c634300080a0033454950373132446f6d61696e28737472696e67206e616d652c737472696e672076657273696f6e2c6164647265737320766572696679696e67436f6e74726163742c627974657333322073616c7429",
  "immutableReferences": {},
  "source": "pragma solidity >=0.4.22 <0.9.0;\n\nimport \"@openzeppelin/contracts/access/Ownable.sol\";\nimport \"./ERC721Tradable.sol\";\n\ncontract Human is ERC721Tradable {\n\n  // event Mint(address to, uint tokenId, string name, string descriptiom, string hash);\n  event Mint(address to, uint tokenId, VHuman human);\n\n  struct VHuman {\n    string name;\n    string description;\n    string hash;\n  }\n\n  VHuman[] public humans;\n  \n  constructor(address _proxyRegistryAddress)\n      ERC721Tradable(\"Human\", \"HUM\", _proxyRegistryAddress)\n  {}\n\n  function baseTokenURI() override public pure returns (string memory) {\n    return \"\";\n  }\n\n  function mint(address to, string memory name, string memory description, string memory hash) public onlyOwner{\n    mintTo(to);\n    humans.push(VHuman(name, description, hash));\n    emit Mint(to, humans.length, humans[humans.length - 1]);\n  }\n}",
  "sourcePath": "/Users/klleon/workspace/blockchain/vhuman/contracts/Human.sol",
  "compiler": {
    "name": "solc",
    "version": "0.8.10+commit.fc410830.Emscripten.clang"
  },
  "schemaVersion": "3.4.3",
  "updatedAt": "2021-12-17T02:37:51.808Z",
  "networkType": "ethereum",
  "devdoc": {
    "kind": "dev",
    "methods": {
      "approve(address,uint256)": {
        "details": "See {IERC721-approve}."
      },
      "balanceOf(address)": {
        "details": "See {IERC721-balanceOf}."
      },
      "getApproved(uint256)": {
        "details": "See {IERC721-getApproved}."
      },
      "name()": {
        "details": "See {IERC721Metadata-name}."
      },
      "owner()": {
        "details": "Returns the address of the current owner."
      },
      "ownerOf(uint256)": {
        "details": "See {IERC721-ownerOf}."
      },
      "renounceOwnership()": {
        "details": "Leaves the contract without owner. It will not be possible to call `onlyOwner` functions anymore. Can only be called by the current owner. NOTE: Renouncing ownership will leave the contract without an owner, thereby removing any functionality that is only available to the owner."
      },
      "safeTransferFrom(address,address,uint256)": {
        "details": "See {IERC721-safeTransferFrom}."
      },
      "safeTransferFrom(address,address,uint256,bytes)": {
        "details": "See {IERC721-safeTransferFrom}."
      },
      "setApprovalForAll(address,bool)": {
        "details": "See {IERC721-setApprovalForAll}."
      },
      "supportsInterface(bytes4)": {
        "details": "See {IERC165-supportsInterface}."
      },
      "symbol()": {
        "details": "See {IERC721Metadata-symbol}."
      },
      "tokenByIndex(uint256)": {
        "details": "See {IERC721Enumerable-tokenByIndex}."
      },
      "tokenOfOwnerByIndex(address,uint256)": {
        "details": "See {IERC721Enumerable-tokenOfOwnerByIndex}."
      },
      "totalSupply()": {
        "details": "See {IERC721Enumerable-totalSupply}."
      },
      "transferFrom(address,address,uint256)": {
        "details": "See {IERC721-transferFrom}."
      },
      "transferOwnership(address)": {
        "details": "Transfers ownership of the contract to a new account (`newOwner`). Can only be called by the current owner."
      }
    },
    "version": 1
  },
  "userdoc": {
    "kind": "user",
    "methods": {
      "isApprovedForAll(address,address)": {
        "notice": "Override isApprovedForAll to whitelist user's OpenSea proxy accounts to enable gas-less listings."
      }
    },
    "version": 1
  }
}