{
  "contractName": "NativeMetaTransaction",
  "abi": [
    {
      "anonymous": false,
      "inputs": [
        {
          "indexed": false,
          "internalType": "address",
          "name": "userAddress",
          "type": "address"
        },
        {
          "indexed": false,
          "internalType": "address payable",
          "name": "relayerAddress",
          "type": "address"
        },
        {
          "indexed": false,
          "internalType": "bytes",
          "name": "functionSignature",
          "type": "bytes"
        }
      ],
      "name": "MetaTransactionExecuted",
      "type": "event"
    },
    {
      "inputs": [],
      "name": "ERC712_VERSION",
      "outputs": [
        {
          "internalType": "string",
          "name": "",
          "type": "string"
        }
      ],
      "stateMutability": "view",
      "type": "function"
    },
    {
      "inputs": [],
      "name": "getChainId",
      "outputs": [
        {
          "internalType": "uint256",
          "name": "",
          "type": "uint256"
        }
      ],
      "stateMutability": "view",
      "type": "function"
    },
    {
      "inputs": [],
      "name": "getDomainSeperator",
      "outputs": [
        {
          "internalType": "bytes32",
          "name": "",
          "type": "bytes32"
        }
      ],
      "stateMutability": "view",
      "type": "function"
    },
    {
      "inputs": [
        {
          "internalType": "address",
          "name": "userAddress",
          "type": "address"
        },
        {
          "internalType": "bytes",
          "name": "functionSignature",
          "type": "bytes"
        },
        {
          "internalType": "bytes32",
          "name": "sigR",
          "type": "bytes32"
        },
        {
          "internalType": "bytes32",
          "name": "sigS",
          "type": "bytes32"
        },
        {
          "internalType": "uint8",
          "name": "sigV",
          "type": "uint8"
        }
      ],
      "name": "executeMetaTransaction",
      "outputs": [
        {
          "internalType": "bytes",
          "name": "",
          "type": "bytes"
        }
      ],
      "stateMutability": "payable",
      "type": "function"
    },
    {
      "inputs": [
        {
          "internalType": "address",
          "name": "user",
          "type": "address"
        }
      ],
      "name": "getNonce",
      "outputs": [
        {
          "internalType": "uint256",
          "name": "nonce",
          "type": "uint256"
        }
      ],
      "stateMutability": "view",
      "type": "function"
    }
  ],
  "bytecode": "0x608060405260008060006101000a81548160ff02191690831515021790555034801561002a57600080fd5b50610f798061003a6000396000f3fe60806040526004361061004a5760003560e01c80630c53c51c1461004f5780630f7e59701461007f57806320379ee5146100aa5780632d0335ab146100d55780633408e47014610112575b600080fd5b6100696004803603810190610064919061082f565b61013d565b604051610076919061094e565b60405180910390f35b34801561008b57600080fd5b506100946103af565b6040516100a191906109c5565b60405180910390f35b3480156100b657600080fd5b506100bf6103e8565b6040516100cc91906109f6565b60405180910390f35b3480156100e157600080fd5b506100fc60048036038101906100f79190610a11565b6103f2565b6040516101099190610a57565b60405180910390f35b34801561011e57600080fd5b5061012761043b565b6040516101349190610a57565b60405180910390f35b606060006040518060600160405280600260008a73ffffffffffffffffffffffffffffffffffffffff1673ffffffffffffffffffffffffffffffffffffffff1681526020019081526020016000205481526020018873ffffffffffffffffffffffffffffffffffffffff1681526020018781525090506101c08782878787610448565b6101ff576040517f08c379a00000000000000000000000000000000000000000000000000000000081526004016101f690610ae4565b60405180910390fd5b6102526001600260008a73ffffffffffffffffffffffffffffffffffffffff1673ffffffffffffffffffffffffffffffffffffffff1681526020019081526020016000205461055190919063ffffffff16565b600260008973ffffffffffffffffffffffffffffffffffffffff1673ffffffffffffffffffffffffffffffffffffffff168152602001908152602001600020819055507f5845892132946850460bff5a0083f71031bc5bf9aadcd40f1de79423eac9b10b8733886040516102c893929190610b34565b60405180910390a16000803073ffffffffffffffffffffffffffffffffffffffff16888a6040516020016102fd929190610bf6565b6040516020818303038152906040526040516103199190610c1e565b6000604051808303816000865af19150503d8060008114610356576040519150601f19603f3d011682016040523d82523d6000602084013e61035b565b606091505b5091509150816103a0576040517f08c379a000000000000000000000000000000000000000000000000000000000815260040161039790610c81565b60405180910390fd5b80935050505095945050505050565b6040518060400160405280600181526020017f310000000000000000000000000000000000000000000000000000000000000081525081565b6000600154905090565b6000600260008373ffffffffffffffffffffffffffffffffffffffff1673ffffffffffffffffffffffffffffffffffffffff168152602001908152602001600020549050919050565b6000804690508091505090565b60008073ffffffffffffffffffffffffffffffffffffffff168673ffffffffffffffffffffffffffffffffffffffff1614156104b9576040517f08c379a00000000000000000000000000000000000000000000000000000000081526004016104b090610d13565b60405180910390fd5b60016104cc6104c787610567565b6105cf565b838686604051600081526020016040526040516104ec9493929190610d42565b6020604051602081039080840390855afa15801561050e573d6000803e3d6000fd5b5050506020604051035173ffffffffffffffffffffffffffffffffffffffff168673ffffffffffffffffffffffffffffffffffffffff1614905095945050505050565b6000818361055f9190610db6565b905092915050565b6000604051806080016040528060438152602001610f016043913980519060200120826000015183602001518460400151805190602001206040516020016105b29493929190610e0c565b604051602081830303815290604052805190602001209050919050565b60006105d96103e8565b826040516020016105eb929190610ec9565b604051602081830303815290604052805190602001209050919050565b6000604051905090565b600080fd5b600080fd5b600073ffffffffffffffffffffffffffffffffffffffff82169050919050565b60006106478261061c565b9050919050565b6106578161063c565b811461066257600080fd5b50565b6000813590506106748161064e565b92915050565b600080fd5b600080fd5b6000601f19601f8301169050919050565b7f4e487b7100000000000000000000000000000000000000000000000000000000600052604160045260246000fd5b6106cd82610684565b810181811067ffffffffffffffff821117156106ec576106eb610695565b5b80604052505050565b60006106ff610608565b905061070b82826106c4565b919050565b600067ffffffffffffffff82111561072b5761072a610695565b5b61073482610684565b9050602081019050919050565b82818337600083830152505050565b600061076361075e84610710565b6106f5565b90508281526020810184848401111561077f5761077e61067f565b5b61078a848285610741565b509392505050565b600082601f8301126107a7576107a661067a565b5b81356107b7848260208601610750565b91505092915050565b6000819050919050565b6107d3816107c0565b81146107de57600080fd5b50565b6000813590506107f0816107ca565b92915050565b600060ff82169050919050565b61080c816107f6565b811461081757600080fd5b50565b60008135905061082981610803565b92915050565b600080600080600060a0868803121561084b5761084a610612565b5b600061085988828901610665565b955050602086013567ffffffffffffffff81111561087a57610879610617565b5b61088688828901610792565b9450506040610897888289016107e1565b93505060606108a8888289016107e1565b92505060806108b98882890161081a565b9150509295509295909350565b600081519050919050565b600082825260208201905092915050565b60005b838110156109005780820151818401526020810190506108e5565b8381111561090f576000848401525b50505050565b6000610920826108c6565b61092a81856108d1565b935061093a8185602086016108e2565b61094381610684565b840191505092915050565b600060208201905081810360008301526109688184610915565b905092915050565b600081519050919050565b600082825260208201905092915050565b600061099782610970565b6109a1818561097b565b93506109b18185602086016108e2565b6109ba81610684565b840191505092915050565b600060208201905081810360008301526109df818461098c565b905092915050565b6109f0816107c0565b82525050565b6000602082019050610a0b60008301846109e7565b92915050565b600060208284031215610a2757610a26610612565b5b6000610a3584828501610665565b91505092915050565b6000819050919050565b610a5181610a3e565b82525050565b6000602082019050610a6c6000830184610a48565b92915050565b7f5369676e657220616e64207369676e617475726520646f206e6f74206d61746360008201527f6800000000000000000000000000000000000000000000000000000000000000602082015250565b6000610ace60218361097b565b9150610ad982610a72565b604082019050919050565b60006020820190508181036000830152610afd81610ac1565b9050919050565b610b0d8161063c565b82525050565b6000610b1e8261061c565b9050919050565b610b2e81610b13565b82525050565b6000606082019050610b496000830186610b04565b610b566020830185610b25565b8181036040830152610b688184610915565b9050949350505050565b600081905092915050565b6000610b88826108c6565b610b928185610b72565b9350610ba28185602086016108e2565b80840191505092915050565b60008160601b9050919050565b6000610bc682610bae565b9050919050565b6000610bd882610bbb565b9050919050565b610bf0610beb8261063c565b610bcd565b82525050565b6000610c028285610b7d565b9150610c0e8284610bdf565b6014820191508190509392505050565b6000610c2a8284610b7d565b915081905092915050565b7f46756e6374696f6e2063616c6c206e6f74207375636365737366756c00000000600082015250565b6000610c6b601c8361097b565b9150610c7682610c35565b602082019050919050565b60006020820190508181036000830152610c9a81610c5e565b9050919050565b7f4e61746976654d6574615472616e73616374696f6e3a20494e56414c49445f5360008201527f49474e4552000000000000000000000000000000000000000000000000000000602082015250565b6000610cfd60258361097b565b9150610d0882610ca1565b604082019050919050565b60006020820190508181036000830152610d2c81610cf0565b9050919050565b610d3c816107f6565b82525050565b6000608082019050610d5760008301876109e7565b610d646020830186610d33565b610d7160408301856109e7565b610d7e60608301846109e7565b95945050505050565b7f4e487b7100000000000000000000000000000000000000000000000000000000600052601160045260246000fd5b6000610dc182610a3e565b9150610dcc83610a3e565b9250827fffffffffffffffffffffffffffffffffffffffffffffffffffffffffffffffff03821115610e0157610e00610d87565b5b828201905092915050565b6000608082019050610e2160008301876109e7565b610e2e6020830186610a48565b610e3b6040830185610b04565b610e4860608301846109e7565b95945050505050565b600081905092915050565b7f1901000000000000000000000000000000000000000000000000000000000000600082015250565b6000610e92600283610e51565b9150610e9d82610e5c565b600282019050919050565b6000819050919050565b610ec3610ebe826107c0565b610ea8565b82525050565b6000610ed482610e85565b9150610ee08285610eb2565b602082019150610ef08284610eb2565b602082019150819050939250505056fe4d6574615472616e73616374696f6e2875696e74323536206e6f6e63652c616464726573732066726f6d2c62797465732066756e6374696f6e5369676e617475726529a2646970667358221220fcd450e7f1c9c0ae9d27537611dbae0351a35ffaf31e7c5d6ed0159a212acda464736f6c634300080a0033",
  "immutableReferences": {},
  "source": "pragma solidity >=0.4.22 <0.9.0;\n\nimport { SafeMath } from  \"@openzeppelin/contracts/utils/math/SafeMath.sol\";\nimport { EIP712Base } from \"./EIP712Base.sol\";\n\ncontract NativeMetaTransaction is EIP712Base {\n    using SafeMath for uint256;\n    bytes32 private constant META_TRANSACTION_TYPEHASH = keccak256(\n        bytes(\n            \"MetaTransaction(uint256 nonce,address from,bytes functionSignature)\"\n        )\n    );\n    event MetaTransactionExecuted(\n        address userAddress,\n        address payable relayerAddress,\n        bytes functionSignature\n    );\n    mapping(address => uint256) nonces;\n\n    /*\n     * Meta transaction structure.\n     * No point of including value field here as if user is doing value transfer then he has the funds to pay for gas\n     * He should call the desired function directly in that case.\n     */\n    struct MetaTransaction {\n        uint256 nonce;\n        address from;\n        bytes functionSignature;\n    }\n\n    function executeMetaTransaction(\n        address userAddress,\n        bytes memory functionSignature,\n        bytes32 sigR,\n        bytes32 sigS,\n        uint8 sigV\n    ) public payable returns (bytes memory) {\n        MetaTransaction memory metaTx = MetaTransaction({\n            nonce: nonces[userAddress],\n            from: userAddress,\n            functionSignature: functionSignature\n        });\n\n        require(\n            verify(userAddress, metaTx, sigR, sigS, sigV),\n            \"Signer and signature do not match\"\n        );\n\n        // increase nonce for user (to avoid re-use)\n        nonces[userAddress] = nonces[userAddress].add(1);\n\n        emit MetaTransactionExecuted(\n            userAddress,\n            payable(msg.sender),\n            functionSignature\n        );\n\n        // Append userAddress and relayer address at the end to extract it from calling context\n        (bool success, bytes memory returnData) = address(this).call(\n            abi.encodePacked(functionSignature, userAddress)\n        );\n        require(success, \"Function call not successful\");\n\n        return returnData;\n    }\n\n    function hashMetaTransaction(MetaTransaction memory metaTx)\n        internal\n        pure\n        returns (bytes32)\n    {\n        return\n            keccak256(\n                abi.encode(\n                    META_TRANSACTION_TYPEHASH,\n                    metaTx.nonce,\n                    metaTx.from,\n                    keccak256(metaTx.functionSignature)\n                )\n            );\n    }\n\n    function getNonce(address user) public view returns (uint256 nonce) {\n        nonce = nonces[user];\n    }\n\n    function verify(\n        address signer,\n        MetaTransaction memory metaTx,\n        bytes32 sigR,\n        bytes32 sigS,\n        uint8 sigV\n    ) internal view returns (bool) {\n        require(signer != address(0), \"NativeMetaTransaction: INVALID_SIGNER\");\n        return\n            signer ==\n            ecrecover(\n                toTypedMessageHash(hashMetaTransaction(metaTx)),\n                sigV,\n                sigR,\n                sigS\n            );\n    }\n}",
  "sourcePath": "/Users/klleon/workspace/blockchain/vhuman/contracts/common/meta-transactions/NativeMetaTransaction.sol",
  "compiler": {
    "name": "solc",
    "version": "0.8.10+commit.fc410830.Emscripten.clang"
  },
  "schemaVersion": "3.4.3",
  "updatedAt": "2021-12-02T23:49:38.219Z",
  "devdoc": {
    "kind": "dev",
    "methods": {},
    "version": 1
  },
  "userdoc": {
    "kind": "user",
    "methods": {},
    "version": 1
  }
}