{
  "contractName": "ProxyRegistry",
  "abi": [
    {
      "inputs": [
        {
          "internalType": "address",
          "name": "",
          "type": "address"
        }
      ],
      "name": "proxies",
      "outputs": [
        {
          "internalType": "contract OwnableDelegateProxy",
          "name": "",
          "type": "address"
        }
      ],
      "stateMutability": "view",
      "type": "function"
    }
  ],
  "bytecode": "0x608060405234801561001057600080fd5b506101d3806100206000396000f3fe608060405234801561001057600080fd5b506004361061002b5760003560e01c8063c455279114610030575b600080fd5b61004a600480360381019061004591906100f6565b610060565b6040516100579190610182565b60405180910390f35b60006020528060005260406000206000915054906101000a900473ffffffffffffffffffffffffffffffffffffffff1681565b600080fd5b600073ffffffffffffffffffffffffffffffffffffffff82169050919050565b60006100c382610098565b9050919050565b6100d3816100b8565b81146100de57600080fd5b50565b6000813590506100f0816100ca565b92915050565b60006020828403121561010c5761010b610093565b5b600061011a848285016100e1565b91505092915050565b6000819050919050565b600061014861014361013e84610098565b610123565b610098565b9050919050565b600061015a8261012d565b9050919050565b600061016c8261014f565b9050919050565b61017c81610161565b82525050565b60006020820190506101976000830184610173565b9291505056fea2646970667358221220585605bff4c1a85709fd5de268573f6c8605f81c7301e1d56e6dcdc099f5bc5964736f6c634300080a0033",
  "immutableReferences": {},
  "source": "pragma solidity >=0.4.22 <0.9.0;\n\nimport \"@openzeppelin/contracts/token/ERC721/ERC721.sol\";\nimport \"@openzeppelin/contracts/token/ERC721/extensions/ERC721Enumerable.sol\";\nimport \"@openzeppelin/contracts/access/Ownable.sol\";\nimport \"@openzeppelin/contracts/utils/math/SafeMath.sol\";\nimport \"@openzeppelin/contracts/utils/Strings.sol\";\n\nimport \"./common/meta-transactions/ContentMixin.sol\";\nimport \"./common/meta-transactions/NativeMetaTransaction.sol\";\n\ncontract OwnableDelegateProxy {}\n\ncontract ProxyRegistry {\n    mapping(address => OwnableDelegateProxy) public proxies;\n}\n\n/**\n * @title ERC721Tradable\n * ERC721Tradable - ERC721 contract that whitelists a trading address, and has minting functionality.\n */\nabstract contract ERC721Tradable is ContextMixin, ERC721Enumerable, NativeMetaTransaction, Ownable {\n    using SafeMath for uint256;\n\n    address proxyRegistryAddress;\n    uint256 private _currentTokenId = 0;\n\n    constructor(\n        string memory _name,\n        string memory _symbol,\n        address _proxyRegistryAddress\n    ) ERC721(_name, _symbol) {\n        proxyRegistryAddress = _proxyRegistryAddress;\n        _initializeEIP712(_name);\n    }\n\n    /**\n     * @dev Mints a token to an address with a tokenURI.\n     * @param _to address of the future owner of the token\n     */\n    function mintTo(address _to) internal onlyOwner {\n        uint256 newTokenId = _getNextTokenId();\n        _mint(_to, newTokenId);\n        _incrementTokenId();\n    }\n\n    /**\n     * @dev calculates the next token ID based on value of _currentTokenId\n     * @return uint256 for the next token ID\n     */\n    function _getNextTokenId() private view returns (uint256) {\n        return _currentTokenId.add(1);\n    }\n\n    /**\n     * @dev increments the value of _currentTokenId\n     */\n    function _incrementTokenId() private {\n        _currentTokenId++;\n    }\n\n    function baseTokenURI() virtual public pure returns (string memory);\n\n    function tokenURI(uint256 _tokenId) override public pure returns (string memory) {\n        return string(abi.encodePacked(baseTokenURI(), Strings.toString(_tokenId)));\n    }\n\n    /**\n     * Override isApprovedForAll to whitelist user's OpenSea proxy accounts to enable gas-less listings.\n     */\n    function isApprovedForAll(address owner, address operator)\n        override\n        public\n        view\n        returns (bool)\n    {\n        // Whitelist OpenSea proxy contract for easy trading.\n        ProxyRegistry proxyRegistry = ProxyRegistry(proxyRegistryAddress);\n        if (address(proxyRegistry.proxies(owner)) == operator) {\n            return true;\n        }\n\n        return super.isApprovedForAll(owner, operator);\n    }\n\n    /**\n     * This is used instead of msg.sender as transactions won't be sent by the original token owner, but by OpenSea.\n     */\n    function _msgSender()\n        internal\n        override\n        view\n        returns (address sender)\n    {\n        return ContextMixin.msgSender();\n    }\n}",
  "sourcePath": "/Users/klleon/workspace/blockchain/vhuman/contracts/ERC721Tradable.sol",
  "compiler": {
    "name": "solc",
    "version": "0.8.10+commit.fc410830.Emscripten.clang"
  },
  "schemaVersion": "3.4.3",
  "updatedAt": "2021-12-02T23:49:38.180Z",
  "devdoc": {
    "kind": "dev",
    "methods": {},
    "version": 1
  },
  "userdoc": {
    "kind": "user",
    "methods": {},
    "version": 1
  }
}